{
  "_format": "hh-sol-artifact-1",
  "contractName": "Challenge",
  "sourceName": "smart_contract/contracts/Challenge.sol",
  "abi": [
    {
      "inputs": [],
      "stateMutability": "nonpayable",
      "type": "constructor"
    },
    {
      "inputs": [
        {
          "internalType": "string",
          "name": "message",
          "type": "string"
        }
      ],
      "name": "CantChange",
      "type": "error"
    },
    {
      "inputs": [
        {
          "internalType": "string",
          "name": "message",
          "type": "string"
        }
      ],
      "name": "DateExpired",
      "type": "error"
    },
    {
      "inputs": [
        {
          "internalType": "string",
          "name": "message",
          "type": "string"
        }
      ],
      "name": "InsufficientAmount",
      "type": "error"
    },
    {
      "inputs": [
        {
          "internalType": "string",
          "name": "message",
          "type": "string"
        }
      ],
      "name": "InvalidParams",
      "type": "error"
    },
    {
      "inputs": [
        {
          "internalType": "string",
          "name": "message",
          "type": "string"
        }
      ],
      "name": "NotFound",
      "type": "error"
    },
    {
      "anonymous": false,
      "inputs": [
        {
          "indexed": false,
          "internalType": "int256",
          "name": "num",
          "type": "int256"
        }
      ],
      "name": "Price",
      "type": "event"
    },
    {
      "inputs": [
        {
          "internalType": "uint256",
          "name": "_id",
          "type": "uint256"
        }
      ],
      "name": "accept",
      "outputs": [],
      "stateMutability": "payable",
      "type": "function"
    },
    {
      "inputs": [],
      "name": "allChallenges",
      "outputs": [
        {
          "components": [
            {
              "internalType": "uint256",
              "name": "id",
              "type": "uint256"
            },
            {
              "internalType": "string",
              "name": "name",
              "type": "string"
            },
            {
              "internalType": "string",
              "name": "description",
              "type": "string"
            },
            {
              "internalType": "uint256",
              "name": "cof",
              "type": "uint256"
            },
            {
              "internalType": "uint256",
              "name": "oracle_fee",
              "type": "uint256"
            },
            {
              "internalType": "address",
              "name": "maker",
              "type": "address"
            },
            {
              "internalType": "address",
              "name": "taker",
              "type": "address"
            },
            {
              "internalType": "address",
              "name": "oracle",
              "type": "address"
            },
            {
              "internalType": "address",
              "name": "winner",
              "type": "address"
            },
            {
              "internalType": "uint256",
              "name": "paid_maker",
              "type": "uint256"
            },
            {
              "internalType": "uint256",
              "name": "paid_taker",
              "type": "uint256"
            },
            {
              "internalType": "uint256",
              "name": "paid_oracle",
              "type": "uint256"
            },
            {
              "internalType": "enum Challenge.Type",
              "name": "c_type",
              "type": "uint8"
            },
            {
              "internalType": "uint256",
              "name": "created_date",
              "type": "uint256"
            },
            {
              "internalType": "uint256",
              "name": "deadline_date",
              "type": "uint256"
            },
            {
              "internalType": "bool",
              "name": "finished",
              "type": "bool"
            }
          ],
          "internalType": "struct Challenge.ChallengeStruct[]",
          "name": "",
          "type": "tuple[]"
        }
      ],
      "stateMutability": "view",
      "type": "function"
    },
    {
      "inputs": [],
      "name": "count",
      "outputs": [],
      "stateMutability": "nonpayable",
      "type": "function"
    },
    {
      "inputs": [
        {
          "internalType": "string",
          "name": "_name",
          "type": "string"
        },
        {
          "internalType": "string",
          "name": "_description",
          "type": "string"
        },
        {
          "internalType": "uint256",
          "name": "_cof",
          "type": "uint256"
        },
        {
          "internalType": "uint256",
          "name": "_oracle_fee",
          "type": "uint256"
        },
        {
          "internalType": "uint256",
          "name": "_deadline_date",
          "type": "uint256"
        },
        {
          "internalType": "address",
          "name": "_oracle",
          "type": "address"
        }
      ],
      "name": "create",
      "outputs": [],
      "stateMutability": "payable",
      "type": "function"
    },
    {
      "inputs": [
        {
          "internalType": "uint256",
          "name": "_id",
          "type": "uint256"
        }
      ],
      "name": "getById",
      "outputs": [
        {
          "components": [
            {
              "internalType": "uint256",
              "name": "id",
              "type": "uint256"
            },
            {
              "internalType": "string",
              "name": "name",
              "type": "string"
            },
            {
              "internalType": "string",
              "name": "description",
              "type": "string"
            },
            {
              "internalType": "uint256",
              "name": "cof",
              "type": "uint256"
            },
            {
              "internalType": "uint256",
              "name": "oracle_fee",
              "type": "uint256"
            },
            {
              "internalType": "address",
              "name": "maker",
              "type": "address"
            },
            {
              "internalType": "address",
              "name": "taker",
              "type": "address"
            },
            {
              "internalType": "address",
              "name": "oracle",
              "type": "address"
            },
            {
              "internalType": "address",
              "name": "winner",
              "type": "address"
            },
            {
              "internalType": "uint256",
              "name": "paid_maker",
              "type": "uint256"
            },
            {
              "internalType": "uint256",
              "name": "paid_taker",
              "type": "uint256"
            },
            {
              "internalType": "uint256",
              "name": "paid_oracle",
              "type": "uint256"
            },
            {
              "internalType": "enum Challenge.Type",
              "name": "c_type",
              "type": "uint8"
            },
            {
              "internalType": "uint256",
              "name": "created_date",
              "type": "uint256"
            },
            {
              "internalType": "uint256",
              "name": "deadline_date",
              "type": "uint256"
            },
            {
              "internalType": "bool",
              "name": "finished",
              "type": "bool"
            }
          ],
          "internalType": "struct Challenge.ChallengeStruct",
          "name": "",
          "type": "tuple"
        }
      ],
      "stateMutability": "view",
      "type": "function"
    },
    {
      "inputs": [],
      "name": "getLatestPrice",
      "outputs": [
        {
          "internalType": "int256",
          "name": "",
          "type": "int256"
        }
      ],
      "stateMutability": "view",
      "type": "function"
    },
    {
      "inputs": [],
      "name": "id",
      "outputs": [
        {
          "internalType": "uint256",
          "name": "",
          "type": "uint256"
        }
      ],
      "stateMutability": "view",
      "type": "function"
    },
    {
      "inputs": [],
      "name": "price",
      "outputs": [
        {
          "internalType": "int256",
          "name": "",
          "type": "int256"
        }
      ],
      "stateMutability": "view",
      "type": "function"
    },
    {
      "inputs": [
        {
          "internalType": "uint256",
          "name": "_id",
          "type": "uint256"
        }
      ],
      "name": "remove",
      "outputs": [
        {
          "internalType": "bool",
          "name": "",
          "type": "bool"
        }
      ],
      "stateMutability": "nonpayable",
      "type": "function"
    },
    {
      "inputs": [
        {
          "internalType": "uint256",
          "name": "_id",
          "type": "uint256"
        }
      ],
      "name": "setDraw",
      "outputs": [],
      "stateMutability": "nonpayable",
      "type": "function"
    },
    {
      "inputs": [
        {
          "internalType": "uint256",
          "name": "_id",
          "type": "uint256"
        },
        {
          "internalType": "address",
          "name": "_winner",
          "type": "address"
        }
      ],
      "name": "setWinner",
      "outputs": [],
      "stateMutability": "nonpayable",
      "type": "function"
    }
  ],
  "bytecode": "0x6080604052600060055534801561001557600080fd5b50730715a7794a1dc8e42615f059dd6e406a6594651a600460006101000a81548173ffffffffffffffffffffffffffffffffffffffff021916908373ffffffffffffffffffffffffffffffffffffffff1602179055506133bc8061007a6000396000f3fe60806040526004361061009c5760003560e01c80639c623683116100645780639c62368314610158578063a035b1fe14610181578063a3a503ac146101ac578063af640d0f146101d7578063b565783514610202578063f4f4d2371461022b5761009c565b806306661abd146100a157806319b05f49146100b85780631d2238b9146100d45780634cc82215146100f05780638e15f4731461012d575b600080fd5b3480156100ad57600080fd5b506100b6610268565b005b6100d260048036038101906100cd919061241c565b6102b1565b005b6100ee60048036038101906100e991906125ed565b6104b3565b005b3480156100fc57600080fd5b506101176004803603810190610112919061241c565b610872565b60405161012491906126cd565b60405180910390f35b34801561013957600080fd5b50610142610e98565b60405161014f9190612701565b60405180910390f35b34801561016457600080fd5b5061017f600480360381019061017a919061271c565b610f39565b005b34801561018d57600080fd5b506101966111cf565b6040516101a39190612701565b60405180910390f35b3480156101b857600080fd5b506101c16111d5565b6040516101ce9190612aa9565b60405180910390f35b3480156101e357600080fd5b506101ec6115b5565b6040516101f99190612ada565b60405180910390f35b34801561020e57600080fd5b506102296004803603810190610224919061241c565b6115bb565b005b34801561023757600080fd5b50610252600480360381019061024d919061241c565b611768565b60405161025f9190612c54565b60405180910390f35b610270610e98565b6005819055507fe317dab6c24412531a104b7fae35d5271976c773fae5615e5fba0b02347257686005546040516102a79190612701565b60405180910390a1565b60006102bc82611ab8565b90503373ffffffffffffffffffffffffffffffffffffffff168160e0015173ffffffffffffffffffffffffffffffffffffffff16148061032d5750600073ffffffffffffffffffffffffffffffffffffffff168160c0015173ffffffffffffffffffffffffffffffffffffffff1614155b1561036d576040517fef7d78ef00000000000000000000000000000000000000000000000000000000815260040161036490612cd3565b60405180910390fd5b60006103936103858361012001518460600151611e57565b670de0b6b3a7640000611e6d565b9050803410156103d8576040517f4817ec2e0000000000000000000000000000000000000000000000000000000081526004016103cf90612d3f565b60405180910390fd5b336001600085815260200190815260200160002060060160006101000a81548173ffffffffffffffffffffffffffffffffffffffff021916908373ffffffffffffffffffffffffffffffffffffffff1602179055503460016000858152602001908152602001600020600a0181905550600360003373ffffffffffffffffffffffffffffffffffffffff1673ffffffffffffffffffffffffffffffffffffffff168152602001908152602001600020839080600181540180825580915050600190039060005260206000200160009091909190915055505050565b60003410156104f7576040517f4817ec2e0000000000000000000000000000000000000000000000000000000081526004016104ee90612dab565b60405180910390fd5b61050082611e83565b50600061050b611ed6565b905060006040518061020001604052808381526020018981526020018881526020018781526020018681526020013373ffffffffffffffffffffffffffffffffffffffff168152602001600073ffffffffffffffffffffffffffffffffffffffff1681526020018473ffffffffffffffffffffffffffffffffffffffff168152602001600073ffffffffffffffffffffffffffffffffffffffff1681526020013481526020016000815260200160008152602001600060018111156105d3576105d261282e565b5b81526020014281526020018581526020016000151581525090508060016000848152602001908152602001600020600082015181600001556020820151816001019080519060200190610627929190612206565b506040820151816002019080519060200190610644929190612206565b50606082015181600301556080820151816004015560a08201518160050160006101000a81548173ffffffffffffffffffffffffffffffffffffffff021916908373ffffffffffffffffffffffffffffffffffffffff16021790555060c08201518160060160006101000a81548173ffffffffffffffffffffffffffffffffffffffff021916908373ffffffffffffffffffffffffffffffffffffffff16021790555060e08201518160070160006101000a81548173ffffffffffffffffffffffffffffffffffffffff021916908373ffffffffffffffffffffffffffffffffffffffff1602179055506101008201518160080160006101000a81548173ffffffffffffffffffffffffffffffffffffffff021916908373ffffffffffffffffffffffffffffffffffffffff160217905550610120820151816009015561014082015181600a015561016082015181600b015561018082015181600c0160006101000a81548160ff021916908360018111156107c3576107c261282e565b5b02179055506101a082015181600d01556101c082015181600e01556101e082015181600f0160006101000a81548160ff021916908315150217905550905050600260003373ffffffffffffffffffffffffffffffffffffffff1673ffffffffffffffffffffffffffffffffffffffff1681526020019081526020016000208290806001815401808255809150506001900390600052602060002001600090919091909150555050505050505050565b6000806001600084815260200190815260200160002060405180610200016040529081600082015481526020016001820180546108ae90612dfa565b80601f01602080910402602001604051908101604052809291908181526020018280546108da90612dfa565b80156109275780601f106108fc57610100808354040283529160200191610927565b820191906000526020600020905b81548152906001019060200180831161090a57829003601f168201915b5050505050815260200160028201805461094090612dfa565b80601f016020809104026020016040519081016040528092919081815260200182805461096c90612dfa565b80156109b95780601f1061098e576101008083540402835291602001916109b9565b820191906000526020600020905b81548152906001019060200180831161099c57829003601f168201915b5050505050815260200160038201548152602001600482015481526020016005820160009054906101000a900473ffffffffffffffffffffffffffffffffffffffff1673ffffffffffffffffffffffffffffffffffffffff1673ffffffffffffffffffffffffffffffffffffffff1681526020016006820160009054906101000a900473ffffffffffffffffffffffffffffffffffffffff1673ffffffffffffffffffffffffffffffffffffffff1673ffffffffffffffffffffffffffffffffffffffff1681526020016007820160009054906101000a900473ffffffffffffffffffffffffffffffffffffffff1673ffffffffffffffffffffffffffffffffffffffff1673ffffffffffffffffffffffffffffffffffffffff1681526020016008820160009054906101000a900473ffffffffffffffffffffffffffffffffffffffff1673ffffffffffffffffffffffffffffffffffffffff1673ffffffffffffffffffffffffffffffffffffffff16815260200160098201548152602001600a8201548152602001600b8201548152602001600c820160009054906101000a900460ff166001811115610b7157610b7061282e565b5b6001811115610b8357610b8261282e565b5b8152602001600d8201548152602001600e8201548152602001600f820160009054906101000a900460ff16151515158152505090503373ffffffffffffffffffffffffffffffffffffffff168160a0015173ffffffffffffffffffffffffffffffffffffffff16141580610c285750600073ffffffffffffffffffffffffffffffffffffffff168160c0015173ffffffffffffffffffffffffffffffffffffffff1614155b15610c68576040517fef7d78ef000000000000000000000000000000000000000000000000000000008152600401610c5f90612e78565b60405180910390fd5b60016000848152602001908152602001600020600080820160009055600182016000610c94919061228c565b600282016000610ca4919061228c565b600382016000905560048201600090556005820160006101000a81549073ffffffffffffffffffffffffffffffffffffffff02191690556006820160006101000a81549073ffffffffffffffffffffffffffffffffffffffff02191690556007820160006101000a81549073ffffffffffffffffffffffffffffffffffffffff02191690556008820160006101000a81549073ffffffffffffffffffffffffffffffffffffffff02191690556009820160009055600a820160009055600b820160009055600c820160006101000a81549060ff0219169055600d820160009055600e820160009055600f820160006101000a81549060ff02191690555050600080610ded85600260003373ffffffffffffffffffffffffffffffffffffffff1673ffffffffffffffffffffffffffffffffffffffff168152602001908152602001600020611ef3565b915091508015610e8c573373ffffffffffffffffffffffffffffffffffffffff166108fc8461012001519081150290604051600060405180830381858888f19350505050158015610e42573d6000803e3d6000fd5b50610e8b82600260003373ffffffffffffffffffffffffffffffffffffffff1673ffffffffffffffffffffffffffffffffffffffff168152602001908152602001600020611f58565b5b60019350505050919050565b600080600460009054906101000a900473ffffffffffffffffffffffffffffffffffffffff1673ffffffffffffffffffffffffffffffffffffffff1663feaf968c6040518163ffffffff1660e01b815260040160a060405180830381865afa158015610f08573d6000803e3d6000fd5b505050506040513d601f19601f82011682018060405250810190610f2c9190612f1b565b5050509150508091505090565b6000610f4483611ab8565b9050610f4f81612011565b508060a0015173ffffffffffffffffffffffffffffffffffffffff168273ffffffffffffffffffffffffffffffffffffffff161480610fbd57508060c0015173ffffffffffffffffffffffffffffffffffffffff168273ffffffffffffffffffffffffffffffffffffffff16145b1561118f57600080610fce836120ed565b9150915060008214611041578260e0015173ffffffffffffffffffffffffffffffffffffffff166108fc839081150290604051600060405180830381858888f19350505050158015611024573d6000803e3d6000fd5b508160016000878152602001908152602001600020600b01819055505b60008114611105578373ffffffffffffffffffffffffffffffffffffffff166108fc829081150290604051600060405180830381858888f1935050505015801561108f573d6000803e3d6000fd5b508260a0015173ffffffffffffffffffffffffffffffffffffffff168473ffffffffffffffffffffffffffffffffffffffff1614156110e857806001600087815260200190815260200160002060090181905550611104565b8060016000878152602001908152602001600020600a01819055505b5b836001600087815260200190815260200160002060080160006101000a81548173ffffffffffffffffffffffffffffffffffffffff021916908373ffffffffffffffffffffffffffffffffffffffff1602179055506001806000878152602001908152602001600020600f0160006101000a81548160ff02191690831515021790555050506111ca565b6040517fa8c278dd0000000000000000000000000000000000000000000000000000000081526004016111c190612fe2565b60405180910390fd5b505050565b60055481565b60606000805467ffffffffffffffff8111156111f4576111f3612464565b5b60405190808252806020026020018201604052801561122d57816020015b61121a6122cc565b8152602001906001900390816112125790505b50905060005b6000548110156115ad5760016000828152602001908152602001600020604051806102000160405290816000820154815260200160018201805461127690612dfa565b80601f01602080910402602001604051908101604052809291908181526020018280546112a290612dfa565b80156112ef5780601f106112c4576101008083540402835291602001916112ef565b820191906000526020600020905b8154815290600101906020018083116112d257829003601f168201915b5050505050815260200160028201805461130890612dfa565b80601f016020809104026020016040519081016040528092919081815260200182805461133490612dfa565b80156113815780601f1061135657610100808354040283529160200191611381565b820191906000526020600020905b81548152906001019060200180831161136457829003601f168201915b5050505050815260200160038201548152602001600482015481526020016005820160009054906101000a900473ffffffffffffffffffffffffffffffffffffffff1673ffffffffffffffffffffffffffffffffffffffff1673ffffffffffffffffffffffffffffffffffffffff1681526020016006820160009054906101000a900473ffffffffffffffffffffffffffffffffffffffff1673ffffffffffffffffffffffffffffffffffffffff1673ffffffffffffffffffffffffffffffffffffffff1681526020016007820160009054906101000a900473ffffffffffffffffffffffffffffffffffffffff1673ffffffffffffffffffffffffffffffffffffffff1673ffffffffffffffffffffffffffffffffffffffff1681526020016008820160009054906101000a900473ffffffffffffffffffffffffffffffffffffffff1673ffffffffffffffffffffffffffffffffffffffff1673ffffffffffffffffffffffffffffffffffffffff16815260200160098201548152602001600a8201548152602001600b8201548152602001600c820160009054906101000a900460ff1660018111156115395761153861282e565b5b600181111561154b5761154a61282e565b5b8152602001600d8201548152602001600e8201548152602001600f820160009054906101000a900460ff16151515158152505082828151811061159157611590613002565b5b6020026020010181905250806115a690613060565b9050611233565b508091505090565b60005481565b60006115c682611ab8565b90506115d181612011565b5060008060006115e084612142565b92509250925060008314611655578360e0015173ffffffffffffffffffffffffffffffffffffffff166108fc849081150290604051600060405180830381858888f19350505050158015611638573d6000803e3d6000fd5b508260016000878152602001908152602001600020600b01819055505b600082146116c4578360a0015173ffffffffffffffffffffffffffffffffffffffff166108fc839081150290604051600060405180830381858888f193505050501580156116a7573d6000803e3d6000fd5b508160016000878152602001908152602001600020600901819055505b60008114611733578360c0015173ffffffffffffffffffffffffffffffffffffffff166108fc829081150290604051600060405180830381858888f19350505050158015611716573d6000803e3d6000fd5b508060016000878152602001908152602001600020600a01819055505b6001806000878152602001908152602001600020600f0160006101000a81548160ff0219169083151502179055505050505050565b6117706122cc565b6001600083815260200190815260200160002060405180610200016040529081600082015481526020016001820180546117a990612dfa565b80601f01602080910402602001604051908101604052809291908181526020018280546117d590612dfa565b80156118225780601f106117f757610100808354040283529160200191611822565b820191906000526020600020905b81548152906001019060200180831161180557829003601f168201915b5050505050815260200160028201805461183b90612dfa565b80601f016020809104026020016040519081016040528092919081815260200182805461186790612dfa565b80156118b45780601f10611889576101008083540402835291602001916118b4565b820191906000526020600020905b81548152906001019060200180831161189757829003601f168201915b5050505050815260200160038201548152602001600482015481526020016005820160009054906101000a900473ffffffffffffffffffffffffffffffffffffffff1673ffffffffffffffffffffffffffffffffffffffff1673ffffffffffffffffffffffffffffffffffffffff1681526020016006820160009054906101000a900473ffffffffffffffffffffffffffffffffffffffff1673ffffffffffffffffffffffffffffffffffffffff1673ffffffffffffffffffffffffffffffffffffffff1681526020016007820160009054906101000a900473ffffffffffffffffffffffffffffffffffffffff1673ffffffffffffffffffffffffffffffffffffffff1673ffffffffffffffffffffffffffffffffffffffff1681526020016008820160009054906101000a900473ffffffffffffffffffffffffffffffffffffffff1673ffffffffffffffffffffffffffffffffffffffff1673ffffffffffffffffffffffffffffffffffffffff16815260200160098201548152602001600a8201548152602001600b8201548152602001600c820160009054906101000a900460ff166001811115611a6c57611a6b61282e565b5b6001811115611a7e57611a7d61282e565b5b8152602001600d8201548152602001600e8201548152602001600f820160009054906101000a900460ff1615151515815250509050919050565b611ac06122cc565b6000600160008481526020019081526020016000206040518061020001604052908160008201548152602001600182018054611afb90612dfa565b80601f0160208091040260200160405190810160405280929190818152602001828054611b2790612dfa565b8015611b745780601f10611b4957610100808354040283529160200191611b74565b820191906000526020600020905b815481529060010190602001808311611b5757829003601f168201915b50505050508152602001600282018054611b8d90612dfa565b80601f0160208091040260200160405190810160405280929190818152602001828054611bb990612dfa565b8015611c065780601f10611bdb57610100808354040283529160200191611c06565b820191906000526020600020905b815481529060010190602001808311611be957829003601f168201915b5050505050815260200160038201548152602001600482015481526020016005820160009054906101000a900473ffffffffffffffffffffffffffffffffffffffff1673ffffffffffffffffffffffffffffffffffffffff1673ffffffffffffffffffffffffffffffffffffffff1681526020016006820160009054906101000a900473ffffffffffffffffffffffffffffffffffffffff1673ffffffffffffffffffffffffffffffffffffffff1673ffffffffffffffffffffffffffffffffffffffff1681526020016007820160009054906101000a900473ffffffffffffffffffffffffffffffffffffffff1673ffffffffffffffffffffffffffffffffffffffff1673ffffffffffffffffffffffffffffffffffffffff1681526020016008820160009054906101000a900473ffffffffffffffffffffffffffffffffffffffff1673ffffffffffffffffffffffffffffffffffffffff1673ffffffffffffffffffffffffffffffffffffffff16815260200160098201548152602001600a8201548152602001600b8201548152602001600c820160009054906101000a900460ff166001811115611dbe57611dbd61282e565b5b6001811115611dd057611dcf61282e565b5b8152602001600d8201548152602001600e8201548152602001600f820160009054906101000a900460ff161515151581525050905060008161012001511415611e4e576040517f607be5dc000000000000000000000000000000000000000000000000000000008152600401611e45906130f5565b60405180910390fd5b80915050919050565b60008183611e659190613115565b905092915050565b60008183611e7b919061319e565b905092915050565b6000808242101590508015611ecd576040517fed731ed7000000000000000000000000000000000000000000000000000000008152600401611ec49061321b565b60405180910390fd5b80915050919050565b6000806000815480929190611eea90613060565b91905055905090565b60008060005b8380549050811015611f485784848281548110611f1957611f18613002565b5b90600052602060002001541415611f37578060019250925050611f51565b80611f4190613060565b9050611ef9565b50600080915091505b9250929050565b80805490508210611f685761200d565b60008290505b60018280549050611f7f919061323b565b811015611fe45781600182611f94919061326f565b81548110611fa557611fa4613002565b5b9060005260206000200154828281548110611fc357611fc2613002565b5b90600052602060002001819055508080611fdc90613060565b915050611f6e565b5080805480611ff657611ff56132c5565b5b600190038181906000526020600020016000905590555b5050565b60003373ffffffffffffffffffffffffffffffffffffffff168260e0015173ffffffffffffffffffffffffffffffffffffffff161415806120845750600073ffffffffffffffffffffffffffffffffffffffff1682610100015173ffffffffffffffffffffffffffffffffffffffff1614155b8061209457506000826101200151145b806120a457506000826101400151145b156120e4576040517fef7d78ef0000000000000000000000000000000000000000000000000000000081526004016120db90613366565b60405180910390fd5b60019050919050565b60008060006121068461012001518561014001516121f0565b9050600061212261211b838760800151611e57565b6064611e6d565b905060008183612132919061323b565b9050818194509450505050915091565b60008060008061215c8561012001518661014001516121f0565b90506000612178612171838860800151611e57565b6064611e6d565b905060006121996121928861012001518960800151611e57565b6064611e6d565b8761012001516121a9919061323b565b905060006121ca6121c38961014001518a60800151611e57565b6064611e6d565b8861014001516121da919061323b565b9050828282965096509650505050509193909250565b600081836121fe919061326f565b905092915050565b82805461221290612dfa565b90600052602060002090601f016020900481019282612234576000855561227b565b82601f1061224d57805160ff191683800117855561227b565b8280016001018555821561227b579182015b8281111561227a57825182559160200191906001019061225f565b5b50905061228891906123b5565b5090565b50805461229890612dfa565b6000825580601f106122aa57506122c9565b601f0160209004906000526020600020908101906122c891906123b5565b5b50565b6040518061020001604052806000815260200160608152602001606081526020016000815260200160008152602001600073ffffffffffffffffffffffffffffffffffffffff168152602001600073ffffffffffffffffffffffffffffffffffffffff168152602001600073ffffffffffffffffffffffffffffffffffffffff168152602001600073ffffffffffffffffffffffffffffffffffffffff168152602001600081526020016000815260200160008152602001600060018111156123985761239761282e565b5b815260200160008152602001600081526020016000151581525090565b5b808211156123ce5760008160009055506001016123b6565b5090565b6000604051905090565b600080fd5b600080fd5b6000819050919050565b6123f9816123e6565b811461240457600080fd5b50565b600081359050612416816123f0565b92915050565b600060208284031215612432576124316123dc565b5b600061244084828501612407565b91505092915050565b600080fd5b600080fd5b6000601f19601f8301169050919050565b7f4e487b7100000000000000000000000000000000000000000000000000000000600052604160045260246000fd5b61249c82612453565b810181811067ffffffffffffffff821117156124bb576124ba612464565b5b80604052505050565b60006124ce6123d2565b90506124da8282612493565b919050565b600067ffffffffffffffff8211156124fa576124f9612464565b5b61250382612453565b9050602081019050919050565b82818337600083830152505050565b600061253261252d846124df565b6124c4565b90508281526020810184848401111561254e5761254d61244e565b5b612559848285612510565b509392505050565b600082601f83011261257657612575612449565b5b813561258684826020860161251f565b91505092915050565b600073ffffffffffffffffffffffffffffffffffffffff82169050919050565b60006125ba8261258f565b9050919050565b6125ca816125af565b81146125d557600080fd5b50565b6000813590506125e7816125c1565b92915050565b60008060008060008060c0878903121561260a576126096123dc565b5b600087013567ffffffffffffffff811115612628576126276123e1565b5b61263489828a01612561565b965050602087013567ffffffffffffffff811115612655576126546123e1565b5b61266189828a01612561565b955050604061267289828a01612407565b945050606061268389828a01612407565b935050608061269489828a01612407565b92505060a06126a589828a016125d8565b9150509295509295509295565b60008115159050919050565b6126c7816126b2565b82525050565b60006020820190506126e260008301846126be565b92915050565b6000819050919050565b6126fb816126e8565b82525050565b600060208201905061271660008301846126f2565b92915050565b60008060408385031215612733576127326123dc565b5b600061274185828601612407565b9250506020612752858286016125d8565b9150509250929050565b600081519050919050565b600082825260208201905092915050565b6000819050602082019050919050565b612791816123e6565b82525050565b600081519050919050565b600082825260208201905092915050565b60005b838110156127d15780820151818401526020810190506127b6565b838111156127e0576000848401525b50505050565b60006127f182612797565b6127fb81856127a2565b935061280b8185602086016127b3565b61281481612453565b840191505092915050565b612828816125af565b82525050565b7f4e487b7100000000000000000000000000000000000000000000000000000000600052602160045260246000fd5b6002811061286e5761286d61282e565b5b50565b600081905061287f8261285d565b919050565b600061288f82612871565b9050919050565b61289f81612884565b82525050565b6128ae816126b2565b82525050565b6000610200830160008301516128cd6000860182612788565b50602083015184820360208601526128e582826127e6565b915050604083015184820360408601526128ff82826127e6565b91505060608301516129146060860182612788565b5060808301516129276080860182612788565b5060a083015161293a60a086018261281f565b5060c083015161294d60c086018261281f565b5060e083015161296060e086018261281f565b5061010083015161297561010086018261281f565b5061012083015161298a610120860182612788565b5061014083015161299f610140860182612788565b506101608301516129b4610160860182612788565b506101808301516129c9610180860182612896565b506101a08301516129de6101a0860182612788565b506101c08301516129f36101c0860182612788565b506101e0830151612a086101e08601826128a5565b508091505092915050565b6000612a1f83836128b4565b905092915050565b6000602082019050919050565b6000612a3f8261275c565b612a498185612767565b935083602082028501612a5b85612778565b8060005b85811015612a975784840389528151612a788582612a13565b9450612a8383612a27565b925060208a01995050600181019050612a5f565b50829750879550505050505092915050565b60006020820190508181036000830152612ac38184612a34565b905092915050565b612ad4816123e6565b82525050565b6000602082019050612aef6000830184612acb565b92915050565b600061020083016000830151612b0e6000860182612788565b5060208301518482036020860152612b2682826127e6565b91505060408301518482036040860152612b4082826127e6565b9150506060830151612b556060860182612788565b506080830151612b686080860182612788565b5060a0830151612b7b60a086018261281f565b5060c0830151612b8e60c086018261281f565b5060e0830151612ba160e086018261281f565b50610100830151612bb661010086018261281f565b50610120830151612bcb610120860182612788565b50610140830151612be0610140860182612788565b50610160830151612bf5610160860182612788565b50610180830151612c0a610180860182612896565b506101a0830151612c1f6101a0860182612788565b506101c0830151612c346101c0860182612788565b506101e0830151612c496101e08601826128a5565b508091505092915050565b60006020820190508181036000830152612c6e8184612af5565b905092915050565b600082825260208201905092915050565b7f4163657074206572726f72000000000000000000000000000000000000000000600082015250565b6000612cbd600b83612c76565b9150612cc882612c87565b602082019050919050565b60006020820190508181036000830152612cec81612cb0565b9050919050565b7f496e73756666696369656e742066756e64730000000000000000000000000000600082015250565b6000612d29601283612c76565b9150612d3482612cf3565b602082019050919050565b60006020820190508181036000830152612d5881612d1c565b9050919050565b7f596f752073686f756c642061747461636820736f6d65204465706f7369740000600082015250565b6000612d95601e83612c76565b9150612da082612d5f565b602082019050919050565b60006020820190508181036000830152612dc481612d88565b9050919050565b7f4e487b7100000000000000000000000000000000000000000000000000000000600052602260045260246000fd5b60006002820490506001821680612e1257607f821691505b60208210811415612e2657612e25612dcb565b5b50919050565b7f596f752063616e27742072656d6f7665204368616c6c656e6765000000000000600082015250565b6000612e62601a83612c76565b9150612e6d82612e2c565b602082019050919050565b60006020820190508181036000830152612e9181612e55565b9050919050565b600069ffffffffffffffffffff82169050919050565b612eb781612e98565b8114612ec257600080fd5b50565b600081519050612ed481612eae565b92915050565b612ee3816126e8565b8114612eee57600080fd5b50565b600081519050612f0081612eda565b92915050565b600081519050612f15816123f0565b92915050565b600080600080600060a08688031215612f3757612f366123dc565b5b6000612f4588828901612ec5565b9550506020612f5688828901612ef1565b9450506040612f6788828901612f06565b9350506060612f7888828901612f06565b9250506080612f8988828901612ec5565b9150509295509295909350565b7f496e76616c69642077696e6e6572206164647265737300000000000000000000600082015250565b6000612fcc601683612c76565b9150612fd782612f96565b602082019050919050565b60006020820190508181036000830152612ffb81612fbf565b9050919050565b7f4e487b7100000000000000000000000000000000000000000000000000000000600052603260045260246000fd5b7f4e487b7100000000000000000000000000000000000000000000000000000000600052601160045260246000fd5b600061306b826123e6565b91507fffffffffffffffffffffffffffffffffffffffffffffffffffffffffffffffff82141561309e5761309d613031565b5b600182019050919050565b7f4974656d206e6f7420666f756e64000000000000000000000000000000000000600082015250565b60006130df600e83612c76565b91506130ea826130a9565b602082019050919050565b6000602082019050818103600083015261310e816130d2565b9050919050565b6000613120826123e6565b915061312b836123e6565b9250817fffffffffffffffffffffffffffffffffffffffffffffffffffffffffffffffff048311821515161561316457613163613031565b5b828202905092915050565b7f4e487b7100000000000000000000000000000000000000000000000000000000600052601260045260246000fd5b60006131a9826123e6565b91506131b4836123e6565b9250826131c4576131c361316f565b5b828204905092915050565b7f446561646c696e65207761732065787069726564000000000000000000000000600082015250565b6000613205601483612c76565b9150613210826131cf565b602082019050919050565b60006020820190508181036000830152613234816131f8565b9050919050565b6000613246826123e6565b9150613251836123e6565b92508282101561326457613263613031565b5b828203905092915050565b600061327a826123e6565b9150613285836123e6565b9250827fffffffffffffffffffffffffffffffffffffffffffffffffffffffffffffffff038211156132ba576132b9613031565b5b828201905092915050565b7f4e487b7100000000000000000000000000000000000000000000000000000000600052603160045260246000fd5b7f596f752063616e2774207365742077696e6e657220746f20746869732043686160008201527f6c6c656e67650000000000000000000000000000000000000000000000000000602082015250565b6000613350602683612c76565b915061335b826132f4565b604082019050919050565b6000602082019050818103600083015261337f81613343565b905091905056fea264697066735822122052f58a4d94866db2fa32dcb889bc62a6264fd4d4fbb2cd3952e08bb5c7120dca64736f6c634300080c0033",
  "linkReferences": {},
  "deployedLinkReferences": {}
}