{
  "_format": "hh-sol-artifact-1",
  "contractName": "AutomationContract",
  "sourceName": "smart_contract/contracts/AutomationContract.sol",
  "abi": [
    {
      "inputs": [],
      "stateMutability": "nonpayable",
      "type": "constructor"
    },
    {
      "inputs": [],
      "name": "OnlyOwner",
      "type": "error"
    },
    {
      "anonymous": false,
      "inputs": [
        {
          "indexed": false,
          "internalType": "address",
          "name": "account",
          "type": "address"
        }
      ],
      "name": "Paused",
      "type": "event"
    },
    {
      "anonymous": false,
      "inputs": [
        {
          "indexed": false,
          "internalType": "address",
          "name": "account",
          "type": "address"
        }
      ],
      "name": "Unpaused",
      "type": "event"
    },
    {
      "anonymous": false,
      "inputs": [
        {
          "indexed": false,
          "internalType": "int256",
          "name": "price",
          "type": "int256"
        }
      ],
      "name": "UpdatePrice",
      "type": "event"
    },
    {
      "inputs": [
        {
          "internalType": "bytes",
          "name": "",
          "type": "bytes"
        }
      ],
      "name": "checkUpkeep",
      "outputs": [
        {
          "internalType": "bool",
          "name": "upkeepNeeded",
          "type": "bool"
        },
        {
          "internalType": "bytes",
          "name": "performData",
          "type": "bytes"
        }
      ],
      "stateMutability": "view",
      "type": "function"
    },
    {
      "inputs": [],
      "name": "getLatestPrice",
      "outputs": [
        {
          "internalType": "int256",
          "name": "",
          "type": "int256"
        }
      ],
      "stateMutability": "view",
      "type": "function"
    },
    {
      "inputs": [],
      "name": "interval",
      "outputs": [
        {
          "internalType": "uint256",
          "name": "",
          "type": "uint256"
        }
      ],
      "stateMutability": "view",
      "type": "function"
    },
    {
      "inputs": [],
      "name": "lastTimeStamp",
      "outputs": [
        {
          "internalType": "uint256",
          "name": "",
          "type": "uint256"
        }
      ],
      "stateMutability": "view",
      "type": "function"
    },
    {
      "inputs": [],
      "name": "pause",
      "outputs": [],
      "stateMutability": "nonpayable",
      "type": "function"
    },
    {
      "inputs": [],
      "name": "paused",
      "outputs": [
        {
          "internalType": "bool",
          "name": "",
          "type": "bool"
        }
      ],
      "stateMutability": "view",
      "type": "function"
    },
    {
      "inputs": [
        {
          "internalType": "bytes",
          "name": "performData",
          "type": "bytes"
        }
      ],
      "name": "performUpkeep",
      "outputs": [],
      "stateMutability": "nonpayable",
      "type": "function"
    },
    {
      "inputs": [],
      "name": "unpause",
      "outputs": [],
      "stateMutability": "nonpayable",
      "type": "function"
    }
  ],
  "bytecode": "0x60a0604052607860809081525034801561001857600080fd5b5060008060006101000a81548160ff021916908315150217905550730fcaa9c899ec5a91ebc3d5dd869de833b06fb046600360006101000a81548173ffffffffffffffffffffffffffffffffffffffff021916908373ffffffffffffffffffffffffffffffffffffffff16021790555033600060016101000a81548173ffffffffffffffffffffffffffffffffffffffff021916908373ffffffffffffffffffffffffffffffffffffffff160217905550608051610a966100eb6000396000818161027c01526103ff0152610a966000f3fe608060405234801561001057600080fd5b50600436106100885760003560e01c80636e04ff0d1161005b5780636e04ff0d146100ef5780638456cb59146101205780638e15f4731461012a578063947a36fb1461014857610088565b80633f3b3b271461008d5780633f4ba83a146100ab5780634585e33b146100b55780635c975abb146100d1575b600080fd5b610095610166565b6040516100a29190610599565b60405180910390f35b6100b361016c565b005b6100cf60048036038101906100ca9190610623565b6101fe565b005b6100d9610258565b6040516100e6919061068b565b60405180910390f35b61010960048036038101906101049190610623565b61026e565b60405161011792919061073f565b60405180910390f35b6101286102ca565b005b61013261035c565b60405161013f9190610788565b60405180910390f35b6101506103fd565b60405161015d9190610599565b60405180910390f35b60025481565b600060019054906101000a900473ffffffffffffffffffffffffffffffffffffffff1673ffffffffffffffffffffffffffffffffffffffff163373ffffffffffffffffffffffffffffffffffffffff1614156101f4576040517f5fc483c500000000000000000000000000000000000000000000000000000000815260040160405180910390fd5b6101fc610421565b565b610206610483565b4260028190555061021561035c565b6001819055507f94647bcdeafb3469ef8450a4a0da0ae21ec43118d2010d895b328ef01cba062b60015460405161024c9190610788565b60405180910390a15050565b60008060009054906101000a900460ff16905090565b6000606061027a610483565b7f0000000000000000000000000000000000000000000000000000000000000000600254426102a991906107d2565b11915060405160200160405160208183030381529060405290509250929050565b600060019054906101000a900473ffffffffffffffffffffffffffffffffffffffff1673ffffffffffffffffffffffffffffffffffffffff163373ffffffffffffffffffffffffffffffffffffffff161415610352576040517f5fc483c500000000000000000000000000000000000000000000000000000000815260040160405180910390fd5b61035a6104cd565b565b600080600360009054906101000a900473ffffffffffffffffffffffffffffffffffffffff1673ffffffffffffffffffffffffffffffffffffffff1663feaf968c6040518163ffffffff1660e01b815260040160a060405180830381865afa1580156103cc573d6000803e3d6000fd5b505050506040513d601f19601f820116820180604052508101906103f091906108a0565b5050509150508091505090565b7f000000000000000000000000000000000000000000000000000000000000000081565b61042961052f565b60008060006101000a81548160ff0219169083151502179055507f5db9ee0a495bf2e6ff9c91a7834c1ba4fdd244a5e8aa4e537bd38aeae4b073aa61046c610578565b604051610479919061095c565b60405180910390a1565b61048b610258565b156104cb576040517f08c379a00000000000000000000000000000000000000000000000000000000081526004016104c2906109d4565b60405180910390fd5b565b6104d5610483565b60016000806101000a81548160ff0219169083151502179055507f62e78cea01bee320cd4e420270b5ea74000d11b0c9f74754ebdbfc544b05a258610518610578565b604051610525919061095c565b60405180910390a1565b610537610258565b610576576040517f08c379a000000000000000000000000000000000000000000000000000000000815260040161056d90610a40565b60405180910390fd5b565b600033905090565b6000819050919050565b61059381610580565b82525050565b60006020820190506105ae600083018461058a565b92915050565b600080fd5b600080fd5b600080fd5b600080fd5b600080fd5b60008083601f8401126105e3576105e26105be565b5b8235905067ffffffffffffffff811115610600576105ff6105c3565b5b60208301915083600182028301111561061c5761061b6105c8565b5b9250929050565b6000806020838503121561063a576106396105b4565b5b600083013567ffffffffffffffff811115610658576106576105b9565b5b610664858286016105cd565b92509250509250929050565b60008115159050919050565b61068581610670565b82525050565b60006020820190506106a0600083018461067c565b92915050565b600081519050919050565b600082825260208201905092915050565b60005b838110156106e05780820151818401526020810190506106c5565b838111156106ef576000848401525b50505050565b6000601f19601f8301169050919050565b6000610711826106a6565b61071b81856106b1565b935061072b8185602086016106c2565b610734816106f5565b840191505092915050565b6000604082019050610754600083018561067c565b81810360208301526107668184610706565b90509392505050565b6000819050919050565b6107828161076f565b82525050565b600060208201905061079d6000830184610779565b92915050565b7f4e487b7100000000000000000000000000000000000000000000000000000000600052601160045260246000fd5b60006107dd82610580565b91506107e883610580565b9250828210156107fb576107fa6107a3565b5b828203905092915050565b600069ffffffffffffffffffff82169050919050565b61082581610806565b811461083057600080fd5b50565b6000815190506108428161081c565b92915050565b6108518161076f565b811461085c57600080fd5b50565b60008151905061086e81610848565b92915050565b61087d81610580565b811461088857600080fd5b50565b60008151905061089a81610874565b92915050565b600080600080600060a086880312156108bc576108bb6105b4565b5b60006108ca88828901610833565b95505060206108db8882890161085f565b94505060406108ec8882890161088b565b93505060606108fd8882890161088b565b925050608061090e88828901610833565b9150509295509295909350565b600073ffffffffffffffffffffffffffffffffffffffff82169050919050565b60006109468261091b565b9050919050565b6109568161093b565b82525050565b6000602082019050610971600083018461094d565b92915050565b600082825260208201905092915050565b7f5061757361626c653a2070617573656400000000000000000000000000000000600082015250565b60006109be601083610977565b91506109c982610988565b602082019050919050565b600060208201905081810360008301526109ed816109b1565b9050919050565b7f5061757361626c653a206e6f7420706175736564000000000000000000000000600082015250565b6000610a2a601483610977565b9150610a35826109f4565b602082019050919050565b60006020820190508181036000830152610a5981610a1d565b905091905056fea2646970667358221220c39564e9ef51e56d7a07441ac99b0cfc01daa72331dccf6076e70e73963b224e64736f6c634300080c0033",
  "linkReferences": {},
  "deployedLinkReferences": {}
}