{
  "_format": "hh-sol-artifact-1",
  "contractName": "Challenge",
  "sourceName": "smart_contract/contracts/Challenge.sol",
  "abi": [
    {
      "inputs": [
        {
          "internalType": "string",
          "name": "message",
          "type": "string"
        }
      ],
      "name": "CantChange",
      "type": "error"
    },
    {
      "inputs": [
        {
          "internalType": "string",
          "name": "message",
          "type": "string"
        }
      ],
      "name": "DateExpired",
      "type": "error"
    },
    {
      "inputs": [
        {
          "internalType": "string",
          "name": "message",
          "type": "string"
        }
      ],
      "name": "InsufficientAmount",
      "type": "error"
    },
    {
      "inputs": [
        {
          "internalType": "string",
          "name": "message",
          "type": "string"
        }
      ],
      "name": "InvalidParams",
      "type": "error"
    },
    {
      "inputs": [
        {
          "internalType": "string",
          "name": "message",
          "type": "string"
        }
      ],
      "name": "NotFound",
      "type": "error"
    },
    {
      "inputs": [
        {
          "internalType": "uint256",
          "name": "_id",
          "type": "uint256"
        }
      ],
      "name": "accept",
      "outputs": [],
      "stateMutability": "payable",
      "type": "function"
    },
    {
      "inputs": [],
      "name": "allChallenges",
      "outputs": [
        {
          "components": [
            {
              "internalType": "uint256",
              "name": "id",
              "type": "uint256"
            },
            {
              "internalType": "string",
              "name": "name",
              "type": "string"
            },
            {
              "internalType": "string",
              "name": "description",
              "type": "string"
            },
            {
              "internalType": "uint256",
              "name": "cof",
              "type": "uint256"
            },
            {
              "internalType": "uint256",
              "name": "oracle_fee",
              "type": "uint256"
            },
            {
              "internalType": "address",
              "name": "maker",
              "type": "address"
            },
            {
              "internalType": "address",
              "name": "taker",
              "type": "address"
            },
            {
              "internalType": "address",
              "name": "oracle",
              "type": "address"
            },
            {
              "internalType": "address",
              "name": "winner",
              "type": "address"
            },
            {
              "internalType": "uint256",
              "name": "paid_maker",
              "type": "uint256"
            },
            {
              "internalType": "uint256",
              "name": "paid_taker",
              "type": "uint256"
            },
            {
              "internalType": "uint256",
              "name": "paid_oracle",
              "type": "uint256"
            },
            {
              "internalType": "enum Challenge.Type",
              "name": "c_type",
              "type": "uint8"
            },
            {
              "internalType": "uint256",
              "name": "created_date",
              "type": "uint256"
            },
            {
              "internalType": "uint256",
              "name": "deadline_date",
              "type": "uint256"
            },
            {
              "internalType": "bool",
              "name": "finished",
              "type": "bool"
            }
          ],
          "internalType": "struct Challenge.ChallengeStruct[]",
          "name": "",
          "type": "tuple[]"
        }
      ],
      "stateMutability": "view",
      "type": "function"
    },
    {
      "inputs": [
        {
          "internalType": "string",
          "name": "_name",
          "type": "string"
        },
        {
          "internalType": "string",
          "name": "_description",
          "type": "string"
        },
        {
          "internalType": "uint256",
          "name": "_cof",
          "type": "uint256"
        },
        {
          "internalType": "uint256",
          "name": "_oracle_fee",
          "type": "uint256"
        },
        {
          "internalType": "uint256",
          "name": "_deadline_date",
          "type": "uint256"
        },
        {
          "internalType": "address",
          "name": "_oracle",
          "type": "address"
        }
      ],
      "name": "create",
      "outputs": [],
      "stateMutability": "payable",
      "type": "function"
    },
    {
      "inputs": [
        {
          "internalType": "uint256",
          "name": "_id",
          "type": "uint256"
        }
      ],
      "name": "getById",
      "outputs": [
        {
          "components": [
            {
              "internalType": "uint256",
              "name": "id",
              "type": "uint256"
            },
            {
              "internalType": "string",
              "name": "name",
              "type": "string"
            },
            {
              "internalType": "string",
              "name": "description",
              "type": "string"
            },
            {
              "internalType": "uint256",
              "name": "cof",
              "type": "uint256"
            },
            {
              "internalType": "uint256",
              "name": "oracle_fee",
              "type": "uint256"
            },
            {
              "internalType": "address",
              "name": "maker",
              "type": "address"
            },
            {
              "internalType": "address",
              "name": "taker",
              "type": "address"
            },
            {
              "internalType": "address",
              "name": "oracle",
              "type": "address"
            },
            {
              "internalType": "address",
              "name": "winner",
              "type": "address"
            },
            {
              "internalType": "uint256",
              "name": "paid_maker",
              "type": "uint256"
            },
            {
              "internalType": "uint256",
              "name": "paid_taker",
              "type": "uint256"
            },
            {
              "internalType": "uint256",
              "name": "paid_oracle",
              "type": "uint256"
            },
            {
              "internalType": "enum Challenge.Type",
              "name": "c_type",
              "type": "uint8"
            },
            {
              "internalType": "uint256",
              "name": "created_date",
              "type": "uint256"
            },
            {
              "internalType": "uint256",
              "name": "deadline_date",
              "type": "uint256"
            },
            {
              "internalType": "bool",
              "name": "finished",
              "type": "bool"
            }
          ],
          "internalType": "struct Challenge.ChallengeStruct",
          "name": "",
          "type": "tuple"
        }
      ],
      "stateMutability": "view",
      "type": "function"
    },
    {
      "inputs": [],
      "name": "id",
      "outputs": [
        {
          "internalType": "uint256",
          "name": "",
          "type": "uint256"
        }
      ],
      "stateMutability": "view",
      "type": "function"
    },
    {
      "inputs": [
        {
          "internalType": "uint256",
          "name": "_id",
          "type": "uint256"
        }
      ],
      "name": "remove",
      "outputs": [
        {
          "internalType": "bool",
          "name": "",
          "type": "bool"
        }
      ],
      "stateMutability": "nonpayable",
      "type": "function"
    },
    {
      "inputs": [
        {
          "internalType": "uint256",
          "name": "_id",
          "type": "uint256"
        }
      ],
      "name": "setDraw",
      "outputs": [],
      "stateMutability": "nonpayable",
      "type": "function"
    },
    {
      "inputs": [
        {
          "internalType": "uint256",
          "name": "_id",
          "type": "uint256"
        },
        {
          "internalType": "address",
          "name": "_winner",
          "type": "address"
        }
      ],
      "name": "setWinner",
      "outputs": [],
      "stateMutability": "nonpayable",
      "type": "function"
    }
  ],
  "bytecode": "0x608060405234801561001057600080fd5b5061310c806100206000396000f3fe60806040526004361061007b5760003560e01c8063a3a503ac1161004e578063a3a503ac1461011e578063af640d0f14610149578063b565783514610174578063f4f4d2371461019d5761007b565b806319b05f49146100805780631d2238b91461009c5780634cc82215146100b85780639c623683146100f5575b600080fd5b61009a6004803603810190610095919061229e565b6101da565b005b6100b660048036038101906100b1919061246f565b6103dc565b005b3480156100c457600080fd5b506100df60048036038101906100da919061229e565b61079b565b6040516100ec919061254f565b60405180910390f35b34801561010157600080fd5b5061011c6004803603810190610117919061256a565b610dc1565b005b34801561012a57600080fd5b50610133611057565b60405161014091906128f7565b60405180910390f35b34801561015557600080fd5b5061015e611437565b60405161016b9190612928565b60405180910390f35b34801561018057600080fd5b5061019b6004803603810190610196919061229e565b61143d565b005b3480156101a957600080fd5b506101c460048036038101906101bf919061229e565b6115ea565b6040516101d19190612aa2565b60405180910390f35b60006101e58261193a565b90503373ffffffffffffffffffffffffffffffffffffffff168160e0015173ffffffffffffffffffffffffffffffffffffffff1614806102565750600073ffffffffffffffffffffffffffffffffffffffff168160c0015173ffffffffffffffffffffffffffffffffffffffff1614155b15610296576040517fef7d78ef00000000000000000000000000000000000000000000000000000000815260040161028d90612b21565b60405180910390fd5b60006102bc6102ae8361012001518460600151611cd9565b670de0b6b3a7640000611cef565b905080341015610301576040517f4817ec2e0000000000000000000000000000000000000000000000000000000081526004016102f890612b8d565b60405180910390fd5b336001600085815260200190815260200160002060060160006101000a81548173ffffffffffffffffffffffffffffffffffffffff021916908373ffffffffffffffffffffffffffffffffffffffff1602179055503460016000858152602001908152602001600020600a0181905550600360003373ffffffffffffffffffffffffffffffffffffffff1673ffffffffffffffffffffffffffffffffffffffff168152602001908152602001600020839080600181540180825580915050600190039060005260206000200160009091909190915055505050565b6000341015610420576040517f4817ec2e00000000000000000000000000000000000000000000000000000000815260040161041790612bf9565b60405180910390fd5b61042982611d05565b506000610434611d58565b905060006040518061020001604052808381526020018981526020018881526020018781526020018681526020013373ffffffffffffffffffffffffffffffffffffffff168152602001600073ffffffffffffffffffffffffffffffffffffffff1681526020018473ffffffffffffffffffffffffffffffffffffffff168152602001600073ffffffffffffffffffffffffffffffffffffffff1681526020013481526020016000815260200160008152602001600060018111156104fc576104fb61267c565b5b81526020014281526020018581526020016000151581525090508060016000848152602001908152602001600020600082015181600001556020820151816001019080519060200190610550929190612088565b50604082015181600201908051906020019061056d929190612088565b50606082015181600301556080820151816004015560a08201518160050160006101000a81548173ffffffffffffffffffffffffffffffffffffffff021916908373ffffffffffffffffffffffffffffffffffffffff16021790555060c08201518160060160006101000a81548173ffffffffffffffffffffffffffffffffffffffff021916908373ffffffffffffffffffffffffffffffffffffffff16021790555060e08201518160070160006101000a81548173ffffffffffffffffffffffffffffffffffffffff021916908373ffffffffffffffffffffffffffffffffffffffff1602179055506101008201518160080160006101000a81548173ffffffffffffffffffffffffffffffffffffffff021916908373ffffffffffffffffffffffffffffffffffffffff160217905550610120820151816009015561014082015181600a015561016082015181600b015561018082015181600c0160006101000a81548160ff021916908360018111156106ec576106eb61267c565b5b02179055506101a082015181600d01556101c082015181600e01556101e082015181600f0160006101000a81548160ff021916908315150217905550905050600260003373ffffffffffffffffffffffffffffffffffffffff1673ffffffffffffffffffffffffffffffffffffffff1681526020019081526020016000208290806001815401808255809150506001900390600052602060002001600090919091909150555050505050505050565b6000806001600084815260200190815260200160002060405180610200016040529081600082015481526020016001820180546107d790612c48565b80601f016020809104026020016040519081016040528092919081815260200182805461080390612c48565b80156108505780601f1061082557610100808354040283529160200191610850565b820191906000526020600020905b81548152906001019060200180831161083357829003601f168201915b5050505050815260200160028201805461086990612c48565b80601f016020809104026020016040519081016040528092919081815260200182805461089590612c48565b80156108e25780601f106108b7576101008083540402835291602001916108e2565b820191906000526020600020905b8154815290600101906020018083116108c557829003601f168201915b5050505050815260200160038201548152602001600482015481526020016005820160009054906101000a900473ffffffffffffffffffffffffffffffffffffffff1673ffffffffffffffffffffffffffffffffffffffff1673ffffffffffffffffffffffffffffffffffffffff1681526020016006820160009054906101000a900473ffffffffffffffffffffffffffffffffffffffff1673ffffffffffffffffffffffffffffffffffffffff1673ffffffffffffffffffffffffffffffffffffffff1681526020016007820160009054906101000a900473ffffffffffffffffffffffffffffffffffffffff1673ffffffffffffffffffffffffffffffffffffffff1673ffffffffffffffffffffffffffffffffffffffff1681526020016008820160009054906101000a900473ffffffffffffffffffffffffffffffffffffffff1673ffffffffffffffffffffffffffffffffffffffff1673ffffffffffffffffffffffffffffffffffffffff16815260200160098201548152602001600a8201548152602001600b8201548152602001600c820160009054906101000a900460ff166001811115610a9a57610a9961267c565b5b6001811115610aac57610aab61267c565b5b8152602001600d8201548152602001600e8201548152602001600f820160009054906101000a900460ff16151515158152505090503373ffffffffffffffffffffffffffffffffffffffff168160a0015173ffffffffffffffffffffffffffffffffffffffff16141580610b515750600073ffffffffffffffffffffffffffffffffffffffff168160c0015173ffffffffffffffffffffffffffffffffffffffff1614155b15610b91576040517fef7d78ef000000000000000000000000000000000000000000000000000000008152600401610b8890612cc6565b60405180910390fd5b60016000848152602001908152602001600020600080820160009055600182016000610bbd919061210e565b600282016000610bcd919061210e565b600382016000905560048201600090556005820160006101000a81549073ffffffffffffffffffffffffffffffffffffffff02191690556006820160006101000a81549073ffffffffffffffffffffffffffffffffffffffff02191690556007820160006101000a81549073ffffffffffffffffffffffffffffffffffffffff02191690556008820160006101000a81549073ffffffffffffffffffffffffffffffffffffffff02191690556009820160009055600a820160009055600b820160009055600c820160006101000a81549060ff0219169055600d820160009055600e820160009055600f820160006101000a81549060ff02191690555050600080610d1685600260003373ffffffffffffffffffffffffffffffffffffffff1673ffffffffffffffffffffffffffffffffffffffff168152602001908152602001600020611d75565b915091508015610db5573373ffffffffffffffffffffffffffffffffffffffff166108fc8461012001519081150290604051600060405180830381858888f19350505050158015610d6b573d6000803e3d6000fd5b50610db482600260003373ffffffffffffffffffffffffffffffffffffffff1673ffffffffffffffffffffffffffffffffffffffff168152602001908152602001600020611dda565b5b60019350505050919050565b6000610dcc8361193a565b9050610dd781611e93565b508060a0015173ffffffffffffffffffffffffffffffffffffffff168273ffffffffffffffffffffffffffffffffffffffff161480610e4557508060c0015173ffffffffffffffffffffffffffffffffffffffff168273ffffffffffffffffffffffffffffffffffffffff16145b1561101757600080610e5683611f6f565b9150915060008214610ec9578260e0015173ffffffffffffffffffffffffffffffffffffffff166108fc839081150290604051600060405180830381858888f19350505050158015610eac573d6000803e3d6000fd5b508160016000878152602001908152602001600020600b01819055505b60008114610f8d578373ffffffffffffffffffffffffffffffffffffffff166108fc829081150290604051600060405180830381858888f19350505050158015610f17573d6000803e3d6000fd5b508260a0015173ffffffffffffffffffffffffffffffffffffffff168473ffffffffffffffffffffffffffffffffffffffff161415610f7057806001600087815260200190815260200160002060090181905550610f8c565b8060016000878152602001908152602001600020600a01819055505b5b836001600087815260200190815260200160002060080160006101000a81548173ffffffffffffffffffffffffffffffffffffffff021916908373ffffffffffffffffffffffffffffffffffffffff1602179055506001806000878152602001908152602001600020600f0160006101000a81548160ff0219169083151502179055505050611052565b6040517fa8c278dd00000000000000000000000000000000000000000000000000000000815260040161104990612d32565b60405180910390fd5b505050565b60606000805467ffffffffffffffff811115611076576110756122e6565b5b6040519080825280602002602001820160405280156110af57816020015b61109c61214e565b8152602001906001900390816110945790505b50905060005b60005481101561142f576001600082815260200190815260200160002060405180610200016040529081600082015481526020016001820180546110f890612c48565b80601f016020809104026020016040519081016040528092919081815260200182805461112490612c48565b80156111715780601f1061114657610100808354040283529160200191611171565b820191906000526020600020905b81548152906001019060200180831161115457829003601f168201915b5050505050815260200160028201805461118a90612c48565b80601f01602080910402602001604051908101604052809291908181526020018280546111b690612c48565b80156112035780601f106111d857610100808354040283529160200191611203565b820191906000526020600020905b8154815290600101906020018083116111e657829003601f168201915b5050505050815260200160038201548152602001600482015481526020016005820160009054906101000a900473ffffffffffffffffffffffffffffffffffffffff1673ffffffffffffffffffffffffffffffffffffffff1673ffffffffffffffffffffffffffffffffffffffff1681526020016006820160009054906101000a900473ffffffffffffffffffffffffffffffffffffffff1673ffffffffffffffffffffffffffffffffffffffff1673ffffffffffffffffffffffffffffffffffffffff1681526020016007820160009054906101000a900473ffffffffffffffffffffffffffffffffffffffff1673ffffffffffffffffffffffffffffffffffffffff1673ffffffffffffffffffffffffffffffffffffffff1681526020016008820160009054906101000a900473ffffffffffffffffffffffffffffffffffffffff1673ffffffffffffffffffffffffffffffffffffffff1673ffffffffffffffffffffffffffffffffffffffff16815260200160098201548152602001600a8201548152602001600b8201548152602001600c820160009054906101000a900460ff1660018111156113bb576113ba61267c565b5b60018111156113cd576113cc61267c565b5b8152602001600d8201548152602001600e8201548152602001600f820160009054906101000a900460ff16151515158152505082828151811061141357611412612d52565b5b60200260200101819052508061142890612db0565b90506110b5565b508091505090565b60005481565b60006114488261193a565b905061145381611e93565b50600080600061146284611fc4565b925092509250600083146114d7578360e0015173ffffffffffffffffffffffffffffffffffffffff166108fc849081150290604051600060405180830381858888f193505050501580156114ba573d6000803e3d6000fd5b508260016000878152602001908152602001600020600b01819055505b60008214611546578360a0015173ffffffffffffffffffffffffffffffffffffffff166108fc839081150290604051600060405180830381858888f19350505050158015611529573d6000803e3d6000fd5b508160016000878152602001908152602001600020600901819055505b600081146115b5578360c0015173ffffffffffffffffffffffffffffffffffffffff166108fc829081150290604051600060405180830381858888f19350505050158015611598573d6000803e3d6000fd5b508060016000878152602001908152602001600020600a01819055505b6001806000878152602001908152602001600020600f0160006101000a81548160ff0219169083151502179055505050505050565b6115f261214e565b60016000838152602001908152602001600020604051806102000160405290816000820154815260200160018201805461162b90612c48565b80601f016020809104026020016040519081016040528092919081815260200182805461165790612c48565b80156116a45780601f10611679576101008083540402835291602001916116a4565b820191906000526020600020905b81548152906001019060200180831161168757829003601f168201915b505050505081526020016002820180546116bd90612c48565b80601f01602080910402602001604051908101604052809291908181526020018280546116e990612c48565b80156117365780601f1061170b57610100808354040283529160200191611736565b820191906000526020600020905b81548152906001019060200180831161171957829003601f168201915b5050505050815260200160038201548152602001600482015481526020016005820160009054906101000a900473ffffffffffffffffffffffffffffffffffffffff1673ffffffffffffffffffffffffffffffffffffffff1673ffffffffffffffffffffffffffffffffffffffff1681526020016006820160009054906101000a900473ffffffffffffffffffffffffffffffffffffffff1673ffffffffffffffffffffffffffffffffffffffff1673ffffffffffffffffffffffffffffffffffffffff1681526020016007820160009054906101000a900473ffffffffffffffffffffffffffffffffffffffff1673ffffffffffffffffffffffffffffffffffffffff1673ffffffffffffffffffffffffffffffffffffffff1681526020016008820160009054906101000a900473ffffffffffffffffffffffffffffffffffffffff1673ffffffffffffffffffffffffffffffffffffffff1673ffffffffffffffffffffffffffffffffffffffff16815260200160098201548152602001600a8201548152602001600b8201548152602001600c820160009054906101000a900460ff1660018111156118ee576118ed61267c565b5b6001811115611900576118ff61267c565b5b8152602001600d8201548152602001600e8201548152602001600f820160009054906101000a900460ff1615151515815250509050919050565b61194261214e565b600060016000848152602001908152602001600020604051806102000160405290816000820154815260200160018201805461197d90612c48565b80601f01602080910402602001604051908101604052809291908181526020018280546119a990612c48565b80156119f65780601f106119cb576101008083540402835291602001916119f6565b820191906000526020600020905b8154815290600101906020018083116119d957829003601f168201915b50505050508152602001600282018054611a0f90612c48565b80601f0160208091040260200160405190810160405280929190818152602001828054611a3b90612c48565b8015611a885780601f10611a5d57610100808354040283529160200191611a88565b820191906000526020600020905b815481529060010190602001808311611a6b57829003601f168201915b5050505050815260200160038201548152602001600482015481526020016005820160009054906101000a900473ffffffffffffffffffffffffffffffffffffffff1673ffffffffffffffffffffffffffffffffffffffff1673ffffffffffffffffffffffffffffffffffffffff1681526020016006820160009054906101000a900473ffffffffffffffffffffffffffffffffffffffff1673ffffffffffffffffffffffffffffffffffffffff1673ffffffffffffffffffffffffffffffffffffffff1681526020016007820160009054906101000a900473ffffffffffffffffffffffffffffffffffffffff1673ffffffffffffffffffffffffffffffffffffffff1673ffffffffffffffffffffffffffffffffffffffff1681526020016008820160009054906101000a900473ffffffffffffffffffffffffffffffffffffffff1673ffffffffffffffffffffffffffffffffffffffff1673ffffffffffffffffffffffffffffffffffffffff16815260200160098201548152602001600a8201548152602001600b8201548152602001600c820160009054906101000a900460ff166001811115611c4057611c3f61267c565b5b6001811115611c5257611c5161267c565b5b8152602001600d8201548152602001600e8201548152602001600f820160009054906101000a900460ff161515151581525050905060008161012001511415611cd0576040517f607be5dc000000000000000000000000000000000000000000000000000000008152600401611cc790612e45565b60405180910390fd5b80915050919050565b60008183611ce79190612e65565b905092915050565b60008183611cfd9190612eee565b905092915050565b6000808242101590508015611d4f576040517fed731ed7000000000000000000000000000000000000000000000000000000008152600401611d4690612f6b565b60405180910390fd5b80915050919050565b6000806000815480929190611d6c90612db0565b91905055905090565b60008060005b8380549050811015611dca5784848281548110611d9b57611d9a612d52565b5b90600052602060002001541415611db9578060019250925050611dd3565b80611dc390612db0565b9050611d7b565b50600080915091505b9250929050565b80805490508210611dea57611e8f565b60008290505b60018280549050611e019190612f8b565b811015611e665781600182611e169190612fbf565b81548110611e2757611e26612d52565b5b9060005260206000200154828281548110611e4557611e44612d52565b5b90600052602060002001819055508080611e5e90612db0565b915050611df0565b5080805480611e7857611e77613015565b5b600190038181906000526020600020016000905590555b5050565b60003373ffffffffffffffffffffffffffffffffffffffff168260e0015173ffffffffffffffffffffffffffffffffffffffff16141580611f065750600073ffffffffffffffffffffffffffffffffffffffff1682610100015173ffffffffffffffffffffffffffffffffffffffff1614155b80611f1657506000826101200151145b80611f2657506000826101400151145b15611f66576040517fef7d78ef000000000000000000000000000000000000000000000000000000008152600401611f5d906130b6565b60405180910390fd5b60019050919050565b6000806000611f88846101200151856101400151612072565b90506000611fa4611f9d838760800151611cd9565b6064611cef565b905060008183611fb49190612f8b565b9050818194509450505050915091565b600080600080611fde856101200151866101400151612072565b90506000611ffa611ff3838860800151611cd9565b6064611cef565b9050600061201b6120148861012001518960800151611cd9565b6064611cef565b87610120015161202b9190612f8b565b9050600061204c6120458961014001518a60800151611cd9565b6064611cef565b88610140015161205c9190612f8b565b9050828282965096509650505050509193909250565b600081836120809190612fbf565b905092915050565b82805461209490612c48565b90600052602060002090601f0160209004810192826120b657600085556120fd565b82601f106120cf57805160ff19168380011785556120fd565b828001600101855582156120fd579182015b828111156120fc5782518255916020019190600101906120e1565b5b50905061210a9190612237565b5090565b50805461211a90612c48565b6000825580601f1061212c575061214b565b601f01602090049060005260206000209081019061214a9190612237565b5b50565b6040518061020001604052806000815260200160608152602001606081526020016000815260200160008152602001600073ffffffffffffffffffffffffffffffffffffffff168152602001600073ffffffffffffffffffffffffffffffffffffffff168152602001600073ffffffffffffffffffffffffffffffffffffffff168152602001600073ffffffffffffffffffffffffffffffffffffffff1681526020016000815260200160008152602001600081526020016000600181111561221a5761221961267c565b5b815260200160008152602001600081526020016000151581525090565b5b80821115612250576000816000905550600101612238565b5090565b6000604051905090565b600080fd5b600080fd5b6000819050919050565b61227b81612268565b811461228657600080fd5b50565b60008135905061229881612272565b92915050565b6000602082840312156122b4576122b361225e565b5b60006122c284828501612289565b91505092915050565b600080fd5b600080fd5b6000601f19601f8301169050919050565b7f4e487b7100000000000000000000000000000000000000000000000000000000600052604160045260246000fd5b61231e826122d5565b810181811067ffffffffffffffff8211171561233d5761233c6122e6565b5b80604052505050565b6000612350612254565b905061235c8282612315565b919050565b600067ffffffffffffffff82111561237c5761237b6122e6565b5b612385826122d5565b9050602081019050919050565b82818337600083830152505050565b60006123b46123af84612361565b612346565b9050828152602081018484840111156123d0576123cf6122d0565b5b6123db848285612392565b509392505050565b600082601f8301126123f8576123f76122cb565b5b81356124088482602086016123a1565b91505092915050565b600073ffffffffffffffffffffffffffffffffffffffff82169050919050565b600061243c82612411565b9050919050565b61244c81612431565b811461245757600080fd5b50565b60008135905061246981612443565b92915050565b60008060008060008060c0878903121561248c5761248b61225e565b5b600087013567ffffffffffffffff8111156124aa576124a9612263565b5b6124b689828a016123e3565b965050602087013567ffffffffffffffff8111156124d7576124d6612263565b5b6124e389828a016123e3565b95505060406124f489828a01612289565b945050606061250589828a01612289565b935050608061251689828a01612289565b92505060a061252789828a0161245a565b9150509295509295509295565b60008115159050919050565b61254981612534565b82525050565b60006020820190506125646000830184612540565b92915050565b600080604083850312156125815761258061225e565b5b600061258f85828601612289565b92505060206125a08582860161245a565b9150509250929050565b600081519050919050565b600082825260208201905092915050565b6000819050602082019050919050565b6125df81612268565b82525050565b600081519050919050565b600082825260208201905092915050565b60005b8381101561261f578082015181840152602081019050612604565b8381111561262e576000848401525b50505050565b600061263f826125e5565b61264981856125f0565b9350612659818560208601612601565b612662816122d5565b840191505092915050565b61267681612431565b82525050565b7f4e487b7100000000000000000000000000000000000000000000000000000000600052602160045260246000fd5b600281106126bc576126bb61267c565b5b50565b60008190506126cd826126ab565b919050565b60006126dd826126bf565b9050919050565b6126ed816126d2565b82525050565b6126fc81612534565b82525050565b60006102008301600083015161271b60008601826125d6565b50602083015184820360208601526127338282612634565b9150506040830151848203604086015261274d8282612634565b915050606083015161276260608601826125d6565b50608083015161277560808601826125d6565b5060a083015161278860a086018261266d565b5060c083015161279b60c086018261266d565b5060e08301516127ae60e086018261266d565b506101008301516127c361010086018261266d565b506101208301516127d86101208601826125d6565b506101408301516127ed6101408601826125d6565b506101608301516128026101608601826125d6565b506101808301516128176101808601826126e4565b506101a083015161282c6101a08601826125d6565b506101c08301516128416101c08601826125d6565b506101e08301516128566101e08601826126f3565b508091505092915050565b600061286d8383612702565b905092915050565b6000602082019050919050565b600061288d826125aa565b61289781856125b5565b9350836020820285016128a9856125c6565b8060005b858110156128e557848403895281516128c68582612861565b94506128d183612875565b925060208a019950506001810190506128ad565b50829750879550505050505092915050565b600060208201905081810360008301526129118184612882565b905092915050565b61292281612268565b82525050565b600060208201905061293d6000830184612919565b92915050565b60006102008301600083015161295c60008601826125d6565b50602083015184820360208601526129748282612634565b9150506040830151848203604086015261298e8282612634565b91505060608301516129a360608601826125d6565b5060808301516129b660808601826125d6565b5060a08301516129c960a086018261266d565b5060c08301516129dc60c086018261266d565b5060e08301516129ef60e086018261266d565b50610100830151612a0461010086018261266d565b50610120830151612a196101208601826125d6565b50610140830151612a2e6101408601826125d6565b50610160830151612a436101608601826125d6565b50610180830151612a586101808601826126e4565b506101a0830151612a6d6101a08601826125d6565b506101c0830151612a826101c08601826125d6565b506101e0830151612a976101e08601826126f3565b508091505092915050565b60006020820190508181036000830152612abc8184612943565b905092915050565b600082825260208201905092915050565b7f4163657074206572726f72000000000000000000000000000000000000000000600082015250565b6000612b0b600b83612ac4565b9150612b1682612ad5565b602082019050919050565b60006020820190508181036000830152612b3a81612afe565b9050919050565b7f496e73756666696369656e742066756e64730000000000000000000000000000600082015250565b6000612b77601283612ac4565b9150612b8282612b41565b602082019050919050565b60006020820190508181036000830152612ba681612b6a565b9050919050565b7f596f752073686f756c642061747461636820736f6d65204465706f7369740000600082015250565b6000612be3601e83612ac4565b9150612bee82612bad565b602082019050919050565b60006020820190508181036000830152612c1281612bd6565b9050919050565b7f4e487b7100000000000000000000000000000000000000000000000000000000600052602260045260246000fd5b60006002820490506001821680612c6057607f821691505b60208210811415612c7457612c73612c19565b5b50919050565b7f596f752063616e27742072656d6f7665204368616c6c656e6765000000000000600082015250565b6000612cb0601a83612ac4565b9150612cbb82612c7a565b602082019050919050565b60006020820190508181036000830152612cdf81612ca3565b9050919050565b7f496e76616c69642077696e6e6572206164647265737300000000000000000000600082015250565b6000612d1c601683612ac4565b9150612d2782612ce6565b602082019050919050565b60006020820190508181036000830152612d4b81612d0f565b9050919050565b7f4e487b7100000000000000000000000000000000000000000000000000000000600052603260045260246000fd5b7f4e487b7100000000000000000000000000000000000000000000000000000000600052601160045260246000fd5b6000612dbb82612268565b91507fffffffffffffffffffffffffffffffffffffffffffffffffffffffffffffffff821415612dee57612ded612d81565b5b600182019050919050565b7f4974656d206e6f7420666f756e64000000000000000000000000000000000000600082015250565b6000612e2f600e83612ac4565b9150612e3a82612df9565b602082019050919050565b60006020820190508181036000830152612e5e81612e22565b9050919050565b6000612e7082612268565b9150612e7b83612268565b9250817fffffffffffffffffffffffffffffffffffffffffffffffffffffffffffffffff0483118215151615612eb457612eb3612d81565b5b828202905092915050565b7f4e487b7100000000000000000000000000000000000000000000000000000000600052601260045260246000fd5b6000612ef982612268565b9150612f0483612268565b925082612f1457612f13612ebf565b5b828204905092915050565b7f446561646c696e65207761732065787069726564000000000000000000000000600082015250565b6000612f55601483612ac4565b9150612f6082612f1f565b602082019050919050565b60006020820190508181036000830152612f8481612f48565b9050919050565b6000612f9682612268565b9150612fa183612268565b925082821015612fb457612fb3612d81565b5b828203905092915050565b6000612fca82612268565b9150612fd583612268565b9250827fffffffffffffffffffffffffffffffffffffffffffffffffffffffffffffffff0382111561300a57613009612d81565b5b828201905092915050565b7f4e487b7100000000000000000000000000000000000000000000000000000000600052603160045260246000fd5b7f596f752063616e2774207365742077696e6e657220746f20746869732043686160008201527f6c6c656e67650000000000000000000000000000000000000000000000000000602082015250565b60006130a0602683612ac4565b91506130ab82613044565b604082019050919050565b600060208201905081810360008301526130cf81613093565b905091905056fea264697066735822122089693273fd715aca847fd198dd557af47018131026d65658c6eeb4f208bb6aae64736f6c634300080c0033",
  "linkReferences": {},
  "deployedLinkReferences": {}
}