{
  "_format": "hh-sol-artifact-1",
  "contractName": "Challenge",
  "sourceName": "smart_contract/contracts/Challenge.sol",
  "abi": [
    {
      "inputs": [
        {
          "internalType": "string",
          "name": "message",
          "type": "string"
        }
      ],
      "name": "DateExpired",
      "type": "error"
    },
    {
      "inputs": [
        {
          "internalType": "string",
          "name": "message",
          "type": "string"
        }
      ],
      "name": "ZeroAmount",
      "type": "error"
    },
    {
      "inputs": [],
      "name": "allChallenges",
      "outputs": [
        {
          "components": [
            {
              "internalType": "uint256",
              "name": "id",
              "type": "uint256"
            },
            {
              "internalType": "string",
              "name": "name",
              "type": "string"
            },
            {
              "internalType": "string",
              "name": "description",
              "type": "string"
            },
            {
              "internalType": "string",
              "name": "cof",
              "type": "string"
            },
            {
              "internalType": "uint256",
              "name": "oracle_fee",
              "type": "uint256"
            },
            {
              "internalType": "address",
              "name": "maker",
              "type": "address"
            },
            {
              "internalType": "address",
              "name": "taker",
              "type": "address"
            },
            {
              "internalType": "address",
              "name": "oracle",
              "type": "address"
            },
            {
              "internalType": "address",
              "name": "winner",
              "type": "address"
            },
            {
              "internalType": "uint256",
              "name": "paid_maker",
              "type": "uint256"
            },
            {
              "internalType": "uint256",
              "name": "paid_taker",
              "type": "uint256"
            },
            {
              "internalType": "uint256",
              "name": "paid_oracle",
              "type": "uint256"
            },
            {
              "internalType": "enum Challenge.Type",
              "name": "c_type",
              "type": "uint8"
            },
            {
              "internalType": "uint256",
              "name": "created_date",
              "type": "uint256"
            },
            {
              "internalType": "uint256",
              "name": "deadline_date",
              "type": "uint256"
            }
          ],
          "internalType": "struct Challenge.ChallengeStruct[]",
          "name": "",
          "type": "tuple[]"
        }
      ],
      "stateMutability": "view",
      "type": "function"
    },
    {
      "inputs": [
        {
          "internalType": "string",
          "name": "_name",
          "type": "string"
        },
        {
          "internalType": "string",
          "name": "_description",
          "type": "string"
        },
        {
          "internalType": "string",
          "name": "_cof",
          "type": "string"
        },
        {
          "internalType": "uint256",
          "name": "_oracle_fee",
          "type": "uint256"
        },
        {
          "internalType": "uint256",
          "name": "_deadline_date",
          "type": "uint256"
        },
        {
          "internalType": "address",
          "name": "_oracle",
          "type": "address"
        }
      ],
      "name": "create",
      "outputs": [],
      "stateMutability": "payable",
      "type": "function"
    },
    {
      "inputs": [
        {
          "internalType": "uint256",
          "name": "_id",
          "type": "uint256"
        }
      ],
      "name": "getById",
      "outputs": [
        {
          "components": [
            {
              "internalType": "uint256",
              "name": "id",
              "type": "uint256"
            },
            {
              "internalType": "string",
              "name": "name",
              "type": "string"
            },
            {
              "internalType": "string",
              "name": "description",
              "type": "string"
            },
            {
              "internalType": "string",
              "name": "cof",
              "type": "string"
            },
            {
              "internalType": "uint256",
              "name": "oracle_fee",
              "type": "uint256"
            },
            {
              "internalType": "address",
              "name": "maker",
              "type": "address"
            },
            {
              "internalType": "address",
              "name": "taker",
              "type": "address"
            },
            {
              "internalType": "address",
              "name": "oracle",
              "type": "address"
            },
            {
              "internalType": "address",
              "name": "winner",
              "type": "address"
            },
            {
              "internalType": "uint256",
              "name": "paid_maker",
              "type": "uint256"
            },
            {
              "internalType": "uint256",
              "name": "paid_taker",
              "type": "uint256"
            },
            {
              "internalType": "uint256",
              "name": "paid_oracle",
              "type": "uint256"
            },
            {
              "internalType": "enum Challenge.Type",
              "name": "c_type",
              "type": "uint8"
            },
            {
              "internalType": "uint256",
              "name": "created_date",
              "type": "uint256"
            },
            {
              "internalType": "uint256",
              "name": "deadline_date",
              "type": "uint256"
            }
          ],
          "internalType": "struct Challenge.ChallengeStruct",
          "name": "",
          "type": "tuple"
        }
      ],
      "stateMutability": "view",
      "type": "function"
    },
    {
      "inputs": [],
      "name": "id",
      "outputs": [
        {
          "internalType": "uint256",
          "name": "",
          "type": "uint256"
        }
      ],
      "stateMutability": "view",
      "type": "function"
    }
  ],
  "bytecode": "0x608060405234801561001057600080fd5b506118a9806100206000396000f3fe60806040526004361061003f5760003560e01c80635a61013e14610044578063a3a503ac14610060578063af640d0f1461008b578063f4f4d237146100b6575b600080fd5b61005e60048036038101906100599190611085565b6100f3565b005b34801561006c57600080fd5b506100756104da565b6040516100829190611496565b60405180910390f35b34801561009757600080fd5b506100a0610927565b6040516100ad91906114c7565b60405180910390f35b3480156100c257600080fd5b506100dd60048036038101906100d891906114e2565b61092d565b6040516100ea9190611660565b60405180910390f35b6000341015610137576040517f3b3e635000000000000000000000000000000000000000000000000000000000815260040161012e906116df565b60405180910390fd5b61014082610cea565b15610180576040517fed731ed70000000000000000000000000000000000000000000000000000000081526004016101779061174b565b60405180910390fd5b600061018a610cf7565b90506000604051806101e001604052808381526020018981526020018881526020018781526020018681526020013373ffffffffffffffffffffffffffffffffffffffff168152602001600073ffffffffffffffffffffffffffffffffffffffff1681526020018473ffffffffffffffffffffffffffffffffffffffff168152602001600073ffffffffffffffffffffffffffffffffffffffff16815260200134815260200160008152602001600081526020016000600181111561025257610251611238565b5b8152602001428152602001858152509050806001600084815260200190815260200160002060008201518160000155602082015181600101908051906020019061029d929190610d14565b5060408201518160020190805190602001906102ba929190610d14565b5060608201518160030190805190602001906102d7929190610d14565b506080820151816004015560a08201518160050160006101000a81548173ffffffffffffffffffffffffffffffffffffffff021916908373ffffffffffffffffffffffffffffffffffffffff16021790555060c08201518160060160006101000a81548173ffffffffffffffffffffffffffffffffffffffff021916908373ffffffffffffffffffffffffffffffffffffffff16021790555060e08201518160070160006101000a81548173ffffffffffffffffffffffffffffffffffffffff021916908373ffffffffffffffffffffffffffffffffffffffff1602179055506101008201518160080160006101000a81548173ffffffffffffffffffffffffffffffffffffffff021916908373ffffffffffffffffffffffffffffffffffffffff160217905550610120820151816009015561014082015181600a015561016082015181600b015561018082015181600c0160006101000a81548160ff0219169083600181111561044c5761044b611238565b5b02179055506101a082015181600d01556101c082015181600e0155905050600260003373ffffffffffffffffffffffffffffffffffffffff1673ffffffffffffffffffffffffffffffffffffffff1681526020019081526020016000208290806001815401808255809150506001900390600052602060002001600090919091909150555050505050505050565b60606000805467ffffffffffffffff8111156104f9576104f8610ec6565b5b60405190808252806020026020018201604052801561053257816020015b61051f610d9a565b8152602001906001900390816105175790505b50905060005b60005481101561091f5760016000828152602001908152602001600020604051806101e00160405290816000820154815260200160018201805461057b9061179a565b80601f01602080910402602001604051908101604052809291908181526020018280546105a79061179a565b80156105f45780601f106105c9576101008083540402835291602001916105f4565b820191906000526020600020905b8154815290600101906020018083116105d757829003601f168201915b5050505050815260200160028201805461060d9061179a565b80601f01602080910402602001604051908101604052809291908181526020018280546106399061179a565b80156106865780601f1061065b57610100808354040283529160200191610686565b820191906000526020600020905b81548152906001019060200180831161066957829003601f168201915b5050505050815260200160038201805461069f9061179a565b80601f01602080910402602001604051908101604052809291908181526020018280546106cb9061179a565b80156107185780601f106106ed57610100808354040283529160200191610718565b820191906000526020600020905b8154815290600101906020018083116106fb57829003601f168201915b50505050508152602001600482015481526020016005820160009054906101000a900473ffffffffffffffffffffffffffffffffffffffff1673ffffffffffffffffffffffffffffffffffffffff1673ffffffffffffffffffffffffffffffffffffffff1681526020016006820160009054906101000a900473ffffffffffffffffffffffffffffffffffffffff1673ffffffffffffffffffffffffffffffffffffffff1673ffffffffffffffffffffffffffffffffffffffff1681526020016007820160009054906101000a900473ffffffffffffffffffffffffffffffffffffffff1673ffffffffffffffffffffffffffffffffffffffff1673ffffffffffffffffffffffffffffffffffffffff1681526020016008820160009054906101000a900473ffffffffffffffffffffffffffffffffffffffff1673ffffffffffffffffffffffffffffffffffffffff1673ffffffffffffffffffffffffffffffffffffffff16815260200160098201548152602001600a8201548152602001600b8201548152602001600c820160009054906101000a900460ff1660018111156108c6576108c5611238565b5b60018111156108d8576108d7611238565b5b8152602001600d8201548152602001600e82015481525050828281518110610903576109026117cc565b5b6020026020010181905250806109189061182a565b9050610538565b508091505090565b60005481565b610935610d9a565b60016000838152602001908152602001600020604051806101e00160405290816000820154815260200160018201805461096e9061179a565b80601f016020809104026020016040519081016040528092919081815260200182805461099a9061179a565b80156109e75780601f106109bc576101008083540402835291602001916109e7565b820191906000526020600020905b8154815290600101906020018083116109ca57829003601f168201915b50505050508152602001600282018054610a009061179a565b80601f0160208091040260200160405190810160405280929190818152602001828054610a2c9061179a565b8015610a795780601f10610a4e57610100808354040283529160200191610a79565b820191906000526020600020905b815481529060010190602001808311610a5c57829003601f168201915b50505050508152602001600382018054610a929061179a565b80601f0160208091040260200160405190810160405280929190818152602001828054610abe9061179a565b8015610b0b5780601f10610ae057610100808354040283529160200191610b0b565b820191906000526020600020905b815481529060010190602001808311610aee57829003601f168201915b50505050508152602001600482015481526020016005820160009054906101000a900473ffffffffffffffffffffffffffffffffffffffff1673ffffffffffffffffffffffffffffffffffffffff1673ffffffffffffffffffffffffffffffffffffffff1681526020016006820160009054906101000a900473ffffffffffffffffffffffffffffffffffffffff1673ffffffffffffffffffffffffffffffffffffffff1673ffffffffffffffffffffffffffffffffffffffff1681526020016007820160009054906101000a900473ffffffffffffffffffffffffffffffffffffffff1673ffffffffffffffffffffffffffffffffffffffff1673ffffffffffffffffffffffffffffffffffffffff1681526020016008820160009054906101000a900473ffffffffffffffffffffffffffffffffffffffff1673ffffffffffffffffffffffffffffffffffffffff1673ffffffffffffffffffffffffffffffffffffffff16815260200160098201548152602001600a8201548152602001600b8201548152602001600c820160009054906101000a900460ff166001811115610cb957610cb8611238565b5b6001811115610ccb57610cca611238565b5b8152602001600d8201548152602001600e820154815250509050919050565b6000814210159050919050565b6000806000815480929190610d0b9061182a565b91905055905090565b828054610d209061179a565b90600052602060002090601f016020900481019282610d425760008555610d89565b82601f10610d5b57805160ff1916838001178555610d89565b82800160010185558215610d89579182015b82811115610d88578251825591602001919060010190610d6d565b5b509050610d969190610e7a565b5090565b604051806101e001604052806000815260200160608152602001606081526020016060815260200160008152602001600073ffffffffffffffffffffffffffffffffffffffff168152602001600073ffffffffffffffffffffffffffffffffffffffff168152602001600073ffffffffffffffffffffffffffffffffffffffff168152602001600073ffffffffffffffffffffffffffffffffffffffff16815260200160008152602001600081526020016000815260200160006001811115610e6657610e65611238565b5b815260200160008152602001600081525090565b5b80821115610e93576000816000905550600101610e7b565b5090565b6000604051905090565b600080fd5b600080fd5b600080fd5b600080fd5b6000601f19601f8301169050919050565b7f4e487b7100000000000000000000000000000000000000000000000000000000600052604160045260246000fd5b610efe82610eb5565b810181811067ffffffffffffffff82111715610f1d57610f1c610ec6565b5b80604052505050565b6000610f30610e97565b9050610f3c8282610ef5565b919050565b600067ffffffffffffffff821115610f5c57610f5b610ec6565b5b610f6582610eb5565b9050602081019050919050565b82818337600083830152505050565b6000610f94610f8f84610f41565b610f26565b905082815260208101848484011115610fb057610faf610eb0565b5b610fbb848285610f72565b509392505050565b600082601f830112610fd857610fd7610eab565b5b8135610fe8848260208601610f81565b91505092915050565b6000819050919050565b61100481610ff1565b811461100f57600080fd5b50565b60008135905061102181610ffb565b92915050565b600073ffffffffffffffffffffffffffffffffffffffff82169050919050565b600061105282611027565b9050919050565b61106281611047565b811461106d57600080fd5b50565b60008135905061107f81611059565b92915050565b60008060008060008060c087890312156110a2576110a1610ea1565b5b600087013567ffffffffffffffff8111156110c0576110bf610ea6565b5b6110cc89828a01610fc3565b965050602087013567ffffffffffffffff8111156110ed576110ec610ea6565b5b6110f989828a01610fc3565b955050604087013567ffffffffffffffff81111561111a57611119610ea6565b5b61112689828a01610fc3565b945050606061113789828a01611012565b935050608061114889828a01611012565b92505060a061115989828a01611070565b9150509295509295509295565b600081519050919050565b600082825260208201905092915050565b6000819050602082019050919050565b61119b81610ff1565b82525050565b600081519050919050565b600082825260208201905092915050565b60005b838110156111db5780820151818401526020810190506111c0565b838111156111ea576000848401525b50505050565b60006111fb826111a1565b61120581856111ac565b93506112158185602086016111bd565b61121e81610eb5565b840191505092915050565b61123281611047565b82525050565b7f4e487b7100000000000000000000000000000000000000000000000000000000600052602160045260246000fd5b6002811061127857611277611238565b5b50565b600081905061128982611267565b919050565b60006112998261127b565b9050919050565b6112a98161128e565b82525050565b60006101e0830160008301516112c86000860182611192565b50602083015184820360208601526112e082826111f0565b915050604083015184820360408601526112fa82826111f0565b9150506060830151848203606086015261131482826111f0565b91505060808301516113296080860182611192565b5060a083015161133c60a0860182611229565b5060c083015161134f60c0860182611229565b5060e083015161136260e0860182611229565b50610100830151611377610100860182611229565b5061012083015161138c610120860182611192565b506101408301516113a1610140860182611192565b506101608301516113b6610160860182611192565b506101808301516113cb6101808601826112a0565b506101a08301516113e06101a0860182611192565b506101c08301516113f56101c0860182611192565b508091505092915050565b600061140c83836112af565b905092915050565b6000602082019050919050565b600061142c82611166565b6114368185611171565b93508360208202850161144885611182565b8060005b8581101561148457848403895281516114658582611400565b945061147083611414565b925060208a0199505060018101905061144c565b50829750879550505050505092915050565b600060208201905081810360008301526114b08184611421565b905092915050565b6114c181610ff1565b82525050565b60006020820190506114dc60008301846114b8565b92915050565b6000602082840312156114f8576114f7610ea1565b5b600061150684828501611012565b91505092915050565b60006101e0830160008301516115286000860182611192565b506020830151848203602086015261154082826111f0565b9150506040830151848203604086015261155a82826111f0565b9150506060830151848203606086015261157482826111f0565b91505060808301516115896080860182611192565b5060a083015161159c60a0860182611229565b5060c08301516115af60c0860182611229565b5060e08301516115c260e0860182611229565b506101008301516115d7610100860182611229565b506101208301516115ec610120860182611192565b50610140830151611601610140860182611192565b50610160830151611616610160860182611192565b5061018083015161162b6101808601826112a0565b506101a08301516116406101a0860182611192565b506101c08301516116556101c0860182611192565b508091505092915050565b6000602082019050818103600083015261167a818461150f565b905092915050565b600082825260208201905092915050565b7f596f752073686f756c642061747461636820736f6d65204465706f7369740000600082015250565b60006116c9601e83611682565b91506116d482611693565b602082019050919050565b600060208201905081810360008301526116f8816116bc565b9050919050565b7f446561646c696e65207761732065787069726564000000000000000000000000600082015250565b6000611735601483611682565b9150611740826116ff565b602082019050919050565b6000602082019050818103600083015261176481611728565b9050919050565b7f4e487b7100000000000000000000000000000000000000000000000000000000600052602260045260246000fd5b600060028204905060018216806117b257607f821691505b602082108114156117c6576117c561176b565b5b50919050565b7f4e487b7100000000000000000000000000000000000000000000000000000000600052603260045260246000fd5b7f4e487b7100000000000000000000000000000000000000000000000000000000600052601160045260246000fd5b600061183582610ff1565b91507fffffffffffffffffffffffffffffffffffffffffffffffffffffffffffffffff821415611868576118676117fb565b5b60018201905091905056fea264697066735822122088016a53a70d882bcc2d33d86c1e0241d473d6e06d857e53cfea8622ef973c4d64736f6c634300080c0033",
  "linkReferences": {},
  "deployedLinkReferences": {}
}