{
  "_format": "hh-sol-artifact-1",
  "contractName": "CustomChallenge",
  "sourceName": "smart_contract/contracts/CustomChallenge.sol",
  "abi": [
    {
      "inputs": [],
      "stateMutability": "nonpayable",
      "type": "constructor"
    },
    {
      "inputs": [
        {
          "internalType": "string",
          "name": "message",
          "type": "string"
        }
      ],
      "name": "CantChange",
      "type": "error"
    },
    {
      "inputs": [
        {
          "internalType": "string",
          "name": "message",
          "type": "string"
        }
      ],
      "name": "DateExpired",
      "type": "error"
    },
    {
      "inputs": [
        {
          "internalType": "string",
          "name": "message",
          "type": "string"
        }
      ],
      "name": "InsufficientAmount",
      "type": "error"
    },
    {
      "inputs": [
        {
          "internalType": "string",
          "name": "message",
          "type": "string"
        }
      ],
      "name": "InvalidParams",
      "type": "error"
    },
    {
      "inputs": [
        {
          "internalType": "string",
          "name": "message",
          "type": "string"
        }
      ],
      "name": "NotFound",
      "type": "error"
    },
    {
      "inputs": [
        {
          "internalType": "uint256",
          "name": "_id",
          "type": "uint256"
        }
      ],
      "name": "accept",
      "outputs": [],
      "stateMutability": "payable",
      "type": "function"
    },
    {
      "inputs": [],
      "name": "allChallenges",
      "outputs": [
        {
          "components": [
            {
              "internalType": "uint256",
              "name": "id",
              "type": "uint256"
            },
            {
              "internalType": "string",
              "name": "name",
              "type": "string"
            },
            {
              "internalType": "string",
              "name": "description",
              "type": "string"
            },
            {
              "internalType": "uint256",
              "name": "cof",
              "type": "uint256"
            },
            {
              "internalType": "uint256",
              "name": "oracle_fee",
              "type": "uint256"
            },
            {
              "internalType": "address",
              "name": "maker",
              "type": "address"
            },
            {
              "internalType": "address",
              "name": "taker",
              "type": "address"
            },
            {
              "internalType": "address",
              "name": "oracle",
              "type": "address"
            },
            {
              "internalType": "address",
              "name": "winner",
              "type": "address"
            },
            {
              "internalType": "uint256",
              "name": "paid_maker",
              "type": "uint256"
            },
            {
              "internalType": "uint256",
              "name": "paid_taker",
              "type": "uint256"
            },
            {
              "internalType": "uint256",
              "name": "paid_oracle",
              "type": "uint256"
            },
            {
              "internalType": "uint256",
              "name": "created_date",
              "type": "uint256"
            },
            {
              "internalType": "uint256",
              "name": "deadline_date",
              "type": "uint256"
            },
            {
              "internalType": "bool",
              "name": "finished",
              "type": "bool"
            }
          ],
          "internalType": "struct CustomChallenge.ChallengeStruct[]",
          "name": "",
          "type": "tuple[]"
        }
      ],
      "stateMutability": "view",
      "type": "function"
    },
    {
      "inputs": [
        {
          "internalType": "string",
          "name": "_name",
          "type": "string"
        },
        {
          "internalType": "string",
          "name": "_description",
          "type": "string"
        },
        {
          "internalType": "uint256",
          "name": "_cof",
          "type": "uint256"
        },
        {
          "internalType": "uint256",
          "name": "_oracle_fee",
          "type": "uint256"
        },
        {
          "internalType": "uint256",
          "name": "_deadline_date",
          "type": "uint256"
        },
        {
          "internalType": "address",
          "name": "_oracle",
          "type": "address"
        }
      ],
      "name": "create",
      "outputs": [],
      "stateMutability": "payable",
      "type": "function"
    },
    {
      "inputs": [
        {
          "internalType": "uint256",
          "name": "_id",
          "type": "uint256"
        }
      ],
      "name": "getById",
      "outputs": [
        {
          "components": [
            {
              "internalType": "uint256",
              "name": "id",
              "type": "uint256"
            },
            {
              "internalType": "string",
              "name": "name",
              "type": "string"
            },
            {
              "internalType": "string",
              "name": "description",
              "type": "string"
            },
            {
              "internalType": "uint256",
              "name": "cof",
              "type": "uint256"
            },
            {
              "internalType": "uint256",
              "name": "oracle_fee",
              "type": "uint256"
            },
            {
              "internalType": "address",
              "name": "maker",
              "type": "address"
            },
            {
              "internalType": "address",
              "name": "taker",
              "type": "address"
            },
            {
              "internalType": "address",
              "name": "oracle",
              "type": "address"
            },
            {
              "internalType": "address",
              "name": "winner",
              "type": "address"
            },
            {
              "internalType": "uint256",
              "name": "paid_maker",
              "type": "uint256"
            },
            {
              "internalType": "uint256",
              "name": "paid_taker",
              "type": "uint256"
            },
            {
              "internalType": "uint256",
              "name": "paid_oracle",
              "type": "uint256"
            },
            {
              "internalType": "uint256",
              "name": "created_date",
              "type": "uint256"
            },
            {
              "internalType": "uint256",
              "name": "deadline_date",
              "type": "uint256"
            },
            {
              "internalType": "bool",
              "name": "finished",
              "type": "bool"
            }
          ],
          "internalType": "struct CustomChallenge.ChallengeStruct",
          "name": "",
          "type": "tuple"
        }
      ],
      "stateMutability": "view",
      "type": "function"
    },
    {
      "inputs": [
        {
          "internalType": "address",
          "name": "u_address",
          "type": "address"
        }
      ],
      "name": "getUserChallenges",
      "outputs": [
        {
          "components": [
            {
              "internalType": "uint256",
              "name": "id",
              "type": "uint256"
            },
            {
              "internalType": "string",
              "name": "name",
              "type": "string"
            },
            {
              "internalType": "string",
              "name": "description",
              "type": "string"
            },
            {
              "internalType": "uint256",
              "name": "cof",
              "type": "uint256"
            },
            {
              "internalType": "uint256",
              "name": "oracle_fee",
              "type": "uint256"
            },
            {
              "internalType": "address",
              "name": "maker",
              "type": "address"
            },
            {
              "internalType": "address",
              "name": "taker",
              "type": "address"
            },
            {
              "internalType": "address",
              "name": "oracle",
              "type": "address"
            },
            {
              "internalType": "address",
              "name": "winner",
              "type": "address"
            },
            {
              "internalType": "uint256",
              "name": "paid_maker",
              "type": "uint256"
            },
            {
              "internalType": "uint256",
              "name": "paid_taker",
              "type": "uint256"
            },
            {
              "internalType": "uint256",
              "name": "paid_oracle",
              "type": "uint256"
            },
            {
              "internalType": "uint256",
              "name": "created_date",
              "type": "uint256"
            },
            {
              "internalType": "uint256",
              "name": "deadline_date",
              "type": "uint256"
            },
            {
              "internalType": "bool",
              "name": "finished",
              "type": "bool"
            }
          ],
          "internalType": "struct CustomChallenge.ChallengeStruct[]",
          "name": "",
          "type": "tuple[]"
        }
      ],
      "stateMutability": "view",
      "type": "function"
    },
    {
      "inputs": [],
      "name": "id",
      "outputs": [
        {
          "internalType": "uint256",
          "name": "",
          "type": "uint256"
        }
      ],
      "stateMutability": "view",
      "type": "function"
    },
    {
      "inputs": [
        {
          "internalType": "uint256",
          "name": "_id",
          "type": "uint256"
        }
      ],
      "name": "remove",
      "outputs": [
        {
          "internalType": "bool",
          "name": "",
          "type": "bool"
        }
      ],
      "stateMutability": "nonpayable",
      "type": "function"
    },
    {
      "inputs": [
        {
          "internalType": "uint256",
          "name": "_id",
          "type": "uint256"
        }
      ],
      "name": "setDraw",
      "outputs": [],
      "stateMutability": "nonpayable",
      "type": "function"
    },
    {
      "inputs": [
        {
          "internalType": "uint256",
          "name": "_id",
          "type": "uint256"
        },
        {
          "internalType": "address",
          "name": "_winner",
          "type": "address"
        }
      ],
      "name": "setWinner",
      "outputs": [],
      "stateMutability": "nonpayable",
      "type": "function"
    }
  ],
  "bytecode": "0x608060405234801561001057600080fd5b506133d0806100206000396000f3fe6080604052600436106100865760003560e01c80639c623683116100595780639c6236831461013d578063a3a503ac14610166578063af640d0f14610191578063b5657835146101bc578063f4f4d237146101e557610086565b806311da8e541461008b57806319b05f49146100c85780631d2238b9146100e45780634cc8221514610100575b600080fd5b34801561009757600080fd5b506100b260048036038101906100ad9190612600565b610222565b6040516100bf9190612915565b60405180910390f35b6100e260048036038101906100dd9190612963565b61066f565b005b6100fe60048036038101906100f99190612ac5565b610871565b005b34801561010c57600080fd5b5061012760048036038101906101229190612963565b610be6565b6040516101349190612b99565b60405180910390f35b34801561014957600080fd5b50610164600480360381019061015f9190612bb4565b6111bd565b005b34801561017257600080fd5b5061017b611452565b6040516101889190612915565b60405180910390f35b34801561019d57600080fd5b506101a66117f7565b6040516101b39190612c03565b60405180910390f35b3480156101c857600080fd5b506101e360048036038101906101de9190612963565b6117fd565b005b3480156101f157600080fd5b5061020c60048036038101906102079190612963565b6119aa565b6040516102199190612d68565b60405180910390f35b60606000600260008473ffffffffffffffffffffffffffffffffffffffff1673ffffffffffffffffffffffffffffffffffffffff16815260200190815260200160002080549050905060008167ffffffffffffffff8111156102875761028661299a565b5b6040519080825280602002602001820160405280156102c057816020015b6102ad6123db565b8152602001906001900390816102a55790505b50905060005b82811015610664576000600260008773ffffffffffffffffffffffffffffffffffffffff1673ffffffffffffffffffffffffffffffffffffffff168152602001908152602001600020828154811061032157610320612d8a565b5b9060005260206000200154905060016000828152602001908152602001600020604051806101e00160405290816000820154815260200160018201805461036790612de8565b80601f016020809104026020016040519081016040528092919081815260200182805461039390612de8565b80156103e05780601f106103b5576101008083540402835291602001916103e0565b820191906000526020600020905b8154815290600101906020018083116103c357829003601f168201915b505050505081526020016002820180546103f990612de8565b80601f016020809104026020016040519081016040528092919081815260200182805461042590612de8565b80156104725780601f1061044757610100808354040283529160200191610472565b820191906000526020600020905b81548152906001019060200180831161045557829003601f168201915b5050505050815260200160038201548152602001600482015481526020016005820160009054906101000a900473ffffffffffffffffffffffffffffffffffffffff1673ffffffffffffffffffffffffffffffffffffffff1673ffffffffffffffffffffffffffffffffffffffff1681526020016006820160009054906101000a900473ffffffffffffffffffffffffffffffffffffffff1673ffffffffffffffffffffffffffffffffffffffff1673ffffffffffffffffffffffffffffffffffffffff1681526020016007820160009054906101000a900473ffffffffffffffffffffffffffffffffffffffff1673ffffffffffffffffffffffffffffffffffffffff1673ffffffffffffffffffffffffffffffffffffffff1681526020016008820160009054906101000a900473ffffffffffffffffffffffffffffffffffffffff1673ffffffffffffffffffffffffffffffffffffffff1673ffffffffffffffffffffffffffffffffffffffff16815260200160098201548152602001600a8201548152602001600b8201548152602001600c8201548152602001600d8201548152602001600e820160009054906101000a900460ff16151515158152505083838151811061064757610646612d8a565b5b6020026020010181905250508061065d90612e48565b90506102c6565b508092505050919050565b600061067a82611cbf565b90503373ffffffffffffffffffffffffffffffffffffffff168160e0015173ffffffffffffffffffffffffffffffffffffffff1614806106eb5750600073ffffffffffffffffffffffffffffffffffffffff168160c0015173ffffffffffffffffffffffffffffffffffffffff1614155b1561072b576040517fef7d78ef00000000000000000000000000000000000000000000000000000000815260040161072290612eed565b60405180910390fd5b60006107516107438361012001518460600151612022565b670de0b6b3a7640000612038565b905080341015610796576040517f4817ec2e00000000000000000000000000000000000000000000000000000000815260040161078d90612f59565b60405180910390fd5b336001600085815260200190815260200160002060060160006101000a81548173ffffffffffffffffffffffffffffffffffffffff021916908373ffffffffffffffffffffffffffffffffffffffff1602179055503460016000858152602001908152602001600020600a0181905550600260003373ffffffffffffffffffffffffffffffffffffffff1673ffffffffffffffffffffffffffffffffffffffff168152602001908152602001600020839080600181540180825580915050600190039060005260206000200160009091909190915055505050565b60003410156108b5576040517f4817ec2e0000000000000000000000000000000000000000000000000000000081526004016108ac90612fc5565b60405180910390fd5b6108be8261204e565b5060006108c96120a1565b90506000604051806101e001604052808381526020018981526020018881526020018781526020018681526020013373ffffffffffffffffffffffffffffffffffffffff168152602001600073ffffffffffffffffffffffffffffffffffffffff1681526020018473ffffffffffffffffffffffffffffffffffffffff168152602001600073ffffffffffffffffffffffffffffffffffffffff168152602001348152602001600081526020016000815260200142815260200185815260200160001515815250905080600160008481526020019081526020016000206000820151816000015560208201518160010190805190602001906109cc9291906124ab565b5060408201518160020190805190602001906109e99291906124ab565b50606082015181600301556080820151816004015560a08201518160050160006101000a81548173ffffffffffffffffffffffffffffffffffffffff021916908373ffffffffffffffffffffffffffffffffffffffff16021790555060c08201518160060160006101000a81548173ffffffffffffffffffffffffffffffffffffffff021916908373ffffffffffffffffffffffffffffffffffffffff16021790555060e08201518160070160006101000a81548173ffffffffffffffffffffffffffffffffffffffff021916908373ffffffffffffffffffffffffffffffffffffffff1602179055506101008201518160080160006101000a81548173ffffffffffffffffffffffffffffffffffffffff021916908373ffffffffffffffffffffffffffffffffffffffff160217905550610120820151816009015561014082015181600a015561016082015181600b015561018082015181600c01556101a082015181600d01556101c082015181600e0160006101000a81548160ff021916908315150217905550905050600260003373ffffffffffffffffffffffffffffffffffffffff1673ffffffffffffffffffffffffffffffffffffffff1681526020019081526020016000208290806001815401808255809150506001900390600052602060002001600090919091909150555050505050505050565b60008060016000848152602001908152602001600020604051806101e001604052908160008201548152602001600182018054610c2290612de8565b80601f0160208091040260200160405190810160405280929190818152602001828054610c4e90612de8565b8015610c9b5780601f10610c7057610100808354040283529160200191610c9b565b820191906000526020600020905b815481529060010190602001808311610c7e57829003601f168201915b50505050508152602001600282018054610cb490612de8565b80601f0160208091040260200160405190810160405280929190818152602001828054610ce090612de8565b8015610d2d5780601f10610d0257610100808354040283529160200191610d2d565b820191906000526020600020905b815481529060010190602001808311610d1057829003601f168201915b5050505050815260200160038201548152602001600482015481526020016005820160009054906101000a900473ffffffffffffffffffffffffffffffffffffffff1673ffffffffffffffffffffffffffffffffffffffff1673ffffffffffffffffffffffffffffffffffffffff1681526020016006820160009054906101000a900473ffffffffffffffffffffffffffffffffffffffff1673ffffffffffffffffffffffffffffffffffffffff1673ffffffffffffffffffffffffffffffffffffffff1681526020016007820160009054906101000a900473ffffffffffffffffffffffffffffffffffffffff1673ffffffffffffffffffffffffffffffffffffffff1673ffffffffffffffffffffffffffffffffffffffff1681526020016008820160009054906101000a900473ffffffffffffffffffffffffffffffffffffffff1673ffffffffffffffffffffffffffffffffffffffff1673ffffffffffffffffffffffffffffffffffffffff16815260200160098201548152602001600a8201548152602001600b8201548152602001600c8201548152602001600d8201548152602001600e820160009054906101000a900460ff16151515158152505090503373ffffffffffffffffffffffffffffffffffffffff168160a0015173ffffffffffffffffffffffffffffffffffffffff16141580610f615750600073ffffffffffffffffffffffffffffffffffffffff168160c0015173ffffffffffffffffffffffffffffffffffffffff1614155b15610fa1576040517fef7d78ef000000000000000000000000000000000000000000000000000000008152600401610f9890613031565b60405180910390fd5b60016000848152602001908152602001600020600080820160009055600182016000610fcd9190612531565b600282016000610fdd9190612531565b600382016000905560048201600090556005820160006101000a81549073ffffffffffffffffffffffffffffffffffffffff02191690556006820160006101000a81549073ffffffffffffffffffffffffffffffffffffffff02191690556007820160006101000a81549073ffffffffffffffffffffffffffffffffffffffff02191690556008820160006101000a81549073ffffffffffffffffffffffffffffffffffffffff02191690556009820160009055600a820160009055600b820160009055600c820160009055600d820160009055600e820160006101000a81549060ff0219169055505060008061111285600260003373ffffffffffffffffffffffffffffffffffffffff1673ffffffffffffffffffffffffffffffffffffffff1681526020019081526020016000206120be565b9150915080156111b1573373ffffffffffffffffffffffffffffffffffffffff166108fc8461012001519081150290604051600060405180830381858888f19350505050158015611167573d6000803e3d6000fd5b506111b082600260003373ffffffffffffffffffffffffffffffffffffffff1673ffffffffffffffffffffffffffffffffffffffff168152602001908152602001600020612122565b5b60019350505050919050565b60006111c883611cbf565b90506111d3816121d7565b508060a0015173ffffffffffffffffffffffffffffffffffffffff168273ffffffffffffffffffffffffffffffffffffffff16148061124157508060c0015173ffffffffffffffffffffffffffffffffffffffff168273ffffffffffffffffffffffffffffffffffffffff16145b1561141257600080611252836122c2565b91509150600082146112c5578260e0015173ffffffffffffffffffffffffffffffffffffffff166108fc839081150290604051600060405180830381858888f193505050501580156112a8573d6000803e3d6000fd5b508160016000878152602001908152602001600020600b01819055505b60008114611388578373ffffffffffffffffffffffffffffffffffffffff166108fc829081150290604051600060405180830381858888f19350505050158015611313573d6000803e3d6000fd5b508260a0015173ffffffffffffffffffffffffffffffffffffffff168473ffffffffffffffffffffffffffffffffffffffff160361136b57806001600087815260200190815260200160002060090181905550611387565b8060016000878152602001908152602001600020600a01819055505b5b836001600087815260200190815260200160002060080160006101000a81548173ffffffffffffffffffffffffffffffffffffffff021916908373ffffffffffffffffffffffffffffffffffffffff1602179055506001806000878152602001908152602001600020600e0160006101000a81548160ff021916908315150217905550505061144d565b6040517fa8c278dd0000000000000000000000000000000000000000000000000000000081526004016114449061309d565b60405180910390fd5b505050565b60606000805467ffffffffffffffff8111156114715761147061299a565b5b6040519080825280602002602001820160405280156114aa57816020015b6114976123db565b81526020019060019003908161148f5790505b50905060005b6000548110156117ef5760016000828152602001908152602001600020604051806101e0016040529081600082015481526020016001820180546114f390612de8565b80601f016020809104026020016040519081016040528092919081815260200182805461151f90612de8565b801561156c5780601f106115415761010080835404028352916020019161156c565b820191906000526020600020905b81548152906001019060200180831161154f57829003601f168201915b5050505050815260200160028201805461158590612de8565b80601f01602080910402602001604051908101604052809291908181526020018280546115b190612de8565b80156115fe5780601f106115d3576101008083540402835291602001916115fe565b820191906000526020600020905b8154815290600101906020018083116115e157829003601f168201915b5050505050815260200160038201548152602001600482015481526020016005820160009054906101000a900473ffffffffffffffffffffffffffffffffffffffff1673ffffffffffffffffffffffffffffffffffffffff1673ffffffffffffffffffffffffffffffffffffffff1681526020016006820160009054906101000a900473ffffffffffffffffffffffffffffffffffffffff1673ffffffffffffffffffffffffffffffffffffffff1673ffffffffffffffffffffffffffffffffffffffff1681526020016007820160009054906101000a900473ffffffffffffffffffffffffffffffffffffffff1673ffffffffffffffffffffffffffffffffffffffff1673ffffffffffffffffffffffffffffffffffffffff1681526020016008820160009054906101000a900473ffffffffffffffffffffffffffffffffffffffff1673ffffffffffffffffffffffffffffffffffffffff1673ffffffffffffffffffffffffffffffffffffffff16815260200160098201548152602001600a8201548152602001600b8201548152602001600c8201548152602001600d8201548152602001600e820160009054906101000a900460ff1615151515815250508282815181106117d3576117d2612d8a565b5b6020026020010181905250806117e890612e48565b90506114b0565b508091505090565b60005481565b600061180882611cbf565b9050611813816121d7565b50600080600061182284612317565b92509250925060008314611897578360e0015173ffffffffffffffffffffffffffffffffffffffff166108fc849081150290604051600060405180830381858888f1935050505015801561187a573d6000803e3d6000fd5b508260016000878152602001908152602001600020600b01819055505b60008214611906578360a0015173ffffffffffffffffffffffffffffffffffffffff166108fc839081150290604051600060405180830381858888f193505050501580156118e9573d6000803e3d6000fd5b508160016000878152602001908152602001600020600901819055505b60008114611975578360c0015173ffffffffffffffffffffffffffffffffffffffff166108fc829081150290604051600060405180830381858888f19350505050158015611958573d6000803e3d6000fd5b508060016000878152602001908152602001600020600a01819055505b6001806000878152602001908152602001600020600e0160006101000a81548160ff0219169083151502179055505050505050565b6119b26123db565b60016000838152602001908152602001600020604051806101e0016040529081600082015481526020016001820180546119eb90612de8565b80601f0160208091040260200160405190810160405280929190818152602001828054611a1790612de8565b8015611a645780601f10611a3957610100808354040283529160200191611a64565b820191906000526020600020905b815481529060010190602001808311611a4757829003601f168201915b50505050508152602001600282018054611a7d90612de8565b80601f0160208091040260200160405190810160405280929190818152602001828054611aa990612de8565b8015611af65780601f10611acb57610100808354040283529160200191611af6565b820191906000526020600020905b815481529060010190602001808311611ad957829003601f168201915b5050505050815260200160038201548152602001600482015481526020016005820160009054906101000a900473ffffffffffffffffffffffffffffffffffffffff1673ffffffffffffffffffffffffffffffffffffffff1673ffffffffffffffffffffffffffffffffffffffff1681526020016006820160009054906101000a900473ffffffffffffffffffffffffffffffffffffffff1673ffffffffffffffffffffffffffffffffffffffff1673ffffffffffffffffffffffffffffffffffffffff1681526020016007820160009054906101000a900473ffffffffffffffffffffffffffffffffffffffff1673ffffffffffffffffffffffffffffffffffffffff1673ffffffffffffffffffffffffffffffffffffffff1681526020016008820160009054906101000a900473ffffffffffffffffffffffffffffffffffffffff1673ffffffffffffffffffffffffffffffffffffffff1673ffffffffffffffffffffffffffffffffffffffff16815260200160098201548152602001600a8201548152602001600b8201548152602001600c8201548152602001600d8201548152602001600e820160009054906101000a900460ff1615151515815250509050919050565b611cc76123db565b600060016000848152602001908152602001600020604051806101e001604052908160008201548152602001600182018054611d0290612de8565b80601f0160208091040260200160405190810160405280929190818152602001828054611d2e90612de8565b8015611d7b5780601f10611d5057610100808354040283529160200191611d7b565b820191906000526020600020905b815481529060010190602001808311611d5e57829003601f168201915b50505050508152602001600282018054611d9490612de8565b80601f0160208091040260200160405190810160405280929190818152602001828054611dc090612de8565b8015611e0d5780601f10611de257610100808354040283529160200191611e0d565b820191906000526020600020905b815481529060010190602001808311611df057829003601f168201915b5050505050815260200160038201548152602001600482015481526020016005820160009054906101000a900473ffffffffffffffffffffffffffffffffffffffff1673ffffffffffffffffffffffffffffffffffffffff1673ffffffffffffffffffffffffffffffffffffffff1681526020016006820160009054906101000a900473ffffffffffffffffffffffffffffffffffffffff1673ffffffffffffffffffffffffffffffffffffffff1673ffffffffffffffffffffffffffffffffffffffff1681526020016007820160009054906101000a900473ffffffffffffffffffffffffffffffffffffffff1673ffffffffffffffffffffffffffffffffffffffff1673ffffffffffffffffffffffffffffffffffffffff1681526020016008820160009054906101000a900473ffffffffffffffffffffffffffffffffffffffff1673ffffffffffffffffffffffffffffffffffffffff1673ffffffffffffffffffffffffffffffffffffffff16815260200160098201548152602001600a8201548152602001600b8201548152602001600c8201548152602001600d8201548152602001600e820160009054906101000a900460ff1615151515815250509050600081610120015103612019576040517f607be5dc00000000000000000000000000000000000000000000000000000000815260040161201090613109565b60405180910390fd5b80915050919050565b600081836120309190613129565b905092915050565b6000818361204691906131b2565b905092915050565b6000808242101590508015612098576040517fed731ed700000000000000000000000000000000000000000000000000000000815260040161208f9061322f565b60405180910390fd5b80915050919050565b60008060008154809291906120b590612e48565b91905055905090565b60008060005b838054905081101561211257848482815481106120e4576120e3612d8a565b5b90600052602060002001540361210157806001925092505061211b565b8061210b90612e48565b90506120c4565b50600080915091505b9250929050565b80805490508210156121d35760008290505b60018280549050612145919061324f565b8110156121aa578160018261215a9190613283565b8154811061216b5761216a612d8a565b5b906000526020600020015482828154811061218957612188612d8a565b5b906000526020600020018190555080806121a290612e48565b915050612134565b50808054806121bc576121bb6132d9565b5b600190038181906000526020600020016000905590555b5050565b60003373ffffffffffffffffffffffffffffffffffffffff168260e0015173ffffffffffffffffffffffffffffffffffffffff1614158061224a5750600073ffffffffffffffffffffffffffffffffffffffff1682610100015173ffffffffffffffffffffffffffffffffffffffff1614155b8061225a57506000826101200151145b8061226a57506000826101400151145b80612279575042826101a00151115b156122b9576040517fef7d78ef0000000000000000000000000000000000000000000000000000000081526004016122b09061337a565b60405180910390fd5b60019050919050565b60008060006122db8461012001518561014001516123c5565b905060006122f76122f0838760800151612022565b6064612038565b905060008183612307919061324f565b9050818194509450505050915091565b6000806000806123318561012001518661014001516123c5565b9050600061234d612346838860800151612022565b6064612038565b9050600061236e6123678861012001518960800151612022565b6064612038565b87610120015161237e919061324f565b9050600061239f6123988961014001518a60800151612022565b6064612038565b8861014001516123af919061324f565b9050828282965096509650505050509193909250565b600081836123d39190613283565b905092915050565b604051806101e001604052806000815260200160608152602001606081526020016000815260200160008152602001600073ffffffffffffffffffffffffffffffffffffffff168152602001600073ffffffffffffffffffffffffffffffffffffffff168152602001600073ffffffffffffffffffffffffffffffffffffffff168152602001600073ffffffffffffffffffffffffffffffffffffffff16815260200160008152602001600081526020016000815260200160008152602001600081526020016000151581525090565b8280546124b790612de8565b90600052602060002090601f0160209004810192826124d95760008555612520565b82601f106124f257805160ff1916838001178555612520565b82800160010185558215612520579182015b8281111561251f578251825591602001919060010190612504565b5b50905061252d9190612571565b5090565b50805461253d90612de8565b6000825580601f1061254f575061256e565b601f01602090049060005260206000209081019061256d9190612571565b5b50565b5b8082111561258a576000816000905550600101612572565b5090565b6000604051905090565b600080fd5b600080fd5b600073ffffffffffffffffffffffffffffffffffffffff82169050919050565b60006125cd826125a2565b9050919050565b6125dd816125c2565b81146125e857600080fd5b50565b6000813590506125fa816125d4565b92915050565b60006020828403121561261657612615612598565b5b6000612624848285016125eb565b91505092915050565b600081519050919050565b600082825260208201905092915050565b6000819050602082019050919050565b6000819050919050565b61266c81612659565b82525050565b600081519050919050565b600082825260208201905092915050565b60005b838110156126ac578082015181840152602081019050612691565b838111156126bb576000848401525b50505050565b6000601f19601f8301169050919050565b60006126dd82612672565b6126e7818561267d565b93506126f781856020860161268e565b612700816126c1565b840191505092915050565b612714816125c2565b82525050565b60008115159050919050565b61272f8161271a565b82525050565b60006101e08301600083015161274e6000860182612663565b506020830151848203602086015261276682826126d2565b9150506040830151848203604086015261278082826126d2565b91505060608301516127956060860182612663565b5060808301516127a86080860182612663565b5060a08301516127bb60a086018261270b565b5060c08301516127ce60c086018261270b565b5060e08301516127e160e086018261270b565b506101008301516127f661010086018261270b565b5061012083015161280b610120860182612663565b50610140830151612820610140860182612663565b50610160830151612835610160860182612663565b5061018083015161284a610180860182612663565b506101a083015161285f6101a0860182612663565b506101c08301516128746101c0860182612726565b508091505092915050565b600061288b8383612735565b905092915050565b6000602082019050919050565b60006128ab8261262d565b6128b58185612638565b9350836020820285016128c785612649565b8060005b8581101561290357848403895281516128e4858261287f565b94506128ef83612893565b925060208a019950506001810190506128cb565b50829750879550505050505092915050565b6000602082019050818103600083015261292f81846128a0565b905092915050565b61294081612659565b811461294b57600080fd5b50565b60008135905061295d81612937565b92915050565b60006020828403121561297957612978612598565b5b60006129878482850161294e565b91505092915050565b600080fd5b600080fd5b7f4e487b7100000000000000000000000000000000000000000000000000000000600052604160045260246000fd5b6129d2826126c1565b810181811067ffffffffffffffff821117156129f1576129f061299a565b5b80604052505050565b6000612a0461258e565b9050612a1082826129c9565b919050565b600067ffffffffffffffff821115612a3057612a2f61299a565b5b612a39826126c1565b9050602081019050919050565b82818337600083830152505050565b6000612a68612a6384612a15565b6129fa565b905082815260208101848484011115612a8457612a83612995565b5b612a8f848285612a46565b509392505050565b600082601f830112612aac57612aab612990565b5b8135612abc848260208601612a55565b91505092915050565b60008060008060008060c08789031215612ae257612ae1612598565b5b600087013567ffffffffffffffff811115612b0057612aff61259d565b5b612b0c89828a01612a97565b965050602087013567ffffffffffffffff811115612b2d57612b2c61259d565b5b612b3989828a01612a97565b9550506040612b4a89828a0161294e565b9450506060612b5b89828a0161294e565b9350506080612b6c89828a0161294e565b92505060a0612b7d89828a016125eb565b9150509295509295509295565b612b938161271a565b82525050565b6000602082019050612bae6000830184612b8a565b92915050565b60008060408385031215612bcb57612bca612598565b5b6000612bd98582860161294e565b9250506020612bea858286016125eb565b9150509250929050565b612bfd81612659565b82525050565b6000602082019050612c186000830184612bf4565b92915050565b60006101e083016000830151612c376000860182612663565b5060208301518482036020860152612c4f82826126d2565b91505060408301518482036040860152612c6982826126d2565b9150506060830151612c7e6060860182612663565b506080830151612c916080860182612663565b5060a0830151612ca460a086018261270b565b5060c0830151612cb760c086018261270b565b5060e0830151612cca60e086018261270b565b50610100830151612cdf61010086018261270b565b50610120830151612cf4610120860182612663565b50610140830151612d09610140860182612663565b50610160830151612d1e610160860182612663565b50610180830151612d33610180860182612663565b506101a0830151612d486101a0860182612663565b506101c0830151612d5d6101c0860182612726565b508091505092915050565b60006020820190508181036000830152612d828184612c1e565b905092915050565b7f4e487b7100000000000000000000000000000000000000000000000000000000600052603260045260246000fd5b7f4e487b7100000000000000000000000000000000000000000000000000000000600052602260045260246000fd5b60006002820490506001821680612e0057607f821691505b602082108103612e1357612e12612db9565b5b50919050565b7f4e487b7100000000000000000000000000000000000000000000000000000000600052601160045260246000fd5b6000612e5382612659565b91507fffffffffffffffffffffffffffffffffffffffffffffffffffffffffffffffff8203612e8557612e84612e19565b5b600182019050919050565b600082825260208201905092915050565b7f4163657074206572726f72000000000000000000000000000000000000000000600082015250565b6000612ed7600b83612e90565b9150612ee282612ea1565b602082019050919050565b60006020820190508181036000830152612f0681612eca565b9050919050565b7f496e73756666696369656e742066756e64730000000000000000000000000000600082015250565b6000612f43601283612e90565b9150612f4e82612f0d565b602082019050919050565b60006020820190508181036000830152612f7281612f36565b9050919050565b7f596f752073686f756c642061747461636820736f6d65204465706f7369740000600082015250565b6000612faf601e83612e90565b9150612fba82612f79565b602082019050919050565b60006020820190508181036000830152612fde81612fa2565b9050919050565b7f596f752063616e27742072656d6f7665204368616c6c656e6765000000000000600082015250565b600061301b601a83612e90565b915061302682612fe5565b602082019050919050565b6000602082019050818103600083015261304a8161300e565b9050919050565b7f496e76616c69642077696e6e6572206164647265737300000000000000000000600082015250565b6000613087601683612e90565b915061309282613051565b602082019050919050565b600060208201905081810360008301526130b68161307a565b9050919050565b7f4974656d206e6f7420666f756e64000000000000000000000000000000000000600082015250565b60006130f3600e83612e90565b91506130fe826130bd565b602082019050919050565b60006020820190508181036000830152613122816130e6565b9050919050565b600061313482612659565b915061313f83612659565b9250817fffffffffffffffffffffffffffffffffffffffffffffffffffffffffffffffff048311821515161561317857613177612e19565b5b828202905092915050565b7f4e487b7100000000000000000000000000000000000000000000000000000000600052601260045260246000fd5b60006131bd82612659565b91506131c883612659565b9250826131d8576131d7613183565b5b828204905092915050565b7f446561646c696e65207761732065787069726564000000000000000000000000600082015250565b6000613219601483612e90565b9150613224826131e3565b602082019050919050565b600060208201905081810360008301526132488161320c565b9050919050565b600061325a82612659565b915061326583612659565b92508282101561327857613277612e19565b5b828203905092915050565b600061328e82612659565b915061329983612659565b9250827fffffffffffffffffffffffffffffffffffffffffffffffffffffffffffffffff038211156132ce576132cd612e19565b5b828201905092915050565b7f4e487b7100000000000000000000000000000000000000000000000000000000600052603160045260246000fd5b7f596f752063616e2774207365742077696e6e657220746f20746869732043686160008201527f6c6c656e67650000000000000000000000000000000000000000000000000000602082015250565b6000613364602683612e90565b915061336f82613308565b604082019050919050565b6000602082019050818103600083015261339381613357565b905091905056fea264697066735822122093027ec597739c42545f5d64eef122f9d7e01fb053be41750c72e0532b5c16f664736f6c634300080e0033",
  "linkReferences": {},
  "deployedLinkReferences": {}
}