{
  "_format": "hh-sol-artifact-1",
  "contractName": "CustomChallenge",
  "sourceName": "smart_contract/contracts/CustomChallenge.sol",
  "abi": [
    {
      "inputs": [],
      "stateMutability": "nonpayable",
      "type": "constructor"
    },
    {
      "inputs": [
        {
          "internalType": "string",
          "name": "message",
          "type": "string"
        }
      ],
      "name": "CantChange",
      "type": "error"
    },
    {
      "inputs": [
        {
          "internalType": "string",
          "name": "message",
          "type": "string"
        }
      ],
      "name": "DateExpired",
      "type": "error"
    },
    {
      "inputs": [
        {
          "internalType": "string",
          "name": "message",
          "type": "string"
        }
      ],
      "name": "InsufficientAmount",
      "type": "error"
    },
    {
      "inputs": [
        {
          "internalType": "string",
          "name": "message",
          "type": "string"
        }
      ],
      "name": "InvalidParams",
      "type": "error"
    },
    {
      "inputs": [
        {
          "internalType": "string",
          "name": "message",
          "type": "string"
        }
      ],
      "name": "NotFound",
      "type": "error"
    },
    {
      "inputs": [
        {
          "internalType": "uint256",
          "name": "_id",
          "type": "uint256"
        }
      ],
      "name": "accept",
      "outputs": [],
      "stateMutability": "payable",
      "type": "function"
    },
    {
      "inputs": [],
      "name": "allChallenges",
      "outputs": [
        {
          "components": [
            {
              "internalType": "uint256",
              "name": "id",
              "type": "uint256"
            },
            {
              "internalType": "string",
              "name": "name",
              "type": "string"
            },
            {
              "internalType": "string",
              "name": "description",
              "type": "string"
            },
            {
              "internalType": "uint256",
              "name": "cof",
              "type": "uint256"
            },
            {
              "internalType": "uint256",
              "name": "oracle_fee",
              "type": "uint256"
            },
            {
              "internalType": "address",
              "name": "maker",
              "type": "address"
            },
            {
              "internalType": "address",
              "name": "taker",
              "type": "address"
            },
            {
              "internalType": "address",
              "name": "oracle",
              "type": "address"
            },
            {
              "internalType": "address",
              "name": "winner",
              "type": "address"
            },
            {
              "internalType": "uint256",
              "name": "paid_maker",
              "type": "uint256"
            },
            {
              "internalType": "uint256",
              "name": "paid_taker",
              "type": "uint256"
            },
            {
              "internalType": "uint256",
              "name": "paid_oracle",
              "type": "uint256"
            },
            {
              "internalType": "uint256",
              "name": "created_date",
              "type": "uint256"
            },
            {
              "internalType": "uint256",
              "name": "deadline_date",
              "type": "uint256"
            },
            {
              "internalType": "bool",
              "name": "finished",
              "type": "bool"
            }
          ],
          "internalType": "struct CustomChallenge.ChallengeStruct[]",
          "name": "",
          "type": "tuple[]"
        }
      ],
      "stateMutability": "view",
      "type": "function"
    },
    {
      "inputs": [
        {
          "internalType": "string",
          "name": "_name",
          "type": "string"
        },
        {
          "internalType": "string",
          "name": "_description",
          "type": "string"
        },
        {
          "internalType": "uint256",
          "name": "_cof",
          "type": "uint256"
        },
        {
          "internalType": "uint256",
          "name": "_oracle_fee",
          "type": "uint256"
        },
        {
          "internalType": "uint256",
          "name": "_deadline_date",
          "type": "uint256"
        },
        {
          "internalType": "address",
          "name": "_oracle",
          "type": "address"
        }
      ],
      "name": "create",
      "outputs": [],
      "stateMutability": "payable",
      "type": "function"
    },
    {
      "inputs": [
        {
          "internalType": "uint256",
          "name": "_id",
          "type": "uint256"
        }
      ],
      "name": "getById",
      "outputs": [
        {
          "components": [
            {
              "internalType": "uint256",
              "name": "id",
              "type": "uint256"
            },
            {
              "internalType": "string",
              "name": "name",
              "type": "string"
            },
            {
              "internalType": "string",
              "name": "description",
              "type": "string"
            },
            {
              "internalType": "uint256",
              "name": "cof",
              "type": "uint256"
            },
            {
              "internalType": "uint256",
              "name": "oracle_fee",
              "type": "uint256"
            },
            {
              "internalType": "address",
              "name": "maker",
              "type": "address"
            },
            {
              "internalType": "address",
              "name": "taker",
              "type": "address"
            },
            {
              "internalType": "address",
              "name": "oracle",
              "type": "address"
            },
            {
              "internalType": "address",
              "name": "winner",
              "type": "address"
            },
            {
              "internalType": "uint256",
              "name": "paid_maker",
              "type": "uint256"
            },
            {
              "internalType": "uint256",
              "name": "paid_taker",
              "type": "uint256"
            },
            {
              "internalType": "uint256",
              "name": "paid_oracle",
              "type": "uint256"
            },
            {
              "internalType": "uint256",
              "name": "created_date",
              "type": "uint256"
            },
            {
              "internalType": "uint256",
              "name": "deadline_date",
              "type": "uint256"
            },
            {
              "internalType": "bool",
              "name": "finished",
              "type": "bool"
            }
          ],
          "internalType": "struct CustomChallenge.ChallengeStruct",
          "name": "",
          "type": "tuple"
        }
      ],
      "stateMutability": "view",
      "type": "function"
    },
    {
      "inputs": [],
      "name": "id",
      "outputs": [
        {
          "internalType": "uint256",
          "name": "",
          "type": "uint256"
        }
      ],
      "stateMutability": "view",
      "type": "function"
    },
    {
      "inputs": [
        {
          "internalType": "uint256",
          "name": "_id",
          "type": "uint256"
        }
      ],
      "name": "remove",
      "outputs": [
        {
          "internalType": "bool",
          "name": "",
          "type": "bool"
        }
      ],
      "stateMutability": "nonpayable",
      "type": "function"
    },
    {
      "inputs": [
        {
          "internalType": "uint256",
          "name": "_id",
          "type": "uint256"
        }
      ],
      "name": "setDraw",
      "outputs": [],
      "stateMutability": "nonpayable",
      "type": "function"
    },
    {
      "inputs": [
        {
          "internalType": "uint256",
          "name": "_id",
          "type": "uint256"
        },
        {
          "internalType": "address",
          "name": "_winner",
          "type": "address"
        }
      ],
      "name": "setWinner",
      "outputs": [],
      "stateMutability": "nonpayable",
      "type": "function"
    }
  ],
  "bytecode": "0x608060405234801561001057600080fd5b50612f17806100206000396000f3fe60806040526004361061007b5760003560e01c8063a3a503ac1161004e578063a3a503ac1461011e578063af640d0f14610149578063b565783514610174578063f4f4d2371461019d5761007b565b806319b05f49146100805780631d2238b91461009c5780634cc82215146100b85780639c623683146100f5575b600080fd5b61009a6004803603810190610095919061214a565b6101da565b005b6100b660048036038101906100b1919061231b565b6103dc565b005b3480156100c457600080fd5b506100df60048036038101906100da919061214a565b610751565b6040516100ec91906123fb565b60405180910390f35b34801561010157600080fd5b5061011c60048036038101906101179190612416565b610d28565b005b34801561012a57600080fd5b50610133610fbe565b6040516101409190612717565b60405180910390f35b34801561015557600080fd5b5061015e611363565b60405161016b9190612748565b60405180910390f35b34801561018057600080fd5b5061019b6004803603810190610196919061214a565b611369565b005b3480156101a957600080fd5b506101c460048036038101906101bf919061214a565b611516565b6040516101d191906128ad565b60405180910390f35b60006101e58261182b565b90503373ffffffffffffffffffffffffffffffffffffffff168160e0015173ffffffffffffffffffffffffffffffffffffffff1614806102565750600073ffffffffffffffffffffffffffffffffffffffff168160c0015173ffffffffffffffffffffffffffffffffffffffff1614155b15610296576040517fef7d78ef00000000000000000000000000000000000000000000000000000000815260040161028d9061292c565b60405180910390fd5b60006102bc6102ae8361012001518460600151611b8f565b670de0b6b3a7640000611ba5565b905080341015610301576040517f4817ec2e0000000000000000000000000000000000000000000000000000000081526004016102f890612998565b60405180910390fd5b336001600085815260200190815260200160002060060160006101000a81548173ffffffffffffffffffffffffffffffffffffffff021916908373ffffffffffffffffffffffffffffffffffffffff1602179055503460016000858152602001908152602001600020600a0181905550600360003373ffffffffffffffffffffffffffffffffffffffff1673ffffffffffffffffffffffffffffffffffffffff168152602001908152602001600020839080600181540180825580915050600190039060005260206000200160009091909190915055505050565b6000341015610420576040517f4817ec2e00000000000000000000000000000000000000000000000000000000815260040161041790612a04565b60405180910390fd5b61042982611bbb565b506000610434611c0e565b90506000604051806101e001604052808381526020018981526020018881526020018781526020018681526020013373ffffffffffffffffffffffffffffffffffffffff168152602001600073ffffffffffffffffffffffffffffffffffffffff1681526020018473ffffffffffffffffffffffffffffffffffffffff168152602001600073ffffffffffffffffffffffffffffffffffffffff16815260200134815260200160008152602001600081526020014281526020018581526020016000151581525090508060016000848152602001908152602001600020600082015181600001556020820151816001019080519060200190610537929190611f4d565b506040820151816002019080519060200190610554929190611f4d565b50606082015181600301556080820151816004015560a08201518160050160006101000a81548173ffffffffffffffffffffffffffffffffffffffff021916908373ffffffffffffffffffffffffffffffffffffffff16021790555060c08201518160060160006101000a81548173ffffffffffffffffffffffffffffffffffffffff021916908373ffffffffffffffffffffffffffffffffffffffff16021790555060e08201518160070160006101000a81548173ffffffffffffffffffffffffffffffffffffffff021916908373ffffffffffffffffffffffffffffffffffffffff1602179055506101008201518160080160006101000a81548173ffffffffffffffffffffffffffffffffffffffff021916908373ffffffffffffffffffffffffffffffffffffffff160217905550610120820151816009015561014082015181600a015561016082015181600b015561018082015181600c01556101a082015181600d01556101c082015181600e0160006101000a81548160ff021916908315150217905550905050600260003373ffffffffffffffffffffffffffffffffffffffff1673ffffffffffffffffffffffffffffffffffffffff1681526020019081526020016000208290806001815401808255809150506001900390600052602060002001600090919091909150555050505050505050565b60008060016000848152602001908152602001600020604051806101e00160405290816000820154815260200160018201805461078d90612a53565b80601f01602080910402602001604051908101604052809291908181526020018280546107b990612a53565b80156108065780601f106107db57610100808354040283529160200191610806565b820191906000526020600020905b8154815290600101906020018083116107e957829003601f168201915b5050505050815260200160028201805461081f90612a53565b80601f016020809104026020016040519081016040528092919081815260200182805461084b90612a53565b80156108985780601f1061086d57610100808354040283529160200191610898565b820191906000526020600020905b81548152906001019060200180831161087b57829003601f168201915b5050505050815260200160038201548152602001600482015481526020016005820160009054906101000a900473ffffffffffffffffffffffffffffffffffffffff1673ffffffffffffffffffffffffffffffffffffffff1673ffffffffffffffffffffffffffffffffffffffff1681526020016006820160009054906101000a900473ffffffffffffffffffffffffffffffffffffffff1673ffffffffffffffffffffffffffffffffffffffff1673ffffffffffffffffffffffffffffffffffffffff1681526020016007820160009054906101000a900473ffffffffffffffffffffffffffffffffffffffff1673ffffffffffffffffffffffffffffffffffffffff1673ffffffffffffffffffffffffffffffffffffffff1681526020016008820160009054906101000a900473ffffffffffffffffffffffffffffffffffffffff1673ffffffffffffffffffffffffffffffffffffffff1673ffffffffffffffffffffffffffffffffffffffff16815260200160098201548152602001600a8201548152602001600b8201548152602001600c8201548152602001600d8201548152602001600e820160009054906101000a900460ff16151515158152505090503373ffffffffffffffffffffffffffffffffffffffff168160a0015173ffffffffffffffffffffffffffffffffffffffff16141580610acc5750600073ffffffffffffffffffffffffffffffffffffffff168160c0015173ffffffffffffffffffffffffffffffffffffffff1614155b15610b0c576040517fef7d78ef000000000000000000000000000000000000000000000000000000008152600401610b0390612ad1565b60405180910390fd5b60016000848152602001908152602001600020600080820160009055600182016000610b389190611fd3565b600282016000610b489190611fd3565b600382016000905560048201600090556005820160006101000a81549073ffffffffffffffffffffffffffffffffffffffff02191690556006820160006101000a81549073ffffffffffffffffffffffffffffffffffffffff02191690556007820160006101000a81549073ffffffffffffffffffffffffffffffffffffffff02191690556008820160006101000a81549073ffffffffffffffffffffffffffffffffffffffff02191690556009820160009055600a820160009055600b820160009055600c820160009055600d820160009055600e820160006101000a81549060ff02191690555050600080610c7d85600260003373ffffffffffffffffffffffffffffffffffffffff1673ffffffffffffffffffffffffffffffffffffffff168152602001908152602001600020611c2b565b915091508015610d1c573373ffffffffffffffffffffffffffffffffffffffff166108fc8461012001519081150290604051600060405180830381858888f19350505050158015610cd2573d6000803e3d6000fd5b50610d1b82600260003373ffffffffffffffffffffffffffffffffffffffff1673ffffffffffffffffffffffffffffffffffffffff168152602001908152602001600020611c90565b5b60019350505050919050565b6000610d338361182b565b9050610d3e81611d49565b508060a0015173ffffffffffffffffffffffffffffffffffffffff168273ffffffffffffffffffffffffffffffffffffffff161480610dac57508060c0015173ffffffffffffffffffffffffffffffffffffffff168273ffffffffffffffffffffffffffffffffffffffff16145b15610f7e57600080610dbd83611e34565b9150915060008214610e30578260e0015173ffffffffffffffffffffffffffffffffffffffff166108fc839081150290604051600060405180830381858888f19350505050158015610e13573d6000803e3d6000fd5b508160016000878152602001908152602001600020600b01819055505b60008114610ef4578373ffffffffffffffffffffffffffffffffffffffff166108fc829081150290604051600060405180830381858888f19350505050158015610e7e573d6000803e3d6000fd5b508260a0015173ffffffffffffffffffffffffffffffffffffffff168473ffffffffffffffffffffffffffffffffffffffff161415610ed757806001600087815260200190815260200160002060090181905550610ef3565b8060016000878152602001908152602001600020600a01819055505b5b836001600087815260200190815260200160002060080160006101000a81548173ffffffffffffffffffffffffffffffffffffffff021916908373ffffffffffffffffffffffffffffffffffffffff1602179055506001806000878152602001908152602001600020600e0160006101000a81548160ff0219169083151502179055505050610fb9565b6040517fa8c278dd000000000000000000000000000000000000000000000000000000008152600401610fb090612b3d565b60405180910390fd5b505050565b60606000805467ffffffffffffffff811115610fdd57610fdc612192565b5b60405190808252806020026020018201604052801561101657816020015b611003612013565b815260200190600190039081610ffb5790505b50905060005b60005481101561135b5760016000828152602001908152602001600020604051806101e00160405290816000820154815260200160018201805461105f90612a53565b80601f016020809104026020016040519081016040528092919081815260200182805461108b90612a53565b80156110d85780601f106110ad576101008083540402835291602001916110d8565b820191906000526020600020905b8154815290600101906020018083116110bb57829003601f168201915b505050505081526020016002820180546110f190612a53565b80601f016020809104026020016040519081016040528092919081815260200182805461111d90612a53565b801561116a5780601f1061113f5761010080835404028352916020019161116a565b820191906000526020600020905b81548152906001019060200180831161114d57829003601f168201915b5050505050815260200160038201548152602001600482015481526020016005820160009054906101000a900473ffffffffffffffffffffffffffffffffffffffff1673ffffffffffffffffffffffffffffffffffffffff1673ffffffffffffffffffffffffffffffffffffffff1681526020016006820160009054906101000a900473ffffffffffffffffffffffffffffffffffffffff1673ffffffffffffffffffffffffffffffffffffffff1673ffffffffffffffffffffffffffffffffffffffff1681526020016007820160009054906101000a900473ffffffffffffffffffffffffffffffffffffffff1673ffffffffffffffffffffffffffffffffffffffff1673ffffffffffffffffffffffffffffffffffffffff1681526020016008820160009054906101000a900473ffffffffffffffffffffffffffffffffffffffff1673ffffffffffffffffffffffffffffffffffffffff1673ffffffffffffffffffffffffffffffffffffffff16815260200160098201548152602001600a8201548152602001600b8201548152602001600c8201548152602001600d8201548152602001600e820160009054906101000a900460ff16151515158152505082828151811061133f5761133e612b5d565b5b60200260200101819052508061135490612bbb565b905061101c565b508091505090565b60005481565b60006113748261182b565b905061137f81611d49565b50600080600061138e84611e89565b92509250925060008314611403578360e0015173ffffffffffffffffffffffffffffffffffffffff166108fc849081150290604051600060405180830381858888f193505050501580156113e6573d6000803e3d6000fd5b508260016000878152602001908152602001600020600b01819055505b60008214611472578360a0015173ffffffffffffffffffffffffffffffffffffffff166108fc839081150290604051600060405180830381858888f19350505050158015611455573d6000803e3d6000fd5b508160016000878152602001908152602001600020600901819055505b600081146114e1578360c0015173ffffffffffffffffffffffffffffffffffffffff166108fc829081150290604051600060405180830381858888f193505050501580156114c4573d6000803e3d6000fd5b508060016000878152602001908152602001600020600a01819055505b6001806000878152602001908152602001600020600e0160006101000a81548160ff0219169083151502179055505050505050565b61151e612013565b60016000838152602001908152602001600020604051806101e00160405290816000820154815260200160018201805461155790612a53565b80601f016020809104026020016040519081016040528092919081815260200182805461158390612a53565b80156115d05780601f106115a5576101008083540402835291602001916115d0565b820191906000526020600020905b8154815290600101906020018083116115b357829003601f168201915b505050505081526020016002820180546115e990612a53565b80601f016020809104026020016040519081016040528092919081815260200182805461161590612a53565b80156116625780601f1061163757610100808354040283529160200191611662565b820191906000526020600020905b81548152906001019060200180831161164557829003601f168201915b5050505050815260200160038201548152602001600482015481526020016005820160009054906101000a900473ffffffffffffffffffffffffffffffffffffffff1673ffffffffffffffffffffffffffffffffffffffff1673ffffffffffffffffffffffffffffffffffffffff1681526020016006820160009054906101000a900473ffffffffffffffffffffffffffffffffffffffff1673ffffffffffffffffffffffffffffffffffffffff1673ffffffffffffffffffffffffffffffffffffffff1681526020016007820160009054906101000a900473ffffffffffffffffffffffffffffffffffffffff1673ffffffffffffffffffffffffffffffffffffffff1673ffffffffffffffffffffffffffffffffffffffff1681526020016008820160009054906101000a900473ffffffffffffffffffffffffffffffffffffffff1673ffffffffffffffffffffffffffffffffffffffff1673ffffffffffffffffffffffffffffffffffffffff16815260200160098201548152602001600a8201548152602001600b8201548152602001600c8201548152602001600d8201548152602001600e820160009054906101000a900460ff1615151515815250509050919050565b611833612013565b600060016000848152602001908152602001600020604051806101e00160405290816000820154815260200160018201805461186e90612a53565b80601f016020809104026020016040519081016040528092919081815260200182805461189a90612a53565b80156118e75780601f106118bc576101008083540402835291602001916118e7565b820191906000526020600020905b8154815290600101906020018083116118ca57829003601f168201915b5050505050815260200160028201805461190090612a53565b80601f016020809104026020016040519081016040528092919081815260200182805461192c90612a53565b80156119795780601f1061194e57610100808354040283529160200191611979565b820191906000526020600020905b81548152906001019060200180831161195c57829003601f168201915b5050505050815260200160038201548152602001600482015481526020016005820160009054906101000a900473ffffffffffffffffffffffffffffffffffffffff1673ffffffffffffffffffffffffffffffffffffffff1673ffffffffffffffffffffffffffffffffffffffff1681526020016006820160009054906101000a900473ffffffffffffffffffffffffffffffffffffffff1673ffffffffffffffffffffffffffffffffffffffff1673ffffffffffffffffffffffffffffffffffffffff1681526020016007820160009054906101000a900473ffffffffffffffffffffffffffffffffffffffff1673ffffffffffffffffffffffffffffffffffffffff1673ffffffffffffffffffffffffffffffffffffffff1681526020016008820160009054906101000a900473ffffffffffffffffffffffffffffffffffffffff1673ffffffffffffffffffffffffffffffffffffffff1673ffffffffffffffffffffffffffffffffffffffff16815260200160098201548152602001600a8201548152602001600b8201548152602001600c8201548152602001600d8201548152602001600e820160009054906101000a900460ff161515151581525050905060008161012001511415611b86576040517f607be5dc000000000000000000000000000000000000000000000000000000008152600401611b7d90612c50565b60405180910390fd5b80915050919050565b60008183611b9d9190612c70565b905092915050565b60008183611bb39190612cf9565b905092915050565b6000808242101590508015611c05576040517fed731ed7000000000000000000000000000000000000000000000000000000008152600401611bfc90612d76565b60405180910390fd5b80915050919050565b6000806000815480929190611c2290612bbb565b91905055905090565b60008060005b8380549050811015611c805784848281548110611c5157611c50612b5d565b5b90600052602060002001541415611c6f578060019250925050611c89565b80611c7990612bbb565b9050611c31565b50600080915091505b9250929050565b80805490508210611ca057611d45565b60008290505b60018280549050611cb79190612d96565b811015611d1c5781600182611ccc9190612dca565b81548110611cdd57611cdc612b5d565b5b9060005260206000200154828281548110611cfb57611cfa612b5d565b5b90600052602060002001819055508080611d1490612bbb565b915050611ca6565b5080805480611d2e57611d2d612e20565b5b600190038181906000526020600020016000905590555b5050565b60003373ffffffffffffffffffffffffffffffffffffffff168260e0015173ffffffffffffffffffffffffffffffffffffffff16141580611dbc5750600073ffffffffffffffffffffffffffffffffffffffff1682610100015173ffffffffffffffffffffffffffffffffffffffff1614155b80611dcc57506000826101200151145b80611ddc57506000826101400151145b80611deb575042826101a00151115b15611e2b576040517fef7d78ef000000000000000000000000000000000000000000000000000000008152600401611e2290612ec1565b60405180910390fd5b60019050919050565b6000806000611e4d846101200151856101400151611f37565b90506000611e69611e62838760800151611b8f565b6064611ba5565b905060008183611e799190612d96565b9050818194509450505050915091565b600080600080611ea3856101200151866101400151611f37565b90506000611ebf611eb8838860800151611b8f565b6064611ba5565b90506000611ee0611ed98861012001518960800151611b8f565b6064611ba5565b876101200151611ef09190612d96565b90506000611f11611f0a8961014001518a60800151611b8f565b6064611ba5565b886101400151611f219190612d96565b9050828282965096509650505050509193909250565b60008183611f459190612dca565b905092915050565b828054611f5990612a53565b90600052602060002090601f016020900481019282611f7b5760008555611fc2565b82601f10611f9457805160ff1916838001178555611fc2565b82800160010185558215611fc2579182015b82811115611fc1578251825591602001919060010190611fa6565b5b509050611fcf91906120e3565b5090565b508054611fdf90612a53565b6000825580601f10611ff15750612010565b601f01602090049060005260206000209081019061200f91906120e3565b5b50565b604051806101e001604052806000815260200160608152602001606081526020016000815260200160008152602001600073ffffffffffffffffffffffffffffffffffffffff168152602001600073ffffffffffffffffffffffffffffffffffffffff168152602001600073ffffffffffffffffffffffffffffffffffffffff168152602001600073ffffffffffffffffffffffffffffffffffffffff16815260200160008152602001600081526020016000815260200160008152602001600081526020016000151581525090565b5b808211156120fc5760008160009055506001016120e4565b5090565b6000604051905090565b600080fd5b600080fd5b6000819050919050565b61212781612114565b811461213257600080fd5b50565b6000813590506121448161211e565b92915050565b6000602082840312156121605761215f61210a565b5b600061216e84828501612135565b91505092915050565b600080fd5b600080fd5b6000601f19601f8301169050919050565b7f4e487b7100000000000000000000000000000000000000000000000000000000600052604160045260246000fd5b6121ca82612181565b810181811067ffffffffffffffff821117156121e9576121e8612192565b5b80604052505050565b60006121fc612100565b905061220882826121c1565b919050565b600067ffffffffffffffff82111561222857612227612192565b5b61223182612181565b9050602081019050919050565b82818337600083830152505050565b600061226061225b8461220d565b6121f2565b90508281526020810184848401111561227c5761227b61217c565b5b61228784828561223e565b509392505050565b600082601f8301126122a4576122a3612177565b5b81356122b484826020860161224d565b91505092915050565b600073ffffffffffffffffffffffffffffffffffffffff82169050919050565b60006122e8826122bd565b9050919050565b6122f8816122dd565b811461230357600080fd5b50565b600081359050612315816122ef565b92915050565b60008060008060008060c087890312156123385761233761210a565b5b600087013567ffffffffffffffff8111156123565761235561210f565b5b61236289828a0161228f565b965050602087013567ffffffffffffffff8111156123835761238261210f565b5b61238f89828a0161228f565b95505060406123a089828a01612135565b94505060606123b189828a01612135565b93505060806123c289828a01612135565b92505060a06123d389828a01612306565b9150509295509295509295565b60008115159050919050565b6123f5816123e0565b82525050565b600060208201905061241060008301846123ec565b92915050565b6000806040838503121561242d5761242c61210a565b5b600061243b85828601612135565b925050602061244c85828601612306565b9150509250929050565b600081519050919050565b600082825260208201905092915050565b6000819050602082019050919050565b61248b81612114565b82525050565b600081519050919050565b600082825260208201905092915050565b60005b838110156124cb5780820151818401526020810190506124b0565b838111156124da576000848401525b50505050565b60006124eb82612491565b6124f5818561249c565b93506125058185602086016124ad565b61250e81612181565b840191505092915050565b612522816122dd565b82525050565b612531816123e0565b82525050565b60006101e0830160008301516125506000860182612482565b506020830151848203602086015261256882826124e0565b9150506040830151848203604086015261258282826124e0565b91505060608301516125976060860182612482565b5060808301516125aa6080860182612482565b5060a08301516125bd60a0860182612519565b5060c08301516125d060c0860182612519565b5060e08301516125e360e0860182612519565b506101008301516125f8610100860182612519565b5061012083015161260d610120860182612482565b50610140830151612622610140860182612482565b50610160830151612637610160860182612482565b5061018083015161264c610180860182612482565b506101a08301516126616101a0860182612482565b506101c08301516126766101c0860182612528565b508091505092915050565b600061268d8383612537565b905092915050565b6000602082019050919050565b60006126ad82612456565b6126b78185612461565b9350836020820285016126c985612472565b8060005b8581101561270557848403895281516126e68582612681565b94506126f183612695565b925060208a019950506001810190506126cd565b50829750879550505050505092915050565b6000602082019050818103600083015261273181846126a2565b905092915050565b61274281612114565b82525050565b600060208201905061275d6000830184612739565b92915050565b60006101e08301600083015161277c6000860182612482565b506020830151848203602086015261279482826124e0565b915050604083015184820360408601526127ae82826124e0565b91505060608301516127c36060860182612482565b5060808301516127d66080860182612482565b5060a08301516127e960a0860182612519565b5060c08301516127fc60c0860182612519565b5060e083015161280f60e0860182612519565b50610100830151612824610100860182612519565b50610120830151612839610120860182612482565b5061014083015161284e610140860182612482565b50610160830151612863610160860182612482565b50610180830151612878610180860182612482565b506101a083015161288d6101a0860182612482565b506101c08301516128a26101c0860182612528565b508091505092915050565b600060208201905081810360008301526128c78184612763565b905092915050565b600082825260208201905092915050565b7f4163657074206572726f72000000000000000000000000000000000000000000600082015250565b6000612916600b836128cf565b9150612921826128e0565b602082019050919050565b6000602082019050818103600083015261294581612909565b9050919050565b7f496e73756666696369656e742066756e64730000000000000000000000000000600082015250565b60006129826012836128cf565b915061298d8261294c565b602082019050919050565b600060208201905081810360008301526129b181612975565b9050919050565b7f596f752073686f756c642061747461636820736f6d65204465706f7369740000600082015250565b60006129ee601e836128cf565b91506129f9826129b8565b602082019050919050565b60006020820190508181036000830152612a1d816129e1565b9050919050565b7f4e487b7100000000000000000000000000000000000000000000000000000000600052602260045260246000fd5b60006002820490506001821680612a6b57607f821691505b60208210811415612a7f57612a7e612a24565b5b50919050565b7f596f752063616e27742072656d6f7665204368616c6c656e6765000000000000600082015250565b6000612abb601a836128cf565b9150612ac682612a85565b602082019050919050565b60006020820190508181036000830152612aea81612aae565b9050919050565b7f496e76616c69642077696e6e6572206164647265737300000000000000000000600082015250565b6000612b276016836128cf565b9150612b3282612af1565b602082019050919050565b60006020820190508181036000830152612b5681612b1a565b9050919050565b7f4e487b7100000000000000000000000000000000000000000000000000000000600052603260045260246000fd5b7f4e487b7100000000000000000000000000000000000000000000000000000000600052601160045260246000fd5b6000612bc682612114565b91507fffffffffffffffffffffffffffffffffffffffffffffffffffffffffffffffff821415612bf957612bf8612b8c565b5b600182019050919050565b7f4974656d206e6f7420666f756e64000000000000000000000000000000000000600082015250565b6000612c3a600e836128cf565b9150612c4582612c04565b602082019050919050565b60006020820190508181036000830152612c6981612c2d565b9050919050565b6000612c7b82612114565b9150612c8683612114565b9250817fffffffffffffffffffffffffffffffffffffffffffffffffffffffffffffffff0483118215151615612cbf57612cbe612b8c565b5b828202905092915050565b7f4e487b7100000000000000000000000000000000000000000000000000000000600052601260045260246000fd5b6000612d0482612114565b9150612d0f83612114565b925082612d1f57612d1e612cca565b5b828204905092915050565b7f446561646c696e65207761732065787069726564000000000000000000000000600082015250565b6000612d606014836128cf565b9150612d6b82612d2a565b602082019050919050565b60006020820190508181036000830152612d8f81612d53565b9050919050565b6000612da182612114565b9150612dac83612114565b925082821015612dbf57612dbe612b8c565b5b828203905092915050565b6000612dd582612114565b9150612de083612114565b9250827fffffffffffffffffffffffffffffffffffffffffffffffffffffffffffffffff03821115612e1557612e14612b8c565b5b828201905092915050565b7f4e487b7100000000000000000000000000000000000000000000000000000000600052603160045260246000fd5b7f596f752063616e2774207365742077696e6e657220746f20746869732043686160008201527f6c6c656e67650000000000000000000000000000000000000000000000000000602082015250565b6000612eab6026836128cf565b9150612eb682612e4f565b604082019050919050565b60006020820190508181036000830152612eda81612e9e565b905091905056fea2646970667358221220d6e8064adf2b2cd11051c6fe190ee3b38e16d57e502bff5f885d451afccb892d64736f6c634300080c0033",
  "linkReferences": {},
  "deployedLinkReferences": {}
}