{
  "_format": "hh-sol-artifact-1",
  "contractName": "CustomChallenge",
  "sourceName": "smart_contract/contracts/CustomChallenge.sol",
  "abi": [
    {
      "inputs": [
        {
          "internalType": "address",
          "name": "trustedForwarder",
          "type": "address"
        }
      ],
      "stateMutability": "nonpayable",
      "type": "constructor"
    },
    {
      "inputs": [
        {
          "internalType": "string",
          "name": "message",
          "type": "string"
        }
      ],
      "name": "CantChange",
      "type": "error"
    },
    {
      "inputs": [
        {
          "internalType": "string",
          "name": "message",
          "type": "string"
        }
      ],
      "name": "DateExpired",
      "type": "error"
    },
    {
      "inputs": [
        {
          "internalType": "string",
          "name": "message",
          "type": "string"
        }
      ],
      "name": "InsufficientAmount",
      "type": "error"
    },
    {
      "inputs": [
        {
          "internalType": "string",
          "name": "message",
          "type": "string"
        }
      ],
      "name": "InvalidParams",
      "type": "error"
    },
    {
      "inputs": [
        {
          "internalType": "string",
          "name": "message",
          "type": "string"
        }
      ],
      "name": "NotFound",
      "type": "error"
    },
    {
      "inputs": [
        {
          "internalType": "uint256",
          "name": "_id",
          "type": "uint256"
        }
      ],
      "name": "accept",
      "outputs": [],
      "stateMutability": "payable",
      "type": "function"
    },
    {
      "inputs": [],
      "name": "allChallenges",
      "outputs": [
        {
          "components": [
            {
              "internalType": "uint256",
              "name": "id",
              "type": "uint256"
            },
            {
              "internalType": "string",
              "name": "name",
              "type": "string"
            },
            {
              "internalType": "string",
              "name": "description",
              "type": "string"
            },
            {
              "internalType": "uint256",
              "name": "cof",
              "type": "uint256"
            },
            {
              "internalType": "uint256",
              "name": "oracle_fee",
              "type": "uint256"
            },
            {
              "internalType": "address",
              "name": "maker",
              "type": "address"
            },
            {
              "internalType": "address",
              "name": "taker",
              "type": "address"
            },
            {
              "internalType": "address",
              "name": "oracle",
              "type": "address"
            },
            {
              "internalType": "address",
              "name": "winner",
              "type": "address"
            },
            {
              "internalType": "uint256",
              "name": "paid_maker",
              "type": "uint256"
            },
            {
              "internalType": "uint256",
              "name": "paid_taker",
              "type": "uint256"
            },
            {
              "internalType": "uint256",
              "name": "paid_oracle",
              "type": "uint256"
            },
            {
              "internalType": "uint256",
              "name": "created_date",
              "type": "uint256"
            },
            {
              "internalType": "uint256",
              "name": "deadline_date",
              "type": "uint256"
            },
            {
              "internalType": "bool",
              "name": "finished",
              "type": "bool"
            }
          ],
          "internalType": "struct CustomChallenge.ChallengeStruct[]",
          "name": "",
          "type": "tuple[]"
        }
      ],
      "stateMutability": "view",
      "type": "function"
    },
    {
      "inputs": [
        {
          "internalType": "string",
          "name": "_name",
          "type": "string"
        },
        {
          "internalType": "string",
          "name": "_description",
          "type": "string"
        },
        {
          "internalType": "uint256",
          "name": "_cof",
          "type": "uint256"
        },
        {
          "internalType": "uint256",
          "name": "_oracle_fee",
          "type": "uint256"
        },
        {
          "internalType": "uint256",
          "name": "_deadline_date",
          "type": "uint256"
        },
        {
          "internalType": "address",
          "name": "_oracle",
          "type": "address"
        }
      ],
      "name": "create",
      "outputs": [],
      "stateMutability": "payable",
      "type": "function"
    },
    {
      "inputs": [
        {
          "internalType": "uint256",
          "name": "_id",
          "type": "uint256"
        }
      ],
      "name": "getById",
      "outputs": [
        {
          "components": [
            {
              "internalType": "uint256",
              "name": "id",
              "type": "uint256"
            },
            {
              "internalType": "string",
              "name": "name",
              "type": "string"
            },
            {
              "internalType": "string",
              "name": "description",
              "type": "string"
            },
            {
              "internalType": "uint256",
              "name": "cof",
              "type": "uint256"
            },
            {
              "internalType": "uint256",
              "name": "oracle_fee",
              "type": "uint256"
            },
            {
              "internalType": "address",
              "name": "maker",
              "type": "address"
            },
            {
              "internalType": "address",
              "name": "taker",
              "type": "address"
            },
            {
              "internalType": "address",
              "name": "oracle",
              "type": "address"
            },
            {
              "internalType": "address",
              "name": "winner",
              "type": "address"
            },
            {
              "internalType": "uint256",
              "name": "paid_maker",
              "type": "uint256"
            },
            {
              "internalType": "uint256",
              "name": "paid_taker",
              "type": "uint256"
            },
            {
              "internalType": "uint256",
              "name": "paid_oracle",
              "type": "uint256"
            },
            {
              "internalType": "uint256",
              "name": "created_date",
              "type": "uint256"
            },
            {
              "internalType": "uint256",
              "name": "deadline_date",
              "type": "uint256"
            },
            {
              "internalType": "bool",
              "name": "finished",
              "type": "bool"
            }
          ],
          "internalType": "struct CustomChallenge.ChallengeStruct",
          "name": "",
          "type": "tuple"
        }
      ],
      "stateMutability": "view",
      "type": "function"
    },
    {
      "inputs": [
        {
          "internalType": "address",
          "name": "u_address",
          "type": "address"
        }
      ],
      "name": "getUserChallenges",
      "outputs": [
        {
          "components": [
            {
              "internalType": "uint256",
              "name": "id",
              "type": "uint256"
            },
            {
              "internalType": "string",
              "name": "name",
              "type": "string"
            },
            {
              "internalType": "string",
              "name": "description",
              "type": "string"
            },
            {
              "internalType": "uint256",
              "name": "cof",
              "type": "uint256"
            },
            {
              "internalType": "uint256",
              "name": "oracle_fee",
              "type": "uint256"
            },
            {
              "internalType": "address",
              "name": "maker",
              "type": "address"
            },
            {
              "internalType": "address",
              "name": "taker",
              "type": "address"
            },
            {
              "internalType": "address",
              "name": "oracle",
              "type": "address"
            },
            {
              "internalType": "address",
              "name": "winner",
              "type": "address"
            },
            {
              "internalType": "uint256",
              "name": "paid_maker",
              "type": "uint256"
            },
            {
              "internalType": "uint256",
              "name": "paid_taker",
              "type": "uint256"
            },
            {
              "internalType": "uint256",
              "name": "paid_oracle",
              "type": "uint256"
            },
            {
              "internalType": "uint256",
              "name": "created_date",
              "type": "uint256"
            },
            {
              "internalType": "uint256",
              "name": "deadline_date",
              "type": "uint256"
            },
            {
              "internalType": "bool",
              "name": "finished",
              "type": "bool"
            }
          ],
          "internalType": "struct CustomChallenge.ChallengeStruct[]",
          "name": "",
          "type": "tuple[]"
        }
      ],
      "stateMutability": "view",
      "type": "function"
    },
    {
      "inputs": [],
      "name": "id",
      "outputs": [
        {
          "internalType": "uint256",
          "name": "",
          "type": "uint256"
        }
      ],
      "stateMutability": "view",
      "type": "function"
    },
    {
      "inputs": [
        {
          "internalType": "address",
          "name": "forwarder",
          "type": "address"
        }
      ],
      "name": "isTrustedForwarder",
      "outputs": [
        {
          "internalType": "bool",
          "name": "",
          "type": "bool"
        }
      ],
      "stateMutability": "view",
      "type": "function"
    },
    {
      "inputs": [
        {
          "internalType": "uint256",
          "name": "_id",
          "type": "uint256"
        }
      ],
      "name": "remove",
      "outputs": [
        {
          "internalType": "bool",
          "name": "",
          "type": "bool"
        }
      ],
      "stateMutability": "nonpayable",
      "type": "function"
    },
    {
      "inputs": [
        {
          "internalType": "uint256",
          "name": "_id",
          "type": "uint256"
        }
      ],
      "name": "setDraw",
      "outputs": [],
      "stateMutability": "nonpayable",
      "type": "function"
    },
    {
      "inputs": [
        {
          "internalType": "uint256",
          "name": "_id",
          "type": "uint256"
        },
        {
          "internalType": "address",
          "name": "_winner",
          "type": "address"
        }
      ],
      "name": "setWinner",
      "outputs": [],
      "stateMutability": "nonpayable",
      "type": "function"
    }
  ],
  "bytecode": "0x60a06040523480156200001157600080fd5b506040516200359c3803806200359c8339818101604052810190620000379190620000de565b808073ffffffffffffffffffffffffffffffffffffffff1660808173ffffffffffffffffffffffffffffffffffffffff1681525050505062000110565b600080fd5b600073ffffffffffffffffffffffffffffffffffffffff82169050919050565b6000620000a68262000079565b9050919050565b620000b88162000099565b8114620000c457600080fd5b50565b600081519050620000d881620000ad565b92915050565b600060208284031215620000f757620000f662000074565b5b60006200010784828501620000c7565b91505092915050565b6080516134706200012c600039600061120901526134706000f3fe6080604052600436106100915760003560e01c80639c623683116100595780639c62368314610185578063a3a503ac146101ae578063af640d0f146101d9578063b565783514610204578063f4f4d2371461022d57610091565b806311da8e541461009657806319b05f49146100d35780631d2238b9146100ef5780634cc822151461010b578063572b6c0514610148575b600080fd5b3480156100a257600080fd5b506100bd60048036038101906100b891906126a0565b61026a565b6040516100ca91906129b5565b60405180910390f35b6100ed60048036038101906100e89190612a03565b6106b7565b005b61010960048036038101906101049190612b65565b6108b9565b005b34801561011757600080fd5b50610132600480360381019061012d9190612a03565b610c2e565b60405161013f9190612c39565b60405180910390f35b34801561015457600080fd5b5061016f600480360381019061016a91906126a0565b611205565b60405161017c9190612c39565b60405180910390f35b34801561019157600080fd5b506101ac60048036038101906101a79190612c54565b61125d565b005b3480156101ba57600080fd5b506101c36114f2565b6040516101d091906129b5565b60405180910390f35b3480156101e557600080fd5b506101ee611897565b6040516101fb9190612ca3565b60405180910390f35b34801561021057600080fd5b5061022b60048036038101906102269190612a03565b61189d565b005b34801561023957600080fd5b50610254600480360381019061024f9190612a03565b611a4a565b6040516102619190612e08565b60405180910390f35b60606000600260008473ffffffffffffffffffffffffffffffffffffffff1673ffffffffffffffffffffffffffffffffffffffff16815260200190815260200160002080549050905060008167ffffffffffffffff8111156102cf576102ce612a3a565b5b60405190808252806020026020018201604052801561030857816020015b6102f561247b565b8152602001906001900390816102ed5790505b50905060005b828110156106ac576000600260008773ffffffffffffffffffffffffffffffffffffffff1673ffffffffffffffffffffffffffffffffffffffff168152602001908152602001600020828154811061036957610368612e2a565b5b9060005260206000200154905060016000828152602001908152602001600020604051806101e0016040529081600082015481526020016001820180546103af90612e88565b80601f01602080910402602001604051908101604052809291908181526020018280546103db90612e88565b80156104285780601f106103fd57610100808354040283529160200191610428565b820191906000526020600020905b81548152906001019060200180831161040b57829003601f168201915b5050505050815260200160028201805461044190612e88565b80601f016020809104026020016040519081016040528092919081815260200182805461046d90612e88565b80156104ba5780601f1061048f576101008083540402835291602001916104ba565b820191906000526020600020905b81548152906001019060200180831161049d57829003601f168201915b5050505050815260200160038201548152602001600482015481526020016005820160009054906101000a900473ffffffffffffffffffffffffffffffffffffffff1673ffffffffffffffffffffffffffffffffffffffff1673ffffffffffffffffffffffffffffffffffffffff1681526020016006820160009054906101000a900473ffffffffffffffffffffffffffffffffffffffff1673ffffffffffffffffffffffffffffffffffffffff1673ffffffffffffffffffffffffffffffffffffffff1681526020016007820160009054906101000a900473ffffffffffffffffffffffffffffffffffffffff1673ffffffffffffffffffffffffffffffffffffffff1673ffffffffffffffffffffffffffffffffffffffff1681526020016008820160009054906101000a900473ffffffffffffffffffffffffffffffffffffffff1673ffffffffffffffffffffffffffffffffffffffff1673ffffffffffffffffffffffffffffffffffffffff16815260200160098201548152602001600a8201548152602001600b8201548152602001600c8201548152602001600d8201548152602001600e820160009054906101000a900460ff16151515158152505083838151811061068f5761068e612e2a565b5b602002602001018190525050806106a590612ee8565b905061030e565b508092505050919050565b60006106c282611d5f565b90503373ffffffffffffffffffffffffffffffffffffffff168160e0015173ffffffffffffffffffffffffffffffffffffffff1614806107335750600073ffffffffffffffffffffffffffffffffffffffff168160c0015173ffffffffffffffffffffffffffffffffffffffff1614155b15610773576040517fef7d78ef00000000000000000000000000000000000000000000000000000000815260040161076a90612f8d565b60405180910390fd5b600061079961078b83610120015184606001516120c2565b670de0b6b3a76400006120d8565b9050803410156107de576040517f4817ec2e0000000000000000000000000000000000000000000000000000000081526004016107d590612ff9565b60405180910390fd5b336001600085815260200190815260200160002060060160006101000a81548173ffffffffffffffffffffffffffffffffffffffff021916908373ffffffffffffffffffffffffffffffffffffffff1602179055503460016000858152602001908152602001600020600a0181905550600260003373ffffffffffffffffffffffffffffffffffffffff1673ffffffffffffffffffffffffffffffffffffffff168152602001908152602001600020839080600181540180825580915050600190039060005260206000200160009091909190915055505050565b60003410156108fd576040517f4817ec2e0000000000000000000000000000000000000000000000000000000081526004016108f490613065565b60405180910390fd5b610906826120ee565b506000610911612141565b90506000604051806101e001604052808381526020018981526020018881526020018781526020018681526020013373ffffffffffffffffffffffffffffffffffffffff168152602001600073ffffffffffffffffffffffffffffffffffffffff1681526020018473ffffffffffffffffffffffffffffffffffffffff168152602001600073ffffffffffffffffffffffffffffffffffffffff16815260200134815260200160008152602001600081526020014281526020018581526020016000151581525090508060016000848152602001908152602001600020600082015181600001556020820151816001019080519060200190610a1492919061254b565b506040820151816002019080519060200190610a3192919061254b565b50606082015181600301556080820151816004015560a08201518160050160006101000a81548173ffffffffffffffffffffffffffffffffffffffff021916908373ffffffffffffffffffffffffffffffffffffffff16021790555060c08201518160060160006101000a81548173ffffffffffffffffffffffffffffffffffffffff021916908373ffffffffffffffffffffffffffffffffffffffff16021790555060e08201518160070160006101000a81548173ffffffffffffffffffffffffffffffffffffffff021916908373ffffffffffffffffffffffffffffffffffffffff1602179055506101008201518160080160006101000a81548173ffffffffffffffffffffffffffffffffffffffff021916908373ffffffffffffffffffffffffffffffffffffffff160217905550610120820151816009015561014082015181600a015561016082015181600b015561018082015181600c01556101a082015181600d01556101c082015181600e0160006101000a81548160ff021916908315150217905550905050600260003373ffffffffffffffffffffffffffffffffffffffff1673ffffffffffffffffffffffffffffffffffffffff1681526020019081526020016000208290806001815401808255809150506001900390600052602060002001600090919091909150555050505050505050565b60008060016000848152602001908152602001600020604051806101e001604052908160008201548152602001600182018054610c6a90612e88565b80601f0160208091040260200160405190810160405280929190818152602001828054610c9690612e88565b8015610ce35780601f10610cb857610100808354040283529160200191610ce3565b820191906000526020600020905b815481529060010190602001808311610cc657829003601f168201915b50505050508152602001600282018054610cfc90612e88565b80601f0160208091040260200160405190810160405280929190818152602001828054610d2890612e88565b8015610d755780601f10610d4a57610100808354040283529160200191610d75565b820191906000526020600020905b815481529060010190602001808311610d5857829003601f168201915b5050505050815260200160038201548152602001600482015481526020016005820160009054906101000a900473ffffffffffffffffffffffffffffffffffffffff1673ffffffffffffffffffffffffffffffffffffffff1673ffffffffffffffffffffffffffffffffffffffff1681526020016006820160009054906101000a900473ffffffffffffffffffffffffffffffffffffffff1673ffffffffffffffffffffffffffffffffffffffff1673ffffffffffffffffffffffffffffffffffffffff1681526020016007820160009054906101000a900473ffffffffffffffffffffffffffffffffffffffff1673ffffffffffffffffffffffffffffffffffffffff1673ffffffffffffffffffffffffffffffffffffffff1681526020016008820160009054906101000a900473ffffffffffffffffffffffffffffffffffffffff1673ffffffffffffffffffffffffffffffffffffffff1673ffffffffffffffffffffffffffffffffffffffff16815260200160098201548152602001600a8201548152602001600b8201548152602001600c8201548152602001600d8201548152602001600e820160009054906101000a900460ff16151515158152505090503373ffffffffffffffffffffffffffffffffffffffff168160a0015173ffffffffffffffffffffffffffffffffffffffff16141580610fa95750600073ffffffffffffffffffffffffffffffffffffffff168160c0015173ffffffffffffffffffffffffffffffffffffffff1614155b15610fe9576040517fef7d78ef000000000000000000000000000000000000000000000000000000008152600401610fe0906130d1565b60405180910390fd5b6001600084815260200190815260200160002060008082016000905560018201600061101591906125d1565b60028201600061102591906125d1565b600382016000905560048201600090556005820160006101000a81549073ffffffffffffffffffffffffffffffffffffffff02191690556006820160006101000a81549073ffffffffffffffffffffffffffffffffffffffff02191690556007820160006101000a81549073ffffffffffffffffffffffffffffffffffffffff02191690556008820160006101000a81549073ffffffffffffffffffffffffffffffffffffffff02191690556009820160009055600a820160009055600b820160009055600c820160009055600d820160009055600e820160006101000a81549060ff0219169055505060008061115a85600260003373ffffffffffffffffffffffffffffffffffffffff1673ffffffffffffffffffffffffffffffffffffffff16815260200190815260200160002061215e565b9150915080156111f9573373ffffffffffffffffffffffffffffffffffffffff166108fc8461012001519081150290604051600060405180830381858888f193505050501580156111af573d6000803e3d6000fd5b506111f882600260003373ffffffffffffffffffffffffffffffffffffffff1673ffffffffffffffffffffffffffffffffffffffff1681526020019081526020016000206121c2565b5b60019350505050919050565b60007f000000000000000000000000000000000000000000000000000000000000000073ffffffffffffffffffffffffffffffffffffffff168273ffffffffffffffffffffffffffffffffffffffff16149050919050565b600061126883611d5f565b905061127381612277565b508060a0015173ffffffffffffffffffffffffffffffffffffffff168273ffffffffffffffffffffffffffffffffffffffff1614806112e157508060c0015173ffffffffffffffffffffffffffffffffffffffff168273ffffffffffffffffffffffffffffffffffffffff16145b156114b2576000806112f283612362565b9150915060008214611365578260e0015173ffffffffffffffffffffffffffffffffffffffff166108fc839081150290604051600060405180830381858888f19350505050158015611348573d6000803e3d6000fd5b508160016000878152602001908152602001600020600b01819055505b60008114611428578373ffffffffffffffffffffffffffffffffffffffff166108fc829081150290604051600060405180830381858888f193505050501580156113b3573d6000803e3d6000fd5b508260a0015173ffffffffffffffffffffffffffffffffffffffff168473ffffffffffffffffffffffffffffffffffffffff160361140b57806001600087815260200190815260200160002060090181905550611427565b8060016000878152602001908152602001600020600a01819055505b5b836001600087815260200190815260200160002060080160006101000a81548173ffffffffffffffffffffffffffffffffffffffff021916908373ffffffffffffffffffffffffffffffffffffffff1602179055506001806000878152602001908152602001600020600e0160006101000a81548160ff02191690831515021790555050506114ed565b6040517fa8c278dd0000000000000000000000000000000000000000000000000000000081526004016114e49061313d565b60405180910390fd5b505050565b60606000805467ffffffffffffffff81111561151157611510612a3a565b5b60405190808252806020026020018201604052801561154a57816020015b61153761247b565b81526020019060019003908161152f5790505b50905060005b60005481101561188f5760016000828152602001908152602001600020604051806101e00160405290816000820154815260200160018201805461159390612e88565b80601f01602080910402602001604051908101604052809291908181526020018280546115bf90612e88565b801561160c5780601f106115e15761010080835404028352916020019161160c565b820191906000526020600020905b8154815290600101906020018083116115ef57829003601f168201915b5050505050815260200160028201805461162590612e88565b80601f016020809104026020016040519081016040528092919081815260200182805461165190612e88565b801561169e5780601f106116735761010080835404028352916020019161169e565b820191906000526020600020905b81548152906001019060200180831161168157829003601f168201915b5050505050815260200160038201548152602001600482015481526020016005820160009054906101000a900473ffffffffffffffffffffffffffffffffffffffff1673ffffffffffffffffffffffffffffffffffffffff1673ffffffffffffffffffffffffffffffffffffffff1681526020016006820160009054906101000a900473ffffffffffffffffffffffffffffffffffffffff1673ffffffffffffffffffffffffffffffffffffffff1673ffffffffffffffffffffffffffffffffffffffff1681526020016007820160009054906101000a900473ffffffffffffffffffffffffffffffffffffffff1673ffffffffffffffffffffffffffffffffffffffff1673ffffffffffffffffffffffffffffffffffffffff1681526020016008820160009054906101000a900473ffffffffffffffffffffffffffffffffffffffff1673ffffffffffffffffffffffffffffffffffffffff1673ffffffffffffffffffffffffffffffffffffffff16815260200160098201548152602001600a8201548152602001600b8201548152602001600c8201548152602001600d8201548152602001600e820160009054906101000a900460ff16151515158152505082828151811061187357611872612e2a565b5b60200260200101819052508061188890612ee8565b9050611550565b508091505090565b60005481565b60006118a882611d5f565b90506118b381612277565b5060008060006118c2846123b7565b92509250925060008314611937578360e0015173ffffffffffffffffffffffffffffffffffffffff166108fc849081150290604051600060405180830381858888f1935050505015801561191a573d6000803e3d6000fd5b508260016000878152602001908152602001600020600b01819055505b600082146119a6578360a0015173ffffffffffffffffffffffffffffffffffffffff166108fc839081150290604051600060405180830381858888f19350505050158015611989573d6000803e3d6000fd5b508160016000878152602001908152602001600020600901819055505b60008114611a15578360c0015173ffffffffffffffffffffffffffffffffffffffff166108fc829081150290604051600060405180830381858888f193505050501580156119f8573d6000803e3d6000fd5b508060016000878152602001908152602001600020600a01819055505b6001806000878152602001908152602001600020600e0160006101000a81548160ff0219169083151502179055505050505050565b611a5261247b565b60016000838152602001908152602001600020604051806101e001604052908160008201548152602001600182018054611a8b90612e88565b80601f0160208091040260200160405190810160405280929190818152602001828054611ab790612e88565b8015611b045780601f10611ad957610100808354040283529160200191611b04565b820191906000526020600020905b815481529060010190602001808311611ae757829003601f168201915b50505050508152602001600282018054611b1d90612e88565b80601f0160208091040260200160405190810160405280929190818152602001828054611b4990612e88565b8015611b965780601f10611b6b57610100808354040283529160200191611b96565b820191906000526020600020905b815481529060010190602001808311611b7957829003601f168201915b5050505050815260200160038201548152602001600482015481526020016005820160009054906101000a900473ffffffffffffffffffffffffffffffffffffffff1673ffffffffffffffffffffffffffffffffffffffff1673ffffffffffffffffffffffffffffffffffffffff1681526020016006820160009054906101000a900473ffffffffffffffffffffffffffffffffffffffff1673ffffffffffffffffffffffffffffffffffffffff1673ffffffffffffffffffffffffffffffffffffffff1681526020016007820160009054906101000a900473ffffffffffffffffffffffffffffffffffffffff1673ffffffffffffffffffffffffffffffffffffffff1673ffffffffffffffffffffffffffffffffffffffff1681526020016008820160009054906101000a900473ffffffffffffffffffffffffffffffffffffffff1673ffffffffffffffffffffffffffffffffffffffff1673ffffffffffffffffffffffffffffffffffffffff16815260200160098201548152602001600a8201548152602001600b8201548152602001600c8201548152602001600d8201548152602001600e820160009054906101000a900460ff1615151515815250509050919050565b611d6761247b565b600060016000848152602001908152602001600020604051806101e001604052908160008201548152602001600182018054611da290612e88565b80601f0160208091040260200160405190810160405280929190818152602001828054611dce90612e88565b8015611e1b5780601f10611df057610100808354040283529160200191611e1b565b820191906000526020600020905b815481529060010190602001808311611dfe57829003601f168201915b50505050508152602001600282018054611e3490612e88565b80601f0160208091040260200160405190810160405280929190818152602001828054611e6090612e88565b8015611ead5780601f10611e8257610100808354040283529160200191611ead565b820191906000526020600020905b815481529060010190602001808311611e9057829003601f168201915b5050505050815260200160038201548152602001600482015481526020016005820160009054906101000a900473ffffffffffffffffffffffffffffffffffffffff1673ffffffffffffffffffffffffffffffffffffffff1673ffffffffffffffffffffffffffffffffffffffff1681526020016006820160009054906101000a900473ffffffffffffffffffffffffffffffffffffffff1673ffffffffffffffffffffffffffffffffffffffff1673ffffffffffffffffffffffffffffffffffffffff1681526020016007820160009054906101000a900473ffffffffffffffffffffffffffffffffffffffff1673ffffffffffffffffffffffffffffffffffffffff1673ffffffffffffffffffffffffffffffffffffffff1681526020016008820160009054906101000a900473ffffffffffffffffffffffffffffffffffffffff1673ffffffffffffffffffffffffffffffffffffffff1673ffffffffffffffffffffffffffffffffffffffff16815260200160098201548152602001600a8201548152602001600b8201548152602001600c8201548152602001600d8201548152602001600e820160009054906101000a900460ff16151515158152505090506000816101200151036120b9576040517f607be5dc0000000000000000000000000000000000000000000000000000000081526004016120b0906131a9565b60405180910390fd5b80915050919050565b600081836120d091906131c9565b905092915050565b600081836120e69190613252565b905092915050565b6000808242101590508015612138576040517fed731ed700000000000000000000000000000000000000000000000000000000815260040161212f906132cf565b60405180910390fd5b80915050919050565b600080600081548092919061215590612ee8565b91905055905090565b60008060005b83805490508110156121b2578484828154811061218457612183612e2a565b5b9060005260206000200154036121a15780600192509250506121bb565b806121ab90612ee8565b9050612164565b50600080915091505b9250929050565b80805490508210156122735760008290505b600182805490506121e591906132ef565b81101561224a57816001826121fa9190613323565b8154811061220b5761220a612e2a565b5b906000526020600020015482828154811061222957612228612e2a565b5b9060005260206000200181905550808061224290612ee8565b9150506121d4565b508080548061225c5761225b613379565b5b600190038181906000526020600020016000905590555b5050565b60003373ffffffffffffffffffffffffffffffffffffffff168260e0015173ffffffffffffffffffffffffffffffffffffffff161415806122ea5750600073ffffffffffffffffffffffffffffffffffffffff1682610100015173ffffffffffffffffffffffffffffffffffffffff1614155b806122fa57506000826101200151145b8061230a57506000826101400151145b80612319575042826101a00151115b15612359576040517fef7d78ef0000000000000000000000000000000000000000000000000000000081526004016123509061341a565b60405180910390fd5b60019050919050565b600080600061237b846101200151856101400151612465565b905060006123976123908387608001516120c2565b60646120d8565b9050600081836123a791906132ef565b9050818194509450505050915091565b6000806000806123d1856101200151866101400151612465565b905060006123ed6123e68388608001516120c2565b60646120d8565b9050600061240e61240788610120015189608001516120c2565b60646120d8565b87610120015161241e91906132ef565b9050600061243f6124388961014001518a608001516120c2565b60646120d8565b88610140015161244f91906132ef565b9050828282965096509650505050509193909250565b600081836124739190613323565b905092915050565b604051806101e001604052806000815260200160608152602001606081526020016000815260200160008152602001600073ffffffffffffffffffffffffffffffffffffffff168152602001600073ffffffffffffffffffffffffffffffffffffffff168152602001600073ffffffffffffffffffffffffffffffffffffffff168152602001600073ffffffffffffffffffffffffffffffffffffffff16815260200160008152602001600081526020016000815260200160008152602001600081526020016000151581525090565b82805461255790612e88565b90600052602060002090601f01602090048101928261257957600085556125c0565b82601f1061259257805160ff19168380011785556125c0565b828001600101855582156125c0579182015b828111156125bf5782518255916020019190600101906125a4565b5b5090506125cd9190612611565b5090565b5080546125dd90612e88565b6000825580601f106125ef575061260e565b601f01602090049060005260206000209081019061260d9190612611565b5b50565b5b8082111561262a576000816000905550600101612612565b5090565b6000604051905090565b600080fd5b600080fd5b600073ffffffffffffffffffffffffffffffffffffffff82169050919050565b600061266d82612642565b9050919050565b61267d81612662565b811461268857600080fd5b50565b60008135905061269a81612674565b92915050565b6000602082840312156126b6576126b5612638565b5b60006126c48482850161268b565b91505092915050565b600081519050919050565b600082825260208201905092915050565b6000819050602082019050919050565b6000819050919050565b61270c816126f9565b82525050565b600081519050919050565b600082825260208201905092915050565b60005b8381101561274c578082015181840152602081019050612731565b8381111561275b576000848401525b50505050565b6000601f19601f8301169050919050565b600061277d82612712565b612787818561271d565b935061279781856020860161272e565b6127a081612761565b840191505092915050565b6127b481612662565b82525050565b60008115159050919050565b6127cf816127ba565b82525050565b60006101e0830160008301516127ee6000860182612703565b50602083015184820360208601526128068282612772565b915050604083015184820360408601526128208282612772565b91505060608301516128356060860182612703565b5060808301516128486080860182612703565b5060a083015161285b60a08601826127ab565b5060c083015161286e60c08601826127ab565b5060e083015161288160e08601826127ab565b506101008301516128966101008601826127ab565b506101208301516128ab610120860182612703565b506101408301516128c0610140860182612703565b506101608301516128d5610160860182612703565b506101808301516128ea610180860182612703565b506101a08301516128ff6101a0860182612703565b506101c08301516129146101c08601826127c6565b508091505092915050565b600061292b83836127d5565b905092915050565b6000602082019050919050565b600061294b826126cd565b61295581856126d8565b935083602082028501612967856126e9565b8060005b858110156129a35784840389528151612984858261291f565b945061298f83612933565b925060208a0199505060018101905061296b565b50829750879550505050505092915050565b600060208201905081810360008301526129cf8184612940565b905092915050565b6129e0816126f9565b81146129eb57600080fd5b50565b6000813590506129fd816129d7565b92915050565b600060208284031215612a1957612a18612638565b5b6000612a27848285016129ee565b91505092915050565b600080fd5b600080fd5b7f4e487b7100000000000000000000000000000000000000000000000000000000600052604160045260246000fd5b612a7282612761565b810181811067ffffffffffffffff82111715612a9157612a90612a3a565b5b80604052505050565b6000612aa461262e565b9050612ab08282612a69565b919050565b600067ffffffffffffffff821115612ad057612acf612a3a565b5b612ad982612761565b9050602081019050919050565b82818337600083830152505050565b6000612b08612b0384612ab5565b612a9a565b905082815260208101848484011115612b2457612b23612a35565b5b612b2f848285612ae6565b509392505050565b600082601f830112612b4c57612b4b612a30565b5b8135612b5c848260208601612af5565b91505092915050565b60008060008060008060c08789031215612b8257612b81612638565b5b600087013567ffffffffffffffff811115612ba057612b9f61263d565b5b612bac89828a01612b37565b965050602087013567ffffffffffffffff811115612bcd57612bcc61263d565b5b612bd989828a01612b37565b9550506040612bea89828a016129ee565b9450506060612bfb89828a016129ee565b9350506080612c0c89828a016129ee565b92505060a0612c1d89828a0161268b565b9150509295509295509295565b612c33816127ba565b82525050565b6000602082019050612c4e6000830184612c2a565b92915050565b60008060408385031215612c6b57612c6a612638565b5b6000612c79858286016129ee565b9250506020612c8a8582860161268b565b9150509250929050565b612c9d816126f9565b82525050565b6000602082019050612cb86000830184612c94565b92915050565b60006101e083016000830151612cd76000860182612703565b5060208301518482036020860152612cef8282612772565b91505060408301518482036040860152612d098282612772565b9150506060830151612d1e6060860182612703565b506080830151612d316080860182612703565b5060a0830151612d4460a08601826127ab565b5060c0830151612d5760c08601826127ab565b5060e0830151612d6a60e08601826127ab565b50610100830151612d7f6101008601826127ab565b50610120830151612d94610120860182612703565b50610140830151612da9610140860182612703565b50610160830151612dbe610160860182612703565b50610180830151612dd3610180860182612703565b506101a0830151612de86101a0860182612703565b506101c0830151612dfd6101c08601826127c6565b508091505092915050565b60006020820190508181036000830152612e228184612cbe565b905092915050565b7f4e487b7100000000000000000000000000000000000000000000000000000000600052603260045260246000fd5b7f4e487b7100000000000000000000000000000000000000000000000000000000600052602260045260246000fd5b60006002820490506001821680612ea057607f821691505b602082108103612eb357612eb2612e59565b5b50919050565b7f4e487b7100000000000000000000000000000000000000000000000000000000600052601160045260246000fd5b6000612ef3826126f9565b91507fffffffffffffffffffffffffffffffffffffffffffffffffffffffffffffffff8203612f2557612f24612eb9565b5b600182019050919050565b600082825260208201905092915050565b7f4163657074206572726f72000000000000000000000000000000000000000000600082015250565b6000612f77600b83612f30565b9150612f8282612f41565b602082019050919050565b60006020820190508181036000830152612fa681612f6a565b9050919050565b7f496e73756666696369656e742066756e64730000000000000000000000000000600082015250565b6000612fe3601283612f30565b9150612fee82612fad565b602082019050919050565b6000602082019050818103600083015261301281612fd6565b9050919050565b7f596f752073686f756c642061747461636820736f6d65204465706f7369740000600082015250565b600061304f601e83612f30565b915061305a82613019565b602082019050919050565b6000602082019050818103600083015261307e81613042565b9050919050565b7f596f752063616e27742072656d6f7665204368616c6c656e6765000000000000600082015250565b60006130bb601a83612f30565b91506130c682613085565b602082019050919050565b600060208201905081810360008301526130ea816130ae565b9050919050565b7f496e76616c69642077696e6e6572206164647265737300000000000000000000600082015250565b6000613127601683612f30565b9150613132826130f1565b602082019050919050565b600060208201905081810360008301526131568161311a565b9050919050565b7f4974656d206e6f7420666f756e64000000000000000000000000000000000000600082015250565b6000613193600e83612f30565b915061319e8261315d565b602082019050919050565b600060208201905081810360008301526131c281613186565b9050919050565b60006131d4826126f9565b91506131df836126f9565b9250817fffffffffffffffffffffffffffffffffffffffffffffffffffffffffffffffff048311821515161561321857613217612eb9565b5b828202905092915050565b7f4e487b7100000000000000000000000000000000000000000000000000000000600052601260045260246000fd5b600061325d826126f9565b9150613268836126f9565b92508261327857613277613223565b5b828204905092915050565b7f446561646c696e65207761732065787069726564000000000000000000000000600082015250565b60006132b9601483612f30565b91506132c482613283565b602082019050919050565b600060208201905081810360008301526132e8816132ac565b9050919050565b60006132fa826126f9565b9150613305836126f9565b92508282101561331857613317612eb9565b5b828203905092915050565b600061332e826126f9565b9150613339836126f9565b9250827fffffffffffffffffffffffffffffffffffffffffffffffffffffffffffffffff0382111561336e5761336d612eb9565b5b828201905092915050565b7f4e487b7100000000000000000000000000000000000000000000000000000000600052603160045260246000fd5b7f596f752063616e2774207365742077696e6e657220746f20746869732043686160008201527f6c6c656e67650000000000000000000000000000000000000000000000000000602082015250565b6000613404602683612f30565b915061340f826133a8565b604082019050919050565b60006020820190508181036000830152613433816133f7565b905091905056fea2646970667358221220316bfbab462a0d830d8a1d1f3afa86f63c9ad65c412078dabad8ee227de9966864736f6c634300080e0033",
  "linkReferences": {},
  "deployedLinkReferences": {}
}