{
  "_format": "hh-sol-artifact-1",
  "contractName": "CustomChallenge",
  "sourceName": "smart_contract/contracts/CustomChallenge.sol",
  "abi": [
    {
      "inputs": [],
      "stateMutability": "nonpayable",
      "type": "constructor"
    },
    {
      "inputs": [
        {
          "internalType": "string",
          "name": "message",
          "type": "string"
        }
      ],
      "name": "CantChange",
      "type": "error"
    },
    {
      "inputs": [
        {
          "internalType": "string",
          "name": "message",
          "type": "string"
        }
      ],
      "name": "DateExpired",
      "type": "error"
    },
    {
      "inputs": [
        {
          "internalType": "string",
          "name": "message",
          "type": "string"
        }
      ],
      "name": "InsufficientAmount",
      "type": "error"
    },
    {
      "inputs": [
        {
          "internalType": "string",
          "name": "message",
          "type": "string"
        }
      ],
      "name": "InvalidParams",
      "type": "error"
    },
    {
      "inputs": [
        {
          "internalType": "string",
          "name": "message",
          "type": "string"
        }
      ],
      "name": "NotFound",
      "type": "error"
    },
    {
      "inputs": [
        {
          "internalType": "uint256",
          "name": "_id",
          "type": "uint256"
        }
      ],
      "name": "accept",
      "outputs": [],
      "stateMutability": "payable",
      "type": "function"
    },
    {
      "inputs": [],
      "name": "allChallenges",
      "outputs": [
        {
          "components": [
            {
              "internalType": "uint256",
              "name": "id",
              "type": "uint256"
            },
            {
              "internalType": "string",
              "name": "name",
              "type": "string"
            },
            {
              "internalType": "string",
              "name": "description",
              "type": "string"
            },
            {
              "internalType": "uint256",
              "name": "cof",
              "type": "uint256"
            },
            {
              "internalType": "uint256",
              "name": "oracle_fee",
              "type": "uint256"
            },
            {
              "internalType": "address",
              "name": "maker",
              "type": "address"
            },
            {
              "internalType": "address",
              "name": "taker",
              "type": "address"
            },
            {
              "internalType": "address",
              "name": "oracle",
              "type": "address"
            },
            {
              "internalType": "address",
              "name": "winner",
              "type": "address"
            },
            {
              "internalType": "uint256",
              "name": "paid_maker",
              "type": "uint256"
            },
            {
              "internalType": "uint256",
              "name": "paid_taker",
              "type": "uint256"
            },
            {
              "internalType": "uint256",
              "name": "paid_oracle",
              "type": "uint256"
            },
            {
              "internalType": "uint256",
              "name": "created_date",
              "type": "uint256"
            },
            {
              "internalType": "uint256",
              "name": "deadline_date",
              "type": "uint256"
            },
            {
              "internalType": "bool",
              "name": "finished",
              "type": "bool"
            }
          ],
          "internalType": "struct CustomChallenge.ChallengeStruct[]",
          "name": "",
          "type": "tuple[]"
        }
      ],
      "stateMutability": "view",
      "type": "function"
    },
    {
      "inputs": [
        {
          "internalType": "string",
          "name": "_name",
          "type": "string"
        },
        {
          "internalType": "string",
          "name": "_description",
          "type": "string"
        },
        {
          "internalType": "uint256",
          "name": "_cof",
          "type": "uint256"
        },
        {
          "internalType": "uint256",
          "name": "_oracle_fee",
          "type": "uint256"
        },
        {
          "internalType": "uint256",
          "name": "_deadline_date",
          "type": "uint256"
        },
        {
          "internalType": "address",
          "name": "_oracle",
          "type": "address"
        }
      ],
      "name": "create",
      "outputs": [],
      "stateMutability": "payable",
      "type": "function"
    },
    {
      "inputs": [
        {
          "internalType": "uint256",
          "name": "_id",
          "type": "uint256"
        }
      ],
      "name": "getById",
      "outputs": [
        {
          "components": [
            {
              "internalType": "uint256",
              "name": "id",
              "type": "uint256"
            },
            {
              "internalType": "string",
              "name": "name",
              "type": "string"
            },
            {
              "internalType": "string",
              "name": "description",
              "type": "string"
            },
            {
              "internalType": "uint256",
              "name": "cof",
              "type": "uint256"
            },
            {
              "internalType": "uint256",
              "name": "oracle_fee",
              "type": "uint256"
            },
            {
              "internalType": "address",
              "name": "maker",
              "type": "address"
            },
            {
              "internalType": "address",
              "name": "taker",
              "type": "address"
            },
            {
              "internalType": "address",
              "name": "oracle",
              "type": "address"
            },
            {
              "internalType": "address",
              "name": "winner",
              "type": "address"
            },
            {
              "internalType": "uint256",
              "name": "paid_maker",
              "type": "uint256"
            },
            {
              "internalType": "uint256",
              "name": "paid_taker",
              "type": "uint256"
            },
            {
              "internalType": "uint256",
              "name": "paid_oracle",
              "type": "uint256"
            },
            {
              "internalType": "uint256",
              "name": "created_date",
              "type": "uint256"
            },
            {
              "internalType": "uint256",
              "name": "deadline_date",
              "type": "uint256"
            },
            {
              "internalType": "bool",
              "name": "finished",
              "type": "bool"
            }
          ],
          "internalType": "struct CustomChallenge.ChallengeStruct",
          "name": "",
          "type": "tuple"
        }
      ],
      "stateMutability": "view",
      "type": "function"
    },
    {
      "inputs": [
        {
          "internalType": "address",
          "name": "u_address",
          "type": "address"
        }
      ],
      "name": "getUserChallenges",
      "outputs": [
        {
          "components": [
            {
              "internalType": "uint256",
              "name": "id",
              "type": "uint256"
            },
            {
              "internalType": "string",
              "name": "name",
              "type": "string"
            },
            {
              "internalType": "string",
              "name": "description",
              "type": "string"
            },
            {
              "internalType": "uint256",
              "name": "cof",
              "type": "uint256"
            },
            {
              "internalType": "uint256",
              "name": "oracle_fee",
              "type": "uint256"
            },
            {
              "internalType": "address",
              "name": "maker",
              "type": "address"
            },
            {
              "internalType": "address",
              "name": "taker",
              "type": "address"
            },
            {
              "internalType": "address",
              "name": "oracle",
              "type": "address"
            },
            {
              "internalType": "address",
              "name": "winner",
              "type": "address"
            },
            {
              "internalType": "uint256",
              "name": "paid_maker",
              "type": "uint256"
            },
            {
              "internalType": "uint256",
              "name": "paid_taker",
              "type": "uint256"
            },
            {
              "internalType": "uint256",
              "name": "paid_oracle",
              "type": "uint256"
            },
            {
              "internalType": "uint256",
              "name": "created_date",
              "type": "uint256"
            },
            {
              "internalType": "uint256",
              "name": "deadline_date",
              "type": "uint256"
            },
            {
              "internalType": "bool",
              "name": "finished",
              "type": "bool"
            }
          ],
          "internalType": "struct CustomChallenge.ChallengeStruct[]",
          "name": "",
          "type": "tuple[]"
        }
      ],
      "stateMutability": "view",
      "type": "function"
    },
    {
      "inputs": [],
      "name": "id",
      "outputs": [
        {
          "internalType": "uint256",
          "name": "",
          "type": "uint256"
        }
      ],
      "stateMutability": "view",
      "type": "function"
    },
    {
      "inputs": [
        {
          "internalType": "uint256",
          "name": "_id",
          "type": "uint256"
        }
      ],
      "name": "remove",
      "outputs": [
        {
          "internalType": "bool",
          "name": "",
          "type": "bool"
        }
      ],
      "stateMutability": "nonpayable",
      "type": "function"
    },
    {
      "inputs": [
        {
          "internalType": "uint256",
          "name": "_id",
          "type": "uint256"
        }
      ],
      "name": "setDraw",
      "outputs": [],
      "stateMutability": "nonpayable",
      "type": "function"
    },
    {
      "inputs": [
        {
          "internalType": "uint256",
          "name": "_id",
          "type": "uint256"
        },
        {
          "internalType": "address",
          "name": "_winner",
          "type": "address"
        }
      ],
      "name": "setWinner",
      "outputs": [],
      "stateMutability": "nonpayable",
      "type": "function"
    }
  ],
  "bytecode": "0x608060405234801561001057600080fd5b506133d9806100206000396000f3fe6080604052600436106100865760003560e01c80639c623683116100595780639c6236831461013d578063a3a503ac14610166578063af640d0f14610191578063b5657835146101bc578063f4f4d237146101e557610086565b806311da8e541461008b57806319b05f49146100c85780631d2238b9146100e45780634cc8221514610100575b600080fd5b34801561009757600080fd5b506100b260048036038101906100ad9190612607565b610222565b6040516100bf919061291c565b60405180910390f35b6100e260048036038101906100dd919061296a565b61066f565b005b6100fe60048036038101906100f99190612acc565b610871565b005b34801561010c57600080fd5b506101276004803603810190610122919061296a565b610be6565b6040516101349190612ba0565b60405180910390f35b34801561014957600080fd5b50610164600480360381019061015f9190612bbb565b6111bd565b005b34801561017257600080fd5b5061017b611453565b604051610188919061291c565b60405180910390f35b34801561019d57600080fd5b506101a66117f8565b6040516101b39190612c0a565b60405180910390f35b3480156101c857600080fd5b506101e360048036038101906101de919061296a565b6117fe565b005b3480156101f157600080fd5b5061020c6004803603810190610207919061296a565b6119ab565b6040516102199190612d6f565b60405180910390f35b60606000600260008473ffffffffffffffffffffffffffffffffffffffff1673ffffffffffffffffffffffffffffffffffffffff16815260200190815260200160002080549050905060008167ffffffffffffffff811115610287576102866129a1565b5b6040519080825280602002602001820160405280156102c057816020015b6102ad6123e2565b8152602001906001900390816102a55790505b50905060005b82811015610664576000600260008773ffffffffffffffffffffffffffffffffffffffff1673ffffffffffffffffffffffffffffffffffffffff168152602001908152602001600020828154811061032157610320612d91565b5b9060005260206000200154905060016000828152602001908152602001600020604051806101e00160405290816000820154815260200160018201805461036790612def565b80601f016020809104026020016040519081016040528092919081815260200182805461039390612def565b80156103e05780601f106103b5576101008083540402835291602001916103e0565b820191906000526020600020905b8154815290600101906020018083116103c357829003601f168201915b505050505081526020016002820180546103f990612def565b80601f016020809104026020016040519081016040528092919081815260200182805461042590612def565b80156104725780601f1061044757610100808354040283529160200191610472565b820191906000526020600020905b81548152906001019060200180831161045557829003601f168201915b5050505050815260200160038201548152602001600482015481526020016005820160009054906101000a900473ffffffffffffffffffffffffffffffffffffffff1673ffffffffffffffffffffffffffffffffffffffff1673ffffffffffffffffffffffffffffffffffffffff1681526020016006820160009054906101000a900473ffffffffffffffffffffffffffffffffffffffff1673ffffffffffffffffffffffffffffffffffffffff1673ffffffffffffffffffffffffffffffffffffffff1681526020016007820160009054906101000a900473ffffffffffffffffffffffffffffffffffffffff1673ffffffffffffffffffffffffffffffffffffffff1673ffffffffffffffffffffffffffffffffffffffff1681526020016008820160009054906101000a900473ffffffffffffffffffffffffffffffffffffffff1673ffffffffffffffffffffffffffffffffffffffff1673ffffffffffffffffffffffffffffffffffffffff16815260200160098201548152602001600a8201548152602001600b8201548152602001600c8201548152602001600d8201548152602001600e820160009054906101000a900460ff16151515158152505083838151811061064757610646612d91565b5b6020026020010181905250508061065d90612e50565b90506102c6565b508092505050919050565b600061067a82611cc0565b90503373ffffffffffffffffffffffffffffffffffffffff168160e0015173ffffffffffffffffffffffffffffffffffffffff1614806106eb5750600073ffffffffffffffffffffffffffffffffffffffff168160c0015173ffffffffffffffffffffffffffffffffffffffff1614155b1561072b576040517fef7d78ef00000000000000000000000000000000000000000000000000000000815260040161072290612ef6565b60405180910390fd5b60006107516107438361012001518460600151612024565b670de0b6b3a764000061203a565b905080341015610796576040517f4817ec2e00000000000000000000000000000000000000000000000000000000815260040161078d90612f62565b60405180910390fd5b336001600085815260200190815260200160002060060160006101000a81548173ffffffffffffffffffffffffffffffffffffffff021916908373ffffffffffffffffffffffffffffffffffffffff1602179055503460016000858152602001908152602001600020600a0181905550600260003373ffffffffffffffffffffffffffffffffffffffff1673ffffffffffffffffffffffffffffffffffffffff168152602001908152602001600020839080600181540180825580915050600190039060005260206000200160009091909190915055505050565b60003410156108b5576040517f4817ec2e0000000000000000000000000000000000000000000000000000000081526004016108ac90612fce565b60405180910390fd5b6108be82612050565b5060006108c96120a3565b90506000604051806101e001604052808381526020018981526020018881526020018781526020018681526020013373ffffffffffffffffffffffffffffffffffffffff168152602001600073ffffffffffffffffffffffffffffffffffffffff1681526020018473ffffffffffffffffffffffffffffffffffffffff168152602001600073ffffffffffffffffffffffffffffffffffffffff168152602001348152602001600081526020016000815260200142815260200185815260200160001515815250905080600160008481526020019081526020016000206000820151816000015560208201518160010190805190602001906109cc9291906124b2565b5060408201518160020190805190602001906109e99291906124b2565b50606082015181600301556080820151816004015560a08201518160050160006101000a81548173ffffffffffffffffffffffffffffffffffffffff021916908373ffffffffffffffffffffffffffffffffffffffff16021790555060c08201518160060160006101000a81548173ffffffffffffffffffffffffffffffffffffffff021916908373ffffffffffffffffffffffffffffffffffffffff16021790555060e08201518160070160006101000a81548173ffffffffffffffffffffffffffffffffffffffff021916908373ffffffffffffffffffffffffffffffffffffffff1602179055506101008201518160080160006101000a81548173ffffffffffffffffffffffffffffffffffffffff021916908373ffffffffffffffffffffffffffffffffffffffff160217905550610120820151816009015561014082015181600a015561016082015181600b015561018082015181600c01556101a082015181600d01556101c082015181600e0160006101000a81548160ff021916908315150217905550905050600260003373ffffffffffffffffffffffffffffffffffffffff1673ffffffffffffffffffffffffffffffffffffffff1681526020019081526020016000208290806001815401808255809150506001900390600052602060002001600090919091909150555050505050505050565b60008060016000848152602001908152602001600020604051806101e001604052908160008201548152602001600182018054610c2290612def565b80601f0160208091040260200160405190810160405280929190818152602001828054610c4e90612def565b8015610c9b5780601f10610c7057610100808354040283529160200191610c9b565b820191906000526020600020905b815481529060010190602001808311610c7e57829003601f168201915b50505050508152602001600282018054610cb490612def565b80601f0160208091040260200160405190810160405280929190818152602001828054610ce090612def565b8015610d2d5780601f10610d0257610100808354040283529160200191610d2d565b820191906000526020600020905b815481529060010190602001808311610d1057829003601f168201915b5050505050815260200160038201548152602001600482015481526020016005820160009054906101000a900473ffffffffffffffffffffffffffffffffffffffff1673ffffffffffffffffffffffffffffffffffffffff1673ffffffffffffffffffffffffffffffffffffffff1681526020016006820160009054906101000a900473ffffffffffffffffffffffffffffffffffffffff1673ffffffffffffffffffffffffffffffffffffffff1673ffffffffffffffffffffffffffffffffffffffff1681526020016007820160009054906101000a900473ffffffffffffffffffffffffffffffffffffffff1673ffffffffffffffffffffffffffffffffffffffff1673ffffffffffffffffffffffffffffffffffffffff1681526020016008820160009054906101000a900473ffffffffffffffffffffffffffffffffffffffff1673ffffffffffffffffffffffffffffffffffffffff1673ffffffffffffffffffffffffffffffffffffffff16815260200160098201548152602001600a8201548152602001600b8201548152602001600c8201548152602001600d8201548152602001600e820160009054906101000a900460ff16151515158152505090503373ffffffffffffffffffffffffffffffffffffffff168160a0015173ffffffffffffffffffffffffffffffffffffffff16141580610f615750600073ffffffffffffffffffffffffffffffffffffffff168160c0015173ffffffffffffffffffffffffffffffffffffffff1614155b15610fa1576040517fef7d78ef000000000000000000000000000000000000000000000000000000008152600401610f989061303a565b60405180910390fd5b60016000848152602001908152602001600020600080820160009055600182016000610fcd9190612538565b600282016000610fdd9190612538565b600382016000905560048201600090556005820160006101000a81549073ffffffffffffffffffffffffffffffffffffffff02191690556006820160006101000a81549073ffffffffffffffffffffffffffffffffffffffff02191690556007820160006101000a81549073ffffffffffffffffffffffffffffffffffffffff02191690556008820160006101000a81549073ffffffffffffffffffffffffffffffffffffffff02191690556009820160009055600a820160009055600b820160009055600c820160009055600d820160009055600e820160006101000a81549060ff0219169055505060008061111285600260003373ffffffffffffffffffffffffffffffffffffffff1673ffffffffffffffffffffffffffffffffffffffff1681526020019081526020016000206120c0565b9150915080156111b1573373ffffffffffffffffffffffffffffffffffffffff166108fc8461012001519081150290604051600060405180830381858888f19350505050158015611167573d6000803e3d6000fd5b506111b082600260003373ffffffffffffffffffffffffffffffffffffffff1673ffffffffffffffffffffffffffffffffffffffff168152602001908152602001600020612125565b5b60019350505050919050565b60006111c883611cc0565b90506111d3816121de565b508060a0015173ffffffffffffffffffffffffffffffffffffffff168273ffffffffffffffffffffffffffffffffffffffff16148061124157508060c0015173ffffffffffffffffffffffffffffffffffffffff168273ffffffffffffffffffffffffffffffffffffffff16145b1561141357600080611252836122c9565b91509150600082146112c5578260e0015173ffffffffffffffffffffffffffffffffffffffff166108fc839081150290604051600060405180830381858888f193505050501580156112a8573d6000803e3d6000fd5b508160016000878152602001908152602001600020600b01819055505b60008114611389578373ffffffffffffffffffffffffffffffffffffffff166108fc829081150290604051600060405180830381858888f19350505050158015611313573d6000803e3d6000fd5b508260a0015173ffffffffffffffffffffffffffffffffffffffff168473ffffffffffffffffffffffffffffffffffffffff16141561136c57806001600087815260200190815260200160002060090181905550611388565b8060016000878152602001908152602001600020600a01819055505b5b836001600087815260200190815260200160002060080160006101000a81548173ffffffffffffffffffffffffffffffffffffffff021916908373ffffffffffffffffffffffffffffffffffffffff1602179055506001806000878152602001908152602001600020600e0160006101000a81548160ff021916908315150217905550505061144e565b6040517fa8c278dd000000000000000000000000000000000000000000000000000000008152600401611445906130a6565b60405180910390fd5b505050565b60606000805467ffffffffffffffff811115611472576114716129a1565b5b6040519080825280602002602001820160405280156114ab57816020015b6114986123e2565b8152602001906001900390816114905790505b50905060005b6000548110156117f05760016000828152602001908152602001600020604051806101e0016040529081600082015481526020016001820180546114f490612def565b80601f016020809104026020016040519081016040528092919081815260200182805461152090612def565b801561156d5780601f106115425761010080835404028352916020019161156d565b820191906000526020600020905b81548152906001019060200180831161155057829003601f168201915b5050505050815260200160028201805461158690612def565b80601f01602080910402602001604051908101604052809291908181526020018280546115b290612def565b80156115ff5780601f106115d4576101008083540402835291602001916115ff565b820191906000526020600020905b8154815290600101906020018083116115e257829003601f168201915b5050505050815260200160038201548152602001600482015481526020016005820160009054906101000a900473ffffffffffffffffffffffffffffffffffffffff1673ffffffffffffffffffffffffffffffffffffffff1673ffffffffffffffffffffffffffffffffffffffff1681526020016006820160009054906101000a900473ffffffffffffffffffffffffffffffffffffffff1673ffffffffffffffffffffffffffffffffffffffff1673ffffffffffffffffffffffffffffffffffffffff1681526020016007820160009054906101000a900473ffffffffffffffffffffffffffffffffffffffff1673ffffffffffffffffffffffffffffffffffffffff1673ffffffffffffffffffffffffffffffffffffffff1681526020016008820160009054906101000a900473ffffffffffffffffffffffffffffffffffffffff1673ffffffffffffffffffffffffffffffffffffffff1673ffffffffffffffffffffffffffffffffffffffff16815260200160098201548152602001600a8201548152602001600b8201548152602001600c8201548152602001600d8201548152602001600e820160009054906101000a900460ff1615151515815250508282815181106117d4576117d3612d91565b5b6020026020010181905250806117e990612e50565b90506114b1565b508091505090565b60005481565b600061180982611cc0565b9050611814816121de565b5060008060006118238461231e565b92509250925060008314611898578360e0015173ffffffffffffffffffffffffffffffffffffffff166108fc849081150290604051600060405180830381858888f1935050505015801561187b573d6000803e3d6000fd5b508260016000878152602001908152602001600020600b01819055505b60008214611907578360a0015173ffffffffffffffffffffffffffffffffffffffff166108fc839081150290604051600060405180830381858888f193505050501580156118ea573d6000803e3d6000fd5b508160016000878152602001908152602001600020600901819055505b60008114611976578360c0015173ffffffffffffffffffffffffffffffffffffffff166108fc829081150290604051600060405180830381858888f19350505050158015611959573d6000803e3d6000fd5b508060016000878152602001908152602001600020600a01819055505b6001806000878152602001908152602001600020600e0160006101000a81548160ff0219169083151502179055505050505050565b6119b36123e2565b60016000838152602001908152602001600020604051806101e0016040529081600082015481526020016001820180546119ec90612def565b80601f0160208091040260200160405190810160405280929190818152602001828054611a1890612def565b8015611a655780601f10611a3a57610100808354040283529160200191611a65565b820191906000526020600020905b815481529060010190602001808311611a4857829003601f168201915b50505050508152602001600282018054611a7e90612def565b80601f0160208091040260200160405190810160405280929190818152602001828054611aaa90612def565b8015611af75780601f10611acc57610100808354040283529160200191611af7565b820191906000526020600020905b815481529060010190602001808311611ada57829003601f168201915b5050505050815260200160038201548152602001600482015481526020016005820160009054906101000a900473ffffffffffffffffffffffffffffffffffffffff1673ffffffffffffffffffffffffffffffffffffffff1673ffffffffffffffffffffffffffffffffffffffff1681526020016006820160009054906101000a900473ffffffffffffffffffffffffffffffffffffffff1673ffffffffffffffffffffffffffffffffffffffff1673ffffffffffffffffffffffffffffffffffffffff1681526020016007820160009054906101000a900473ffffffffffffffffffffffffffffffffffffffff1673ffffffffffffffffffffffffffffffffffffffff1673ffffffffffffffffffffffffffffffffffffffff1681526020016008820160009054906101000a900473ffffffffffffffffffffffffffffffffffffffff1673ffffffffffffffffffffffffffffffffffffffff1673ffffffffffffffffffffffffffffffffffffffff16815260200160098201548152602001600a8201548152602001600b8201548152602001600c8201548152602001600d8201548152602001600e820160009054906101000a900460ff1615151515815250509050919050565b611cc86123e2565b600060016000848152602001908152602001600020604051806101e001604052908160008201548152602001600182018054611d0390612def565b80601f0160208091040260200160405190810160405280929190818152602001828054611d2f90612def565b8015611d7c5780601f10611d5157610100808354040283529160200191611d7c565b820191906000526020600020905b815481529060010190602001808311611d5f57829003601f168201915b50505050508152602001600282018054611d9590612def565b80601f0160208091040260200160405190810160405280929190818152602001828054611dc190612def565b8015611e0e5780601f10611de357610100808354040283529160200191611e0e565b820191906000526020600020905b815481529060010190602001808311611df157829003601f168201915b5050505050815260200160038201548152602001600482015481526020016005820160009054906101000a900473ffffffffffffffffffffffffffffffffffffffff1673ffffffffffffffffffffffffffffffffffffffff1673ffffffffffffffffffffffffffffffffffffffff1681526020016006820160009054906101000a900473ffffffffffffffffffffffffffffffffffffffff1673ffffffffffffffffffffffffffffffffffffffff1673ffffffffffffffffffffffffffffffffffffffff1681526020016007820160009054906101000a900473ffffffffffffffffffffffffffffffffffffffff1673ffffffffffffffffffffffffffffffffffffffff1673ffffffffffffffffffffffffffffffffffffffff1681526020016008820160009054906101000a900473ffffffffffffffffffffffffffffffffffffffff1673ffffffffffffffffffffffffffffffffffffffff1673ffffffffffffffffffffffffffffffffffffffff16815260200160098201548152602001600a8201548152602001600b8201548152602001600c8201548152602001600d8201548152602001600e820160009054906101000a900460ff16151515158152505090506000816101200151141561201b576040517f607be5dc00000000000000000000000000000000000000000000000000000000815260040161201290613112565b60405180910390fd5b80915050919050565b600081836120329190613132565b905092915050565b6000818361204891906131bb565b905092915050565b600080824210159050801561209a576040517fed731ed700000000000000000000000000000000000000000000000000000000815260040161209190613238565b60405180910390fd5b80915050919050565b60008060008154809291906120b790612e50565b91905055905090565b60008060005b838054905081101561211557848482815481106120e6576120e5612d91565b5b9060005260206000200154141561210457806001925092505061211e565b8061210e90612e50565b90506120c6565b50600080915091505b9250929050565b80805490508210612135576121da565b60008290505b6001828054905061214c9190613258565b8110156121b15781600182612161919061328c565b8154811061217257612171612d91565b5b90600052602060002001548282815481106121905761218f612d91565b5b906000526020600020018190555080806121a990612e50565b91505061213b565b50808054806121c3576121c26132e2565b5b600190038181906000526020600020016000905590555b5050565b60003373ffffffffffffffffffffffffffffffffffffffff168260e0015173ffffffffffffffffffffffffffffffffffffffff161415806122515750600073ffffffffffffffffffffffffffffffffffffffff1682610100015173ffffffffffffffffffffffffffffffffffffffff1614155b8061226157506000826101200151145b8061227157506000826101400151145b80612280575042826101a00151115b156122c0576040517fef7d78ef0000000000000000000000000000000000000000000000000000000081526004016122b790613383565b60405180910390fd5b60019050919050565b60008060006122e28461012001518561014001516123cc565b905060006122fe6122f7838760800151612024565b606461203a565b90506000818361230e9190613258565b9050818194509450505050915091565b6000806000806123388561012001518661014001516123cc565b9050600061235461234d838860800151612024565b606461203a565b9050600061237561236e8861012001518960800151612024565b606461203a565b8761012001516123859190613258565b905060006123a661239f8961014001518a60800151612024565b606461203a565b8861014001516123b69190613258565b9050828282965096509650505050509193909250565b600081836123da919061328c565b905092915050565b604051806101e001604052806000815260200160608152602001606081526020016000815260200160008152602001600073ffffffffffffffffffffffffffffffffffffffff168152602001600073ffffffffffffffffffffffffffffffffffffffff168152602001600073ffffffffffffffffffffffffffffffffffffffff168152602001600073ffffffffffffffffffffffffffffffffffffffff16815260200160008152602001600081526020016000815260200160008152602001600081526020016000151581525090565b8280546124be90612def565b90600052602060002090601f0160209004810192826124e05760008555612527565b82601f106124f957805160ff1916838001178555612527565b82800160010185558215612527579182015b8281111561252657825182559160200191906001019061250b565b5b5090506125349190612578565b5090565b50805461254490612def565b6000825580601f106125565750612575565b601f0160209004906000526020600020908101906125749190612578565b5b50565b5b80821115612591576000816000905550600101612579565b5090565b6000604051905090565b600080fd5b600080fd5b600073ffffffffffffffffffffffffffffffffffffffff82169050919050565b60006125d4826125a9565b9050919050565b6125e4816125c9565b81146125ef57600080fd5b50565b600081359050612601816125db565b92915050565b60006020828403121561261d5761261c61259f565b5b600061262b848285016125f2565b91505092915050565b600081519050919050565b600082825260208201905092915050565b6000819050602082019050919050565b6000819050919050565b61267381612660565b82525050565b600081519050919050565b600082825260208201905092915050565b60005b838110156126b3578082015181840152602081019050612698565b838111156126c2576000848401525b50505050565b6000601f19601f8301169050919050565b60006126e482612679565b6126ee8185612684565b93506126fe818560208601612695565b612707816126c8565b840191505092915050565b61271b816125c9565b82525050565b60008115159050919050565b61273681612721565b82525050565b60006101e083016000830151612755600086018261266a565b506020830151848203602086015261276d82826126d9565b9150506040830151848203604086015261278782826126d9565b915050606083015161279c606086018261266a565b5060808301516127af608086018261266a565b5060a08301516127c260a0860182612712565b5060c08301516127d560c0860182612712565b5060e08301516127e860e0860182612712565b506101008301516127fd610100860182612712565b5061012083015161281261012086018261266a565b5061014083015161282761014086018261266a565b5061016083015161283c61016086018261266a565b5061018083015161285161018086018261266a565b506101a08301516128666101a086018261266a565b506101c083015161287b6101c086018261272d565b508091505092915050565b6000612892838361273c565b905092915050565b6000602082019050919050565b60006128b282612634565b6128bc818561263f565b9350836020820285016128ce85612650565b8060005b8581101561290a57848403895281516128eb8582612886565b94506128f68361289a565b925060208a019950506001810190506128d2565b50829750879550505050505092915050565b6000602082019050818103600083015261293681846128a7565b905092915050565b61294781612660565b811461295257600080fd5b50565b6000813590506129648161293e565b92915050565b6000602082840312156129805761297f61259f565b5b600061298e84828501612955565b91505092915050565b600080fd5b600080fd5b7f4e487b7100000000000000000000000000000000000000000000000000000000600052604160045260246000fd5b6129d9826126c8565b810181811067ffffffffffffffff821117156129f8576129f76129a1565b5b80604052505050565b6000612a0b612595565b9050612a1782826129d0565b919050565b600067ffffffffffffffff821115612a3757612a366129a1565b5b612a40826126c8565b9050602081019050919050565b82818337600083830152505050565b6000612a6f612a6a84612a1c565b612a01565b905082815260208101848484011115612a8b57612a8a61299c565b5b612a96848285612a4d565b509392505050565b600082601f830112612ab357612ab2612997565b5b8135612ac3848260208601612a5c565b91505092915050565b60008060008060008060c08789031215612ae957612ae861259f565b5b600087013567ffffffffffffffff811115612b0757612b066125a4565b5b612b1389828a01612a9e565b965050602087013567ffffffffffffffff811115612b3457612b336125a4565b5b612b4089828a01612a9e565b9550506040612b5189828a01612955565b9450506060612b6289828a01612955565b9350506080612b7389828a01612955565b92505060a0612b8489828a016125f2565b9150509295509295509295565b612b9a81612721565b82525050565b6000602082019050612bb56000830184612b91565b92915050565b60008060408385031215612bd257612bd161259f565b5b6000612be085828601612955565b9250506020612bf1858286016125f2565b9150509250929050565b612c0481612660565b82525050565b6000602082019050612c1f6000830184612bfb565b92915050565b60006101e083016000830151612c3e600086018261266a565b5060208301518482036020860152612c5682826126d9565b91505060408301518482036040860152612c7082826126d9565b9150506060830151612c85606086018261266a565b506080830151612c98608086018261266a565b5060a0830151612cab60a0860182612712565b5060c0830151612cbe60c0860182612712565b5060e0830151612cd160e0860182612712565b50610100830151612ce6610100860182612712565b50610120830151612cfb61012086018261266a565b50610140830151612d1061014086018261266a565b50610160830151612d2561016086018261266a565b50610180830151612d3a61018086018261266a565b506101a0830151612d4f6101a086018261266a565b506101c0830151612d646101c086018261272d565b508091505092915050565b60006020820190508181036000830152612d898184612c25565b905092915050565b7f4e487b7100000000000000000000000000000000000000000000000000000000600052603260045260246000fd5b7f4e487b7100000000000000000000000000000000000000000000000000000000600052602260045260246000fd5b60006002820490506001821680612e0757607f821691505b60208210811415612e1b57612e1a612dc0565b5b50919050565b7f4e487b7100000000000000000000000000000000000000000000000000000000600052601160045260246000fd5b6000612e5b82612660565b91507fffffffffffffffffffffffffffffffffffffffffffffffffffffffffffffffff821415612e8e57612e8d612e21565b5b600182019050919050565b600082825260208201905092915050565b7f4163657074206572726f72000000000000000000000000000000000000000000600082015250565b6000612ee0600b83612e99565b9150612eeb82612eaa565b602082019050919050565b60006020820190508181036000830152612f0f81612ed3565b9050919050565b7f496e73756666696369656e742066756e64730000000000000000000000000000600082015250565b6000612f4c601283612e99565b9150612f5782612f16565b602082019050919050565b60006020820190508181036000830152612f7b81612f3f565b9050919050565b7f596f752073686f756c642061747461636820736f6d65204465706f7369740000600082015250565b6000612fb8601e83612e99565b9150612fc382612f82565b602082019050919050565b60006020820190508181036000830152612fe781612fab565b9050919050565b7f596f752063616e27742072656d6f7665204368616c6c656e6765000000000000600082015250565b6000613024601a83612e99565b915061302f82612fee565b602082019050919050565b6000602082019050818103600083015261305381613017565b9050919050565b7f496e76616c69642077696e6e6572206164647265737300000000000000000000600082015250565b6000613090601683612e99565b915061309b8261305a565b602082019050919050565b600060208201905081810360008301526130bf81613083565b9050919050565b7f4974656d206e6f7420666f756e64000000000000000000000000000000000000600082015250565b60006130fc600e83612e99565b9150613107826130c6565b602082019050919050565b6000602082019050818103600083015261312b816130ef565b9050919050565b600061313d82612660565b915061314883612660565b9250817fffffffffffffffffffffffffffffffffffffffffffffffffffffffffffffffff048311821515161561318157613180612e21565b5b828202905092915050565b7f4e487b7100000000000000000000000000000000000000000000000000000000600052601260045260246000fd5b60006131c682612660565b91506131d183612660565b9250826131e1576131e061318c565b5b828204905092915050565b7f446561646c696e65207761732065787069726564000000000000000000000000600082015250565b6000613222601483612e99565b915061322d826131ec565b602082019050919050565b6000602082019050818103600083015261325181613215565b9050919050565b600061326382612660565b915061326e83612660565b92508282101561328157613280612e21565b5b828203905092915050565b600061329782612660565b91506132a283612660565b9250827fffffffffffffffffffffffffffffffffffffffffffffffffffffffffffffffff038211156132d7576132d6612e21565b5b828201905092915050565b7f4e487b7100000000000000000000000000000000000000000000000000000000600052603160045260246000fd5b7f596f752063616e2774207365742077696e6e657220746f20746869732043686160008201527f6c6c656e67650000000000000000000000000000000000000000000000000000602082015250565b600061336d602683612e99565b915061337882613311565b604082019050919050565b6000602082019050818103600083015261339c81613360565b905091905056fea26469706673582212201820b535103eea01275c4cba5cfcf75ceb587d0997a9a411aaf4d72ba090e38764736f6c634300080c0033",
  "linkReferences": {},
  "deployedLinkReferences": {}
}