{
  "_format": "hh-sol-artifact-1",
  "contractName": "CustomChallenge",
  "sourceName": "smart_contract/contracts/CustomChallenge.sol",
  "abi": [
    {
      "inputs": [
        {
          "internalType": "address",
          "name": "trustedForwarder",
          "type": "address"
        }
      ],
      "stateMutability": "nonpayable",
      "type": "constructor"
    },
    {
      "inputs": [
        {
          "internalType": "string",
          "name": "message",
          "type": "string"
        }
      ],
      "name": "CantChange",
      "type": "error"
    },
    {
      "inputs": [
        {
          "internalType": "string",
          "name": "message",
          "type": "string"
        }
      ],
      "name": "DateExpired",
      "type": "error"
    },
    {
      "inputs": [
        {
          "internalType": "string",
          "name": "message",
          "type": "string"
        }
      ],
      "name": "InsufficientAmount",
      "type": "error"
    },
    {
      "inputs": [
        {
          "internalType": "string",
          "name": "message",
          "type": "string"
        }
      ],
      "name": "InvalidParams",
      "type": "error"
    },
    {
      "inputs": [
        {
          "internalType": "string",
          "name": "message",
          "type": "string"
        }
      ],
      "name": "NotFound",
      "type": "error"
    },
    {
      "inputs": [
        {
          "internalType": "uint256",
          "name": "_id",
          "type": "uint256"
        }
      ],
      "name": "accept",
      "outputs": [],
      "stateMutability": "payable",
      "type": "function"
    },
    {
      "inputs": [],
      "name": "allChallenges",
      "outputs": [
        {
          "components": [
            {
              "internalType": "uint256",
              "name": "id",
              "type": "uint256"
            },
            {
              "internalType": "string",
              "name": "name",
              "type": "string"
            },
            {
              "internalType": "string",
              "name": "description",
              "type": "string"
            },
            {
              "internalType": "uint256",
              "name": "cof",
              "type": "uint256"
            },
            {
              "internalType": "uint256",
              "name": "oracle_fee",
              "type": "uint256"
            },
            {
              "internalType": "address",
              "name": "maker",
              "type": "address"
            },
            {
              "internalType": "address",
              "name": "taker",
              "type": "address"
            },
            {
              "internalType": "address",
              "name": "oracle",
              "type": "address"
            },
            {
              "internalType": "address",
              "name": "winner",
              "type": "address"
            },
            {
              "internalType": "uint256",
              "name": "paid_maker",
              "type": "uint256"
            },
            {
              "internalType": "uint256",
              "name": "paid_taker",
              "type": "uint256"
            },
            {
              "internalType": "uint256",
              "name": "paid_oracle",
              "type": "uint256"
            },
            {
              "internalType": "uint256",
              "name": "created_date",
              "type": "uint256"
            },
            {
              "internalType": "uint256",
              "name": "deadline_date",
              "type": "uint256"
            },
            {
              "internalType": "bool",
              "name": "finished",
              "type": "bool"
            }
          ],
          "internalType": "struct CustomChallenge.ChallengeStruct[]",
          "name": "",
          "type": "tuple[]"
        }
      ],
      "stateMutability": "view",
      "type": "function"
    },
    {
      "inputs": [
        {
          "internalType": "string",
          "name": "_name",
          "type": "string"
        },
        {
          "internalType": "string",
          "name": "_description",
          "type": "string"
        },
        {
          "internalType": "uint256",
          "name": "_cof",
          "type": "uint256"
        },
        {
          "internalType": "uint256",
          "name": "_oracle_fee",
          "type": "uint256"
        },
        {
          "internalType": "uint256",
          "name": "_deadline_date",
          "type": "uint256"
        },
        {
          "internalType": "address",
          "name": "_oracle",
          "type": "address"
        }
      ],
      "name": "create",
      "outputs": [],
      "stateMutability": "payable",
      "type": "function"
    },
    {
      "inputs": [
        {
          "internalType": "uint256",
          "name": "_id",
          "type": "uint256"
        }
      ],
      "name": "getById",
      "outputs": [
        {
          "components": [
            {
              "internalType": "uint256",
              "name": "id",
              "type": "uint256"
            },
            {
              "internalType": "string",
              "name": "name",
              "type": "string"
            },
            {
              "internalType": "string",
              "name": "description",
              "type": "string"
            },
            {
              "internalType": "uint256",
              "name": "cof",
              "type": "uint256"
            },
            {
              "internalType": "uint256",
              "name": "oracle_fee",
              "type": "uint256"
            },
            {
              "internalType": "address",
              "name": "maker",
              "type": "address"
            },
            {
              "internalType": "address",
              "name": "taker",
              "type": "address"
            },
            {
              "internalType": "address",
              "name": "oracle",
              "type": "address"
            },
            {
              "internalType": "address",
              "name": "winner",
              "type": "address"
            },
            {
              "internalType": "uint256",
              "name": "paid_maker",
              "type": "uint256"
            },
            {
              "internalType": "uint256",
              "name": "paid_taker",
              "type": "uint256"
            },
            {
              "internalType": "uint256",
              "name": "paid_oracle",
              "type": "uint256"
            },
            {
              "internalType": "uint256",
              "name": "created_date",
              "type": "uint256"
            },
            {
              "internalType": "uint256",
              "name": "deadline_date",
              "type": "uint256"
            },
            {
              "internalType": "bool",
              "name": "finished",
              "type": "bool"
            }
          ],
          "internalType": "struct CustomChallenge.ChallengeStruct",
          "name": "",
          "type": "tuple"
        }
      ],
      "stateMutability": "view",
      "type": "function"
    },
    {
      "inputs": [
        {
          "internalType": "address",
          "name": "u_address",
          "type": "address"
        }
      ],
      "name": "getUserChallenges",
      "outputs": [
        {
          "components": [
            {
              "internalType": "uint256",
              "name": "id",
              "type": "uint256"
            },
            {
              "internalType": "string",
              "name": "name",
              "type": "string"
            },
            {
              "internalType": "string",
              "name": "description",
              "type": "string"
            },
            {
              "internalType": "uint256",
              "name": "cof",
              "type": "uint256"
            },
            {
              "internalType": "uint256",
              "name": "oracle_fee",
              "type": "uint256"
            },
            {
              "internalType": "address",
              "name": "maker",
              "type": "address"
            },
            {
              "internalType": "address",
              "name": "taker",
              "type": "address"
            },
            {
              "internalType": "address",
              "name": "oracle",
              "type": "address"
            },
            {
              "internalType": "address",
              "name": "winner",
              "type": "address"
            },
            {
              "internalType": "uint256",
              "name": "paid_maker",
              "type": "uint256"
            },
            {
              "internalType": "uint256",
              "name": "paid_taker",
              "type": "uint256"
            },
            {
              "internalType": "uint256",
              "name": "paid_oracle",
              "type": "uint256"
            },
            {
              "internalType": "uint256",
              "name": "created_date",
              "type": "uint256"
            },
            {
              "internalType": "uint256",
              "name": "deadline_date",
              "type": "uint256"
            },
            {
              "internalType": "bool",
              "name": "finished",
              "type": "bool"
            }
          ],
          "internalType": "struct CustomChallenge.ChallengeStruct[]",
          "name": "",
          "type": "tuple[]"
        }
      ],
      "stateMutability": "view",
      "type": "function"
    },
    {
      "inputs": [],
      "name": "id",
      "outputs": [
        {
          "internalType": "uint256",
          "name": "",
          "type": "uint256"
        }
      ],
      "stateMutability": "view",
      "type": "function"
    },
    {
      "inputs": [
        {
          "internalType": "address",
          "name": "forwarder",
          "type": "address"
        }
      ],
      "name": "isTrustedForwarder",
      "outputs": [
        {
          "internalType": "bool",
          "name": "",
          "type": "bool"
        }
      ],
      "stateMutability": "view",
      "type": "function"
    },
    {
      "inputs": [
        {
          "internalType": "uint256",
          "name": "_id",
          "type": "uint256"
        }
      ],
      "name": "remove",
      "outputs": [
        {
          "internalType": "bool",
          "name": "",
          "type": "bool"
        }
      ],
      "stateMutability": "nonpayable",
      "type": "function"
    },
    {
      "inputs": [
        {
          "internalType": "uint256",
          "name": "_id",
          "type": "uint256"
        }
      ],
      "name": "setDraw",
      "outputs": [],
      "stateMutability": "nonpayable",
      "type": "function"
    },
    {
      "inputs": [
        {
          "internalType": "uint256",
          "name": "_id",
          "type": "uint256"
        },
        {
          "internalType": "address",
          "name": "_winner",
          "type": "address"
        }
      ],
      "name": "setWinner",
      "outputs": [],
      "stateMutability": "nonpayable",
      "type": "function"
    }
  ],
  "bytecode": "0x60a06040523480156200001157600080fd5b50604051620036bf380380620036bf8339818101604052810190620000379190620000de565b808073ffffffffffffffffffffffffffffffffffffffff1660808173ffffffffffffffffffffffffffffffffffffffff1681525050505062000110565b600080fd5b600073ffffffffffffffffffffffffffffffffffffffff82169050919050565b6000620000a68262000079565b9050919050565b620000b88162000099565b8114620000c457600080fd5b50565b600081519050620000d881620000ad565b92915050565b600060208284031215620000f757620000f662000074565b5b60006200010784828501620000c7565b91505092915050565b6080516135936200012c600039600061129a01526135936000f3fe6080604052600436106100915760003560e01c80639c623683116100595780639c62368314610185578063a3a503ac146101ae578063af640d0f146101d9578063b565783514610204578063f4f4d2371461022d57610091565b806311da8e541461009657806319b05f49146100d35780631d2238b9146100ef5780634cc822151461010b578063572b6c0514610148575b600080fd5b3480156100a257600080fd5b506100bd60048036038101906100b89190612731565b61026a565b6040516100ca9190612a46565b60405180910390f35b6100ed60048036038101906100e89190612a94565b6106b7565b005b61010960048036038101906101049190612bf6565b610901565b005b34801561011757600080fd5b50610132600480360381019061012d9190612a94565b610c76565b60405161013f9190612cca565b60405180910390f35b34801561015457600080fd5b5061016f600480360381019061016a9190612731565b611296565b60405161017c9190612cca565b60405180910390f35b34801561019157600080fd5b506101ac60048036038101906101a79190612ce5565b6112ee565b005b3480156101ba57600080fd5b506101c3611583565b6040516101d09190612a46565b60405180910390f35b3480156101e557600080fd5b506101ee611928565b6040516101fb9190612d34565b60405180910390f35b34801561021057600080fd5b5061022b60048036038101906102269190612a94565b61192e565b005b34801561023957600080fd5b50610254600480360381019061024f9190612a94565b611adb565b6040516102619190612e99565b60405180910390f35b60606000600260008473ffffffffffffffffffffffffffffffffffffffff1673ffffffffffffffffffffffffffffffffffffffff16815260200190815260200160002080549050905060008167ffffffffffffffff8111156102cf576102ce612acb565b5b60405190808252806020026020018201604052801561030857816020015b6102f561250c565b8152602001906001900390816102ed5790505b50905060005b828110156106ac576000600260008773ffffffffffffffffffffffffffffffffffffffff1673ffffffffffffffffffffffffffffffffffffffff168152602001908152602001600020828154811061036957610368612ebb565b5b9060005260206000200154905060016000828152602001908152602001600020604051806101e0016040529081600082015481526020016001820180546103af90612f19565b80601f01602080910402602001604051908101604052809291908181526020018280546103db90612f19565b80156104285780601f106103fd57610100808354040283529160200191610428565b820191906000526020600020905b81548152906001019060200180831161040b57829003601f168201915b5050505050815260200160028201805461044190612f19565b80601f016020809104026020016040519081016040528092919081815260200182805461046d90612f19565b80156104ba5780601f1061048f576101008083540402835291602001916104ba565b820191906000526020600020905b81548152906001019060200180831161049d57829003601f168201915b5050505050815260200160038201548152602001600482015481526020016005820160009054906101000a900473ffffffffffffffffffffffffffffffffffffffff1673ffffffffffffffffffffffffffffffffffffffff1673ffffffffffffffffffffffffffffffffffffffff1681526020016006820160009054906101000a900473ffffffffffffffffffffffffffffffffffffffff1673ffffffffffffffffffffffffffffffffffffffff1673ffffffffffffffffffffffffffffffffffffffff1681526020016007820160009054906101000a900473ffffffffffffffffffffffffffffffffffffffff1673ffffffffffffffffffffffffffffffffffffffff1673ffffffffffffffffffffffffffffffffffffffff1681526020016008820160009054906101000a900473ffffffffffffffffffffffffffffffffffffffff1673ffffffffffffffffffffffffffffffffffffffff1673ffffffffffffffffffffffffffffffffffffffff16815260200160098201548152602001600a8201548152602001600b8201548152602001600c8201548152602001600d8201548152602001600e820160009054906101000a900460ff16151515158152505083838151811061068f5761068e612ebb565b5b602002602001018190525050806106a590612f79565b905061030e565b508092505050919050565b6106c033611296565b6106ff576040517f08c379a00000000000000000000000000000000000000000000000000000000081526004016106f690613044565b60405180910390fd5b600061070a82611df0565b90503373ffffffffffffffffffffffffffffffffffffffff168160e0015173ffffffffffffffffffffffffffffffffffffffff16148061077b5750600073ffffffffffffffffffffffffffffffffffffffff168160c0015173ffffffffffffffffffffffffffffffffffffffff1614155b156107bb576040517fef7d78ef0000000000000000000000000000000000000000000000000000000081526004016107b2906130b0565b60405180910390fd5b60006107e16107d38361012001518460600151612153565b670de0b6b3a7640000612169565b905080341015610826576040517f4817ec2e00000000000000000000000000000000000000000000000000000000815260040161081d9061311c565b60405180910390fd5b336001600085815260200190815260200160002060060160006101000a81548173ffffffffffffffffffffffffffffffffffffffff021916908373ffffffffffffffffffffffffffffffffffffffff1602179055503460016000858152602001908152602001600020600a0181905550600260003373ffffffffffffffffffffffffffffffffffffffff1673ffffffffffffffffffffffffffffffffffffffff168152602001908152602001600020839080600181540180825580915050600190039060005260206000200160009091909190915055505050565b6000341015610945576040517f4817ec2e00000000000000000000000000000000000000000000000000000000815260040161093c90613188565b60405180910390fd5b61094e8261217f565b5060006109596121d2565b90506000604051806101e001604052808381526020018981526020018881526020018781526020018681526020013373ffffffffffffffffffffffffffffffffffffffff168152602001600073ffffffffffffffffffffffffffffffffffffffff1681526020018473ffffffffffffffffffffffffffffffffffffffff168152602001600073ffffffffffffffffffffffffffffffffffffffff16815260200134815260200160008152602001600081526020014281526020018581526020016000151581525090508060016000848152602001908152602001600020600082015181600001556020820151816001019080519060200190610a5c9291906125dc565b506040820151816002019080519060200190610a799291906125dc565b50606082015181600301556080820151816004015560a08201518160050160006101000a81548173ffffffffffffffffffffffffffffffffffffffff021916908373ffffffffffffffffffffffffffffffffffffffff16021790555060c08201518160060160006101000a81548173ffffffffffffffffffffffffffffffffffffffff021916908373ffffffffffffffffffffffffffffffffffffffff16021790555060e08201518160070160006101000a81548173ffffffffffffffffffffffffffffffffffffffff021916908373ffffffffffffffffffffffffffffffffffffffff1602179055506101008201518160080160006101000a81548173ffffffffffffffffffffffffffffffffffffffff021916908373ffffffffffffffffffffffffffffffffffffffff160217905550610120820151816009015561014082015181600a015561016082015181600b015561018082015181600c01556101a082015181600d01556101c082015181600e0160006101000a81548160ff021916908315150217905550905050600260003373ffffffffffffffffffffffffffffffffffffffff1673ffffffffffffffffffffffffffffffffffffffff1681526020019081526020016000208290806001815401808255809150506001900390600052602060002001600090919091909150555050505050505050565b6000610c8133611296565b610cc0576040517f08c379a0000000000000000000000000000000000000000000000000000000008152600401610cb790613044565b60405180910390fd5b600060016000848152602001908152602001600020604051806101e001604052908160008201548152602001600182018054610cfb90612f19565b80601f0160208091040260200160405190810160405280929190818152602001828054610d2790612f19565b8015610d745780601f10610d4957610100808354040283529160200191610d74565b820191906000526020600020905b815481529060010190602001808311610d5757829003601f168201915b50505050508152602001600282018054610d8d90612f19565b80601f0160208091040260200160405190810160405280929190818152602001828054610db990612f19565b8015610e065780601f10610ddb57610100808354040283529160200191610e06565b820191906000526020600020905b815481529060010190602001808311610de957829003601f168201915b5050505050815260200160038201548152602001600482015481526020016005820160009054906101000a900473ffffffffffffffffffffffffffffffffffffffff1673ffffffffffffffffffffffffffffffffffffffff1673ffffffffffffffffffffffffffffffffffffffff1681526020016006820160009054906101000a900473ffffffffffffffffffffffffffffffffffffffff1673ffffffffffffffffffffffffffffffffffffffff1673ffffffffffffffffffffffffffffffffffffffff1681526020016007820160009054906101000a900473ffffffffffffffffffffffffffffffffffffffff1673ffffffffffffffffffffffffffffffffffffffff1673ffffffffffffffffffffffffffffffffffffffff1681526020016008820160009054906101000a900473ffffffffffffffffffffffffffffffffffffffff1673ffffffffffffffffffffffffffffffffffffffff1673ffffffffffffffffffffffffffffffffffffffff16815260200160098201548152602001600a8201548152602001600b8201548152602001600c8201548152602001600d8201548152602001600e820160009054906101000a900460ff16151515158152505090503373ffffffffffffffffffffffffffffffffffffffff168160a0015173ffffffffffffffffffffffffffffffffffffffff1614158061103a5750600073ffffffffffffffffffffffffffffffffffffffff168160c0015173ffffffffffffffffffffffffffffffffffffffff1614155b1561107a576040517fef7d78ef000000000000000000000000000000000000000000000000000000008152600401611071906131f4565b60405180910390fd5b600160008481526020019081526020016000206000808201600090556001820160006110a69190612662565b6002820160006110b69190612662565b600382016000905560048201600090556005820160006101000a81549073ffffffffffffffffffffffffffffffffffffffff02191690556006820160006101000a81549073ffffffffffffffffffffffffffffffffffffffff02191690556007820160006101000a81549073ffffffffffffffffffffffffffffffffffffffff02191690556008820160006101000a81549073ffffffffffffffffffffffffffffffffffffffff02191690556009820160009055600a820160009055600b820160009055600c820160009055600d820160009055600e820160006101000a81549060ff021916905550506000806111eb85600260003373ffffffffffffffffffffffffffffffffffffffff1673ffffffffffffffffffffffffffffffffffffffff1681526020019081526020016000206121ef565b91509150801561128a573373ffffffffffffffffffffffffffffffffffffffff166108fc8461012001519081150290604051600060405180830381858888f19350505050158015611240573d6000803e3d6000fd5b5061128982600260003373ffffffffffffffffffffffffffffffffffffffff1673ffffffffffffffffffffffffffffffffffffffff168152602001908152602001600020612253565b5b60019350505050919050565b60007f000000000000000000000000000000000000000000000000000000000000000073ffffffffffffffffffffffffffffffffffffffff168273ffffffffffffffffffffffffffffffffffffffff16149050919050565b60006112f983611df0565b905061130481612308565b508060a0015173ffffffffffffffffffffffffffffffffffffffff168273ffffffffffffffffffffffffffffffffffffffff16148061137257508060c0015173ffffffffffffffffffffffffffffffffffffffff168273ffffffffffffffffffffffffffffffffffffffff16145b1561154357600080611383836123f3565b91509150600082146113f6578260e0015173ffffffffffffffffffffffffffffffffffffffff166108fc839081150290604051600060405180830381858888f193505050501580156113d9573d6000803e3d6000fd5b508160016000878152602001908152602001600020600b01819055505b600081146114b9578373ffffffffffffffffffffffffffffffffffffffff166108fc829081150290604051600060405180830381858888f19350505050158015611444573d6000803e3d6000fd5b508260a0015173ffffffffffffffffffffffffffffffffffffffff168473ffffffffffffffffffffffffffffffffffffffff160361149c578060016000878152602001908152602001600020600901819055506114b8565b8060016000878152602001908152602001600020600a01819055505b5b836001600087815260200190815260200160002060080160006101000a81548173ffffffffffffffffffffffffffffffffffffffff021916908373ffffffffffffffffffffffffffffffffffffffff1602179055506001806000878152602001908152602001600020600e0160006101000a81548160ff021916908315150217905550505061157e565b6040517fa8c278dd00000000000000000000000000000000000000000000000000000000815260040161157590613260565b60405180910390fd5b505050565b60606000805467ffffffffffffffff8111156115a2576115a1612acb565b5b6040519080825280602002602001820160405280156115db57816020015b6115c861250c565b8152602001906001900390816115c05790505b50905060005b6000548110156119205760016000828152602001908152602001600020604051806101e00160405290816000820154815260200160018201805461162490612f19565b80601f016020809104026020016040519081016040528092919081815260200182805461165090612f19565b801561169d5780601f106116725761010080835404028352916020019161169d565b820191906000526020600020905b81548152906001019060200180831161168057829003601f168201915b505050505081526020016002820180546116b690612f19565b80601f01602080910402602001604051908101604052809291908181526020018280546116e290612f19565b801561172f5780601f106117045761010080835404028352916020019161172f565b820191906000526020600020905b81548152906001019060200180831161171257829003601f168201915b5050505050815260200160038201548152602001600482015481526020016005820160009054906101000a900473ffffffffffffffffffffffffffffffffffffffff1673ffffffffffffffffffffffffffffffffffffffff1673ffffffffffffffffffffffffffffffffffffffff1681526020016006820160009054906101000a900473ffffffffffffffffffffffffffffffffffffffff1673ffffffffffffffffffffffffffffffffffffffff1673ffffffffffffffffffffffffffffffffffffffff1681526020016007820160009054906101000a900473ffffffffffffffffffffffffffffffffffffffff1673ffffffffffffffffffffffffffffffffffffffff1673ffffffffffffffffffffffffffffffffffffffff1681526020016008820160009054906101000a900473ffffffffffffffffffffffffffffffffffffffff1673ffffffffffffffffffffffffffffffffffffffff1673ffffffffffffffffffffffffffffffffffffffff16815260200160098201548152602001600a8201548152602001600b8201548152602001600c8201548152602001600d8201548152602001600e820160009054906101000a900460ff16151515158152505082828151811061190457611903612ebb565b5b60200260200101819052508061191990612f79565b90506115e1565b508091505090565b60005481565b600061193982611df0565b905061194481612308565b50600080600061195384612448565b925092509250600083146119c8578360e0015173ffffffffffffffffffffffffffffffffffffffff166108fc849081150290604051600060405180830381858888f193505050501580156119ab573d6000803e3d6000fd5b508260016000878152602001908152602001600020600b01819055505b60008214611a37578360a0015173ffffffffffffffffffffffffffffffffffffffff166108fc839081150290604051600060405180830381858888f19350505050158015611a1a573d6000803e3d6000fd5b508160016000878152602001908152602001600020600901819055505b60008114611aa6578360c0015173ffffffffffffffffffffffffffffffffffffffff166108fc829081150290604051600060405180830381858888f19350505050158015611a89573d6000803e3d6000fd5b508060016000878152602001908152602001600020600a01819055505b6001806000878152602001908152602001600020600e0160006101000a81548160ff0219169083151502179055505050505050565b611ae361250c565b60016000838152602001908152602001600020604051806101e001604052908160008201548152602001600182018054611b1c90612f19565b80601f0160208091040260200160405190810160405280929190818152602001828054611b4890612f19565b8015611b955780601f10611b6a57610100808354040283529160200191611b95565b820191906000526020600020905b815481529060010190602001808311611b7857829003601f168201915b50505050508152602001600282018054611bae90612f19565b80601f0160208091040260200160405190810160405280929190818152602001828054611bda90612f19565b8015611c275780601f10611bfc57610100808354040283529160200191611c27565b820191906000526020600020905b815481529060010190602001808311611c0a57829003601f168201915b5050505050815260200160038201548152602001600482015481526020016005820160009054906101000a900473ffffffffffffffffffffffffffffffffffffffff1673ffffffffffffffffffffffffffffffffffffffff1673ffffffffffffffffffffffffffffffffffffffff1681526020016006820160009054906101000a900473ffffffffffffffffffffffffffffffffffffffff1673ffffffffffffffffffffffffffffffffffffffff1673ffffffffffffffffffffffffffffffffffffffff1681526020016007820160009054906101000a900473ffffffffffffffffffffffffffffffffffffffff1673ffffffffffffffffffffffffffffffffffffffff1673ffffffffffffffffffffffffffffffffffffffff1681526020016008820160009054906101000a900473ffffffffffffffffffffffffffffffffffffffff1673ffffffffffffffffffffffffffffffffffffffff1673ffffffffffffffffffffffffffffffffffffffff16815260200160098201548152602001600a8201548152602001600b8201548152602001600c8201548152602001600d8201548152602001600e820160009054906101000a900460ff1615151515815250509050919050565b611df861250c565b600060016000848152602001908152602001600020604051806101e001604052908160008201548152602001600182018054611e3390612f19565b80601f0160208091040260200160405190810160405280929190818152602001828054611e5f90612f19565b8015611eac5780601f10611e8157610100808354040283529160200191611eac565b820191906000526020600020905b815481529060010190602001808311611e8f57829003601f168201915b50505050508152602001600282018054611ec590612f19565b80601f0160208091040260200160405190810160405280929190818152602001828054611ef190612f19565b8015611f3e5780601f10611f1357610100808354040283529160200191611f3e565b820191906000526020600020905b815481529060010190602001808311611f2157829003601f168201915b5050505050815260200160038201548152602001600482015481526020016005820160009054906101000a900473ffffffffffffffffffffffffffffffffffffffff1673ffffffffffffffffffffffffffffffffffffffff1673ffffffffffffffffffffffffffffffffffffffff1681526020016006820160009054906101000a900473ffffffffffffffffffffffffffffffffffffffff1673ffffffffffffffffffffffffffffffffffffffff1673ffffffffffffffffffffffffffffffffffffffff1681526020016007820160009054906101000a900473ffffffffffffffffffffffffffffffffffffffff1673ffffffffffffffffffffffffffffffffffffffff1673ffffffffffffffffffffffffffffffffffffffff1681526020016008820160009054906101000a900473ffffffffffffffffffffffffffffffffffffffff1673ffffffffffffffffffffffffffffffffffffffff1673ffffffffffffffffffffffffffffffffffffffff16815260200160098201548152602001600a8201548152602001600b8201548152602001600c8201548152602001600d8201548152602001600e820160009054906101000a900460ff161515151581525050905060008161012001510361214a576040517f607be5dc000000000000000000000000000000000000000000000000000000008152600401612141906132cc565b60405180910390fd5b80915050919050565b6000818361216191906132ec565b905092915050565b600081836121779190613375565b905092915050565b60008082421015905080156121c9576040517fed731ed70000000000000000000000000000000000000000000000000000000081526004016121c0906133f2565b60405180910390fd5b80915050919050565b60008060008154809291906121e690612f79565b91905055905090565b60008060005b8380549050811015612243578484828154811061221557612214612ebb565b5b90600052602060002001540361223257806001925092505061224c565b8061223c90612f79565b90506121f5565b50600080915091505b9250929050565b80805490508210156123045760008290505b600182805490506122769190613412565b8110156122db578160018261228b9190613446565b8154811061229c5761229b612ebb565b5b90600052602060002001548282815481106122ba576122b9612ebb565b5b906000526020600020018190555080806122d390612f79565b915050612265565b50808054806122ed576122ec61349c565b5b600190038181906000526020600020016000905590555b5050565b60003373ffffffffffffffffffffffffffffffffffffffff168260e0015173ffffffffffffffffffffffffffffffffffffffff1614158061237b5750600073ffffffffffffffffffffffffffffffffffffffff1682610100015173ffffffffffffffffffffffffffffffffffffffff1614155b8061238b57506000826101200151145b8061239b57506000826101400151145b806123aa575042826101a00151115b156123ea576040517fef7d78ef0000000000000000000000000000000000000000000000000000000081526004016123e19061353d565b60405180910390fd5b60019050919050565b600080600061240c8461012001518561014001516124f6565b90506000612428612421838760800151612153565b6064612169565b9050600081836124389190613412565b9050818194509450505050915091565b6000806000806124628561012001518661014001516124f6565b9050600061247e612477838860800151612153565b6064612169565b9050600061249f6124988861012001518960800151612153565b6064612169565b8761012001516124af9190613412565b905060006124d06124c98961014001518a60800151612153565b6064612169565b8861014001516124e09190613412565b9050828282965096509650505050509193909250565b600081836125049190613446565b905092915050565b604051806101e001604052806000815260200160608152602001606081526020016000815260200160008152602001600073ffffffffffffffffffffffffffffffffffffffff168152602001600073ffffffffffffffffffffffffffffffffffffffff168152602001600073ffffffffffffffffffffffffffffffffffffffff168152602001600073ffffffffffffffffffffffffffffffffffffffff16815260200160008152602001600081526020016000815260200160008152602001600081526020016000151581525090565b8280546125e890612f19565b90600052602060002090601f01602090048101928261260a5760008555612651565b82601f1061262357805160ff1916838001178555612651565b82800160010185558215612651579182015b82811115612650578251825591602001919060010190612635565b5b50905061265e91906126a2565b5090565b50805461266e90612f19565b6000825580601f10612680575061269f565b601f01602090049060005260206000209081019061269e91906126a2565b5b50565b5b808211156126bb5760008160009055506001016126a3565b5090565b6000604051905090565b600080fd5b600080fd5b600073ffffffffffffffffffffffffffffffffffffffff82169050919050565b60006126fe826126d3565b9050919050565b61270e816126f3565b811461271957600080fd5b50565b60008135905061272b81612705565b92915050565b600060208284031215612747576127466126c9565b5b60006127558482850161271c565b91505092915050565b600081519050919050565b600082825260208201905092915050565b6000819050602082019050919050565b6000819050919050565b61279d8161278a565b82525050565b600081519050919050565b600082825260208201905092915050565b60005b838110156127dd5780820151818401526020810190506127c2565b838111156127ec576000848401525b50505050565b6000601f19601f8301169050919050565b600061280e826127a3565b61281881856127ae565b93506128288185602086016127bf565b612831816127f2565b840191505092915050565b612845816126f3565b82525050565b60008115159050919050565b6128608161284b565b82525050565b60006101e08301600083015161287f6000860182612794565b50602083015184820360208601526128978282612803565b915050604083015184820360408601526128b18282612803565b91505060608301516128c66060860182612794565b5060808301516128d96080860182612794565b5060a08301516128ec60a086018261283c565b5060c08301516128ff60c086018261283c565b5060e083015161291260e086018261283c565b5061010083015161292761010086018261283c565b5061012083015161293c610120860182612794565b50610140830151612951610140860182612794565b50610160830151612966610160860182612794565b5061018083015161297b610180860182612794565b506101a08301516129906101a0860182612794565b506101c08301516129a56101c0860182612857565b508091505092915050565b60006129bc8383612866565b905092915050565b6000602082019050919050565b60006129dc8261275e565b6129e68185612769565b9350836020820285016129f88561277a565b8060005b85811015612a345784840389528151612a1585826129b0565b9450612a20836129c4565b925060208a019950506001810190506129fc565b50829750879550505050505092915050565b60006020820190508181036000830152612a6081846129d1565b905092915050565b612a718161278a565b8114612a7c57600080fd5b50565b600081359050612a8e81612a68565b92915050565b600060208284031215612aaa57612aa96126c9565b5b6000612ab884828501612a7f565b91505092915050565b600080fd5b600080fd5b7f4e487b7100000000000000000000000000000000000000000000000000000000600052604160045260246000fd5b612b03826127f2565b810181811067ffffffffffffffff82111715612b2257612b21612acb565b5b80604052505050565b6000612b356126bf565b9050612b418282612afa565b919050565b600067ffffffffffffffff821115612b6157612b60612acb565b5b612b6a826127f2565b9050602081019050919050565b82818337600083830152505050565b6000612b99612b9484612b46565b612b2b565b905082815260208101848484011115612bb557612bb4612ac6565b5b612bc0848285612b77565b509392505050565b600082601f830112612bdd57612bdc612ac1565b5b8135612bed848260208601612b86565b91505092915050565b60008060008060008060c08789031215612c1357612c126126c9565b5b600087013567ffffffffffffffff811115612c3157612c306126ce565b5b612c3d89828a01612bc8565b965050602087013567ffffffffffffffff811115612c5e57612c5d6126ce565b5b612c6a89828a01612bc8565b9550506040612c7b89828a01612a7f565b9450506060612c8c89828a01612a7f565b9350506080612c9d89828a01612a7f565b92505060a0612cae89828a0161271c565b9150509295509295509295565b612cc48161284b565b82525050565b6000602082019050612cdf6000830184612cbb565b92915050565b60008060408385031215612cfc57612cfb6126c9565b5b6000612d0a85828601612a7f565b9250506020612d1b8582860161271c565b9150509250929050565b612d2e8161278a565b82525050565b6000602082019050612d496000830184612d25565b92915050565b60006101e083016000830151612d686000860182612794565b5060208301518482036020860152612d808282612803565b91505060408301518482036040860152612d9a8282612803565b9150506060830151612daf6060860182612794565b506080830151612dc26080860182612794565b5060a0830151612dd560a086018261283c565b5060c0830151612de860c086018261283c565b5060e0830151612dfb60e086018261283c565b50610100830151612e1061010086018261283c565b50610120830151612e25610120860182612794565b50610140830151612e3a610140860182612794565b50610160830151612e4f610160860182612794565b50610180830151612e64610180860182612794565b506101a0830151612e796101a0860182612794565b506101c0830151612e8e6101c0860182612857565b508091505092915050565b60006020820190508181036000830152612eb38184612d4f565b905092915050565b7f4e487b7100000000000000000000000000000000000000000000000000000000600052603260045260246000fd5b7f4e487b7100000000000000000000000000000000000000000000000000000000600052602260045260246000fd5b60006002820490506001821680612f3157607f821691505b602082108103612f4457612f43612eea565b5b50919050565b7f4e487b7100000000000000000000000000000000000000000000000000000000600052601160045260246000fd5b6000612f848261278a565b91507fffffffffffffffffffffffffffffffffffffffffffffffffffffffffffffffff8203612fb657612fb5612f4a565b5b600182019050919050565b600082825260208201905092915050565b7f4f6e6c792063616c6c61626c65206279205472757374656420466f727761726460008201527f6572000000000000000000000000000000000000000000000000000000000000602082015250565b600061302e602283612fc1565b915061303982612fd2565b604082019050919050565b6000602082019050818103600083015261305d81613021565b9050919050565b7f4163657074206572726f72000000000000000000000000000000000000000000600082015250565b600061309a600b83612fc1565b91506130a582613064565b602082019050919050565b600060208201905081810360008301526130c98161308d565b9050919050565b7f496e73756666696369656e742066756e64730000000000000000000000000000600082015250565b6000613106601283612fc1565b9150613111826130d0565b602082019050919050565b60006020820190508181036000830152613135816130f9565b9050919050565b7f596f752073686f756c642061747461636820736f6d65204465706f7369740000600082015250565b6000613172601e83612fc1565b915061317d8261313c565b602082019050919050565b600060208201905081810360008301526131a181613165565b9050919050565b7f596f752063616e27742072656d6f7665204368616c6c656e6765000000000000600082015250565b60006131de601a83612fc1565b91506131e9826131a8565b602082019050919050565b6000602082019050818103600083015261320d816131d1565b9050919050565b7f496e76616c69642077696e6e6572206164647265737300000000000000000000600082015250565b600061324a601683612fc1565b915061325582613214565b602082019050919050565b600060208201905081810360008301526132798161323d565b9050919050565b7f4974656d206e6f7420666f756e64000000000000000000000000000000000000600082015250565b60006132b6600e83612fc1565b91506132c182613280565b602082019050919050565b600060208201905081810360008301526132e5816132a9565b9050919050565b60006132f78261278a565b91506133028361278a565b9250817fffffffffffffffffffffffffffffffffffffffffffffffffffffffffffffffff048311821515161561333b5761333a612f4a565b5b828202905092915050565b7f4e487b7100000000000000000000000000000000000000000000000000000000600052601260045260246000fd5b60006133808261278a565b915061338b8361278a565b92508261339b5761339a613346565b5b828204905092915050565b7f446561646c696e65207761732065787069726564000000000000000000000000600082015250565b60006133dc601483612fc1565b91506133e7826133a6565b602082019050919050565b6000602082019050818103600083015261340b816133cf565b9050919050565b600061341d8261278a565b91506134288361278a565b92508282101561343b5761343a612f4a565b5b828203905092915050565b60006134518261278a565b915061345c8361278a565b9250827fffffffffffffffffffffffffffffffffffffffffffffffffffffffffffffffff0382111561349157613490612f4a565b5b828201905092915050565b7f4e487b7100000000000000000000000000000000000000000000000000000000600052603160045260246000fd5b7f596f752063616e2774207365742077696e6e657220746f20746869732043686160008201527f6c6c656e67650000000000000000000000000000000000000000000000000000602082015250565b6000613527602683612fc1565b9150613532826134cb565b604082019050919050565b600060208201905081810360008301526135568161351a565b905091905056fea2646970667358221220cea90328e092ef071417c7d6bd74213f1fb66e2463291ab4dbdac54c6634223864736f6c634300080e0033",
  "linkReferences": {},
  "deployedLinkReferences": {}
}