{
  "_format": "hh-sol-artifact-1",
  "contractName": "PriceChallenge",
  "sourceName": "smart_contract/contracts/PriceChallenge.sol",
  "abi": [
    {
      "inputs": [
        {
          "internalType": "string",
          "name": "message",
          "type": "string"
        }
      ],
      "name": "CantChange",
      "type": "error"
    },
    {
      "inputs": [
        {
          "internalType": "string",
          "name": "message",
          "type": "string"
        }
      ],
      "name": "DateExpired",
      "type": "error"
    },
    {
      "inputs": [
        {
          "internalType": "string",
          "name": "message",
          "type": "string"
        }
      ],
      "name": "InsufficientAmount",
      "type": "error"
    },
    {
      "inputs": [
        {
          "internalType": "string",
          "name": "message",
          "type": "string"
        }
      ],
      "name": "InvalidParams",
      "type": "error"
    },
    {
      "inputs": [
        {
          "internalType": "string",
          "name": "message",
          "type": "string"
        }
      ],
      "name": "NotFound",
      "type": "error"
    },
    {
      "inputs": [
        {
          "internalType": "uint256",
          "name": "_id",
          "type": "uint256"
        }
      ],
      "name": "accept",
      "outputs": [],
      "stateMutability": "payable",
      "type": "function"
    },
    {
      "inputs": [
        {
          "internalType": "bool",
          "name": "active",
          "type": "bool"
        }
      ],
      "name": "allChallenges",
      "outputs": [
        {
          "components": [
            {
              "internalType": "uint256",
              "name": "id",
              "type": "uint256"
            },
            {
              "internalType": "string",
              "name": "name",
              "type": "string"
            },
            {
              "internalType": "uint256",
              "name": "cof",
              "type": "uint256"
            },
            {
              "internalType": "address",
              "name": "maker",
              "type": "address"
            },
            {
              "internalType": "address",
              "name": "taker",
              "type": "address"
            },
            {
              "internalType": "uint256",
              "name": "paid_maker",
              "type": "uint256"
            },
            {
              "internalType": "uint256",
              "name": "paid_taker",
              "type": "uint256"
            },
            {
              "internalType": "address",
              "name": "token_address",
              "type": "address"
            },
            {
              "internalType": "uint256",
              "name": "created_date",
              "type": "uint256"
            },
            {
              "internalType": "uint256",
              "name": "deadline_date",
              "type": "uint256"
            },
            {
              "internalType": "bool",
              "name": "finished",
              "type": "bool"
            },
            {
              "internalType": "uint256",
              "name": "prediction_price",
              "type": "uint256"
            },
            {
              "internalType": "enum PriceChallenge.PredictionType",
              "name": "prediction_type",
              "type": "uint8"
            }
          ],
          "internalType": "struct PriceChallenge.ChallengeStruct[]",
          "name": "",
          "type": "tuple[]"
        }
      ],
      "stateMutability": "view",
      "type": "function"
    },
    {
      "inputs": [
        {
          "internalType": "string",
          "name": "_name",
          "type": "string"
        },
        {
          "internalType": "uint256",
          "name": "_cof",
          "type": "uint256"
        },
        {
          "internalType": "uint256",
          "name": "_deadline_date",
          "type": "uint256"
        },
        {
          "internalType": "address",
          "name": "_token_address",
          "type": "address"
        },
        {
          "internalType": "uint256",
          "name": "_price_prediction",
          "type": "uint256"
        },
        {
          "internalType": "enum PriceChallenge.PredictionType",
          "name": "_prediction_type",
          "type": "uint8"
        }
      ],
      "name": "create",
      "outputs": [],
      "stateMutability": "payable",
      "type": "function"
    },
    {
      "inputs": [],
      "name": "cronCall",
      "outputs": [],
      "stateMutability": "nonpayable",
      "type": "function"
    },
    {
      "inputs": [
        {
          "internalType": "address",
          "name": "tokenAddress",
          "type": "address"
        }
      ],
      "name": "cronPriceFeed",
      "outputs": [
        {
          "internalType": "int256",
          "name": "",
          "type": "int256"
        }
      ],
      "stateMutability": "view",
      "type": "function"
    },
    {
      "inputs": [
        {
          "internalType": "uint256",
          "name": "_id",
          "type": "uint256"
        }
      ],
      "name": "getById",
      "outputs": [
        {
          "components": [
            {
              "internalType": "uint256",
              "name": "id",
              "type": "uint256"
            },
            {
              "internalType": "string",
              "name": "name",
              "type": "string"
            },
            {
              "internalType": "uint256",
              "name": "cof",
              "type": "uint256"
            },
            {
              "internalType": "address",
              "name": "maker",
              "type": "address"
            },
            {
              "internalType": "address",
              "name": "taker",
              "type": "address"
            },
            {
              "internalType": "uint256",
              "name": "paid_maker",
              "type": "uint256"
            },
            {
              "internalType": "uint256",
              "name": "paid_taker",
              "type": "uint256"
            },
            {
              "internalType": "address",
              "name": "token_address",
              "type": "address"
            },
            {
              "internalType": "uint256",
              "name": "created_date",
              "type": "uint256"
            },
            {
              "internalType": "uint256",
              "name": "deadline_date",
              "type": "uint256"
            },
            {
              "internalType": "bool",
              "name": "finished",
              "type": "bool"
            },
            {
              "internalType": "uint256",
              "name": "prediction_price",
              "type": "uint256"
            },
            {
              "internalType": "enum PriceChallenge.PredictionType",
              "name": "prediction_type",
              "type": "uint8"
            }
          ],
          "internalType": "struct PriceChallenge.ChallengeStruct",
          "name": "",
          "type": "tuple"
        }
      ],
      "stateMutability": "view",
      "type": "function"
    },
    {
      "inputs": [],
      "name": "id",
      "outputs": [
        {
          "internalType": "uint256",
          "name": "",
          "type": "uint256"
        }
      ],
      "stateMutability": "view",
      "type": "function"
    },
    {
      "inputs": [
        {
          "internalType": "uint256",
          "name": "_id",
          "type": "uint256"
        }
      ],
      "name": "remove",
      "outputs": [
        {
          "internalType": "bool",
          "name": "",
          "type": "bool"
        }
      ],
      "stateMutability": "nonpayable",
      "type": "function"
    },
    {
      "inputs": [
        {
          "internalType": "uint256",
          "name": "_i",
          "type": "uint256"
        }
      ],
      "name": "setWinner",
      "outputs": [],
      "stateMutability": "nonpayable",
      "type": "function"
    }
  ],
  "bytecode": "0x608060405234801561001057600080fd5b50612ebc806100206000396000f3fe6080604052600436106100865760003560e01c80636b1fda5a116100595780636b1fda5a14610129578063af640d0f14610166578063c758b77a14610191578063d333e25a146101ce578063f4f4d237146101e557610086565b80630df716021461008b57806319b05f49146100b45780634af00e3d146100d05780634cc82215146100ec575b600080fd5b34801561009757600080fd5b506100b260048036038101906100ad9190612057565b610222565b005b6100ce60048036038101906100c99190612057565b61069b565b005b6100ea60048036038101906100e5919061224d565b610860565b005b3480156100f857600080fd5b50610113600480360381019061010e9190612057565b610b83565b6040516101209190612311565b60405180910390f35b34801561013557600080fd5b50610150600480360381019061014b919061232c565b611077565b60405161015d9190612372565b60405180910390f35b34801561017257600080fd5b5061017b6110fe565b604051610188919061239c565b60405180910390f35b34801561019d57600080fd5b506101b860048036038101906101b391906123e3565b611104565b6040516101c59190612717565b60405180910390f35b3480156101da57600080fd5b506101e3611696565b005b3480156101f157600080fd5b5061020c60048036038101906102079190612057565b6116fc565b6040516102199190612852565b60405180910390f35b600060016000838152602001908152602001600020604051806101a00160405290816000820154815260200160018201805461025d906128a3565b80601f0160208091040260200160405190810160405280929190818152602001828054610289906128a3565b80156102d65780601f106102ab576101008083540402835291602001916102d6565b820191906000526020600020905b8154815290600101906020018083116102b957829003601f168201915b50505050508152602001600282015481526020016003820160009054906101000a900473ffffffffffffffffffffffffffffffffffffffff1673ffffffffffffffffffffffffffffffffffffffff1673ffffffffffffffffffffffffffffffffffffffff1681526020016004820160009054906101000a900473ffffffffffffffffffffffffffffffffffffffff1673ffffffffffffffffffffffffffffffffffffffff1673ffffffffffffffffffffffffffffffffffffffff16815260200160058201548152602001600682015481526020016007820160009054906101000a900473ffffffffffffffffffffffffffffffffffffffff1673ffffffffffffffffffffffffffffffffffffffff1673ffffffffffffffffffffffffffffffffffffffff1681526020016008820154815260200160098201548152602001600a820160009054906101000a900460ff16151515158152602001600b8201548152602001600c820160009054906101000a900460ff16600181111561045d5761045c6124f1565b5b600181111561046f5761046e6124f1565b5b81525050905060006104848260e00151611077565b9050600061049a8360a001518460c0015161195a565b905060008060018111156104b1576104b06124f1565b5b84610180015160018111156104c9576104c86124f1565b5b1480156104da575083610160015183115b156104e457600190505b6001808111156104f7576104f66124f1565b5b846101800151600181111561050f5761050e6124f1565b5b148015610520575083610160015183105b1561052a57600190505b80156105cd576001600086815260200190815260200160002060030160009054906101000a900473ffffffffffffffffffffffffffffffffffffffff1673ffffffffffffffffffffffffffffffffffffffff166108fc839081150290604051600060405180830381858888f193505050501580156105ac573d6000803e3d6000fd5b50816001600087815260200190815260200160002060050181905550610666565b6001600086815260200190815260200160002060040160009054906101000a900473ffffffffffffffffffffffffffffffffffffffff1673ffffffffffffffffffffffffffffffffffffffff166108fc839081150290604051600060405180830381858888f19350505050158015610649573d6000803e3d6000fd5b508160016000878152602001908152602001600020600601819055505b6001806000878152602001908152602001600020600a0160006101000a81548160ff0219169083151502179055505050505050565b60006106a682611970565b9050600073ffffffffffffffffffffffffffffffffffffffff16816080015173ffffffffffffffffffffffffffffffffffffffff161461071b576040517fef7d78ef00000000000000000000000000000000000000000000000000000000815260040161071290612932565b60405180910390fd5b60006107406107328360a001518460400151611c1c565b670de0b6b3a7640000611c32565b905080341015610785576040517f4817ec2e00000000000000000000000000000000000000000000000000000000815260040161077c9061299e565b60405180910390fd5b336001600085815260200190815260200160002060040160006101000a81548173ffffffffffffffffffffffffffffffffffffffff021916908373ffffffffffffffffffffffffffffffffffffffff160217905550346001600085815260200190815260200160002060060181905550600360003373ffffffffffffffffffffffffffffffffffffffff1673ffffffffffffffffffffffffffffffffffffffff168152602001908152602001600020839080600181540180825580915050600190039060005260206000200160009091909190915055505050565b60003410156108a4576040517f4817ec2e00000000000000000000000000000000000000000000000000000000815260040161089b90612a0a565b60405180910390fd5b6108ad84611c48565b5060006108b8611c9b565b90506000604051806101a001604052808381526020018981526020018881526020013373ffffffffffffffffffffffffffffffffffffffff168152602001600073ffffffffffffffffffffffffffffffffffffffff168152602001348152602001600081526020018673ffffffffffffffffffffffffffffffffffffffff16815260200142815260200187815260200160001515815260200185815260200184600181111561096a576109696124f1565b5b815250905080600160008481526020019081526020016000206000820151816000015560208201518160010190805190602001906109a9929190611e6c565b506040820151816002015560608201518160030160006101000a81548173ffffffffffffffffffffffffffffffffffffffff021916908373ffffffffffffffffffffffffffffffffffffffff16021790555060808201518160040160006101000a81548173ffffffffffffffffffffffffffffffffffffffff021916908373ffffffffffffffffffffffffffffffffffffffff16021790555060a0820151816005015560c0820151816006015560e08201518160070160006101000a81548173ffffffffffffffffffffffffffffffffffffffff021916908373ffffffffffffffffffffffffffffffffffffffff1602179055506101008201518160080155610120820151816009015561014082015181600a0160006101000a81548160ff02191690831515021790555061016082015181600b015561018082015181600c0160006101000a81548160ff02191690836001811115610b0b57610b0a6124f1565b5b0217905550905050600260003373ffffffffffffffffffffffffffffffffffffffff1673ffffffffffffffffffffffffffffffffffffffff1681526020019081526020016000208290806001815401808255809150506001900390600052602060002001600090919091909150555050505050505050565b60008060016000848152602001908152602001600020604051806101a001604052908160008201548152602001600182018054610bbf906128a3565b80601f0160208091040260200160405190810160405280929190818152602001828054610beb906128a3565b8015610c385780601f10610c0d57610100808354040283529160200191610c38565b820191906000526020600020905b815481529060010190602001808311610c1b57829003601f168201915b50505050508152602001600282015481526020016003820160009054906101000a900473ffffffffffffffffffffffffffffffffffffffff1673ffffffffffffffffffffffffffffffffffffffff1673ffffffffffffffffffffffffffffffffffffffff1681526020016004820160009054906101000a900473ffffffffffffffffffffffffffffffffffffffff1673ffffffffffffffffffffffffffffffffffffffff1673ffffffffffffffffffffffffffffffffffffffff16815260200160058201548152602001600682015481526020016007820160009054906101000a900473ffffffffffffffffffffffffffffffffffffffff1673ffffffffffffffffffffffffffffffffffffffff1673ffffffffffffffffffffffffffffffffffffffff1681526020016008820154815260200160098201548152602001600a820160009054906101000a900460ff16151515158152602001600b8201548152602001600c820160009054906101000a900460ff166001811115610dbf57610dbe6124f1565b5b6001811115610dd157610dd06124f1565b5b8152505090503373ffffffffffffffffffffffffffffffffffffffff16816060015173ffffffffffffffffffffffffffffffffffffffff16141580610e475750600073ffffffffffffffffffffffffffffffffffffffff16816080015173ffffffffffffffffffffffffffffffffffffffff1614155b15610e87576040517fef7d78ef000000000000000000000000000000000000000000000000000000008152600401610e7e90612a76565b60405180910390fd5b60016000848152602001908152602001600020600080820160009055600182016000610eb39190611ef2565b60028201600090556003820160006101000a81549073ffffffffffffffffffffffffffffffffffffffff02191690556004820160006101000a81549073ffffffffffffffffffffffffffffffffffffffff0219169055600582016000905560068201600090556007820160006101000a81549073ffffffffffffffffffffffffffffffffffffffff021916905560088201600090556009820160009055600a820160006101000a81549060ff0219169055600b820160009055600c820160006101000a81549060ff02191690555050600080610fcd85600260003373ffffffffffffffffffffffffffffffffffffffff1673ffffffffffffffffffffffffffffffffffffffff168152602001908152602001600020611cb8565b91509150801561106b573373ffffffffffffffffffffffffffffffffffffffff166108fc8460a001519081150290604051600060405180830381858888f19350505050158015611021573d6000803e3d6000fd5b5061106a82600260003373ffffffffffffffffffffffffffffffffffffffff1673ffffffffffffffffffffffffffffffffffffffff168152602001908152602001600020611d1d565b5b60019350505050919050565b60008082905060008173ffffffffffffffffffffffffffffffffffffffff1663feaf968c6040518163ffffffff1660e01b815260040160a060405180830381865afa1580156110ca573d6000803e3d6000fd5b505050506040513d601f19601f820116820180604052508101906110ee9190612b19565b5050509150508092505050919050565b60005481565b60606000805467ffffffffffffffff8111156111235761112261209f565b5b60405190808252806020026020018201604052801561115c57816020015b611149611f32565b8152602001906001900390816111415790505b50905060005b60005481101561168c57831561140d5760016000828152602001908152602001600020600a0160009054906101000a900460ff166114085760016000828152602001908152602001600020604051806101a0016040529081600082015481526020016001820180546111d3906128a3565b80601f01602080910402602001604051908101604052809291908181526020018280546111ff906128a3565b801561124c5780601f106112215761010080835404028352916020019161124c565b820191906000526020600020905b81548152906001019060200180831161122f57829003601f168201915b50505050508152602001600282015481526020016003820160009054906101000a900473ffffffffffffffffffffffffffffffffffffffff1673ffffffffffffffffffffffffffffffffffffffff1673ffffffffffffffffffffffffffffffffffffffff1681526020016004820160009054906101000a900473ffffffffffffffffffffffffffffffffffffffff1673ffffffffffffffffffffffffffffffffffffffff1673ffffffffffffffffffffffffffffffffffffffff16815260200160058201548152602001600682015481526020016007820160009054906101000a900473ffffffffffffffffffffffffffffffffffffffff1673ffffffffffffffffffffffffffffffffffffffff1673ffffffffffffffffffffffffffffffffffffffff1681526020016008820154815260200160098201548152602001600a820160009054906101000a900460ff16151515158152602001600b8201548152602001600c820160009054906101000a900460ff1660018111156113d3576113d26124f1565b5b60018111156113e5576113e46124f1565b5b815250508282815181106113fc576113fb612b94565b5b60200260200101819052505b61167b565b60016000828152602001908152602001600020604051806101a001604052908160008201548152602001600182018054611446906128a3565b80601f0160208091040260200160405190810160405280929190818152602001828054611472906128a3565b80156114bf5780601f10611494576101008083540402835291602001916114bf565b820191906000526020600020905b8154815290600101906020018083116114a257829003601f168201915b50505050508152602001600282015481526020016003820160009054906101000a900473ffffffffffffffffffffffffffffffffffffffff1673ffffffffffffffffffffffffffffffffffffffff1673ffffffffffffffffffffffffffffffffffffffff1681526020016004820160009054906101000a900473ffffffffffffffffffffffffffffffffffffffff1673ffffffffffffffffffffffffffffffffffffffff1673ffffffffffffffffffffffffffffffffffffffff16815260200160058201548152602001600682015481526020016007820160009054906101000a900473ffffffffffffffffffffffffffffffffffffffff1673ffffffffffffffffffffffffffffffffffffffff1673ffffffffffffffffffffffffffffffffffffffff1681526020016008820154815260200160098201548152602001600a820160009054906101000a900460ff16151515158152602001600b8201548152602001600c820160009054906101000a900460ff166001811115611646576116456124f1565b5b6001811115611658576116576124f1565b5b8152505082828151811061166f5761166e612b94565b5b60200260200101819052505b8061168590612bf2565b9050611162565b5080915050919050565b60005b6000548110156116f95760016000828152602001908152602001600020600a0160009054906101000a900460ff161580156116d957506116d881611dd6565b5b156116e8576116e781610222565b5b806116f290612bf2565b9050611699565b50565b611704611f32565b60016000838152602001908152602001600020604051806101a00160405290816000820154815260200160018201805461173d906128a3565b80601f0160208091040260200160405190810160405280929190818152602001828054611769906128a3565b80156117b65780601f1061178b576101008083540402835291602001916117b6565b820191906000526020600020905b81548152906001019060200180831161179957829003601f168201915b50505050508152602001600282015481526020016003820160009054906101000a900473ffffffffffffffffffffffffffffffffffffffff1673ffffffffffffffffffffffffffffffffffffffff1673ffffffffffffffffffffffffffffffffffffffff1681526020016004820160009054906101000a900473ffffffffffffffffffffffffffffffffffffffff1673ffffffffffffffffffffffffffffffffffffffff1673ffffffffffffffffffffffffffffffffffffffff16815260200160058201548152602001600682015481526020016007820160009054906101000a900473ffffffffffffffffffffffffffffffffffffffff1673ffffffffffffffffffffffffffffffffffffffff1673ffffffffffffffffffffffffffffffffffffffff1681526020016008820154815260200160098201548152602001600a820160009054906101000a900460ff16151515158152602001600b8201548152602001600c820160009054906101000a900460ff16600181111561193d5761193c6124f1565b5b600181111561194f5761194e6124f1565b5b815250509050919050565b600081836119689190612c3b565b905092915050565b611978611f32565b600060016000848152602001908152602001600020604051806101a0016040529081600082015481526020016001820180546119b3906128a3565b80601f01602080910402602001604051908101604052809291908181526020018280546119df906128a3565b8015611a2c5780601f10611a0157610100808354040283529160200191611a2c565b820191906000526020600020905b815481529060010190602001808311611a0f57829003601f168201915b50505050508152602001600282015481526020016003820160009054906101000a900473ffffffffffffffffffffffffffffffffffffffff1673ffffffffffffffffffffffffffffffffffffffff1673ffffffffffffffffffffffffffffffffffffffff1681526020016004820160009054906101000a900473ffffffffffffffffffffffffffffffffffffffff1673ffffffffffffffffffffffffffffffffffffffff1673ffffffffffffffffffffffffffffffffffffffff16815260200160058201548152602001600682015481526020016007820160009054906101000a900473ffffffffffffffffffffffffffffffffffffffff1673ffffffffffffffffffffffffffffffffffffffff1673ffffffffffffffffffffffffffffffffffffffff1681526020016008820154815260200160098201548152602001600a820160009054906101000a900460ff16151515158152602001600b8201548152602001600c820160009054906101000a900460ff166001811115611bb357611bb26124f1565b5b6001811115611bc557611bc46124f1565b5b81525050905060008160a001511415611c13576040517f607be5dc000000000000000000000000000000000000000000000000000000008152600401611c0a90612cdd565b60405180910390fd5b80915050919050565b60008183611c2a9190612cfd565b905092915050565b60008183611c409190612d86565b905092915050565b6000808242101590508015611c92576040517fed731ed7000000000000000000000000000000000000000000000000000000008152600401611c8990612e03565b60405180910390fd5b80915050919050565b6000806000815480929190611caf90612bf2565b91905055905090565b60008060005b8380549050811015611d0d5784848281548110611cde57611cdd612b94565b5b90600052602060002001541415611cfc578060019250925050611d16565b80611d0690612bf2565b9050611cbe565b50600080915091505b9250929050565b80805490508210611d2d57611dd2565b60008290505b60018280549050611d449190612e23565b811015611da95781600182611d599190612c3b565b81548110611d6a57611d69612b94565b5b9060005260206000200154828281548110611d8857611d87612b94565b5b90600052602060002001819055508080611da190612bf2565b915050611d33565b5080805480611dbb57611dba612e57565b5b600190038181906000526020600020016000905590555b5050565b600060016000838152602001908152602001600020600a0160009054906101000a900460ff16158015611e2057506000600160008481526020019081526020016000206005015414155b8015611e4357506000600160008481526020019081526020016000206006015414155b8015611e65575042600160008481526020019081526020016000206009015411155b9050919050565b828054611e78906128a3565b90600052602060002090601f016020900481019282611e9a5760008555611ee1565b82601f10611eb357805160ff1916838001178555611ee1565b82800160010185558215611ee1579182015b82811115611ee0578251825591602001919060010190611ec5565b5b509050611eee9190611ff0565b5090565b508054611efe906128a3565b6000825580601f10611f105750611f2f565b601f016020900490600052602060002090810190611f2e9190611ff0565b5b50565b604051806101a00160405280600081526020016060815260200160008152602001600073ffffffffffffffffffffffffffffffffffffffff168152602001600073ffffffffffffffffffffffffffffffffffffffff1681526020016000815260200160008152602001600073ffffffffffffffffffffffffffffffffffffffff16815260200160008152602001600081526020016000151581526020016000815260200160006001811115611fea57611fe96124f1565b5b81525090565b5b80821115612009576000816000905550600101611ff1565b5090565b6000604051905090565b600080fd5b600080fd5b6000819050919050565b61203481612021565b811461203f57600080fd5b50565b6000813590506120518161202b565b92915050565b60006020828403121561206d5761206c612017565b5b600061207b84828501612042565b91505092915050565b600080fd5b600080fd5b6000601f19601f8301169050919050565b7f4e487b7100000000000000000000000000000000000000000000000000000000600052604160045260246000fd5b6120d78261208e565b810181811067ffffffffffffffff821117156120f6576120f561209f565b5b80604052505050565b600061210961200d565b905061211582826120ce565b919050565b600067ffffffffffffffff8211156121355761213461209f565b5b61213e8261208e565b9050602081019050919050565b82818337600083830152505050565b600061216d6121688461211a565b6120ff565b90508281526020810184848401111561218957612188612089565b5b61219484828561214b565b509392505050565b600082601f8301126121b1576121b0612084565b5b81356121c184826020860161215a565b91505092915050565b600073ffffffffffffffffffffffffffffffffffffffff82169050919050565b60006121f5826121ca565b9050919050565b612205816121ea565b811461221057600080fd5b50565b600081359050612222816121fc565b92915050565b6002811061223557600080fd5b50565b60008135905061224781612228565b92915050565b60008060008060008060c0878903121561226a57612269612017565b5b600087013567ffffffffffffffff8111156122885761228761201c565b5b61229489828a0161219c565b96505060206122a589828a01612042565b95505060406122b689828a01612042565b94505060606122c789828a01612213565b93505060806122d889828a01612042565b92505060a06122e989828a01612238565b9150509295509295509295565b60008115159050919050565b61230b816122f6565b82525050565b60006020820190506123266000830184612302565b92915050565b60006020828403121561234257612341612017565b5b600061235084828501612213565b91505092915050565b6000819050919050565b61236c81612359565b82525050565b60006020820190506123876000830184612363565b92915050565b61239681612021565b82525050565b60006020820190506123b1600083018461238d565b92915050565b6123c0816122f6565b81146123cb57600080fd5b50565b6000813590506123dd816123b7565b92915050565b6000602082840312156123f9576123f8612017565b5b6000612407848285016123ce565b91505092915050565b600081519050919050565b600082825260208201905092915050565b6000819050602082019050919050565b61244581612021565b82525050565b600081519050919050565b600082825260208201905092915050565b60005b8381101561248557808201518184015260208101905061246a565b83811115612494576000848401525b50505050565b60006124a58261244b565b6124af8185612456565b93506124bf818560208601612467565b6124c88161208e565b840191505092915050565b6124dc816121ea565b82525050565b6124eb816122f6565b82525050565b7f4e487b7100000000000000000000000000000000000000000000000000000000600052602160045260246000fd5b60028110612531576125306124f1565b5b50565b600081905061254282612520565b919050565b600061255282612534565b9050919050565b61256281612547565b82525050565b60006101a083016000830151612581600086018261243c565b5060208301518482036020860152612599828261249a565b91505060408301516125ae604086018261243c565b5060608301516125c160608601826124d3565b5060808301516125d460808601826124d3565b5060a08301516125e760a086018261243c565b5060c08301516125fa60c086018261243c565b5060e083015161260d60e08601826124d3565b5061010083015161262261010086018261243c565b5061012083015161263761012086018261243c565b5061014083015161264c6101408601826124e2565b5061016083015161266161016086018261243c565b50610180830151612676610180860182612559565b508091505092915050565b600061268d8383612568565b905092915050565b6000602082019050919050565b60006126ad82612410565b6126b7818561241b565b9350836020820285016126c98561242c565b8060005b8581101561270557848403895281516126e68582612681565b94506126f183612695565b925060208a019950506001810190506126cd565b50829750879550505050505092915050565b6000602082019050818103600083015261273181846126a2565b905092915050565b60006101a083016000830151612752600086018261243c565b506020830151848203602086015261276a828261249a565b915050604083015161277f604086018261243c565b50606083015161279260608601826124d3565b5060808301516127a560808601826124d3565b5060a08301516127b860a086018261243c565b5060c08301516127cb60c086018261243c565b5060e08301516127de60e08601826124d3565b506101008301516127f361010086018261243c565b5061012083015161280861012086018261243c565b5061014083015161281d6101408601826124e2565b5061016083015161283261016086018261243c565b50610180830151612847610180860182612559565b508091505092915050565b6000602082019050818103600083015261286c8184612739565b905092915050565b7f4e487b7100000000000000000000000000000000000000000000000000000000600052602260045260246000fd5b600060028204905060018216806128bb57607f821691505b602082108114156128cf576128ce612874565b5b50919050565b600082825260208201905092915050565b7f4163657074206572726f72000000000000000000000000000000000000000000600082015250565b600061291c600b836128d5565b9150612927826128e6565b602082019050919050565b6000602082019050818103600083015261294b8161290f565b9050919050565b7f496e73756666696369656e742066756e64730000000000000000000000000000600082015250565b60006129886012836128d5565b915061299382612952565b602082019050919050565b600060208201905081810360008301526129b78161297b565b9050919050565b7f596f752073686f756c642061747461636820736f6d65204465706f7369740000600082015250565b60006129f4601e836128d5565b91506129ff826129be565b602082019050919050565b60006020820190508181036000830152612a23816129e7565b9050919050565b7f596f752063616e27742072656d6f7665204368616c6c656e6765000000000000600082015250565b6000612a60601a836128d5565b9150612a6b82612a2a565b602082019050919050565b60006020820190508181036000830152612a8f81612a53565b9050919050565b600069ffffffffffffffffffff82169050919050565b612ab581612a96565b8114612ac057600080fd5b50565b600081519050612ad281612aac565b92915050565b612ae181612359565b8114612aec57600080fd5b50565b600081519050612afe81612ad8565b92915050565b600081519050612b138161202b565b92915050565b600080600080600060a08688031215612b3557612b34612017565b5b6000612b4388828901612ac3565b9550506020612b5488828901612aef565b9450506040612b6588828901612b04565b9350506060612b7688828901612b04565b9250506080612b8788828901612ac3565b9150509295509295909350565b7f4e487b7100000000000000000000000000000000000000000000000000000000600052603260045260246000fd5b7f4e487b7100000000000000000000000000000000000000000000000000000000600052601160045260246000fd5b6000612bfd82612021565b91507fffffffffffffffffffffffffffffffffffffffffffffffffffffffffffffffff821415612c3057612c2f612bc3565b5b600182019050919050565b6000612c4682612021565b9150612c5183612021565b9250827fffffffffffffffffffffffffffffffffffffffffffffffffffffffffffffffff03821115612c8657612c85612bc3565b5b828201905092915050565b7f4974656d206e6f7420666f756e64000000000000000000000000000000000000600082015250565b6000612cc7600e836128d5565b9150612cd282612c91565b602082019050919050565b60006020820190508181036000830152612cf681612cba565b9050919050565b6000612d0882612021565b9150612d1383612021565b9250817fffffffffffffffffffffffffffffffffffffffffffffffffffffffffffffffff0483118215151615612d4c57612d4b612bc3565b5b828202905092915050565b7f4e487b7100000000000000000000000000000000000000000000000000000000600052601260045260246000fd5b6000612d9182612021565b9150612d9c83612021565b925082612dac57612dab612d57565b5b828204905092915050565b7f446561646c696e65207761732065787069726564000000000000000000000000600082015250565b6000612ded6014836128d5565b9150612df882612db7565b602082019050919050565b60006020820190508181036000830152612e1c81612de0565b9050919050565b6000612e2e82612021565b9150612e3983612021565b925082821015612e4c57612e4b612bc3565b5b828203905092915050565b7f4e487b7100000000000000000000000000000000000000000000000000000000600052603160045260246000fdfea26469706673582212207e86e839ea1fe4d6dcd60b0b0d977d300bf223e9048c357ac6059d113f95005e64736f6c634300080c0033",
  "linkReferences": {},
  "deployedLinkReferences": {}
}