{
  "_format": "hh-sol-artifact-1",
  "contractName": "PriceChallenge",
  "sourceName": "smart_contract/contracts/PriceChallenge.sol",
  "abi": [
    {
      "inputs": [
        {
          "internalType": "uint256",
          "name": "_start_time",
          "type": "uint256"
        }
      ],
      "stateMutability": "nonpayable",
      "type": "constructor"
    },
    {
      "inputs": [],
      "name": "CalldataMustHaveValidPayload",
      "type": "error"
    },
    {
      "inputs": [],
      "name": "CalldataOverOrUnderFlow",
      "type": "error"
    },
    {
      "inputs": [],
      "name": "CanNotPickMedianOfEmptyArray",
      "type": "error"
    },
    {
      "inputs": [
        {
          "internalType": "string",
          "name": "message",
          "type": "string"
        }
      ],
      "name": "CantChange",
      "type": "error"
    },
    {
      "inputs": [
        {
          "internalType": "string",
          "name": "message",
          "type": "string"
        }
      ],
      "name": "DateExpired",
      "type": "error"
    },
    {
      "inputs": [],
      "name": "EachSignerMustProvideTheSameValue",
      "type": "error"
    },
    {
      "inputs": [],
      "name": "EmptyCalldataPointersArr",
      "type": "error"
    },
    {
      "inputs": [],
      "name": "IncorrectUnsignedMetadataSize",
      "type": "error"
    },
    {
      "inputs": [
        {
          "internalType": "string",
          "name": "message",
          "type": "string"
        }
      ],
      "name": "InsufficientAmount",
      "type": "error"
    },
    {
      "inputs": [
        {
          "internalType": "uint256",
          "name": "receivedSignersCount",
          "type": "uint256"
        },
        {
          "internalType": "uint256",
          "name": "requiredSignersCount",
          "type": "uint256"
        }
      ],
      "name": "InsufficientNumberOfUniqueSigners",
      "type": "error"
    },
    {
      "inputs": [],
      "name": "InvalidCalldataPointer",
      "type": "error"
    },
    {
      "inputs": [
        {
          "internalType": "string",
          "name": "message",
          "type": "string"
        }
      ],
      "name": "InvalidParams",
      "type": "error"
    },
    {
      "inputs": [
        {
          "internalType": "string",
          "name": "message",
          "type": "string"
        }
      ],
      "name": "NotFound",
      "type": "error"
    },
    {
      "inputs": [
        {
          "internalType": "address",
          "name": "receivedSigner",
          "type": "address"
        }
      ],
      "name": "SignerNotAuthorised",
      "type": "error"
    },
    {
      "inputs": [
        {
          "internalType": "uint256",
          "name": "receivedTimestampSeconds",
          "type": "uint256"
        },
        {
          "internalType": "uint256",
          "name": "blockTimestamp",
          "type": "uint256"
        }
      ],
      "name": "TimestampFromTooLongFuture",
      "type": "error"
    },
    {
      "inputs": [
        {
          "internalType": "uint256",
          "name": "receivedTimestampSeconds",
          "type": "uint256"
        },
        {
          "internalType": "uint256",
          "name": "blockTimestamp",
          "type": "uint256"
        }
      ],
      "name": "TimestampIsTooOld",
      "type": "error"
    },
    {
      "anonymous": false,
      "inputs": [
        {
          "indexed": false,
          "internalType": "uint256",
          "name": "time",
          "type": "uint256"
        },
        {
          "indexed": false,
          "internalType": "bytes",
          "name": "payload",
          "type": "bytes"
        }
      ],
      "name": "UpdatePayload",
      "type": "event"
    },
    {
      "inputs": [
        {
          "internalType": "uint256",
          "name": "_id",
          "type": "uint256"
        }
      ],
      "name": "accept",
      "outputs": [],
      "stateMutability": "payable",
      "type": "function"
    },
    {
      "inputs": [
        {
          "internalType": "uint256[]",
          "name": "values",
          "type": "uint256[]"
        }
      ],
      "name": "aggregateValues",
      "outputs": [
        {
          "internalType": "uint256",
          "name": "",
          "type": "uint256"
        }
      ],
      "stateMutability": "view",
      "type": "function"
    },
    {
      "inputs": [
        {
          "internalType": "bool",
          "name": "active",
          "type": "bool"
        }
      ],
      "name": "allChallenges",
      "outputs": [
        {
          "components": [
            {
              "internalType": "uint256",
              "name": "id",
              "type": "uint256"
            },
            {
              "internalType": "string",
              "name": "name",
              "type": "string"
            },
            {
              "internalType": "uint256",
              "name": "cof",
              "type": "uint256"
            },
            {
              "internalType": "address",
              "name": "maker",
              "type": "address"
            },
            {
              "internalType": "address",
              "name": "taker",
              "type": "address"
            },
            {
              "internalType": "uint256",
              "name": "paid_maker",
              "type": "uint256"
            },
            {
              "internalType": "uint256",
              "name": "paid_taker",
              "type": "uint256"
            },
            {
              "internalType": "bytes32",
              "name": "token_symbol",
              "type": "bytes32"
            },
            {
              "internalType": "uint256",
              "name": "created_date",
              "type": "uint256"
            },
            {
              "internalType": "uint256",
              "name": "deadline_date",
              "type": "uint256"
            },
            {
              "internalType": "bool",
              "name": "finished",
              "type": "bool"
            },
            {
              "internalType": "uint256",
              "name": "prediction_price",
              "type": "uint256"
            },
            {
              "internalType": "enum PriceChallenge.PredictionType",
              "name": "prediction_type",
              "type": "uint8"
            }
          ],
          "internalType": "struct PriceChallenge.ChallengeStruct[]",
          "name": "",
          "type": "tuple[]"
        }
      ],
      "stateMutability": "view",
      "type": "function"
    },
    {
      "inputs": [
        {
          "internalType": "string",
          "name": "_name",
          "type": "string"
        },
        {
          "internalType": "uint256",
          "name": "_cof",
          "type": "uint256"
        },
        {
          "internalType": "uint256",
          "name": "_deadline_date",
          "type": "uint256"
        },
        {
          "internalType": "uint256",
          "name": "_price_prediction",
          "type": "uint256"
        },
        {
          "internalType": "enum PriceChallenge.PredictionType",
          "name": "_prediction_type",
          "type": "uint8"
        },
        {
          "internalType": "bytes32",
          "name": "_token_symbol",
          "type": "bytes32"
        }
      ],
      "name": "create",
      "outputs": [],
      "stateMutability": "payable",
      "type": "function"
    },
    {
      "inputs": [
        {
          "internalType": "bytes",
          "name": "redstonePayload",
          "type": "bytes"
        }
      ],
      "name": "cronCall",
      "outputs": [],
      "stateMutability": "nonpayable",
      "type": "function"
    },
    {
      "inputs": [
        {
          "internalType": "address",
          "name": "signerAddress",
          "type": "address"
        }
      ],
      "name": "getAuthorisedSignerIndex",
      "outputs": [
        {
          "internalType": "uint8",
          "name": "",
          "type": "uint8"
        }
      ],
      "stateMutability": "view",
      "type": "function"
    },
    {
      "inputs": [
        {
          "internalType": "uint256",
          "name": "_id",
          "type": "uint256"
        }
      ],
      "name": "getById",
      "outputs": [
        {
          "components": [
            {
              "internalType": "uint256",
              "name": "id",
              "type": "uint256"
            },
            {
              "internalType": "string",
              "name": "name",
              "type": "string"
            },
            {
              "internalType": "uint256",
              "name": "cof",
              "type": "uint256"
            },
            {
              "internalType": "address",
              "name": "maker",
              "type": "address"
            },
            {
              "internalType": "address",
              "name": "taker",
              "type": "address"
            },
            {
              "internalType": "uint256",
              "name": "paid_maker",
              "type": "uint256"
            },
            {
              "internalType": "uint256",
              "name": "paid_taker",
              "type": "uint256"
            },
            {
              "internalType": "bytes32",
              "name": "token_symbol",
              "type": "bytes32"
            },
            {
              "internalType": "uint256",
              "name": "created_date",
              "type": "uint256"
            },
            {
              "internalType": "uint256",
              "name": "deadline_date",
              "type": "uint256"
            },
            {
              "internalType": "bool",
              "name": "finished",
              "type": "bool"
            },
            {
              "internalType": "uint256",
              "name": "prediction_price",
              "type": "uint256"
            },
            {
              "internalType": "enum PriceChallenge.PredictionType",
              "name": "prediction_type",
              "type": "uint8"
            }
          ],
          "internalType": "struct PriceChallenge.ChallengeStruct",
          "name": "",
          "type": "tuple"
        }
      ],
      "stateMutability": "view",
      "type": "function"
    },
    {
      "inputs": [
        {
          "internalType": "bytes",
          "name": "redstonePayload",
          "type": "bytes"
        },
        {
          "internalType": "bytes32",
          "name": "assetDataFeedId",
          "type": "bytes32"
        }
      ],
      "name": "getLatestPrice",
      "outputs": [
        {
          "internalType": "uint256",
          "name": "",
          "type": "uint256"
        }
      ],
      "stateMutability": "view",
      "type": "function"
    },
    {
      "inputs": [],
      "name": "getUniqueSignersThreshold",
      "outputs": [
        {
          "internalType": "uint8",
          "name": "",
          "type": "uint8"
        }
      ],
      "stateMutability": "view",
      "type": "function"
    },
    {
      "inputs": [
        {
          "internalType": "address",
          "name": "u_address",
          "type": "address"
        }
      ],
      "name": "getUserChallenges",
      "outputs": [
        {
          "components": [
            {
              "internalType": "uint256",
              "name": "id",
              "type": "uint256"
            },
            {
              "internalType": "string",
              "name": "name",
              "type": "string"
            },
            {
              "internalType": "uint256",
              "name": "cof",
              "type": "uint256"
            },
            {
              "internalType": "address",
              "name": "maker",
              "type": "address"
            },
            {
              "internalType": "address",
              "name": "taker",
              "type": "address"
            },
            {
              "internalType": "uint256",
              "name": "paid_maker",
              "type": "uint256"
            },
            {
              "internalType": "uint256",
              "name": "paid_taker",
              "type": "uint256"
            },
            {
              "internalType": "bytes32",
              "name": "token_symbol",
              "type": "bytes32"
            },
            {
              "internalType": "uint256",
              "name": "created_date",
              "type": "uint256"
            },
            {
              "internalType": "uint256",
              "name": "deadline_date",
              "type": "uint256"
            },
            {
              "internalType": "bool",
              "name": "finished",
              "type": "bool"
            },
            {
              "internalType": "uint256",
              "name": "prediction_price",
              "type": "uint256"
            },
            {
              "internalType": "enum PriceChallenge.PredictionType",
              "name": "prediction_type",
              "type": "uint8"
            }
          ],
          "internalType": "struct PriceChallenge.ChallengeStruct[]",
          "name": "",
          "type": "tuple[]"
        }
      ],
      "stateMutability": "view",
      "type": "function"
    },
    {
      "inputs": [],
      "name": "id",
      "outputs": [
        {
          "internalType": "uint256",
          "name": "",
          "type": "uint256"
        }
      ],
      "stateMutability": "view",
      "type": "function"
    },
    {
      "inputs": [],
      "name": "payloadData",
      "outputs": [
        {
          "internalType": "bytes",
          "name": "",
          "type": "bytes"
        }
      ],
      "stateMutability": "view",
      "type": "function"
    },
    {
      "inputs": [
        {
          "internalType": "bytes32",
          "name": "assetId",
          "type": "bytes32"
        }
      ],
      "name": "proxyRequestToBaseContract",
      "outputs": [
        {
          "internalType": "uint256",
          "name": "",
          "type": "uint256"
        }
      ],
      "stateMutability": "view",
      "type": "function"
    },
    {
      "inputs": [
        {
          "internalType": "uint256",
          "name": "_id",
          "type": "uint256"
        }
      ],
      "name": "remove",
      "outputs": [
        {
          "internalType": "bool",
          "name": "",
          "type": "bool"
        }
      ],
      "stateMutability": "nonpayable",
      "type": "function"
    },
    {
      "inputs": [
        {
          "internalType": "uint256",
          "name": "_i",
          "type": "uint256"
        }
      ],
      "name": "setWinner",
      "outputs": [],
      "stateMutability": "nonpayable",
      "type": "function"
    },
    {
      "inputs": [],
      "name": "updateTime",
      "outputs": [
        {
          "internalType": "uint256",
          "name": "",
          "type": "uint256"
        }
      ],
      "stateMutability": "view",
      "type": "function"
    },
    {
      "inputs": [
        {
          "internalType": "uint256",
          "name": "receivedTimestampMilliseconds",
          "type": "uint256"
        }
      ],
      "name": "validateTimestamp",
      "outputs": [],
      "stateMutability": "view",
      "type": "function"
    }
  ],
  "bytecode": "0x60806040523480156200001157600080fd5b50604051620045fc380380620045fc833981810160405281019062000037919062000085565b8060028190555050620000b7565b600080fd5b6000819050919050565b6200005f816200004a565b81146200006b57600080fd5b50565b6000815190506200007f8162000054565b92915050565b6000602082840312156200009e576200009d62000045565b5b6000620000ae848285016200006e565b91505092915050565b61453580620000c76000396000f3fe6080604052600436106100fe5760003560e01c8063a3b5db3f11610095578063dc55509011610064578063dc55509014610363578063dc984dd41461038e578063f4f4d237146103b9578063f50b2efe146103f6578063f90c49241461041f576100fe565b8063a3b5db3f146102a2578063af640d0f146102be578063b24ebfcc146102e9578063c758b77a14610326576100fe565b806319b05f49116100d157806319b05f49146101cf5780633ce142f5146101eb5780634cc82215146102285780637ce0533e14610265576100fe565b806302c323d61461010357806306533024146101405780630df716021461016957806311da8e5414610192575b600080fd5b34801561010f57600080fd5b5061012a600480360381019061012591906132ca565b61044a565b6040516101379190613310565b60405180910390f35b34801561014c57600080fd5b5061016760048036038101906101629190613471565b61045c565b005b34801561017557600080fd5b50610190600480360381019061018b91906134e6565b6104f0565b005b34801561019e57600080fd5b506101b960048036038101906101b49190613571565b6109a9565b6040516101c691906138c0565b60405180910390f35b6101e960048036038101906101e491906134e6565b610cf3565b005b3480156101f757600080fd5b50610212600480360381019061020d9190613571565b610eb8565b60405161021f91906138fe565b60405180910390f35b34801561023457600080fd5b5061024f600480360381019061024a91906134e6565b610f4c565b60405161025c9190613928565b60405180910390f35b34801561027157600080fd5b5061028c60048036038101906102879190613943565b6113d5565b6040516102999190613310565b60405180910390f35b6102bc60048036038101906102b79190613a65565b61151f565b005b3480156102ca57600080fd5b506102d36117e5565b6040516102e09190613310565b60405180910390f35b3480156102f557600080fd5b50610310600480360381019061030b9190613bd6565b6117eb565b60405161031d9190613310565b60405180910390f35b34801561033257600080fd5b5061034d60048036038101906103489190613c4b565b6117fd565b60405161035a91906138c0565b60405180910390f35b34801561036f57600080fd5b50610378611cf7565b6040516103859190613310565b60405180910390f35b34801561039a57600080fd5b506103a3611cfd565b6040516103b09190613ccd565b60405180910390f35b3480156103c557600080fd5b506103e060048036038101906103db91906134e6565b611d8b565b6040516103ed9190613e08565b60405180910390f35b34801561040257600080fd5b5061041d600480360381019061041891906134e6565b611f9d565b005b34801561042b57600080fd5b50610434611fa9565b60405161044191906138fe565b60405180910390f35b600061045582611fb2565b9050919050565b806001908051906020019061047292919061306c565b50426002819055507f9e534d77e50344538151d7045dc713181f1a216e48611e89921d7f6dbf0244f660025460016040516104ae929190613f1f565b60405180910390a160005b6000548110156104ec576104cc8161204e565b156104db576104da816104f0565b5b806104e590613f7e565b90506104b9565b5050565b600060036000838152602001908152602001600020604051806101a00160405290816000820154815260200160018201805461052b90613e59565b80601f016020809104026020016040519081016040528092919081815260200182805461055790613e59565b80156105a45780601f10610579576101008083540402835291602001916105a4565b820191906000526020600020905b81548152906001019060200180831161058757829003601f168201915b50505050508152602001600282015481526020016003820160009054906101000a900473ffffffffffffffffffffffffffffffffffffffff1673ffffffffffffffffffffffffffffffffffffffff1673ffffffffffffffffffffffffffffffffffffffff1681526020016004820160009054906101000a900473ffffffffffffffffffffffffffffffffffffffff1673ffffffffffffffffffffffffffffffffffffffff1673ffffffffffffffffffffffffffffffffffffffff1681526020016005820154815260200160068201548152602001600782015481526020016008820154815260200160098201548152602001600a820160009054906101000a900460ff16151515158152602001600b8201548152602001600c820160009054906101000a900460ff1660018111156106df576106de61369a565b5b60018111156106f1576106f061369a565b5b81525050905060006107916001805461070990613e59565b80601f016020809104026020016040519081016040528092919081815260200182805461073590613e59565b80156107825780601f1061075757610100808354040283529160200191610782565b820191906000526020600020905b81548152906001019060200180831161076557829003601f168201915b50505050508360e001516113d5565b905060006107a78360a001518460c001516120e4565b905060008060018111156107be576107bd61369a565b5b84610180015160018111156107d6576107d561369a565b5b1480156107e7575083610160015183115b156107f157600190505b6001808111156108045761080361369a565b5b846101800151600181111561081c5761081b61369a565b5b14801561082d575083610160015183105b1561083757600190505b80156108da576003600086815260200190815260200160002060030160009054906101000a900473ffffffffffffffffffffffffffffffffffffffff1673ffffffffffffffffffffffffffffffffffffffff166108fc839081150290604051600060405180830381858888f193505050501580156108b9573d6000803e3d6000fd5b50816003600087815260200190815260200160002060050181905550610973565b6003600086815260200190815260200160002060040160009054906101000a900473ffffffffffffffffffffffffffffffffffffffff1673ffffffffffffffffffffffffffffffffffffffff166108fc839081150290604051600060405180830381858888f19350505050158015610956573d6000803e3d6000fd5b508160036000878152602001908152602001600020600601819055505b600160036000878152602001908152602001600020600a0160006101000a81548160ff0219169083151502179055505050505050565b60606000600460008473ffffffffffffffffffffffffffffffffffffffff1673ffffffffffffffffffffffffffffffffffffffff16815260200190815260200160002080549050905060008167ffffffffffffffff811115610a0e57610a0d613346565b5b604051908082528060200260200182016040528015610a4757816020015b610a346130f2565b815260200190600190039081610a2c5790505b50905060005b82811015610ce8576000600460008773ffffffffffffffffffffffffffffffffffffffff1673ffffffffffffffffffffffffffffffffffffffff1681526020019081526020016000208281548110610aa857610aa7613fc6565b5b9060005260206000200154905060036000828152602001908152602001600020604051806101a001604052908160008201548152602001600182018054610aee90613e59565b80601f0160208091040260200160405190810160405280929190818152602001828054610b1a90613e59565b8015610b675780601f10610b3c57610100808354040283529160200191610b67565b820191906000526020600020905b815481529060010190602001808311610b4a57829003601f168201915b50505050508152602001600282015481526020016003820160009054906101000a900473ffffffffffffffffffffffffffffffffffffffff1673ffffffffffffffffffffffffffffffffffffffff1673ffffffffffffffffffffffffffffffffffffffff1681526020016004820160009054906101000a900473ffffffffffffffffffffffffffffffffffffffff1673ffffffffffffffffffffffffffffffffffffffff1673ffffffffffffffffffffffffffffffffffffffff1681526020016005820154815260200160068201548152602001600782015481526020016008820154815260200160098201548152602001600a820160009054906101000a900460ff16151515158152602001600b8201548152602001600c820160009054906101000a900460ff166001811115610ca257610ca161369a565b5b6001811115610cb457610cb361369a565b5b81525050838381518110610ccb57610cca613fc6565b5b60200260200101819052505080610ce190613f7e565b9050610a4d565b508092505050919050565b6000610cfe826120fa565b9050600073ffffffffffffffffffffffffffffffffffffffff16816080015173ffffffffffffffffffffffffffffffffffffffff1614610d73576040517fef7d78ef000000000000000000000000000000000000000000000000000000008152600401610d6a90614052565b60405180910390fd5b6000610d98610d8a8360a001518460400151612359565b670de0b6b3a764000061236f565b905080341015610ddd576040517f4817ec2e000000000000000000000000000000000000000000000000000000008152600401610dd4906140be565b60405180910390fd5b336003600085815260200190815260200160002060040160006101000a81548173ffffffffffffffffffffffffffffffffffffffff021916908373ffffffffffffffffffffffffffffffffffffffff160217905550346003600085815260200190815260200160002060060181905550600460003373ffffffffffffffffffffffffffffffffffffffff1673ffffffffffffffffffffffffffffffffffffffff168152602001908152602001600020839080600181540180825580915050600190039060005260206000200160009091909190915055505050565b6000730c39486f770b26f5527bbbf942726537986cd7eb73ffffffffffffffffffffffffffffffffffffffff168273ffffffffffffffffffffffffffffffffffffffff1603610f0a5760009050610f47565b816040517fec459bc0000000000000000000000000000000000000000000000000000000008152600401610f3e91906140ed565b60405180910390fd5b919050565b60008060036000848152602001908152602001600020604051806101a001604052908160008201548152602001600182018054610f8890613e59565b80601f0160208091040260200160405190810160405280929190818152602001828054610fb490613e59565b80156110015780601f10610fd657610100808354040283529160200191611001565b820191906000526020600020905b815481529060010190602001808311610fe457829003601f168201915b50505050508152602001600282015481526020016003820160009054906101000a900473ffffffffffffffffffffffffffffffffffffffff1673ffffffffffffffffffffffffffffffffffffffff1673ffffffffffffffffffffffffffffffffffffffff1681526020016004820160009054906101000a900473ffffffffffffffffffffffffffffffffffffffff1673ffffffffffffffffffffffffffffffffffffffff1673ffffffffffffffffffffffffffffffffffffffff1681526020016005820154815260200160068201548152602001600782015481526020016008820154815260200160098201548152602001600a820160009054906101000a900460ff16151515158152602001600b8201548152602001600c820160009054906101000a900460ff16600181111561113c5761113b61369a565b5b600181111561114e5761114d61369a565b5b8152505090503373ffffffffffffffffffffffffffffffffffffffff16816060015173ffffffffffffffffffffffffffffffffffffffff161415806111c45750600073ffffffffffffffffffffffffffffffffffffffff16816080015173ffffffffffffffffffffffffffffffffffffffff1614155b15611204576040517fef7d78ef0000000000000000000000000000000000000000000000000000000081526004016111fb90614154565b60405180910390fd5b60036000848152602001908152602001600020600080820160009055600182016000611230919061319d565b60028201600090556003820160006101000a81549073ffffffffffffffffffffffffffffffffffffffff02191690556004820160006101000a81549073ffffffffffffffffffffffffffffffffffffffff021916905560058201600090556006820160009055600782016000905560088201600090556009820160009055600a820160006101000a81549060ff0219169055600b820160009055600c820160006101000a81549060ff0219169055505060008061132b85600460003373ffffffffffffffffffffffffffffffffffffffff1673ffffffffffffffffffffffffffffffffffffffff168152602001908152602001600020612385565b9150915080156113c9573373ffffffffffffffffffffffffffffffffffffffff166108fc8460a001519081150290604051600060405180830381858888f1935050505015801561137f573d6000803e3d6000fd5b506113c882600460003373ffffffffffffffffffffffffffffffffffffffff1673ffffffffffffffffffffffffffffffffffffffff1681526020019081526020016000206123e9565b5b60019350505050919050565b600080826040516024016113e99190614183565b6040516020818303038152906040527f02c323d6000000000000000000000000000000000000000000000000000000007bffffffffffffffffffffffffffffffffffffffffffffffffffffffff19166020820180517bffffffffffffffffffffffffffffffffffffffffffffffffffffffff838183161783525050505090506000818560405160200161147d9291906141da565b60405160208183030381529060405290506000803073ffffffffffffffffffffffffffffffffffffffff16836040516114b691906141fe565b600060405180830381855afa9150503d80600081146114f1576040519150601f19603f3d011682016040523d82523d6000602084013e6114f6565b606091505b509150915060008261150a57815182602001fd5b60208201519050809550505050505092915050565b6000341015611563576040517f4817ec2e00000000000000000000000000000000000000000000000000000000815260040161155a90614261565b60405180910390fd5b600061156d61249e565b90506000604051806101a001604052808381526020018981526020018881526020013373ffffffffffffffffffffffffffffffffffffffff168152602001600073ffffffffffffffffffffffffffffffffffffffff168152602001348152602001600081526020018481526020014281526020018781526020016000151581526020018681526020018560018111156116095761160861369a565b5b815250905080600360008481526020019081526020016000206000820151816000015560208201518160010190805190602001906116489291906131dd565b506040820151816002015560608201518160030160006101000a81548173ffffffffffffffffffffffffffffffffffffffff021916908373ffffffffffffffffffffffffffffffffffffffff16021790555060808201518160040160006101000a81548173ffffffffffffffffffffffffffffffffffffffff021916908373ffffffffffffffffffffffffffffffffffffffff16021790555060a0820151816005015560c0820151816006015560e082015181600701556101008201518160080155610120820151816009015561014082015181600a0160006101000a81548160ff02191690831515021790555061016082015181600b015561018082015181600c0160006101000a81548160ff0219169083600181111561176d5761176c61369a565b5b0217905550905050600460003373ffffffffffffffffffffffffffffffffffffffff1673ffffffffffffffffffffffffffffffffffffffff1681526020019081526020016000208290806001815401808255809150506001900390600052602060002001600090919091909150555050505050505050565b60005481565b60006117f6826124bb565b9050919050565b60606000805467ffffffffffffffff81111561181c5761181b613346565b5b60405190808252806020026020018201604052801561185557816020015b6118426130f2565b81526020019060019003908161183a5790505b50905060005b600054811015611ced578315611aba5760036000828152602001908152602001600020600a0160009054906101000a900460ff16611ab55760036000828152602001908152602001600020604051806101a0016040529081600082015481526020016001820180546118cc90613e59565b80601f01602080910402602001604051908101604052809291908181526020018280546118f890613e59565b80156119455780601f1061191a57610100808354040283529160200191611945565b820191906000526020600020905b81548152906001019060200180831161192857829003601f168201915b50505050508152602001600282015481526020016003820160009054906101000a900473ffffffffffffffffffffffffffffffffffffffff1673ffffffffffffffffffffffffffffffffffffffff1673ffffffffffffffffffffffffffffffffffffffff1681526020016004820160009054906101000a900473ffffffffffffffffffffffffffffffffffffffff1673ffffffffffffffffffffffffffffffffffffffff1673ffffffffffffffffffffffffffffffffffffffff1681526020016005820154815260200160068201548152602001600782015481526020016008820154815260200160098201548152602001600a820160009054906101000a900460ff16151515158152602001600b8201548152602001600c820160009054906101000a900460ff166001811115611a8057611a7f61369a565b5b6001811115611a9257611a9161369a565b5b81525050828281518110611aa957611aa8613fc6565b5b60200260200101819052505b611cdc565b60036000828152602001908152602001600020604051806101a001604052908160008201548152602001600182018054611af390613e59565b80601f0160208091040260200160405190810160405280929190818152602001828054611b1f90613e59565b8015611b6c5780601f10611b4157610100808354040283529160200191611b6c565b820191906000526020600020905b815481529060010190602001808311611b4f57829003601f168201915b50505050508152602001600282015481526020016003820160009054906101000a900473ffffffffffffffffffffffffffffffffffffffff1673ffffffffffffffffffffffffffffffffffffffff1673ffffffffffffffffffffffffffffffffffffffff1681526020016004820160009054906101000a900473ffffffffffffffffffffffffffffffffffffffff1673ffffffffffffffffffffffffffffffffffffffff1673ffffffffffffffffffffffffffffffffffffffff1681526020016005820154815260200160068201548152602001600782015481526020016008820154815260200160098201548152602001600a820160009054906101000a900460ff16151515158152602001600b8201548152602001600c820160009054906101000a900460ff166001811115611ca757611ca661369a565b5b6001811115611cb957611cb861369a565b5b81525050828281518110611cd057611ccf613fc6565b5b60200260200101819052505b80611ce690613f7e565b905061185b565b5080915050919050565b60025481565b60018054611d0a90613e59565b80601f0160208091040260200160405190810160405280929190818152602001828054611d3690613e59565b8015611d835780601f10611d5857610100808354040283529160200191611d83565b820191906000526020600020905b815481529060010190602001808311611d6657829003601f168201915b505050505081565b611d936130f2565b60036000838152602001908152602001600020604051806101a001604052908160008201548152602001600182018054611dcc90613e59565b80601f0160208091040260200160405190810160405280929190818152602001828054611df890613e59565b8015611e455780601f10611e1a57610100808354040283529160200191611e45565b820191906000526020600020905b815481529060010190602001808311611e2857829003601f168201915b50505050508152602001600282015481526020016003820160009054906101000a900473ffffffffffffffffffffffffffffffffffffffff1673ffffffffffffffffffffffffffffffffffffffff1673ffffffffffffffffffffffffffffffffffffffff1681526020016004820160009054906101000a900473ffffffffffffffffffffffffffffffffffffffff1673ffffffffffffffffffffffffffffffffffffffff1673ffffffffffffffffffffffffffffffffffffffff1681526020016005820154815260200160068201548152602001600782015481526020016008820154815260200160098201548152602001600a820160009054906101000a900460ff16151515158152602001600b8201548152602001600c820160009054906101000a900460ff166001811115611f8057611f7f61369a565b5b6001811115611f9257611f9161369a565b5b815250509050919050565b611fa6816124cd565b50565b60006001905090565b600080600167ffffffffffffffff811115611fd057611fcf613346565b5b604051908082528060200260200182016040528015611ffe5781602001602082028036833780820191505090505b509050828160008151811061201657612015613fc6565b5b60200260200101818152505061202b81612597565b60008151811061203e5761203d613fc6565b5b6020026020010151915050919050565b600060036000838152602001908152602001600020600a0160009054906101000a900460ff1615801561209857506000600360008481526020019081526020016000206005015414155b80156120bb57506000600360008481526020019081526020016000206006015414155b80156120dd575042600360008481526020019081526020016000206009015411155b9050919050565b600081836120f29190614281565b905092915050565b6121026130f2565b600060036000848152602001908152602001600020604051806101a00160405290816000820154815260200160018201805461213d90613e59565b80601f016020809104026020016040519081016040528092919081815260200182805461216990613e59565b80156121b65780601f1061218b576101008083540402835291602001916121b6565b820191906000526020600020905b81548152906001019060200180831161219957829003601f168201915b50505050508152602001600282015481526020016003820160009054906101000a900473ffffffffffffffffffffffffffffffffffffffff1673ffffffffffffffffffffffffffffffffffffffff1673ffffffffffffffffffffffffffffffffffffffff1681526020016004820160009054906101000a900473ffffffffffffffffffffffffffffffffffffffff1673ffffffffffffffffffffffffffffffffffffffff1673ffffffffffffffffffffffffffffffffffffffff1681526020016005820154815260200160068201548152602001600782015481526020016008820154815260200160098201548152602001600a820160009054906101000a900460ff16151515158152602001600b8201548152602001600c820160009054906101000a900460ff1660018111156122f1576122f061369a565b5b60018111156123035761230261369a565b5b81525050905060008160a0015103612350576040517f607be5dc00000000000000000000000000000000000000000000000000000000815260040161234790614323565b60405180910390fd5b80915050919050565b600081836123679190614343565b905092915050565b6000818361237d91906143cc565b905092915050565b60008060005b83805490508110156123d957848482815481106123ab576123aa613fc6565b5b9060005260206000200154036123c85780600192509250506123e2565b806123d290613f7e565b905061238b565b50600080915091505b9250929050565b808054905082101561249a5760008290505b6001828054905061240c91906143fd565b81101561247157816001826124219190614281565b8154811061243257612431613fc6565b5b90600052602060002001548282815481106124505761244f613fc6565b5b9060005260206000200181905550808061246990613f7e565b9150506123fb565b508080548061248357612482614431565b5b600190038181906000526020600020016000905590555b5050565b60008060008154809291906124b290613f7e565b91905055905090565b60006124c6826125a9565b9050919050565b60006103e8826124dd91906143cc565b90508042101561253f57603c42826124f591906143fd565b111561253a5780426040517fb6b0916d000000000000000000000000000000000000000000000000000000008152600401612531929190614460565b60405180910390fd5b612593565b60b4814261254d91906143fd565b11156125925780426040517f0321d0b5000000000000000000000000000000000000000000000000000000008152600401612589929190614460565b60405180910390fd5b5b5050565b60606125a28261269d565b9050919050565b6000808251036125e5576040517f9e198af900000000000000000000000000000000000000000000000000000000815260040160405180910390fd5b6125ee826128ac565b6000600283516125fe91906143cc565b90506000600284516126109190614489565b036126795760006126618460018461262891906143fd565b8151811061263957612638613fc6565b5b602002602001015185848151811061265457612653613fc6565b5b60200260200101516120e4565b905060028161267091906143cc565b92505050612698565b82818151811061268c5761268b613fc6565b5b60200260200101519150505b919050565b60606000825167ffffffffffffffff8111156126bc576126bb613346565b5b6040519080825280602002602001820160405280156126ea5781602001602082028036833780820191505090505b5090506000835167ffffffffffffffff81111561270a57612709613346565b5b6040519080825280602002602001820160405280156127385781602001602082028036833780820191505090505b5090506000845167ffffffffffffffff81111561275857612757613346565b5b60405190808252806020026020018201604052801561278b57816020015b60608152602001906001900390816127765790505b50905060005b855181101561281e576127a2611fa9565b60ff1667ffffffffffffffff8111156127be576127bd613346565b5b6040519080825280602002602001820160405280156127ec5781602001602082028036833780820191505090505b50828281518110612800576127ff613fc6565b5b6020026020010181905250808061281690613f7e565b915050612791565b5060006128296128ff565b9050600061283682612a10565b61ffff1690506002826128499190614281565b91506000604051905060005b8281101561289457600061286c8a89898989612a6c565b9050808561287a9190614281565b94508260405250808061288c90613f7e565b915050612855565b5061289f8487612d64565b9650505050505050919050565b805160208201602082028101815b818110156128f857825b818110156128ec5781518151808210156128df578084528183525b50506020810190506128c4565b506020810190506128ba565b5050505050565b60008060203603356602ed57011e000081166602ed57011e00001491505080612954576040517fe7764c9e00000000000000000000000000000000000000000000000000000000815260040160405180910390fd5b60008036905060291115612994576040517f5796f78a00000000000000000000000000000000000000000000000000000000815260040160405180910390fd5b602936033590506000600960038362ffffff166129b19190614281565b6129bb9190614281565b905060003690506002826129cf9190614281565b1115612a07576040517fc30a7bd700000000000000000000000000000000000000000000000000000000815260040160405180910390fd5b80935050505090565b600080602083612a209190614281565b90506000369050811115612a60576040517f5796f78a00000000000000000000000000000000000000000000000000000000815260040160405180910390fd5b80360335915050919050565b600080600080612a7b85612eb1565b91509150600080600060606000600d612aa9602088612a9a9190614281565b8961235990919063ffffffff16565b612ab39190614281565b90506000612ada60688c612ac79190614281565b6000369050612f2790919063ffffffff16565b90506000612b0c8360418e612aef9190614281565b612af99190614281565b6000369050612f2790919063ffffffff16565b9050612b188382612b46565b9350826020850120945081359650612b62565b60006040519050818152602081019050818101604052919050565b6000612b5183612b2b565b838382376020810391505092915050565b612b738765ffffffffffff16611f9d565b612b898560418e612b849190614281565b612f3d565b9550612b9486610eb8565b60ff1699505050505050505060008060005b84811015612d2f57612bb9888583612fbc565b809350819450505060005b8c51811015612d1b578c8181518110612be057612bdf613fc6565b5b60200260200101518403612d085760008b8281518110612c0357612c02613fc6565b5b60200260200101519050612c178189613042565b158015612c475750612c27611fa9565b60ff168d8381518110612c3d57612c3c613fc6565b5b6020026020010151105b15612d02578c8281518110612c5f57612c5e613fc6565b5b602002602001018051809190612c7490613f7e565b81525050838b8381518110612c8c57612c8b613fc6565b5b602002602001015160018f8581518110612ca957612ca8613fc6565b5b6020026020010151612cbb91906143fd565b81518110612ccc57612ccb613fc6565b5b602002602001018181525050612ce2818961305b565b8c8381518110612cf557612cf4613fc6565b5b6020026020010181815250505b50612d1b565b8080612d1390613f7e565b915050612bc4565b508080612d2790613f7e565b915050612ba6565b50505081602082612d409190614281565b612d4a9190614343565b604e612d569190614281565b935050505095945050505050565b60606000835167ffffffffffffffff811115612d8357612d82613346565b5b604051908082528060200260200182016040528015612db15781602001602082028036833780820191505090505b5090506000612dbe611fa9565b60ff16905060005b8551811015612ea55781858281518110612de357612de2613fc6565b5b60200260200101511015612e4a57848181518110612e0457612e03613fc6565b5b6020026020010151826040517f2b13aef5000000000000000000000000000000000000000000000000000000008152600401612e41929190614460565b60405180910390fd5b6000612e6f878381518110612e6257612e61613fc6565b5b60200260200101516117eb565b905080848381518110612e8557612e84613fc6565b5b602002602001018181525050508080612e9d90613f7e565b915050612dc6565b50819250505092915050565b6000806000806000604186612ec69190614281565b90506000612eed602083612eda9190614281565b6000369050612f2790919063ffffffff16565b905080359350612f07600382612f2790919063ffffffff16565b9050803592508362ffffff1695508263ffffffff16945050505050915091565b60008183612f3591906143fd565b905092915050565b6000806000808436038035935060208101905080359250602081019050803560001a91505060018682858560405160008152602001604052604051612f8594939291906144ba565b6020604051602081039080840390855afa158015612fa7573d6000803e3d6000fd5b50505060206040510351935050505092915050565b6000806000604e86612fce9190614281565b9050600061300f613000602088612fe59190614281565b876001612ff29190614281565b61235990919063ffffffff16565b836120e490919063ffffffff16565b9050600061302a826000369050612f2790919063ffffffff16565b90508035945060208101359350505050935093915050565b600080826001901b841690506000811191505092915050565b6000816001901b8317905092915050565b82805461307890613e59565b90600052602060002090601f01602090048101928261309a57600085556130e1565b82601f106130b357805160ff19168380011785556130e1565b828001600101855582156130e1579182015b828111156130e05782518255916020019190600101906130c5565b5b5090506130ee9190613263565b5090565b604051806101a00160405280600081526020016060815260200160008152602001600073ffffffffffffffffffffffffffffffffffffffff168152602001600073ffffffffffffffffffffffffffffffffffffffff168152602001600081526020016000815260200160008019168152602001600081526020016000815260200160001515815260200160008152602001600060018111156131975761319661369a565b5b81525090565b5080546131a990613e59565b6000825580601f106131bb57506131da565b601f0160209004906000526020600020908101906131d99190613263565b5b50565b8280546131e990613e59565b90600052602060002090601f01602090048101928261320b5760008555613252565b82601f1061322457805160ff1916838001178555613252565b82800160010185558215613252579182015b82811115613251578251825591602001919060010190613236565b5b50905061325f9190613263565b5090565b5b8082111561327c576000816000905550600101613264565b5090565b6000604051905090565b600080fd5b600080fd5b6000819050919050565b6132a781613294565b81146132b257600080fd5b50565b6000813590506132c48161329e565b92915050565b6000602082840312156132e0576132df61328a565b5b60006132ee848285016132b5565b91505092915050565b6000819050919050565b61330a816132f7565b82525050565b60006020820190506133256000830184613301565b92915050565b600080fd5b600080fd5b6000601f19601f8301169050919050565b7f4e487b7100000000000000000000000000000000000000000000000000000000600052604160045260246000fd5b61337e82613335565b810181811067ffffffffffffffff8211171561339d5761339c613346565b5b80604052505050565b60006133b0613280565b90506133bc8282613375565b919050565b600067ffffffffffffffff8211156133dc576133db613346565b5b6133e582613335565b9050602081019050919050565b82818337600083830152505050565b600061341461340f846133c1565b6133a6565b9050828152602081018484840111156134305761342f613330565b5b61343b8482856133f2565b509392505050565b600082601f8301126134585761345761332b565b5b8135613468848260208601613401565b91505092915050565b6000602082840312156134875761348661328a565b5b600082013567ffffffffffffffff8111156134a5576134a461328f565b5b6134b184828501613443565b91505092915050565b6134c3816132f7565b81146134ce57600080fd5b50565b6000813590506134e0816134ba565b92915050565b6000602082840312156134fc576134fb61328a565b5b600061350a848285016134d1565b91505092915050565b600073ffffffffffffffffffffffffffffffffffffffff82169050919050565b600061353e82613513565b9050919050565b61354e81613533565b811461355957600080fd5b50565b60008135905061356b81613545565b92915050565b6000602082840312156135875761358661328a565b5b60006135958482850161355c565b91505092915050565b600081519050919050565b600082825260208201905092915050565b6000819050602082019050919050565b6135d3816132f7565b82525050565b600081519050919050565b600082825260208201905092915050565b60005b838110156136135780820151818401526020810190506135f8565b83811115613622576000848401525b50505050565b6000613633826135d9565b61363d81856135e4565b935061364d8185602086016135f5565b61365681613335565b840191505092915050565b61366a81613533565b82525050565b61367981613294565b82525050565b60008115159050919050565b6136948161367f565b82525050565b7f4e487b7100000000000000000000000000000000000000000000000000000000600052602160045260246000fd5b600281106136da576136d961369a565b5b50565b60008190506136eb826136c9565b919050565b60006136fb826136dd565b9050919050565b61370b816136f0565b82525050565b60006101a08301600083015161372a60008601826135ca565b50602083015184820360208601526137428282613628565b915050604083015161375760408601826135ca565b50606083015161376a6060860182613661565b50608083015161377d6080860182613661565b5060a083015161379060a08601826135ca565b5060c08301516137a360c08601826135ca565b5060e08301516137b660e0860182613670565b506101008301516137cb6101008601826135ca565b506101208301516137e06101208601826135ca565b506101408301516137f561014086018261368b565b5061016083015161380a6101608601826135ca565b5061018083015161381f610180860182613702565b508091505092915050565b60006138368383613711565b905092915050565b6000602082019050919050565b60006138568261359e565b61386081856135a9565b935083602082028501613872856135ba565b8060005b858110156138ae578484038952815161388f858261382a565b945061389a8361383e565b925060208a01995050600181019050613876565b50829750879550505050505092915050565b600060208201905081810360008301526138da818461384b565b905092915050565b600060ff82169050919050565b6138f8816138e2565b82525050565b600060208201905061391360008301846138ef565b92915050565b6139228161367f565b82525050565b600060208201905061393d6000830184613919565b92915050565b6000806040838503121561395a5761395961328a565b5b600083013567ffffffffffffffff8111156139785761397761328f565b5b61398485828601613443565b9250506020613995858286016132b5565b9150509250929050565b600067ffffffffffffffff8211156139ba576139b9613346565b5b6139c382613335565b9050602081019050919050565b60006139e36139de8461399f565b6133a6565b9050828152602081018484840111156139ff576139fe613330565b5b613a0a8482856133f2565b509392505050565b600082601f830112613a2757613a2661332b565b5b8135613a378482602086016139d0565b91505092915050565b60028110613a4d57600080fd5b50565b600081359050613a5f81613a40565b92915050565b60008060008060008060c08789031215613a8257613a8161328a565b5b600087013567ffffffffffffffff811115613aa057613a9f61328f565b5b613aac89828a01613a12565b9650506020613abd89828a016134d1565b9550506040613ace89828a016134d1565b9450506060613adf89828a016134d1565b9350506080613af089828a01613a50565b92505060a0613b0189828a016132b5565b9150509295509295509295565b600067ffffffffffffffff821115613b2957613b28613346565b5b602082029050602081019050919050565b600080fd5b6000613b52613b4d84613b0e565b6133a6565b90508083825260208201905060208402830185811115613b7557613b74613b3a565b5b835b81811015613b9e5780613b8a88826134d1565b845260208401935050602081019050613b77565b5050509392505050565b600082601f830112613bbd57613bbc61332b565b5b8135613bcd848260208601613b3f565b91505092915050565b600060208284031215613bec57613beb61328a565b5b600082013567ffffffffffffffff811115613c0a57613c0961328f565b5b613c1684828501613ba8565b91505092915050565b613c288161367f565b8114613c3357600080fd5b50565b600081359050613c4581613c1f565b92915050565b600060208284031215613c6157613c6061328a565b5b6000613c6f84828501613c36565b91505092915050565b600081519050919050565b600082825260208201905092915050565b6000613c9f82613c78565b613ca98185613c83565b9350613cb98185602086016135f5565b613cc281613335565b840191505092915050565b60006020820190508181036000830152613ce78184613c94565b905092915050565b60006101a083016000830151613d0860008601826135ca565b5060208301518482036020860152613d208282613628565b9150506040830151613d3560408601826135ca565b506060830151613d486060860182613661565b506080830151613d5b6080860182613661565b5060a0830151613d6e60a08601826135ca565b5060c0830151613d8160c08601826135ca565b5060e0830151613d9460e0860182613670565b50610100830151613da96101008601826135ca565b50610120830151613dbe6101208601826135ca565b50610140830151613dd361014086018261368b565b50610160830151613de86101608601826135ca565b50610180830151613dfd610180860182613702565b508091505092915050565b60006020820190508181036000830152613e228184613cef565b905092915050565b7f4e487b7100000000000000000000000000000000000000000000000000000000600052602260045260246000fd5b60006002820490506001821680613e7157607f821691505b602082108103613e8457613e83613e2a565b5b50919050565b60008190508160005260206000209050919050565b60008154613eac81613e59565b613eb68186613c83565b94506001821660008114613ed15760018114613ee357613f16565b60ff1983168652602086019350613f16565b613eec85613e8a565b60005b83811015613f0e57815481890152600182019150602081019050613eef565b808801955050505b50505092915050565b6000604082019050613f346000830185613301565b8181036020830152613f468184613e9f565b90509392505050565b7f4e487b7100000000000000000000000000000000000000000000000000000000600052601160045260246000fd5b6000613f89826132f7565b91507fffffffffffffffffffffffffffffffffffffffffffffffffffffffffffffffff8203613fbb57613fba613f4f565b5b600182019050919050565b7f4e487b7100000000000000000000000000000000000000000000000000000000600052603260045260246000fd5b600082825260208201905092915050565b7f4163657074206572726f72000000000000000000000000000000000000000000600082015250565b600061403c600b83613ff5565b915061404782614006565b602082019050919050565b6000602082019050818103600083015261406b8161402f565b9050919050565b7f496e73756666696369656e742066756e64730000000000000000000000000000600082015250565b60006140a8601283613ff5565b91506140b382614072565b602082019050919050565b600060208201905081810360008301526140d78161409b565b9050919050565b6140e781613533565b82525050565b600060208201905061410260008301846140de565b92915050565b7f596f752063616e27742072656d6f7665204368616c6c656e6765000000000000600082015250565b600061413e601a83613ff5565b915061414982614108565b602082019050919050565b6000602082019050818103600083015261416d81614131565b9050919050565b61417d81613294565b82525050565b60006020820190506141986000830184614174565b92915050565b600081905092915050565b60006141b482613c78565b6141be818561419e565b93506141ce8185602086016135f5565b80840191505092915050565b60006141e682856141a9565b91506141f282846141a9565b91508190509392505050565b600061420a82846141a9565b915081905092915050565b7f596f752073686f756c642061747461636820736f6d65204465706f7369740000600082015250565b600061424b601e83613ff5565b915061425682614215565b602082019050919050565b6000602082019050818103600083015261427a8161423e565b9050919050565b600061428c826132f7565b9150614297836132f7565b9250827fffffffffffffffffffffffffffffffffffffffffffffffffffffffffffffffff038211156142cc576142cb613f4f565b5b828201905092915050565b7f4974656d206e6f7420666f756e64000000000000000000000000000000000000600082015250565b600061430d600e83613ff5565b9150614318826142d7565b602082019050919050565b6000602082019050818103600083015261433c81614300565b9050919050565b600061434e826132f7565b9150614359836132f7565b9250817fffffffffffffffffffffffffffffffffffffffffffffffffffffffffffffffff048311821515161561439257614391613f4f565b5b828202905092915050565b7f4e487b7100000000000000000000000000000000000000000000000000000000600052601260045260246000fd5b60006143d7826132f7565b91506143e2836132f7565b9250826143f2576143f161439d565b5b828204905092915050565b6000614408826132f7565b9150614413836132f7565b92508282101561442657614425613f4f565b5b828203905092915050565b7f4e487b7100000000000000000000000000000000000000000000000000000000600052603160045260246000fd5b60006040820190506144756000830185613301565b6144826020830184613301565b9392505050565b6000614494826132f7565b915061449f836132f7565b9250826144af576144ae61439d565b5b828206905092915050565b60006080820190506144cf6000830187614174565b6144dc60208301866138ef565b6144e96040830185614174565b6144f66060830184614174565b9594505050505056fea26469706673582212204188ea19b54ddd8c039ffa46f37f64c8dcb8e0065f411fa9eed86c05518e3b4364736f6c634300080e0033",
  "linkReferences": {},
  "deployedLinkReferences": {}
}