{
  "_format": "hh-sol-artifact-1",
  "contractName": "PriceChallenge",
  "sourceName": "smart_contract/contracts/PriceChallenge.sol",
  "abi": [
    {
      "inputs": [
        {
          "internalType": "uint256",
          "name": "_start_time",
          "type": "uint256"
        }
      ],
      "stateMutability": "nonpayable",
      "type": "constructor"
    },
    {
      "inputs": [],
      "name": "CalldataMustHaveValidPayload",
      "type": "error"
    },
    {
      "inputs": [],
      "name": "CalldataOverOrUnderFlow",
      "type": "error"
    },
    {
      "inputs": [],
      "name": "CanNotPickMedianOfEmptyArray",
      "type": "error"
    },
    {
      "inputs": [
        {
          "internalType": "string",
          "name": "message",
          "type": "string"
        }
      ],
      "name": "CantChange",
      "type": "error"
    },
    {
      "inputs": [
        {
          "internalType": "string",
          "name": "message",
          "type": "string"
        }
      ],
      "name": "DateExpired",
      "type": "error"
    },
    {
      "inputs": [],
      "name": "EachSignerMustProvideTheSameValue",
      "type": "error"
    },
    {
      "inputs": [],
      "name": "EmptyCalldataPointersArr",
      "type": "error"
    },
    {
      "inputs": [],
      "name": "IncorrectUnsignedMetadataSize",
      "type": "error"
    },
    {
      "inputs": [
        {
          "internalType": "string",
          "name": "message",
          "type": "string"
        }
      ],
      "name": "InsufficientAmount",
      "type": "error"
    },
    {
      "inputs": [
        {
          "internalType": "uint256",
          "name": "receivedSignersCount",
          "type": "uint256"
        },
        {
          "internalType": "uint256",
          "name": "requiredSignersCount",
          "type": "uint256"
        }
      ],
      "name": "InsufficientNumberOfUniqueSigners",
      "type": "error"
    },
    {
      "inputs": [],
      "name": "InvalidCalldataPointer",
      "type": "error"
    },
    {
      "inputs": [
        {
          "internalType": "string",
          "name": "message",
          "type": "string"
        }
      ],
      "name": "InvalidParams",
      "type": "error"
    },
    {
      "inputs": [
        {
          "internalType": "string",
          "name": "message",
          "type": "string"
        }
      ],
      "name": "NotFound",
      "type": "error"
    },
    {
      "inputs": [
        {
          "internalType": "address",
          "name": "receivedSigner",
          "type": "address"
        }
      ],
      "name": "SignerNotAuthorised",
      "type": "error"
    },
    {
      "inputs": [
        {
          "internalType": "uint256",
          "name": "receivedTimestampSeconds",
          "type": "uint256"
        },
        {
          "internalType": "uint256",
          "name": "blockTimestamp",
          "type": "uint256"
        }
      ],
      "name": "TimestampFromTooLongFuture",
      "type": "error"
    },
    {
      "inputs": [
        {
          "internalType": "uint256",
          "name": "receivedTimestampSeconds",
          "type": "uint256"
        },
        {
          "internalType": "uint256",
          "name": "blockTimestamp",
          "type": "uint256"
        }
      ],
      "name": "TimestampIsTooOld",
      "type": "error"
    },
    {
      "anonymous": false,
      "inputs": [
        {
          "indexed": false,
          "internalType": "uint256",
          "name": "time",
          "type": "uint256"
        },
        {
          "indexed": false,
          "internalType": "bytes",
          "name": "payload",
          "type": "bytes"
        }
      ],
      "name": "UpdatePayload",
      "type": "event"
    },
    {
      "inputs": [
        {
          "internalType": "uint256",
          "name": "_id",
          "type": "uint256"
        }
      ],
      "name": "accept",
      "outputs": [],
      "stateMutability": "payable",
      "type": "function"
    },
    {
      "inputs": [
        {
          "internalType": "uint256[]",
          "name": "values",
          "type": "uint256[]"
        }
      ],
      "name": "aggregateValues",
      "outputs": [
        {
          "internalType": "uint256",
          "name": "",
          "type": "uint256"
        }
      ],
      "stateMutability": "view",
      "type": "function"
    },
    {
      "inputs": [
        {
          "internalType": "bool",
          "name": "active",
          "type": "bool"
        }
      ],
      "name": "allChallenges",
      "outputs": [
        {
          "components": [
            {
              "internalType": "uint256",
              "name": "id",
              "type": "uint256"
            },
            {
              "internalType": "string",
              "name": "name",
              "type": "string"
            },
            {
              "internalType": "uint256",
              "name": "cof",
              "type": "uint256"
            },
            {
              "internalType": "address",
              "name": "maker",
              "type": "address"
            },
            {
              "internalType": "address",
              "name": "taker",
              "type": "address"
            },
            {
              "internalType": "uint256",
              "name": "paid_maker",
              "type": "uint256"
            },
            {
              "internalType": "uint256",
              "name": "paid_taker",
              "type": "uint256"
            },
            {
              "internalType": "bytes32",
              "name": "token_symbol",
              "type": "bytes32"
            },
            {
              "internalType": "uint256",
              "name": "created_date",
              "type": "uint256"
            },
            {
              "internalType": "uint256",
              "name": "deadline_date",
              "type": "uint256"
            },
            {
              "internalType": "bool",
              "name": "finished",
              "type": "bool"
            },
            {
              "internalType": "uint256",
              "name": "prediction_price",
              "type": "uint256"
            },
            {
              "internalType": "enum PriceChallenge.PredictionType",
              "name": "prediction_type",
              "type": "uint8"
            }
          ],
          "internalType": "struct PriceChallenge.ChallengeStruct[]",
          "name": "",
          "type": "tuple[]"
        }
      ],
      "stateMutability": "view",
      "type": "function"
    },
    {
      "inputs": [
        {
          "internalType": "string",
          "name": "_name",
          "type": "string"
        },
        {
          "internalType": "uint256",
          "name": "_cof",
          "type": "uint256"
        },
        {
          "internalType": "uint256",
          "name": "_deadline_date",
          "type": "uint256"
        },
        {
          "internalType": "uint256",
          "name": "_price_prediction",
          "type": "uint256"
        },
        {
          "internalType": "enum PriceChallenge.PredictionType",
          "name": "_prediction_type",
          "type": "uint8"
        },
        {
          "internalType": "bytes32",
          "name": "_token_symbol",
          "type": "bytes32"
        }
      ],
      "name": "create",
      "outputs": [],
      "stateMutability": "payable",
      "type": "function"
    },
    {
      "inputs": [
        {
          "internalType": "bytes",
          "name": "redstonePayload",
          "type": "bytes"
        }
      ],
      "name": "cronCall",
      "outputs": [],
      "stateMutability": "nonpayable",
      "type": "function"
    },
    {
      "inputs": [
        {
          "internalType": "address",
          "name": "signerAddress",
          "type": "address"
        }
      ],
      "name": "getAuthorisedSignerIndex",
      "outputs": [
        {
          "internalType": "uint8",
          "name": "",
          "type": "uint8"
        }
      ],
      "stateMutability": "view",
      "type": "function"
    },
    {
      "inputs": [
        {
          "internalType": "uint256",
          "name": "_id",
          "type": "uint256"
        }
      ],
      "name": "getById",
      "outputs": [
        {
          "components": [
            {
              "internalType": "uint256",
              "name": "id",
              "type": "uint256"
            },
            {
              "internalType": "string",
              "name": "name",
              "type": "string"
            },
            {
              "internalType": "uint256",
              "name": "cof",
              "type": "uint256"
            },
            {
              "internalType": "address",
              "name": "maker",
              "type": "address"
            },
            {
              "internalType": "address",
              "name": "taker",
              "type": "address"
            },
            {
              "internalType": "uint256",
              "name": "paid_maker",
              "type": "uint256"
            },
            {
              "internalType": "uint256",
              "name": "paid_taker",
              "type": "uint256"
            },
            {
              "internalType": "bytes32",
              "name": "token_symbol",
              "type": "bytes32"
            },
            {
              "internalType": "uint256",
              "name": "created_date",
              "type": "uint256"
            },
            {
              "internalType": "uint256",
              "name": "deadline_date",
              "type": "uint256"
            },
            {
              "internalType": "bool",
              "name": "finished",
              "type": "bool"
            },
            {
              "internalType": "uint256",
              "name": "prediction_price",
              "type": "uint256"
            },
            {
              "internalType": "enum PriceChallenge.PredictionType",
              "name": "prediction_type",
              "type": "uint8"
            }
          ],
          "internalType": "struct PriceChallenge.ChallengeStruct",
          "name": "",
          "type": "tuple"
        }
      ],
      "stateMutability": "view",
      "type": "function"
    },
    {
      "inputs": [
        {
          "internalType": "bytes",
          "name": "redstonePayload",
          "type": "bytes"
        },
        {
          "internalType": "bytes32",
          "name": "assetDataFeedId",
          "type": "bytes32"
        }
      ],
      "name": "getLatestPrice",
      "outputs": [
        {
          "internalType": "uint256",
          "name": "",
          "type": "uint256"
        }
      ],
      "stateMutability": "view",
      "type": "function"
    },
    {
      "inputs": [],
      "name": "getUniqueSignersThreshold",
      "outputs": [
        {
          "internalType": "uint8",
          "name": "",
          "type": "uint8"
        }
      ],
      "stateMutability": "view",
      "type": "function"
    },
    {
      "inputs": [
        {
          "internalType": "address",
          "name": "u_address",
          "type": "address"
        }
      ],
      "name": "getUserChallenges",
      "outputs": [
        {
          "components": [
            {
              "internalType": "uint256",
              "name": "id",
              "type": "uint256"
            },
            {
              "internalType": "string",
              "name": "name",
              "type": "string"
            },
            {
              "internalType": "uint256",
              "name": "cof",
              "type": "uint256"
            },
            {
              "internalType": "address",
              "name": "maker",
              "type": "address"
            },
            {
              "internalType": "address",
              "name": "taker",
              "type": "address"
            },
            {
              "internalType": "uint256",
              "name": "paid_maker",
              "type": "uint256"
            },
            {
              "internalType": "uint256",
              "name": "paid_taker",
              "type": "uint256"
            },
            {
              "internalType": "bytes32",
              "name": "token_symbol",
              "type": "bytes32"
            },
            {
              "internalType": "uint256",
              "name": "created_date",
              "type": "uint256"
            },
            {
              "internalType": "uint256",
              "name": "deadline_date",
              "type": "uint256"
            },
            {
              "internalType": "bool",
              "name": "finished",
              "type": "bool"
            },
            {
              "internalType": "uint256",
              "name": "prediction_price",
              "type": "uint256"
            },
            {
              "internalType": "enum PriceChallenge.PredictionType",
              "name": "prediction_type",
              "type": "uint8"
            }
          ],
          "internalType": "struct PriceChallenge.ChallengeStruct[]",
          "name": "",
          "type": "tuple[]"
        }
      ],
      "stateMutability": "view",
      "type": "function"
    },
    {
      "inputs": [],
      "name": "id",
      "outputs": [
        {
          "internalType": "uint256",
          "name": "",
          "type": "uint256"
        }
      ],
      "stateMutability": "view",
      "type": "function"
    },
    {
      "inputs": [],
      "name": "payloadData",
      "outputs": [
        {
          "internalType": "bytes",
          "name": "",
          "type": "bytes"
        }
      ],
      "stateMutability": "view",
      "type": "function"
    },
    {
      "inputs": [
        {
          "internalType": "bytes32",
          "name": "assetId",
          "type": "bytes32"
        }
      ],
      "name": "proxyRequestToBaseContract",
      "outputs": [
        {
          "internalType": "uint256",
          "name": "",
          "type": "uint256"
        }
      ],
      "stateMutability": "view",
      "type": "function"
    },
    {
      "inputs": [
        {
          "internalType": "uint256",
          "name": "_id",
          "type": "uint256"
        }
      ],
      "name": "remove",
      "outputs": [
        {
          "internalType": "bool",
          "name": "",
          "type": "bool"
        }
      ],
      "stateMutability": "nonpayable",
      "type": "function"
    },
    {
      "inputs": [
        {
          "internalType": "uint256",
          "name": "_i",
          "type": "uint256"
        }
      ],
      "name": "setWinner",
      "outputs": [],
      "stateMutability": "nonpayable",
      "type": "function"
    },
    {
      "inputs": [
        {
          "internalType": "bytes",
          "name": "redstonePayload",
          "type": "bytes"
        }
      ],
      "name": "updatePayload",
      "outputs": [],
      "stateMutability": "nonpayable",
      "type": "function"
    },
    {
      "inputs": [],
      "name": "updateTime",
      "outputs": [
        {
          "internalType": "uint256",
          "name": "",
          "type": "uint256"
        }
      ],
      "stateMutability": "view",
      "type": "function"
    },
    {
      "inputs": [
        {
          "internalType": "uint256",
          "name": "receivedTimestampMilliseconds",
          "type": "uint256"
        }
      ],
      "name": "validateTimestamp",
      "outputs": [],
      "stateMutability": "view",
      "type": "function"
    }
  ],
  "bytecode": "0x60806040523480156200001157600080fd5b506040516200466938038062004669833981810160405281019062000037919062000085565b8060028190555050620000b7565b600080fd5b6000819050919050565b6200005f816200004a565b81146200006b57600080fd5b50565b6000815190506200007f8162000054565b92915050565b6000602082840312156200009e576200009d62000045565b5b6000620000ae848285016200006e565b91505092915050565b6145a280620000c76000396000f3fe6080604052600436106101095760003560e01c8063af640d0f11610095578063dc55509011610064578063dc55509014610397578063dc984dd4146103c2578063f4f4d237146103ed578063f50b2efe1461042a578063f90c49241461045357610109565b8063af640d0f146102c9578063b1234e43146102f4578063b24ebfcc1461031d578063c758b77a1461035a57610109565b806319b05f49116100dc57806319b05f49146101da5780633ce142f5146101f65780634cc82215146102335780637ce0533e14610270578063a3b5db3f146102ad57610109565b806302c323d61461010e578063065330241461014b5780630df716021461017457806311da8e541461019d575b600080fd5b34801561011a57600080fd5b5061013560048036038101906101309190613337565b61047e565b604051610142919061337d565b60405180910390f35b34801561015757600080fd5b50610172600480360381019061016d91906134de565b610490565b005b34801561018057600080fd5b5061019b60048036038101906101969190613553565b610500565b005b3480156101a957600080fd5b506101c460048036038101906101bf91906135de565b6109b9565b6040516101d1919061392d565b60405180910390f35b6101f460048036038101906101ef9190613553565b610d03565b005b34801561020257600080fd5b5061021d600480360381019061021891906135de565b610ec8565b60405161022a919061396b565b60405180910390f35b34801561023f57600080fd5b5061025a60048036038101906102559190613553565b610f5c565b6040516102679190613995565b60405180910390f35b34801561027c57600080fd5b50610297600480360381019061029291906139b0565b6113e5565b6040516102a4919061337d565b60405180910390f35b6102c760048036038101906102c29190613ad2565b61152f565b005b3480156102d557600080fd5b506102de6117f5565b6040516102eb919061337d565b60405180910390f35b34801561030057600080fd5b5061031b600480360381019061031691906134de565b6117fb565b005b34801561032957600080fd5b50610344600480360381019061033f9190613c43565b611858565b604051610351919061337d565b60405180910390f35b34801561036657600080fd5b50610381600480360381019061037c9190613cb8565b61186a565b60405161038e919061392d565b60405180910390f35b3480156103a357600080fd5b506103ac611d64565b6040516103b9919061337d565b60405180910390f35b3480156103ce57600080fd5b506103d7611d6a565b6040516103e49190613d3a565b60405180910390f35b3480156103f957600080fd5b50610414600480360381019061040f9190613553565b611df8565b6040516104219190613e75565b60405180910390f35b34801561043657600080fd5b50610451600480360381019061044c9190613553565b61200a565b005b34801561045f57600080fd5b50610468612016565b604051610475919061396b565b60405180910390f35b60006104898261201f565b9050919050565b610499816117fb565b60005b6000548110156104fc5760036000828152602001908152602001600020600a0160009054906101000a900460ff161580156104dc57506104db816120bb565b5b156104eb576104ea81610500565b5b806104f590613ec6565b905061049c565b5050565b600060036000838152602001908152602001600020604051806101a00160405290816000820154815260200160018201805461053b90613f3d565b80601f016020809104026020016040519081016040528092919081815260200182805461056790613f3d565b80156105b45780601f10610589576101008083540402835291602001916105b4565b820191906000526020600020905b81548152906001019060200180831161059757829003601f168201915b50505050508152602001600282015481526020016003820160009054906101000a900473ffffffffffffffffffffffffffffffffffffffff1673ffffffffffffffffffffffffffffffffffffffff1673ffffffffffffffffffffffffffffffffffffffff1681526020016004820160009054906101000a900473ffffffffffffffffffffffffffffffffffffffff1673ffffffffffffffffffffffffffffffffffffffff1673ffffffffffffffffffffffffffffffffffffffff1681526020016005820154815260200160068201548152602001600782015481526020016008820154815260200160098201548152602001600a820160009054906101000a900460ff16151515158152602001600b8201548152602001600c820160009054906101000a900460ff1660018111156106ef576106ee613707565b5b600181111561070157610700613707565b5b81525050905060006107a16001805461071990613f3d565b80601f016020809104026020016040519081016040528092919081815260200182805461074590613f3d565b80156107925780601f1061076757610100808354040283529160200191610792565b820191906000526020600020905b81548152906001019060200180831161077557829003601f168201915b50505050508360e001516113e5565b905060006107b78360a001518460c00151612151565b905060008060018111156107ce576107cd613707565b5b84610180015160018111156107e6576107e5613707565b5b1480156107f7575083610160015183115b1561080157600190505b60018081111561081457610813613707565b5b846101800151600181111561082c5761082b613707565b5b14801561083d575083610160015183105b1561084757600190505b80156108ea576003600086815260200190815260200160002060030160009054906101000a900473ffffffffffffffffffffffffffffffffffffffff1673ffffffffffffffffffffffffffffffffffffffff166108fc839081150290604051600060405180830381858888f193505050501580156108c9573d6000803e3d6000fd5b50816003600087815260200190815260200160002060050181905550610983565b6003600086815260200190815260200160002060040160009054906101000a900473ffffffffffffffffffffffffffffffffffffffff1673ffffffffffffffffffffffffffffffffffffffff166108fc839081150290604051600060405180830381858888f19350505050158015610966573d6000803e3d6000fd5b508160036000878152602001908152602001600020600601819055505b600160036000878152602001908152602001600020600a0160006101000a81548160ff0219169083151502179055505050505050565b60606000600460008473ffffffffffffffffffffffffffffffffffffffff1673ffffffffffffffffffffffffffffffffffffffff16815260200190815260200160002080549050905060008167ffffffffffffffff811115610a1e57610a1d6133b3565b5b604051908082528060200260200182016040528015610a5757816020015b610a446130d9565b815260200190600190039081610a3c5790505b50905060005b82811015610cf8576000600460008773ffffffffffffffffffffffffffffffffffffffff1673ffffffffffffffffffffffffffffffffffffffff1681526020019081526020016000208281548110610ab857610ab7613f6e565b5b9060005260206000200154905060036000828152602001908152602001600020604051806101a001604052908160008201548152602001600182018054610afe90613f3d565b80601f0160208091040260200160405190810160405280929190818152602001828054610b2a90613f3d565b8015610b775780601f10610b4c57610100808354040283529160200191610b77565b820191906000526020600020905b815481529060010190602001808311610b5a57829003601f168201915b50505050508152602001600282015481526020016003820160009054906101000a900473ffffffffffffffffffffffffffffffffffffffff1673ffffffffffffffffffffffffffffffffffffffff1673ffffffffffffffffffffffffffffffffffffffff1681526020016004820160009054906101000a900473ffffffffffffffffffffffffffffffffffffffff1673ffffffffffffffffffffffffffffffffffffffff1673ffffffffffffffffffffffffffffffffffffffff1681526020016005820154815260200160068201548152602001600782015481526020016008820154815260200160098201548152602001600a820160009054906101000a900460ff16151515158152602001600b8201548152602001600c820160009054906101000a900460ff166001811115610cb257610cb1613707565b5b6001811115610cc457610cc3613707565b5b81525050838381518110610cdb57610cda613f6e565b5b60200260200101819052505080610cf190613ec6565b9050610a5d565b508092505050919050565b6000610d0e82612167565b9050600073ffffffffffffffffffffffffffffffffffffffff16816080015173ffffffffffffffffffffffffffffffffffffffff1614610d83576040517fef7d78ef000000000000000000000000000000000000000000000000000000008152600401610d7a90613ffa565b60405180910390fd5b6000610da8610d9a8360a0015184604001516123c6565b670de0b6b3a76400006123dc565b905080341015610ded576040517f4817ec2e000000000000000000000000000000000000000000000000000000008152600401610de490614066565b60405180910390fd5b336003600085815260200190815260200160002060040160006101000a81548173ffffffffffffffffffffffffffffffffffffffff021916908373ffffffffffffffffffffffffffffffffffffffff160217905550346003600085815260200190815260200160002060060181905550600460003373ffffffffffffffffffffffffffffffffffffffff1673ffffffffffffffffffffffffffffffffffffffff168152602001908152602001600020839080600181540180825580915050600190039060005260206000200160009091909190915055505050565b6000730c39486f770b26f5527bbbf942726537986cd7eb73ffffffffffffffffffffffffffffffffffffffff168273ffffffffffffffffffffffffffffffffffffffff1603610f1a5760009050610f57565b816040517fec459bc0000000000000000000000000000000000000000000000000000000008152600401610f4e9190614095565b60405180910390fd5b919050565b60008060036000848152602001908152602001600020604051806101a001604052908160008201548152602001600182018054610f9890613f3d565b80601f0160208091040260200160405190810160405280929190818152602001828054610fc490613f3d565b80156110115780601f10610fe657610100808354040283529160200191611011565b820191906000526020600020905b815481529060010190602001808311610ff457829003601f168201915b50505050508152602001600282015481526020016003820160009054906101000a900473ffffffffffffffffffffffffffffffffffffffff1673ffffffffffffffffffffffffffffffffffffffff1673ffffffffffffffffffffffffffffffffffffffff1681526020016004820160009054906101000a900473ffffffffffffffffffffffffffffffffffffffff1673ffffffffffffffffffffffffffffffffffffffff1673ffffffffffffffffffffffffffffffffffffffff1681526020016005820154815260200160068201548152602001600782015481526020016008820154815260200160098201548152602001600a820160009054906101000a900460ff16151515158152602001600b8201548152602001600c820160009054906101000a900460ff16600181111561114c5761114b613707565b5b600181111561115e5761115d613707565b5b8152505090503373ffffffffffffffffffffffffffffffffffffffff16816060015173ffffffffffffffffffffffffffffffffffffffff161415806111d45750600073ffffffffffffffffffffffffffffffffffffffff16816080015173ffffffffffffffffffffffffffffffffffffffff1614155b15611214576040517fef7d78ef00000000000000000000000000000000000000000000000000000000815260040161120b906140fc565b60405180910390fd5b600360008481526020019081526020016000206000808201600090556001820160006112409190613184565b60028201600090556003820160006101000a81549073ffffffffffffffffffffffffffffffffffffffff02191690556004820160006101000a81549073ffffffffffffffffffffffffffffffffffffffff021916905560058201600090556006820160009055600782016000905560088201600090556009820160009055600a820160006101000a81549060ff0219169055600b820160009055600c820160006101000a81549060ff0219169055505060008061133b85600460003373ffffffffffffffffffffffffffffffffffffffff1673ffffffffffffffffffffffffffffffffffffffff1681526020019081526020016000206123f2565b9150915080156113d9573373ffffffffffffffffffffffffffffffffffffffff166108fc8460a001519081150290604051600060405180830381858888f1935050505015801561138f573d6000803e3d6000fd5b506113d882600460003373ffffffffffffffffffffffffffffffffffffffff1673ffffffffffffffffffffffffffffffffffffffff168152602001908152602001600020612456565b5b60019350505050919050565b600080826040516024016113f9919061412b565b6040516020818303038152906040527f02c323d6000000000000000000000000000000000000000000000000000000007bffffffffffffffffffffffffffffffffffffffffffffffffffffffff19166020820180517bffffffffffffffffffffffffffffffffffffffffffffffffffffffff838183161783525050505090506000818560405160200161148d929190614182565b60405160208183030381529060405290506000803073ffffffffffffffffffffffffffffffffffffffff16836040516114c691906141a6565b600060405180830381855afa9150503d8060008114611501576040519150601f19603f3d011682016040523d82523d6000602084013e611506565b606091505b509150915060008261151a57815182602001fd5b60208201519050809550505050505092915050565b6000341015611573576040517f4817ec2e00000000000000000000000000000000000000000000000000000000815260040161156a90614209565b60405180910390fd5b600061157d61250b565b90506000604051806101a001604052808381526020018981526020018881526020013373ffffffffffffffffffffffffffffffffffffffff168152602001600073ffffffffffffffffffffffffffffffffffffffff1681526020013481526020016000815260200184815260200142815260200187815260200160001515815260200186815260200185600181111561161957611618613707565b5b815250905080600360008481526020019081526020016000206000820151816000015560208201518160010190805190602001906116589291906131c4565b506040820151816002015560608201518160030160006101000a81548173ffffffffffffffffffffffffffffffffffffffff021916908373ffffffffffffffffffffffffffffffffffffffff16021790555060808201518160040160006101000a81548173ffffffffffffffffffffffffffffffffffffffff021916908373ffffffffffffffffffffffffffffffffffffffff16021790555060a0820151816005015560c0820151816006015560e082015181600701556101008201518160080155610120820151816009015561014082015181600a0160006101000a81548160ff02191690831515021790555061016082015181600b015561018082015181600c0160006101000a81548160ff0219169083600181111561177d5761177c613707565b5b0217905550905050600460003373ffffffffffffffffffffffffffffffffffffffff1673ffffffffffffffffffffffffffffffffffffffff1681526020019081526020016000208290806001815401808255809150506001900390600052602060002001600090919091909150555050505050505050565b60005481565b806001908051906020019061181192919061324a565b50426002819055507f9e534d77e50344538151d7045dc713181f1a216e48611e89921d7f6dbf0244f6600254600160405161184d9291906142be565b60405180910390a150565b600061186382612528565b9050919050565b60606000805467ffffffffffffffff811115611889576118886133b3565b5b6040519080825280602002602001820160405280156118c257816020015b6118af6130d9565b8152602001906001900390816118a75790505b50905060005b600054811015611d5a578315611b275760036000828152602001908152602001600020600a0160009054906101000a900460ff16611b225760036000828152602001908152602001600020604051806101a00160405290816000820154815260200160018201805461193990613f3d565b80601f016020809104026020016040519081016040528092919081815260200182805461196590613f3d565b80156119b25780601f10611987576101008083540402835291602001916119b2565b820191906000526020600020905b81548152906001019060200180831161199557829003601f168201915b50505050508152602001600282015481526020016003820160009054906101000a900473ffffffffffffffffffffffffffffffffffffffff1673ffffffffffffffffffffffffffffffffffffffff1673ffffffffffffffffffffffffffffffffffffffff1681526020016004820160009054906101000a900473ffffffffffffffffffffffffffffffffffffffff1673ffffffffffffffffffffffffffffffffffffffff1673ffffffffffffffffffffffffffffffffffffffff1681526020016005820154815260200160068201548152602001600782015481526020016008820154815260200160098201548152602001600a820160009054906101000a900460ff16151515158152602001600b8201548152602001600c820160009054906101000a900460ff166001811115611aed57611aec613707565b5b6001811115611aff57611afe613707565b5b81525050828281518110611b1657611b15613f6e565b5b60200260200101819052505b611d49565b60036000828152602001908152602001600020604051806101a001604052908160008201548152602001600182018054611b6090613f3d565b80601f0160208091040260200160405190810160405280929190818152602001828054611b8c90613f3d565b8015611bd95780601f10611bae57610100808354040283529160200191611bd9565b820191906000526020600020905b815481529060010190602001808311611bbc57829003601f168201915b50505050508152602001600282015481526020016003820160009054906101000a900473ffffffffffffffffffffffffffffffffffffffff1673ffffffffffffffffffffffffffffffffffffffff1673ffffffffffffffffffffffffffffffffffffffff1681526020016004820160009054906101000a900473ffffffffffffffffffffffffffffffffffffffff1673ffffffffffffffffffffffffffffffffffffffff1673ffffffffffffffffffffffffffffffffffffffff1681526020016005820154815260200160068201548152602001600782015481526020016008820154815260200160098201548152602001600a820160009054906101000a900460ff16151515158152602001600b8201548152602001600c820160009054906101000a900460ff166001811115611d1457611d13613707565b5b6001811115611d2657611d25613707565b5b81525050828281518110611d3d57611d3c613f6e565b5b60200260200101819052505b80611d5390613ec6565b90506118c8565b5080915050919050565b60025481565b60018054611d7790613f3d565b80601f0160208091040260200160405190810160405280929190818152602001828054611da390613f3d565b8015611df05780601f10611dc557610100808354040283529160200191611df0565b820191906000526020600020905b815481529060010190602001808311611dd357829003601f168201915b505050505081565b611e006130d9565b60036000838152602001908152602001600020604051806101a001604052908160008201548152602001600182018054611e3990613f3d565b80601f0160208091040260200160405190810160405280929190818152602001828054611e6590613f3d565b8015611eb25780601f10611e8757610100808354040283529160200191611eb2565b820191906000526020600020905b815481529060010190602001808311611e9557829003601f168201915b50505050508152602001600282015481526020016003820160009054906101000a900473ffffffffffffffffffffffffffffffffffffffff1673ffffffffffffffffffffffffffffffffffffffff1673ffffffffffffffffffffffffffffffffffffffff1681526020016004820160009054906101000a900473ffffffffffffffffffffffffffffffffffffffff1673ffffffffffffffffffffffffffffffffffffffff1673ffffffffffffffffffffffffffffffffffffffff1681526020016005820154815260200160068201548152602001600782015481526020016008820154815260200160098201548152602001600a820160009054906101000a900460ff16151515158152602001600b8201548152602001600c820160009054906101000a900460ff166001811115611fed57611fec613707565b5b6001811115611fff57611ffe613707565b5b815250509050919050565b6120138161253a565b50565b60006001905090565b600080600167ffffffffffffffff81111561203d5761203c6133b3565b5b60405190808252806020026020018201604052801561206b5781602001602082028036833780820191505090505b509050828160008151811061208357612082613f6e565b5b60200260200101818152505061209881612604565b6000815181106120ab576120aa613f6e565b5b6020026020010151915050919050565b600060036000838152602001908152602001600020600a0160009054906101000a900460ff1615801561210557506000600360008481526020019081526020016000206005015414155b801561212857506000600360008481526020019081526020016000206006015414155b801561214a575042600360008481526020019081526020016000206009015411155b9050919050565b6000818361215f91906142ee565b905092915050565b61216f6130d9565b600060036000848152602001908152602001600020604051806101a0016040529081600082015481526020016001820180546121aa90613f3d565b80601f01602080910402602001604051908101604052809291908181526020018280546121d690613f3d565b80156122235780601f106121f857610100808354040283529160200191612223565b820191906000526020600020905b81548152906001019060200180831161220657829003601f168201915b50505050508152602001600282015481526020016003820160009054906101000a900473ffffffffffffffffffffffffffffffffffffffff1673ffffffffffffffffffffffffffffffffffffffff1673ffffffffffffffffffffffffffffffffffffffff1681526020016004820160009054906101000a900473ffffffffffffffffffffffffffffffffffffffff1673ffffffffffffffffffffffffffffffffffffffff1673ffffffffffffffffffffffffffffffffffffffff1681526020016005820154815260200160068201548152602001600782015481526020016008820154815260200160098201548152602001600a820160009054906101000a900460ff16151515158152602001600b8201548152602001600c820160009054906101000a900460ff16600181111561235e5761235d613707565b5b60018111156123705761236f613707565b5b81525050905060008160a00151036123bd576040517f607be5dc0000000000000000000000000000000000000000000000000000000081526004016123b490614390565b60405180910390fd5b80915050919050565b600081836123d491906143b0565b905092915050565b600081836123ea9190614439565b905092915050565b60008060005b8380549050811015612446578484828154811061241857612417613f6e565b5b90600052602060002001540361243557806001925092505061244f565b8061243f90613ec6565b90506123f8565b50600080915091505b9250929050565b80805490508210156125075760008290505b60018280549050612479919061446a565b8110156124de578160018261248e91906142ee565b8154811061249f5761249e613f6e565b5b90600052602060002001548282815481106124bd576124bc613f6e565b5b906000526020600020018190555080806124d690613ec6565b915050612468565b50808054806124f0576124ef61449e565b5b600190038181906000526020600020016000905590555b5050565b600080600081548092919061251f90613ec6565b91905055905090565b600061253382612616565b9050919050565b60006103e88261254a9190614439565b9050804210156125ac57603c4282612562919061446a565b11156125a75780426040517fb6b0916d00000000000000000000000000000000000000000000000000000000815260040161259e9291906144cd565b60405180910390fd5b612600565b60b481426125ba919061446a565b11156125ff5780426040517f0321d0b50000000000000000000000000000000000000000000000000000000081526004016125f69291906144cd565b60405180910390fd5b5b5050565b606061260f8261270a565b9050919050565b600080825103612652576040517f9e198af900000000000000000000000000000000000000000000000000000000815260040160405180910390fd5b61265b82612919565b60006002835161266b9190614439565b905060006002845161267d91906144f6565b036126e65760006126ce84600184612695919061446a565b815181106126a6576126a5613f6e565b5b60200260200101518584815181106126c1576126c0613f6e565b5b6020026020010151612151565b90506002816126dd9190614439565b92505050612705565b8281815181106126f9576126f8613f6e565b5b60200260200101519150505b919050565b60606000825167ffffffffffffffff811115612729576127286133b3565b5b6040519080825280602002602001820160405280156127575781602001602082028036833780820191505090505b5090506000835167ffffffffffffffff811115612777576127766133b3565b5b6040519080825280602002602001820160405280156127a55781602001602082028036833780820191505090505b5090506000845167ffffffffffffffff8111156127c5576127c46133b3565b5b6040519080825280602002602001820160405280156127f857816020015b60608152602001906001900390816127e35790505b50905060005b855181101561288b5761280f612016565b60ff1667ffffffffffffffff81111561282b5761282a6133b3565b5b6040519080825280602002602001820160405280156128595781602001602082028036833780820191505090505b5082828151811061286d5761286c613f6e565b5b6020026020010181905250808061288390613ec6565b9150506127fe565b50600061289661296c565b905060006128a382612a7d565b61ffff1690506002826128b691906142ee565b91506000604051905060005b828110156129015760006128d98a89898989612ad9565b905080856128e791906142ee565b9450826040525080806128f990613ec6565b9150506128c2565b5061290c8487612dd1565b9650505050505050919050565b805160208201602082028101815b8181101561296557825b8181101561295957815181518082101561294c578084528183525b5050602081019050612931565b50602081019050612927565b5050505050565b60008060203603356602ed57011e000081166602ed57011e000014915050806129c1576040517fe7764c9e00000000000000000000000000000000000000000000000000000000815260040160405180910390fd5b60008036905060291115612a01576040517f5796f78a00000000000000000000000000000000000000000000000000000000815260040160405180910390fd5b602936033590506000600960038362ffffff16612a1e91906142ee565b612a2891906142ee565b90506000369050600282612a3c91906142ee565b1115612a74576040517fc30a7bd700000000000000000000000000000000000000000000000000000000815260040160405180910390fd5b80935050505090565b600080602083612a8d91906142ee565b90506000369050811115612acd576040517f5796f78a00000000000000000000000000000000000000000000000000000000815260040160405180910390fd5b80360335915050919050565b600080600080612ae885612f1e565b91509150600080600060606000600d612b16602088612b0791906142ee565b896123c690919063ffffffff16565b612b2091906142ee565b90506000612b4760688c612b3491906142ee565b6000369050612f9490919063ffffffff16565b90506000612b798360418e612b5c91906142ee565b612b6691906142ee565b6000369050612f9490919063ffffffff16565b9050612b858382612bb3565b9350826020850120945081359650612bcf565b60006040519050818152602081019050818101604052919050565b6000612bbe83612b98565b838382376020810391505092915050565b612be08765ffffffffffff1661200a565b612bf68560418e612bf191906142ee565b612faa565b9550612c0186610ec8565b60ff1699505050505050505060008060005b84811015612d9c57612c26888583613029565b809350819450505060005b8c51811015612d88578c8181518110612c4d57612c4c613f6e565b5b60200260200101518403612d755760008b8281518110612c7057612c6f613f6e565b5b60200260200101519050612c8481896130af565b158015612cb45750612c94612016565b60ff168d8381518110612caa57612ca9613f6e565b5b6020026020010151105b15612d6f578c8281518110612ccc57612ccb613f6e565b5b602002602001018051809190612ce190613ec6565b81525050838b8381518110612cf957612cf8613f6e565b5b602002602001015160018f8581518110612d1657612d15613f6e565b5b6020026020010151612d28919061446a565b81518110612d3957612d38613f6e565b5b602002602001018181525050612d4f81896130c8565b8c8381518110612d6257612d61613f6e565b5b6020026020010181815250505b50612d88565b8080612d8090613ec6565b915050612c31565b508080612d9490613ec6565b915050612c13565b50505081602082612dad91906142ee565b612db791906143b0565b604e612dc391906142ee565b935050505095945050505050565b60606000835167ffffffffffffffff811115612df057612def6133b3565b5b604051908082528060200260200182016040528015612e1e5781602001602082028036833780820191505090505b5090506000612e2b612016565b60ff16905060005b8551811015612f125781858281518110612e5057612e4f613f6e565b5b60200260200101511015612eb757848181518110612e7157612e70613f6e565b5b6020026020010151826040517f2b13aef5000000000000000000000000000000000000000000000000000000008152600401612eae9291906144cd565b60405180910390fd5b6000612edc878381518110612ecf57612ece613f6e565b5b6020026020010151611858565b905080848381518110612ef257612ef1613f6e565b5b602002602001018181525050508080612f0a90613ec6565b915050612e33565b50819250505092915050565b6000806000806000604186612f3391906142ee565b90506000612f5a602083612f4791906142ee565b6000369050612f9490919063ffffffff16565b905080359350612f74600382612f9490919063ffffffff16565b9050803592508362ffffff1695508263ffffffff16945050505050915091565b60008183612fa2919061446a565b905092915050565b6000806000808436038035935060208101905080359250602081019050803560001a91505060018682858560405160008152602001604052604051612ff29493929190614527565b6020604051602081039080840390855afa158015613014573d6000803e3d6000fd5b50505060206040510351935050505092915050565b6000806000604e8661303b91906142ee565b9050600061307c61306d60208861305291906142ee565b87600161305f91906142ee565b6123c690919063ffffffff16565b8361215190919063ffffffff16565b90506000613097826000369050612f9490919063ffffffff16565b90508035945060208101359350505050935093915050565b600080826001901b841690506000811191505092915050565b6000816001901b8317905092915050565b604051806101a00160405280600081526020016060815260200160008152602001600073ffffffffffffffffffffffffffffffffffffffff168152602001600073ffffffffffffffffffffffffffffffffffffffff1681526020016000815260200160008152602001600080191681526020016000815260200160008152602001600015158152602001600081526020016000600181111561317e5761317d613707565b5b81525090565b50805461319090613f3d565b6000825580601f106131a257506131c1565b601f0160209004906000526020600020908101906131c091906132d0565b5b50565b8280546131d090613f3d565b90600052602060002090601f0160209004810192826131f25760008555613239565b82601f1061320b57805160ff1916838001178555613239565b82800160010185558215613239579182015b8281111561323857825182559160200191906001019061321d565b5b50905061324691906132d0565b5090565b82805461325690613f3d565b90600052602060002090601f01602090048101928261327857600085556132bf565b82601f1061329157805160ff19168380011785556132bf565b828001600101855582156132bf579182015b828111156132be5782518255916020019190600101906132a3565b5b5090506132cc91906132d0565b5090565b5b808211156132e95760008160009055506001016132d1565b5090565b6000604051905090565b600080fd5b600080fd5b6000819050919050565b61331481613301565b811461331f57600080fd5b50565b6000813590506133318161330b565b92915050565b60006020828403121561334d5761334c6132f7565b5b600061335b84828501613322565b91505092915050565b6000819050919050565b61337781613364565b82525050565b6000602082019050613392600083018461336e565b92915050565b600080fd5b600080fd5b6000601f19601f8301169050919050565b7f4e487b7100000000000000000000000000000000000000000000000000000000600052604160045260246000fd5b6133eb826133a2565b810181811067ffffffffffffffff8211171561340a576134096133b3565b5b80604052505050565b600061341d6132ed565b905061342982826133e2565b919050565b600067ffffffffffffffff821115613449576134486133b3565b5b613452826133a2565b9050602081019050919050565b82818337600083830152505050565b600061348161347c8461342e565b613413565b90508281526020810184848401111561349d5761349c61339d565b5b6134a884828561345f565b509392505050565b600082601f8301126134c5576134c4613398565b5b81356134d584826020860161346e565b91505092915050565b6000602082840312156134f4576134f36132f7565b5b600082013567ffffffffffffffff811115613512576135116132fc565b5b61351e848285016134b0565b91505092915050565b61353081613364565b811461353b57600080fd5b50565b60008135905061354d81613527565b92915050565b600060208284031215613569576135686132f7565b5b60006135778482850161353e565b91505092915050565b600073ffffffffffffffffffffffffffffffffffffffff82169050919050565b60006135ab82613580565b9050919050565b6135bb816135a0565b81146135c657600080fd5b50565b6000813590506135d8816135b2565b92915050565b6000602082840312156135f4576135f36132f7565b5b6000613602848285016135c9565b91505092915050565b600081519050919050565b600082825260208201905092915050565b6000819050602082019050919050565b61364081613364565b82525050565b600081519050919050565b600082825260208201905092915050565b60005b83811015613680578082015181840152602081019050613665565b8381111561368f576000848401525b50505050565b60006136a082613646565b6136aa8185613651565b93506136ba818560208601613662565b6136c3816133a2565b840191505092915050565b6136d7816135a0565b82525050565b6136e681613301565b82525050565b60008115159050919050565b613701816136ec565b82525050565b7f4e487b7100000000000000000000000000000000000000000000000000000000600052602160045260246000fd5b6002811061374757613746613707565b5b50565b600081905061375882613736565b919050565b60006137688261374a565b9050919050565b6137788161375d565b82525050565b60006101a0830160008301516137976000860182613637565b50602083015184820360208601526137af8282613695565b91505060408301516137c46040860182613637565b5060608301516137d760608601826136ce565b5060808301516137ea60808601826136ce565b5060a08301516137fd60a0860182613637565b5060c083015161381060c0860182613637565b5060e083015161382360e08601826136dd565b50610100830151613838610100860182613637565b5061012083015161384d610120860182613637565b506101408301516138626101408601826136f8565b50610160830151613877610160860182613637565b5061018083015161388c61018086018261376f565b508091505092915050565b60006138a3838361377e565b905092915050565b6000602082019050919050565b60006138c38261360b565b6138cd8185613616565b9350836020820285016138df85613627565b8060005b8581101561391b57848403895281516138fc8582613897565b9450613907836138ab565b925060208a019950506001810190506138e3565b50829750879550505050505092915050565b6000602082019050818103600083015261394781846138b8565b905092915050565b600060ff82169050919050565b6139658161394f565b82525050565b6000602082019050613980600083018461395c565b92915050565b61398f816136ec565b82525050565b60006020820190506139aa6000830184613986565b92915050565b600080604083850312156139c7576139c66132f7565b5b600083013567ffffffffffffffff8111156139e5576139e46132fc565b5b6139f1858286016134b0565b9250506020613a0285828601613322565b9150509250929050565b600067ffffffffffffffff821115613a2757613a266133b3565b5b613a30826133a2565b9050602081019050919050565b6000613a50613a4b84613a0c565b613413565b905082815260208101848484011115613a6c57613a6b61339d565b5b613a7784828561345f565b509392505050565b600082601f830112613a9457613a93613398565b5b8135613aa4848260208601613a3d565b91505092915050565b60028110613aba57600080fd5b50565b600081359050613acc81613aad565b92915050565b60008060008060008060c08789031215613aef57613aee6132f7565b5b600087013567ffffffffffffffff811115613b0d57613b0c6132fc565b5b613b1989828a01613a7f565b9650506020613b2a89828a0161353e565b9550506040613b3b89828a0161353e565b9450506060613b4c89828a0161353e565b9350506080613b5d89828a01613abd565b92505060a0613b6e89828a01613322565b9150509295509295509295565b600067ffffffffffffffff821115613b9657613b956133b3565b5b602082029050602081019050919050565b600080fd5b6000613bbf613bba84613b7b565b613413565b90508083825260208201905060208402830185811115613be257613be1613ba7565b5b835b81811015613c0b5780613bf7888261353e565b845260208401935050602081019050613be4565b5050509392505050565b600082601f830112613c2a57613c29613398565b5b8135613c3a848260208601613bac565b91505092915050565b600060208284031215613c5957613c586132f7565b5b600082013567ffffffffffffffff811115613c7757613c766132fc565b5b613c8384828501613c15565b91505092915050565b613c95816136ec565b8114613ca057600080fd5b50565b600081359050613cb281613c8c565b92915050565b600060208284031215613cce57613ccd6132f7565b5b6000613cdc84828501613ca3565b91505092915050565b600081519050919050565b600082825260208201905092915050565b6000613d0c82613ce5565b613d168185613cf0565b9350613d26818560208601613662565b613d2f816133a2565b840191505092915050565b60006020820190508181036000830152613d548184613d01565b905092915050565b60006101a083016000830151613d756000860182613637565b5060208301518482036020860152613d8d8282613695565b9150506040830151613da26040860182613637565b506060830151613db560608601826136ce565b506080830151613dc860808601826136ce565b5060a0830151613ddb60a0860182613637565b5060c0830151613dee60c0860182613637565b5060e0830151613e0160e08601826136dd565b50610100830151613e16610100860182613637565b50610120830151613e2b610120860182613637565b50610140830151613e406101408601826136f8565b50610160830151613e55610160860182613637565b50610180830151613e6a61018086018261376f565b508091505092915050565b60006020820190508181036000830152613e8f8184613d5c565b905092915050565b7f4e487b7100000000000000000000000000000000000000000000000000000000600052601160045260246000fd5b6000613ed182613364565b91507fffffffffffffffffffffffffffffffffffffffffffffffffffffffffffffffff8203613f0357613f02613e97565b5b600182019050919050565b7f4e487b7100000000000000000000000000000000000000000000000000000000600052602260045260246000fd5b60006002820490506001821680613f5557607f821691505b602082108103613f6857613f67613f0e565b5b50919050565b7f4e487b7100000000000000000000000000000000000000000000000000000000600052603260045260246000fd5b600082825260208201905092915050565b7f4163657074206572726f72000000000000000000000000000000000000000000600082015250565b6000613fe4600b83613f9d565b9150613fef82613fae565b602082019050919050565b6000602082019050818103600083015261401381613fd7565b9050919050565b7f496e73756666696369656e742066756e64730000000000000000000000000000600082015250565b6000614050601283613f9d565b915061405b8261401a565b602082019050919050565b6000602082019050818103600083015261407f81614043565b9050919050565b61408f816135a0565b82525050565b60006020820190506140aa6000830184614086565b92915050565b7f596f752063616e27742072656d6f7665204368616c6c656e6765000000000000600082015250565b60006140e6601a83613f9d565b91506140f1826140b0565b602082019050919050565b60006020820190508181036000830152614115816140d9565b9050919050565b61412581613301565b82525050565b6000602082019050614140600083018461411c565b92915050565b600081905092915050565b600061415c82613ce5565b6141668185614146565b9350614176818560208601613662565b80840191505092915050565b600061418e8285614151565b915061419a8284614151565b91508190509392505050565b60006141b28284614151565b915081905092915050565b7f596f752073686f756c642061747461636820736f6d65204465706f7369740000600082015250565b60006141f3601e83613f9d565b91506141fe826141bd565b602082019050919050565b60006020820190508181036000830152614222816141e6565b9050919050565b60008190508160005260206000209050919050565b6000815461424b81613f3d565b6142558186613cf0565b945060018216600081146142705760018114614282576142b5565b60ff19831686526020860193506142b5565b61428b85614229565b60005b838110156142ad5781548189015260018201915060208101905061428e565b808801955050505b50505092915050565b60006040820190506142d3600083018561336e565b81810360208301526142e5818461423e565b90509392505050565b60006142f982613364565b915061430483613364565b9250827fffffffffffffffffffffffffffffffffffffffffffffffffffffffffffffffff0382111561433957614338613e97565b5b828201905092915050565b7f4974656d206e6f7420666f756e64000000000000000000000000000000000000600082015250565b600061437a600e83613f9d565b915061438582614344565b602082019050919050565b600060208201905081810360008301526143a98161436d565b9050919050565b60006143bb82613364565b91506143c683613364565b9250817fffffffffffffffffffffffffffffffffffffffffffffffffffffffffffffffff04831182151516156143ff576143fe613e97565b5b828202905092915050565b7f4e487b7100000000000000000000000000000000000000000000000000000000600052601260045260246000fd5b600061444482613364565b915061444f83613364565b92508261445f5761445e61440a565b5b828204905092915050565b600061447582613364565b915061448083613364565b92508282101561449357614492613e97565b5b828203905092915050565b7f4e487b7100000000000000000000000000000000000000000000000000000000600052603160045260246000fd5b60006040820190506144e2600083018561336e565b6144ef602083018461336e565b9392505050565b600061450182613364565b915061450c83613364565b92508261451c5761451b61440a565b5b828206905092915050565b600060808201905061453c600083018761411c565b614549602083018661395c565b614556604083018561411c565b614563606083018461411c565b9594505050505056fea2646970667358221220ba5486e5c32a4827007681f052cc2c8857f909f3ffca6479e9a99e5c6234097664736f6c634300080e0033",
  "linkReferences": {},
  "deployedLinkReferences": {}
}