{
  "_format": "hh-sol-artifact-1",
  "contractName": "PriceChallenge",
  "sourceName": "smart_contract/contracts/PriceChallenge.sol",
  "abi": [
    {
      "inputs": [
        {
          "internalType": "uint256",
          "name": "_start_time",
          "type": "uint256"
        }
      ],
      "stateMutability": "nonpayable",
      "type": "constructor"
    },
    {
      "inputs": [],
      "name": "CalldataMustHaveValidPayload",
      "type": "error"
    },
    {
      "inputs": [],
      "name": "CalldataOverOrUnderFlow",
      "type": "error"
    },
    {
      "inputs": [],
      "name": "CanNotPickMedianOfEmptyArray",
      "type": "error"
    },
    {
      "inputs": [
        {
          "internalType": "string",
          "name": "message",
          "type": "string"
        }
      ],
      "name": "CantChange",
      "type": "error"
    },
    {
      "inputs": [
        {
          "internalType": "string",
          "name": "message",
          "type": "string"
        }
      ],
      "name": "DateExpired",
      "type": "error"
    },
    {
      "inputs": [],
      "name": "EachSignerMustProvideTheSameValue",
      "type": "error"
    },
    {
      "inputs": [],
      "name": "EmptyCalldataPointersArr",
      "type": "error"
    },
    {
      "inputs": [],
      "name": "IncorrectUnsignedMetadataSize",
      "type": "error"
    },
    {
      "inputs": [
        {
          "internalType": "string",
          "name": "message",
          "type": "string"
        }
      ],
      "name": "InsufficientAmount",
      "type": "error"
    },
    {
      "inputs": [
        {
          "internalType": "uint256",
          "name": "receivedSignersCount",
          "type": "uint256"
        },
        {
          "internalType": "uint256",
          "name": "requiredSignersCount",
          "type": "uint256"
        }
      ],
      "name": "InsufficientNumberOfUniqueSigners",
      "type": "error"
    },
    {
      "inputs": [],
      "name": "InvalidCalldataPointer",
      "type": "error"
    },
    {
      "inputs": [
        {
          "internalType": "string",
          "name": "message",
          "type": "string"
        }
      ],
      "name": "InvalidParams",
      "type": "error"
    },
    {
      "inputs": [
        {
          "internalType": "string",
          "name": "message",
          "type": "string"
        }
      ],
      "name": "NotFound",
      "type": "error"
    },
    {
      "inputs": [
        {
          "internalType": "address",
          "name": "receivedSigner",
          "type": "address"
        }
      ],
      "name": "SignerNotAuthorised",
      "type": "error"
    },
    {
      "inputs": [
        {
          "internalType": "uint256",
          "name": "receivedTimestampSeconds",
          "type": "uint256"
        },
        {
          "internalType": "uint256",
          "name": "blockTimestamp",
          "type": "uint256"
        }
      ],
      "name": "TimestampFromTooLongFuture",
      "type": "error"
    },
    {
      "inputs": [
        {
          "internalType": "uint256",
          "name": "receivedTimestampSeconds",
          "type": "uint256"
        },
        {
          "internalType": "uint256",
          "name": "blockTimestamp",
          "type": "uint256"
        }
      ],
      "name": "TimestampIsTooOld",
      "type": "error"
    },
    {
      "anonymous": false,
      "inputs": [
        {
          "indexed": false,
          "internalType": "uint256",
          "name": "time",
          "type": "uint256"
        },
        {
          "indexed": false,
          "internalType": "bytes",
          "name": "payload",
          "type": "bytes"
        }
      ],
      "name": "UpdatePayload",
      "type": "event"
    },
    {
      "inputs": [
        {
          "internalType": "uint256",
          "name": "_id",
          "type": "uint256"
        }
      ],
      "name": "accept",
      "outputs": [],
      "stateMutability": "payable",
      "type": "function"
    },
    {
      "inputs": [
        {
          "internalType": "uint256[]",
          "name": "values",
          "type": "uint256[]"
        }
      ],
      "name": "aggregateValues",
      "outputs": [
        {
          "internalType": "uint256",
          "name": "",
          "type": "uint256"
        }
      ],
      "stateMutability": "view",
      "type": "function"
    },
    {
      "inputs": [
        {
          "internalType": "bool",
          "name": "active",
          "type": "bool"
        }
      ],
      "name": "allChallenges",
      "outputs": [
        {
          "components": [
            {
              "internalType": "uint256",
              "name": "id",
              "type": "uint256"
            },
            {
              "internalType": "string",
              "name": "name",
              "type": "string"
            },
            {
              "internalType": "uint256",
              "name": "cof",
              "type": "uint256"
            },
            {
              "internalType": "address",
              "name": "maker",
              "type": "address"
            },
            {
              "internalType": "address",
              "name": "taker",
              "type": "address"
            },
            {
              "internalType": "uint256",
              "name": "paid_maker",
              "type": "uint256"
            },
            {
              "internalType": "uint256",
              "name": "paid_taker",
              "type": "uint256"
            },
            {
              "internalType": "bytes32",
              "name": "token_symbol",
              "type": "bytes32"
            },
            {
              "internalType": "uint256",
              "name": "created_date",
              "type": "uint256"
            },
            {
              "internalType": "uint256",
              "name": "deadline_date",
              "type": "uint256"
            },
            {
              "internalType": "bool",
              "name": "finished",
              "type": "bool"
            },
            {
              "internalType": "uint256",
              "name": "prediction_price",
              "type": "uint256"
            },
            {
              "internalType": "enum PriceChallenge.PredictionType",
              "name": "prediction_type",
              "type": "uint8"
            }
          ],
          "internalType": "struct PriceChallenge.ChallengeStruct[]",
          "name": "",
          "type": "tuple[]"
        }
      ],
      "stateMutability": "view",
      "type": "function"
    },
    {
      "inputs": [
        {
          "internalType": "string",
          "name": "_name",
          "type": "string"
        },
        {
          "internalType": "uint256",
          "name": "_cof",
          "type": "uint256"
        },
        {
          "internalType": "uint256",
          "name": "_deadline_date",
          "type": "uint256"
        },
        {
          "internalType": "uint256",
          "name": "_price_prediction",
          "type": "uint256"
        },
        {
          "internalType": "enum PriceChallenge.PredictionType",
          "name": "_prediction_type",
          "type": "uint8"
        },
        {
          "internalType": "bytes32",
          "name": "_token_symbol",
          "type": "bytes32"
        }
      ],
      "name": "create",
      "outputs": [],
      "stateMutability": "payable",
      "type": "function"
    },
    {
      "inputs": [
        {
          "internalType": "bytes",
          "name": "redstonePayload",
          "type": "bytes"
        }
      ],
      "name": "cronCall",
      "outputs": [],
      "stateMutability": "nonpayable",
      "type": "function"
    },
    {
      "inputs": [
        {
          "internalType": "address",
          "name": "signerAddress",
          "type": "address"
        }
      ],
      "name": "getAuthorisedSignerIndex",
      "outputs": [
        {
          "internalType": "uint8",
          "name": "",
          "type": "uint8"
        }
      ],
      "stateMutability": "view",
      "type": "function"
    },
    {
      "inputs": [
        {
          "internalType": "uint256",
          "name": "_id",
          "type": "uint256"
        }
      ],
      "name": "getById",
      "outputs": [
        {
          "components": [
            {
              "internalType": "uint256",
              "name": "id",
              "type": "uint256"
            },
            {
              "internalType": "string",
              "name": "name",
              "type": "string"
            },
            {
              "internalType": "uint256",
              "name": "cof",
              "type": "uint256"
            },
            {
              "internalType": "address",
              "name": "maker",
              "type": "address"
            },
            {
              "internalType": "address",
              "name": "taker",
              "type": "address"
            },
            {
              "internalType": "uint256",
              "name": "paid_maker",
              "type": "uint256"
            },
            {
              "internalType": "uint256",
              "name": "paid_taker",
              "type": "uint256"
            },
            {
              "internalType": "bytes32",
              "name": "token_symbol",
              "type": "bytes32"
            },
            {
              "internalType": "uint256",
              "name": "created_date",
              "type": "uint256"
            },
            {
              "internalType": "uint256",
              "name": "deadline_date",
              "type": "uint256"
            },
            {
              "internalType": "bool",
              "name": "finished",
              "type": "bool"
            },
            {
              "internalType": "uint256",
              "name": "prediction_price",
              "type": "uint256"
            },
            {
              "internalType": "enum PriceChallenge.PredictionType",
              "name": "prediction_type",
              "type": "uint8"
            }
          ],
          "internalType": "struct PriceChallenge.ChallengeStruct",
          "name": "",
          "type": "tuple"
        }
      ],
      "stateMutability": "view",
      "type": "function"
    },
    {
      "inputs": [
        {
          "internalType": "bytes",
          "name": "redstonePayload",
          "type": "bytes"
        },
        {
          "internalType": "bytes32",
          "name": "assetDataFeedId",
          "type": "bytes32"
        }
      ],
      "name": "getLatestPrice",
      "outputs": [
        {
          "internalType": "uint256",
          "name": "",
          "type": "uint256"
        }
      ],
      "stateMutability": "view",
      "type": "function"
    },
    {
      "inputs": [],
      "name": "getUniqueSignersThreshold",
      "outputs": [
        {
          "internalType": "uint8",
          "name": "",
          "type": "uint8"
        }
      ],
      "stateMutability": "view",
      "type": "function"
    },
    {
      "inputs": [
        {
          "internalType": "address",
          "name": "u_address",
          "type": "address"
        }
      ],
      "name": "getUserChallenges",
      "outputs": [
        {
          "components": [
            {
              "internalType": "uint256",
              "name": "id",
              "type": "uint256"
            },
            {
              "internalType": "string",
              "name": "name",
              "type": "string"
            },
            {
              "internalType": "uint256",
              "name": "cof",
              "type": "uint256"
            },
            {
              "internalType": "address",
              "name": "maker",
              "type": "address"
            },
            {
              "internalType": "address",
              "name": "taker",
              "type": "address"
            },
            {
              "internalType": "uint256",
              "name": "paid_maker",
              "type": "uint256"
            },
            {
              "internalType": "uint256",
              "name": "paid_taker",
              "type": "uint256"
            },
            {
              "internalType": "bytes32",
              "name": "token_symbol",
              "type": "bytes32"
            },
            {
              "internalType": "uint256",
              "name": "created_date",
              "type": "uint256"
            },
            {
              "internalType": "uint256",
              "name": "deadline_date",
              "type": "uint256"
            },
            {
              "internalType": "bool",
              "name": "finished",
              "type": "bool"
            },
            {
              "internalType": "uint256",
              "name": "prediction_price",
              "type": "uint256"
            },
            {
              "internalType": "enum PriceChallenge.PredictionType",
              "name": "prediction_type",
              "type": "uint8"
            }
          ],
          "internalType": "struct PriceChallenge.ChallengeStruct[]",
          "name": "",
          "type": "tuple[]"
        }
      ],
      "stateMutability": "view",
      "type": "function"
    },
    {
      "inputs": [],
      "name": "id",
      "outputs": [
        {
          "internalType": "uint256",
          "name": "",
          "type": "uint256"
        }
      ],
      "stateMutability": "view",
      "type": "function"
    },
    {
      "inputs": [],
      "name": "payloadData",
      "outputs": [
        {
          "internalType": "bytes",
          "name": "",
          "type": "bytes"
        }
      ],
      "stateMutability": "view",
      "type": "function"
    },
    {
      "inputs": [
        {
          "internalType": "bytes32",
          "name": "assetId",
          "type": "bytes32"
        }
      ],
      "name": "proxyRequestToBaseContract",
      "outputs": [
        {
          "internalType": "uint256",
          "name": "",
          "type": "uint256"
        }
      ],
      "stateMutability": "view",
      "type": "function"
    },
    {
      "inputs": [
        {
          "internalType": "uint256",
          "name": "_id",
          "type": "uint256"
        }
      ],
      "name": "remove",
      "outputs": [
        {
          "internalType": "bool",
          "name": "",
          "type": "bool"
        }
      ],
      "stateMutability": "nonpayable",
      "type": "function"
    },
    {
      "inputs": [
        {
          "internalType": "uint256",
          "name": "_i",
          "type": "uint256"
        }
      ],
      "name": "setWinner",
      "outputs": [],
      "stateMutability": "nonpayable",
      "type": "function"
    },
    {
      "inputs": [
        {
          "internalType": "bytes",
          "name": "redstonePayload",
          "type": "bytes"
        }
      ],
      "name": "updatePayload",
      "outputs": [],
      "stateMutability": "nonpayable",
      "type": "function"
    },
    {
      "inputs": [],
      "name": "updateTime",
      "outputs": [
        {
          "internalType": "uint256",
          "name": "",
          "type": "uint256"
        }
      ],
      "stateMutability": "view",
      "type": "function"
    },
    {
      "inputs": [
        {
          "internalType": "uint256",
          "name": "receivedTimestampMilliseconds",
          "type": "uint256"
        }
      ],
      "name": "validateTimestamp",
      "outputs": [],
      "stateMutability": "view",
      "type": "function"
    }
  ],
  "bytecode": "0x60806040523480156200001157600080fd5b506040516200463c3803806200463c833981810160405281019062000037919062000085565b8060028190555050620000b7565b600080fd5b6000819050919050565b6200005f816200004a565b81146200006b57600080fd5b50565b6000815190506200007f8162000054565b92915050565b6000602082840312156200009e576200009d62000045565b5b6000620000ae848285016200006e565b91505092915050565b61457580620000c76000396000f3fe6080604052600436106101095760003560e01c8063af640d0f11610095578063dc55509011610064578063dc55509014610397578063dc984dd4146103c2578063f4f4d237146103ed578063f50b2efe1461042a578063f90c49241461045357610109565b8063af640d0f146102c9578063b1234e43146102f4578063b24ebfcc1461031d578063c758b77a1461035a57610109565b806319b05f49116100dc57806319b05f49146101da5780633ce142f5146101f65780634cc82215146102335780637ce0533e14610270578063a3b5db3f146102ad57610109565b806302c323d61461010e578063065330241461014b5780630df716021461017457806311da8e541461019d575b600080fd5b34801561011a57600080fd5b506101356004803603810190610130919061330a565b61047e565b6040516101429190613350565b60405180910390f35b34801561015757600080fd5b50610172600480360381019061016d91906134b1565b610490565b005b34801561018057600080fd5b5061019b60048036038101906101969190613526565b6104d3565b005b3480156101a957600080fd5b506101c460048036038101906101bf91906135b1565b61098c565b6040516101d19190613900565b60405180910390f35b6101f460048036038101906101ef9190613526565b610cd6565b005b34801561020257600080fd5b5061021d600480360381019061021891906135b1565b610e9b565b60405161022a919061393e565b60405180910390f35b34801561023f57600080fd5b5061025a60048036038101906102559190613526565b610f2f565b6040516102679190613968565b60405180910390f35b34801561027c57600080fd5b5061029760048036038101906102929190613983565b6113b8565b6040516102a49190613350565b60405180910390f35b6102c760048036038101906102c29190613aa5565b611502565b005b3480156102d557600080fd5b506102de6117c8565b6040516102eb9190613350565b60405180910390f35b34801561030057600080fd5b5061031b600480360381019061031691906134b1565b6117ce565b005b34801561032957600080fd5b50610344600480360381019061033f9190613c16565b61182b565b6040516103519190613350565b60405180910390f35b34801561036657600080fd5b50610381600480360381019061037c9190613c8b565b61183d565b60405161038e9190613900565b60405180910390f35b3480156103a357600080fd5b506103ac611d37565b6040516103b99190613350565b60405180910390f35b3480156103ce57600080fd5b506103d7611d3d565b6040516103e49190613d0d565b60405180910390f35b3480156103f957600080fd5b50610414600480360381019061040f9190613526565b611dcb565b6040516104219190613e48565b60405180910390f35b34801561043657600080fd5b50610451600480360381019061044c9190613526565b611fdd565b005b34801561045f57600080fd5b50610468611fe9565b604051610475919061393e565b60405180910390f35b600061048982611ff2565b9050919050565b610499816117ce565b60005b6000548110156104cf576104af8161208e565b156104be576104bd816104d3565b5b806104c890613e99565b905061049c565b5050565b600060036000838152602001908152602001600020604051806101a00160405290816000820154815260200160018201805461050e90613f10565b80601f016020809104026020016040519081016040528092919081815260200182805461053a90613f10565b80156105875780601f1061055c57610100808354040283529160200191610587565b820191906000526020600020905b81548152906001019060200180831161056a57829003601f168201915b50505050508152602001600282015481526020016003820160009054906101000a900473ffffffffffffffffffffffffffffffffffffffff1673ffffffffffffffffffffffffffffffffffffffff1673ffffffffffffffffffffffffffffffffffffffff1681526020016004820160009054906101000a900473ffffffffffffffffffffffffffffffffffffffff1673ffffffffffffffffffffffffffffffffffffffff1673ffffffffffffffffffffffffffffffffffffffff1681526020016005820154815260200160068201548152602001600782015481526020016008820154815260200160098201548152602001600a820160009054906101000a900460ff16151515158152602001600b8201548152602001600c820160009054906101000a900460ff1660018111156106c2576106c16136da565b5b60018111156106d4576106d36136da565b5b8152505090506000610774600180546106ec90613f10565b80601f016020809104026020016040519081016040528092919081815260200182805461071890613f10565b80156107655780601f1061073a57610100808354040283529160200191610765565b820191906000526020600020905b81548152906001019060200180831161074857829003601f168201915b50505050508360e001516113b8565b9050600061078a8360a001518460c00151612124565b905060008060018111156107a1576107a06136da565b5b84610180015160018111156107b9576107b86136da565b5b1480156107ca575083610160015183115b156107d457600190505b6001808111156107e7576107e66136da565b5b84610180015160018111156107ff576107fe6136da565b5b148015610810575083610160015183105b1561081a57600190505b80156108bd576003600086815260200190815260200160002060030160009054906101000a900473ffffffffffffffffffffffffffffffffffffffff1673ffffffffffffffffffffffffffffffffffffffff166108fc839081150290604051600060405180830381858888f1935050505015801561089c573d6000803e3d6000fd5b50816003600087815260200190815260200160002060050181905550610956565b6003600086815260200190815260200160002060040160009054906101000a900473ffffffffffffffffffffffffffffffffffffffff1673ffffffffffffffffffffffffffffffffffffffff166108fc839081150290604051600060405180830381858888f19350505050158015610939573d6000803e3d6000fd5b508160036000878152602001908152602001600020600601819055505b600160036000878152602001908152602001600020600a0160006101000a81548160ff0219169083151502179055505050505050565b60606000600460008473ffffffffffffffffffffffffffffffffffffffff1673ffffffffffffffffffffffffffffffffffffffff16815260200190815260200160002080549050905060008167ffffffffffffffff8111156109f1576109f0613386565b5b604051908082528060200260200182016040528015610a2a57816020015b610a176130ac565b815260200190600190039081610a0f5790505b50905060005b82811015610ccb576000600460008773ffffffffffffffffffffffffffffffffffffffff1673ffffffffffffffffffffffffffffffffffffffff1681526020019081526020016000208281548110610a8b57610a8a613f41565b5b9060005260206000200154905060036000828152602001908152602001600020604051806101a001604052908160008201548152602001600182018054610ad190613f10565b80601f0160208091040260200160405190810160405280929190818152602001828054610afd90613f10565b8015610b4a5780601f10610b1f57610100808354040283529160200191610b4a565b820191906000526020600020905b815481529060010190602001808311610b2d57829003601f168201915b50505050508152602001600282015481526020016003820160009054906101000a900473ffffffffffffffffffffffffffffffffffffffff1673ffffffffffffffffffffffffffffffffffffffff1673ffffffffffffffffffffffffffffffffffffffff1681526020016004820160009054906101000a900473ffffffffffffffffffffffffffffffffffffffff1673ffffffffffffffffffffffffffffffffffffffff1673ffffffffffffffffffffffffffffffffffffffff1681526020016005820154815260200160068201548152602001600782015481526020016008820154815260200160098201548152602001600a820160009054906101000a900460ff16151515158152602001600b8201548152602001600c820160009054906101000a900460ff166001811115610c8557610c846136da565b5b6001811115610c9757610c966136da565b5b81525050838381518110610cae57610cad613f41565b5b60200260200101819052505080610cc490613e99565b9050610a30565b508092505050919050565b6000610ce18261213a565b9050600073ffffffffffffffffffffffffffffffffffffffff16816080015173ffffffffffffffffffffffffffffffffffffffff1614610d56576040517fef7d78ef000000000000000000000000000000000000000000000000000000008152600401610d4d90613fcd565b60405180910390fd5b6000610d7b610d6d8360a001518460400151612399565b670de0b6b3a76400006123af565b905080341015610dc0576040517f4817ec2e000000000000000000000000000000000000000000000000000000008152600401610db790614039565b60405180910390fd5b336003600085815260200190815260200160002060040160006101000a81548173ffffffffffffffffffffffffffffffffffffffff021916908373ffffffffffffffffffffffffffffffffffffffff160217905550346003600085815260200190815260200160002060060181905550600460003373ffffffffffffffffffffffffffffffffffffffff1673ffffffffffffffffffffffffffffffffffffffff168152602001908152602001600020839080600181540180825580915050600190039060005260206000200160009091909190915055505050565b6000730c39486f770b26f5527bbbf942726537986cd7eb73ffffffffffffffffffffffffffffffffffffffff168273ffffffffffffffffffffffffffffffffffffffff1603610eed5760009050610f2a565b816040517fec459bc0000000000000000000000000000000000000000000000000000000008152600401610f219190614068565b60405180910390fd5b919050565b60008060036000848152602001908152602001600020604051806101a001604052908160008201548152602001600182018054610f6b90613f10565b80601f0160208091040260200160405190810160405280929190818152602001828054610f9790613f10565b8015610fe45780601f10610fb957610100808354040283529160200191610fe4565b820191906000526020600020905b815481529060010190602001808311610fc757829003601f168201915b50505050508152602001600282015481526020016003820160009054906101000a900473ffffffffffffffffffffffffffffffffffffffff1673ffffffffffffffffffffffffffffffffffffffff1673ffffffffffffffffffffffffffffffffffffffff1681526020016004820160009054906101000a900473ffffffffffffffffffffffffffffffffffffffff1673ffffffffffffffffffffffffffffffffffffffff1673ffffffffffffffffffffffffffffffffffffffff1681526020016005820154815260200160068201548152602001600782015481526020016008820154815260200160098201548152602001600a820160009054906101000a900460ff16151515158152602001600b8201548152602001600c820160009054906101000a900460ff16600181111561111f5761111e6136da565b5b6001811115611131576111306136da565b5b8152505090503373ffffffffffffffffffffffffffffffffffffffff16816060015173ffffffffffffffffffffffffffffffffffffffff161415806111a75750600073ffffffffffffffffffffffffffffffffffffffff16816080015173ffffffffffffffffffffffffffffffffffffffff1614155b156111e7576040517fef7d78ef0000000000000000000000000000000000000000000000000000000081526004016111de906140cf565b60405180910390fd5b600360008481526020019081526020016000206000808201600090556001820160006112139190613157565b60028201600090556003820160006101000a81549073ffffffffffffffffffffffffffffffffffffffff02191690556004820160006101000a81549073ffffffffffffffffffffffffffffffffffffffff021916905560058201600090556006820160009055600782016000905560088201600090556009820160009055600a820160006101000a81549060ff0219169055600b820160009055600c820160006101000a81549060ff0219169055505060008061130e85600460003373ffffffffffffffffffffffffffffffffffffffff1673ffffffffffffffffffffffffffffffffffffffff1681526020019081526020016000206123c5565b9150915080156113ac573373ffffffffffffffffffffffffffffffffffffffff166108fc8460a001519081150290604051600060405180830381858888f19350505050158015611362573d6000803e3d6000fd5b506113ab82600460003373ffffffffffffffffffffffffffffffffffffffff1673ffffffffffffffffffffffffffffffffffffffff168152602001908152602001600020612429565b5b60019350505050919050565b600080826040516024016113cc91906140fe565b6040516020818303038152906040527f02c323d6000000000000000000000000000000000000000000000000000000007bffffffffffffffffffffffffffffffffffffffffffffffffffffffff19166020820180517bffffffffffffffffffffffffffffffffffffffffffffffffffffffff8381831617835250505050905060008185604051602001611460929190614155565b60405160208183030381529060405290506000803073ffffffffffffffffffffffffffffffffffffffff16836040516114999190614179565b600060405180830381855afa9150503d80600081146114d4576040519150601f19603f3d011682016040523d82523d6000602084013e6114d9565b606091505b50915091506000826114ed57815182602001fd5b60208201519050809550505050505092915050565b6000341015611546576040517f4817ec2e00000000000000000000000000000000000000000000000000000000815260040161153d906141dc565b60405180910390fd5b60006115506124de565b90506000604051806101a001604052808381526020018981526020018881526020013373ffffffffffffffffffffffffffffffffffffffff168152602001600073ffffffffffffffffffffffffffffffffffffffff168152602001348152602001600081526020018481526020014281526020018781526020016000151581526020018681526020018560018111156115ec576115eb6136da565b5b8152509050806003600084815260200190815260200160002060008201518160000155602082015181600101908051906020019061162b929190613197565b506040820151816002015560608201518160030160006101000a81548173ffffffffffffffffffffffffffffffffffffffff021916908373ffffffffffffffffffffffffffffffffffffffff16021790555060808201518160040160006101000a81548173ffffffffffffffffffffffffffffffffffffffff021916908373ffffffffffffffffffffffffffffffffffffffff16021790555060a0820151816005015560c0820151816006015560e082015181600701556101008201518160080155610120820151816009015561014082015181600a0160006101000a81548160ff02191690831515021790555061016082015181600b015561018082015181600c0160006101000a81548160ff021916908360018111156117505761174f6136da565b5b0217905550905050600460003373ffffffffffffffffffffffffffffffffffffffff1673ffffffffffffffffffffffffffffffffffffffff1681526020019081526020016000208290806001815401808255809150506001900390600052602060002001600090919091909150555050505050505050565b60005481565b80600190805190602001906117e492919061321d565b50426002819055507f9e534d77e50344538151d7045dc713181f1a216e48611e89921d7f6dbf0244f66002546001604051611820929190614291565b60405180910390a150565b6000611836826124fb565b9050919050565b60606000805467ffffffffffffffff81111561185c5761185b613386565b5b60405190808252806020026020018201604052801561189557816020015b6118826130ac565b81526020019060019003908161187a5790505b50905060005b600054811015611d2d578315611afa5760036000828152602001908152602001600020600a0160009054906101000a900460ff16611af55760036000828152602001908152602001600020604051806101a00160405290816000820154815260200160018201805461190c90613f10565b80601f016020809104026020016040519081016040528092919081815260200182805461193890613f10565b80156119855780601f1061195a57610100808354040283529160200191611985565b820191906000526020600020905b81548152906001019060200180831161196857829003601f168201915b50505050508152602001600282015481526020016003820160009054906101000a900473ffffffffffffffffffffffffffffffffffffffff1673ffffffffffffffffffffffffffffffffffffffff1673ffffffffffffffffffffffffffffffffffffffff1681526020016004820160009054906101000a900473ffffffffffffffffffffffffffffffffffffffff1673ffffffffffffffffffffffffffffffffffffffff1673ffffffffffffffffffffffffffffffffffffffff1681526020016005820154815260200160068201548152602001600782015481526020016008820154815260200160098201548152602001600a820160009054906101000a900460ff16151515158152602001600b8201548152602001600c820160009054906101000a900460ff166001811115611ac057611abf6136da565b5b6001811115611ad257611ad16136da565b5b81525050828281518110611ae957611ae8613f41565b5b60200260200101819052505b611d1c565b60036000828152602001908152602001600020604051806101a001604052908160008201548152602001600182018054611b3390613f10565b80601f0160208091040260200160405190810160405280929190818152602001828054611b5f90613f10565b8015611bac5780601f10611b8157610100808354040283529160200191611bac565b820191906000526020600020905b815481529060010190602001808311611b8f57829003601f168201915b50505050508152602001600282015481526020016003820160009054906101000a900473ffffffffffffffffffffffffffffffffffffffff1673ffffffffffffffffffffffffffffffffffffffff1673ffffffffffffffffffffffffffffffffffffffff1681526020016004820160009054906101000a900473ffffffffffffffffffffffffffffffffffffffff1673ffffffffffffffffffffffffffffffffffffffff1673ffffffffffffffffffffffffffffffffffffffff1681526020016005820154815260200160068201548152602001600782015481526020016008820154815260200160098201548152602001600a820160009054906101000a900460ff16151515158152602001600b8201548152602001600c820160009054906101000a900460ff166001811115611ce757611ce66136da565b5b6001811115611cf957611cf86136da565b5b81525050828281518110611d1057611d0f613f41565b5b60200260200101819052505b80611d2690613e99565b905061189b565b5080915050919050565b60025481565b60018054611d4a90613f10565b80601f0160208091040260200160405190810160405280929190818152602001828054611d7690613f10565b8015611dc35780601f10611d9857610100808354040283529160200191611dc3565b820191906000526020600020905b815481529060010190602001808311611da657829003601f168201915b505050505081565b611dd36130ac565b60036000838152602001908152602001600020604051806101a001604052908160008201548152602001600182018054611e0c90613f10565b80601f0160208091040260200160405190810160405280929190818152602001828054611e3890613f10565b8015611e855780601f10611e5a57610100808354040283529160200191611e85565b820191906000526020600020905b815481529060010190602001808311611e6857829003601f168201915b50505050508152602001600282015481526020016003820160009054906101000a900473ffffffffffffffffffffffffffffffffffffffff1673ffffffffffffffffffffffffffffffffffffffff1673ffffffffffffffffffffffffffffffffffffffff1681526020016004820160009054906101000a900473ffffffffffffffffffffffffffffffffffffffff1673ffffffffffffffffffffffffffffffffffffffff1673ffffffffffffffffffffffffffffffffffffffff1681526020016005820154815260200160068201548152602001600782015481526020016008820154815260200160098201548152602001600a820160009054906101000a900460ff16151515158152602001600b8201548152602001600c820160009054906101000a900460ff166001811115611fc057611fbf6136da565b5b6001811115611fd257611fd16136da565b5b815250509050919050565b611fe68161250d565b50565b60006001905090565b600080600167ffffffffffffffff8111156120105761200f613386565b5b60405190808252806020026020018201604052801561203e5781602001602082028036833780820191505090505b509050828160008151811061205657612055613f41565b5b60200260200101818152505061206b816125d7565b60008151811061207e5761207d613f41565b5b6020026020010151915050919050565b600060036000838152602001908152602001600020600a0160009054906101000a900460ff161580156120d857506000600360008481526020019081526020016000206005015414155b80156120fb57506000600360008481526020019081526020016000206006015414155b801561211d575042600360008481526020019081526020016000206009015411155b9050919050565b6000818361213291906142c1565b905092915050565b6121426130ac565b600060036000848152602001908152602001600020604051806101a00160405290816000820154815260200160018201805461217d90613f10565b80601f01602080910402602001604051908101604052809291908181526020018280546121a990613f10565b80156121f65780601f106121cb576101008083540402835291602001916121f6565b820191906000526020600020905b8154815290600101906020018083116121d957829003601f168201915b50505050508152602001600282015481526020016003820160009054906101000a900473ffffffffffffffffffffffffffffffffffffffff1673ffffffffffffffffffffffffffffffffffffffff1673ffffffffffffffffffffffffffffffffffffffff1681526020016004820160009054906101000a900473ffffffffffffffffffffffffffffffffffffffff1673ffffffffffffffffffffffffffffffffffffffff1673ffffffffffffffffffffffffffffffffffffffff1681526020016005820154815260200160068201548152602001600782015481526020016008820154815260200160098201548152602001600a820160009054906101000a900460ff16151515158152602001600b8201548152602001600c820160009054906101000a900460ff166001811115612331576123306136da565b5b6001811115612343576123426136da565b5b81525050905060008160a0015103612390576040517f607be5dc00000000000000000000000000000000000000000000000000000000815260040161238790614363565b60405180910390fd5b80915050919050565b600081836123a79190614383565b905092915050565b600081836123bd919061440c565b905092915050565b60008060005b838054905081101561241957848482815481106123eb576123ea613f41565b5b906000526020600020015403612408578060019250925050612422565b8061241290613e99565b90506123cb565b50600080915091505b9250929050565b80805490508210156124da5760008290505b6001828054905061244c919061443d565b8110156124b1578160018261246191906142c1565b8154811061247257612471613f41565b5b90600052602060002001548282815481106124905761248f613f41565b5b906000526020600020018190555080806124a990613e99565b91505061243b565b50808054806124c3576124c2614471565b5b600190038181906000526020600020016000905590555b5050565b60008060008154809291906124f290613e99565b91905055905090565b6000612506826125e9565b9050919050565b60006103e88261251d919061440c565b90508042101561257f57603c4282612535919061443d565b111561257a5780426040517fb6b0916d0000000000000000000000000000000000000000000000000000000081526004016125719291906144a0565b60405180910390fd5b6125d3565b60b4814261258d919061443d565b11156125d25780426040517f0321d0b50000000000000000000000000000000000000000000000000000000081526004016125c99291906144a0565b60405180910390fd5b5b5050565b60606125e2826126dd565b9050919050565b600080825103612625576040517f9e198af900000000000000000000000000000000000000000000000000000000815260040160405180910390fd5b61262e826128ec565b60006002835161263e919061440c565b905060006002845161265091906144c9565b036126b95760006126a184600184612668919061443d565b8151811061267957612678613f41565b5b602002602001015185848151811061269457612693613f41565b5b6020026020010151612124565b90506002816126b0919061440c565b925050506126d8565b8281815181106126cc576126cb613f41565b5b60200260200101519150505b919050565b60606000825167ffffffffffffffff8111156126fc576126fb613386565b5b60405190808252806020026020018201604052801561272a5781602001602082028036833780820191505090505b5090506000835167ffffffffffffffff81111561274a57612749613386565b5b6040519080825280602002602001820160405280156127785781602001602082028036833780820191505090505b5090506000845167ffffffffffffffff81111561279857612797613386565b5b6040519080825280602002602001820160405280156127cb57816020015b60608152602001906001900390816127b65790505b50905060005b855181101561285e576127e2611fe9565b60ff1667ffffffffffffffff8111156127fe576127fd613386565b5b60405190808252806020026020018201604052801561282c5781602001602082028036833780820191505090505b508282815181106128405761283f613f41565b5b6020026020010181905250808061285690613e99565b9150506127d1565b50600061286961293f565b9050600061287682612a50565b61ffff16905060028261288991906142c1565b91506000604051905060005b828110156128d45760006128ac8a89898989612aac565b905080856128ba91906142c1565b9450826040525080806128cc90613e99565b915050612895565b506128df8487612da4565b9650505050505050919050565b805160208201602082028101815b8181101561293857825b8181101561292c57815181518082101561291f578084528183525b5050602081019050612904565b506020810190506128fa565b5050505050565b60008060203603356602ed57011e000081166602ed57011e00001491505080612994576040517fe7764c9e00000000000000000000000000000000000000000000000000000000815260040160405180910390fd5b600080369050602911156129d4576040517f5796f78a00000000000000000000000000000000000000000000000000000000815260040160405180910390fd5b602936033590506000600960038362ffffff166129f191906142c1565b6129fb91906142c1565b90506000369050600282612a0f91906142c1565b1115612a47576040517fc30a7bd700000000000000000000000000000000000000000000000000000000815260040160405180910390fd5b80935050505090565b600080602083612a6091906142c1565b90506000369050811115612aa0576040517f5796f78a00000000000000000000000000000000000000000000000000000000815260040160405180910390fd5b80360335915050919050565b600080600080612abb85612ef1565b91509150600080600060606000600d612ae9602088612ada91906142c1565b8961239990919063ffffffff16565b612af391906142c1565b90506000612b1a60688c612b0791906142c1565b6000369050612f6790919063ffffffff16565b90506000612b4c8360418e612b2f91906142c1565b612b3991906142c1565b6000369050612f6790919063ffffffff16565b9050612b588382612b86565b9350826020850120945081359650612ba2565b60006040519050818152602081019050818101604052919050565b6000612b9183612b6b565b838382376020810391505092915050565b612bb38765ffffffffffff16611fdd565b612bc98560418e612bc491906142c1565b612f7d565b9550612bd486610e9b565b60ff1699505050505050505060008060005b84811015612d6f57612bf9888583612ffc565b809350819450505060005b8c51811015612d5b578c8181518110612c2057612c1f613f41565b5b60200260200101518403612d485760008b8281518110612c4357612c42613f41565b5b60200260200101519050612c578189613082565b158015612c875750612c67611fe9565b60ff168d8381518110612c7d57612c7c613f41565b5b6020026020010151105b15612d42578c8281518110612c9f57612c9e613f41565b5b602002602001018051809190612cb490613e99565b81525050838b8381518110612ccc57612ccb613f41565b5b602002602001015160018f8581518110612ce957612ce8613f41565b5b6020026020010151612cfb919061443d565b81518110612d0c57612d0b613f41565b5b602002602001018181525050612d22818961309b565b8c8381518110612d3557612d34613f41565b5b6020026020010181815250505b50612d5b565b8080612d5390613e99565b915050612c04565b508080612d6790613e99565b915050612be6565b50505081602082612d8091906142c1565b612d8a9190614383565b604e612d9691906142c1565b935050505095945050505050565b60606000835167ffffffffffffffff811115612dc357612dc2613386565b5b604051908082528060200260200182016040528015612df15781602001602082028036833780820191505090505b5090506000612dfe611fe9565b60ff16905060005b8551811015612ee55781858281518110612e2357612e22613f41565b5b60200260200101511015612e8a57848181518110612e4457612e43613f41565b5b6020026020010151826040517f2b13aef5000000000000000000000000000000000000000000000000000000008152600401612e819291906144a0565b60405180910390fd5b6000612eaf878381518110612ea257612ea1613f41565b5b602002602001015161182b565b905080848381518110612ec557612ec4613f41565b5b602002602001018181525050508080612edd90613e99565b915050612e06565b50819250505092915050565b6000806000806000604186612f0691906142c1565b90506000612f2d602083612f1a91906142c1565b6000369050612f6790919063ffffffff16565b905080359350612f47600382612f6790919063ffffffff16565b9050803592508362ffffff1695508263ffffffff16945050505050915091565b60008183612f75919061443d565b905092915050565b6000806000808436038035935060208101905080359250602081019050803560001a91505060018682858560405160008152602001604052604051612fc594939291906144fa565b6020604051602081039080840390855afa158015612fe7573d6000803e3d6000fd5b50505060206040510351935050505092915050565b6000806000604e8661300e91906142c1565b9050600061304f61304060208861302591906142c1565b87600161303291906142c1565b61239990919063ffffffff16565b8361212490919063ffffffff16565b9050600061306a826000369050612f6790919063ffffffff16565b90508035945060208101359350505050935093915050565b600080826001901b841690506000811191505092915050565b6000816001901b8317905092915050565b604051806101a00160405280600081526020016060815260200160008152602001600073ffffffffffffffffffffffffffffffffffffffff168152602001600073ffffffffffffffffffffffffffffffffffffffff16815260200160008152602001600081526020016000801916815260200160008152602001600081526020016000151581526020016000815260200160006001811115613151576131506136da565b5b81525090565b50805461316390613f10565b6000825580601f106131755750613194565b601f01602090049060005260206000209081019061319391906132a3565b5b50565b8280546131a390613f10565b90600052602060002090601f0160209004810192826131c5576000855561320c565b82601f106131de57805160ff191683800117855561320c565b8280016001018555821561320c579182015b8281111561320b5782518255916020019190600101906131f0565b5b50905061321991906132a3565b5090565b82805461322990613f10565b90600052602060002090601f01602090048101928261324b5760008555613292565b82601f1061326457805160ff1916838001178555613292565b82800160010185558215613292579182015b82811115613291578251825591602001919060010190613276565b5b50905061329f91906132a3565b5090565b5b808211156132bc5760008160009055506001016132a4565b5090565b6000604051905090565b600080fd5b600080fd5b6000819050919050565b6132e7816132d4565b81146132f257600080fd5b50565b600081359050613304816132de565b92915050565b6000602082840312156133205761331f6132ca565b5b600061332e848285016132f5565b91505092915050565b6000819050919050565b61334a81613337565b82525050565b60006020820190506133656000830184613341565b92915050565b600080fd5b600080fd5b6000601f19601f8301169050919050565b7f4e487b7100000000000000000000000000000000000000000000000000000000600052604160045260246000fd5b6133be82613375565b810181811067ffffffffffffffff821117156133dd576133dc613386565b5b80604052505050565b60006133f06132c0565b90506133fc82826133b5565b919050565b600067ffffffffffffffff82111561341c5761341b613386565b5b61342582613375565b9050602081019050919050565b82818337600083830152505050565b600061345461344f84613401565b6133e6565b9050828152602081018484840111156134705761346f613370565b5b61347b848285613432565b509392505050565b600082601f8301126134985761349761336b565b5b81356134a8848260208601613441565b91505092915050565b6000602082840312156134c7576134c66132ca565b5b600082013567ffffffffffffffff8111156134e5576134e46132cf565b5b6134f184828501613483565b91505092915050565b61350381613337565b811461350e57600080fd5b50565b600081359050613520816134fa565b92915050565b60006020828403121561353c5761353b6132ca565b5b600061354a84828501613511565b91505092915050565b600073ffffffffffffffffffffffffffffffffffffffff82169050919050565b600061357e82613553565b9050919050565b61358e81613573565b811461359957600080fd5b50565b6000813590506135ab81613585565b92915050565b6000602082840312156135c7576135c66132ca565b5b60006135d58482850161359c565b91505092915050565b600081519050919050565b600082825260208201905092915050565b6000819050602082019050919050565b61361381613337565b82525050565b600081519050919050565b600082825260208201905092915050565b60005b83811015613653578082015181840152602081019050613638565b83811115613662576000848401525b50505050565b600061367382613619565b61367d8185613624565b935061368d818560208601613635565b61369681613375565b840191505092915050565b6136aa81613573565b82525050565b6136b9816132d4565b82525050565b60008115159050919050565b6136d4816136bf565b82525050565b7f4e487b7100000000000000000000000000000000000000000000000000000000600052602160045260246000fd5b6002811061371a576137196136da565b5b50565b600081905061372b82613709565b919050565b600061373b8261371d565b9050919050565b61374b81613730565b82525050565b60006101a08301600083015161376a600086018261360a565b50602083015184820360208601526137828282613668565b9150506040830151613797604086018261360a565b5060608301516137aa60608601826136a1565b5060808301516137bd60808601826136a1565b5060a08301516137d060a086018261360a565b5060c08301516137e360c086018261360a565b5060e08301516137f660e08601826136b0565b5061010083015161380b61010086018261360a565b5061012083015161382061012086018261360a565b506101408301516138356101408601826136cb565b5061016083015161384a61016086018261360a565b5061018083015161385f610180860182613742565b508091505092915050565b60006138768383613751565b905092915050565b6000602082019050919050565b6000613896826135de565b6138a081856135e9565b9350836020820285016138b2856135fa565b8060005b858110156138ee57848403895281516138cf858261386a565b94506138da8361387e565b925060208a019950506001810190506138b6565b50829750879550505050505092915050565b6000602082019050818103600083015261391a818461388b565b905092915050565b600060ff82169050919050565b61393881613922565b82525050565b6000602082019050613953600083018461392f565b92915050565b613962816136bf565b82525050565b600060208201905061397d6000830184613959565b92915050565b6000806040838503121561399a576139996132ca565b5b600083013567ffffffffffffffff8111156139b8576139b76132cf565b5b6139c485828601613483565b92505060206139d5858286016132f5565b9150509250929050565b600067ffffffffffffffff8211156139fa576139f9613386565b5b613a0382613375565b9050602081019050919050565b6000613a23613a1e846139df565b6133e6565b905082815260208101848484011115613a3f57613a3e613370565b5b613a4a848285613432565b509392505050565b600082601f830112613a6757613a6661336b565b5b8135613a77848260208601613a10565b91505092915050565b60028110613a8d57600080fd5b50565b600081359050613a9f81613a80565b92915050565b60008060008060008060c08789031215613ac257613ac16132ca565b5b600087013567ffffffffffffffff811115613ae057613adf6132cf565b5b613aec89828a01613a52565b9650506020613afd89828a01613511565b9550506040613b0e89828a01613511565b9450506060613b1f89828a01613511565b9350506080613b3089828a01613a90565b92505060a0613b4189828a016132f5565b9150509295509295509295565b600067ffffffffffffffff821115613b6957613b68613386565b5b602082029050602081019050919050565b600080fd5b6000613b92613b8d84613b4e565b6133e6565b90508083825260208201905060208402830185811115613bb557613bb4613b7a565b5b835b81811015613bde5780613bca8882613511565b845260208401935050602081019050613bb7565b5050509392505050565b600082601f830112613bfd57613bfc61336b565b5b8135613c0d848260208601613b7f565b91505092915050565b600060208284031215613c2c57613c2b6132ca565b5b600082013567ffffffffffffffff811115613c4a57613c496132cf565b5b613c5684828501613be8565b91505092915050565b613c68816136bf565b8114613c7357600080fd5b50565b600081359050613c8581613c5f565b92915050565b600060208284031215613ca157613ca06132ca565b5b6000613caf84828501613c76565b91505092915050565b600081519050919050565b600082825260208201905092915050565b6000613cdf82613cb8565b613ce98185613cc3565b9350613cf9818560208601613635565b613d0281613375565b840191505092915050565b60006020820190508181036000830152613d278184613cd4565b905092915050565b60006101a083016000830151613d48600086018261360a565b5060208301518482036020860152613d608282613668565b9150506040830151613d75604086018261360a565b506060830151613d8860608601826136a1565b506080830151613d9b60808601826136a1565b5060a0830151613dae60a086018261360a565b5060c0830151613dc160c086018261360a565b5060e0830151613dd460e08601826136b0565b50610100830151613de961010086018261360a565b50610120830151613dfe61012086018261360a565b50610140830151613e136101408601826136cb565b50610160830151613e2861016086018261360a565b50610180830151613e3d610180860182613742565b508091505092915050565b60006020820190508181036000830152613e628184613d2f565b905092915050565b7f4e487b7100000000000000000000000000000000000000000000000000000000600052601160045260246000fd5b6000613ea482613337565b91507fffffffffffffffffffffffffffffffffffffffffffffffffffffffffffffffff8203613ed657613ed5613e6a565b5b600182019050919050565b7f4e487b7100000000000000000000000000000000000000000000000000000000600052602260045260246000fd5b60006002820490506001821680613f2857607f821691505b602082108103613f3b57613f3a613ee1565b5b50919050565b7f4e487b7100000000000000000000000000000000000000000000000000000000600052603260045260246000fd5b600082825260208201905092915050565b7f4163657074206572726f72000000000000000000000000000000000000000000600082015250565b6000613fb7600b83613f70565b9150613fc282613f81565b602082019050919050565b60006020820190508181036000830152613fe681613faa565b9050919050565b7f496e73756666696369656e742066756e64730000000000000000000000000000600082015250565b6000614023601283613f70565b915061402e82613fed565b602082019050919050565b6000602082019050818103600083015261405281614016565b9050919050565b61406281613573565b82525050565b600060208201905061407d6000830184614059565b92915050565b7f596f752063616e27742072656d6f7665204368616c6c656e6765000000000000600082015250565b60006140b9601a83613f70565b91506140c482614083565b602082019050919050565b600060208201905081810360008301526140e8816140ac565b9050919050565b6140f8816132d4565b82525050565b600060208201905061411360008301846140ef565b92915050565b600081905092915050565b600061412f82613cb8565b6141398185614119565b9350614149818560208601613635565b80840191505092915050565b60006141618285614124565b915061416d8284614124565b91508190509392505050565b60006141858284614124565b915081905092915050565b7f596f752073686f756c642061747461636820736f6d65204465706f7369740000600082015250565b60006141c6601e83613f70565b91506141d182614190565b602082019050919050565b600060208201905081810360008301526141f5816141b9565b9050919050565b60008190508160005260206000209050919050565b6000815461421e81613f10565b6142288186613cc3565b94506001821660008114614243576001811461425557614288565b60ff1983168652602086019350614288565b61425e856141fc565b60005b8381101561428057815481890152600182019150602081019050614261565b808801955050505b50505092915050565b60006040820190506142a66000830185613341565b81810360208301526142b88184614211565b90509392505050565b60006142cc82613337565b91506142d783613337565b9250827fffffffffffffffffffffffffffffffffffffffffffffffffffffffffffffffff0382111561430c5761430b613e6a565b5b828201905092915050565b7f4974656d206e6f7420666f756e64000000000000000000000000000000000000600082015250565b600061434d600e83613f70565b915061435882614317565b602082019050919050565b6000602082019050818103600083015261437c81614340565b9050919050565b600061438e82613337565b915061439983613337565b9250817fffffffffffffffffffffffffffffffffffffffffffffffffffffffffffffffff04831182151516156143d2576143d1613e6a565b5b828202905092915050565b7f4e487b7100000000000000000000000000000000000000000000000000000000600052601260045260246000fd5b600061441782613337565b915061442283613337565b925082614432576144316143dd565b5b828204905092915050565b600061444882613337565b915061445383613337565b92508282101561446657614465613e6a565b5b828203905092915050565b7f4e487b7100000000000000000000000000000000000000000000000000000000600052603160045260246000fd5b60006040820190506144b56000830185613341565b6144c26020830184613341565b9392505050565b60006144d482613337565b91506144df83613337565b9250826144ef576144ee6143dd565b5b828206905092915050565b600060808201905061450f60008301876140ef565b61451c602083018661392f565b61452960408301856140ef565b61453660608301846140ef565b9594505050505056fea264697066735822122050495fadb8a0796fbc63a1bb3ad838df09542a2d9ba6f895847db915b3333e3c64736f6c634300080e0033",
  "linkReferences": {},
  "deployedLinkReferences": {}
}