{
  "_format": "hh-sol-artifact-1",
  "contractName": "PriceChallenge",
  "sourceName": "smart_contract/contracts/PriceChallenge.sol",
  "abi": [
    {
      "inputs": [
        {
          "internalType": "string",
          "name": "message",
          "type": "string"
        }
      ],
      "name": "CantChange",
      "type": "error"
    },
    {
      "inputs": [
        {
          "internalType": "string",
          "name": "message",
          "type": "string"
        }
      ],
      "name": "DateExpired",
      "type": "error"
    },
    {
      "inputs": [
        {
          "internalType": "string",
          "name": "message",
          "type": "string"
        }
      ],
      "name": "InsufficientAmount",
      "type": "error"
    },
    {
      "inputs": [
        {
          "internalType": "string",
          "name": "message",
          "type": "string"
        }
      ],
      "name": "InvalidParams",
      "type": "error"
    },
    {
      "inputs": [
        {
          "internalType": "string",
          "name": "message",
          "type": "string"
        }
      ],
      "name": "NotFound",
      "type": "error"
    },
    {
      "inputs": [
        {
          "internalType": "uint256",
          "name": "_id",
          "type": "uint256"
        }
      ],
      "name": "accept",
      "outputs": [],
      "stateMutability": "payable",
      "type": "function"
    },
    {
      "inputs": [
        {
          "internalType": "bool",
          "name": "active",
          "type": "bool"
        }
      ],
      "name": "allChallenges",
      "outputs": [
        {
          "components": [
            {
              "internalType": "uint256",
              "name": "id",
              "type": "uint256"
            },
            {
              "internalType": "string",
              "name": "name",
              "type": "string"
            },
            {
              "internalType": "uint256",
              "name": "cof",
              "type": "uint256"
            },
            {
              "internalType": "address",
              "name": "maker",
              "type": "address"
            },
            {
              "internalType": "address",
              "name": "taker",
              "type": "address"
            },
            {
              "internalType": "uint256",
              "name": "paid_maker",
              "type": "uint256"
            },
            {
              "internalType": "uint256",
              "name": "paid_taker",
              "type": "uint256"
            },
            {
              "internalType": "address",
              "name": "token_address",
              "type": "address"
            },
            {
              "internalType": "uint256",
              "name": "created_date",
              "type": "uint256"
            },
            {
              "internalType": "uint256",
              "name": "deadline_date",
              "type": "uint256"
            },
            {
              "internalType": "bool",
              "name": "finished",
              "type": "bool"
            },
            {
              "internalType": "uint256",
              "name": "prediction_price",
              "type": "uint256"
            },
            {
              "internalType": "enum PriceChallenge.PredictionType",
              "name": "prediction_type",
              "type": "uint8"
            }
          ],
          "internalType": "struct PriceChallenge.ChallengeStruct[]",
          "name": "",
          "type": "tuple[]"
        }
      ],
      "stateMutability": "view",
      "type": "function"
    },
    {
      "inputs": [
        {
          "internalType": "string",
          "name": "_name",
          "type": "string"
        },
        {
          "internalType": "uint256",
          "name": "_cof",
          "type": "uint256"
        },
        {
          "internalType": "uint256",
          "name": "_deadline_date",
          "type": "uint256"
        },
        {
          "internalType": "address",
          "name": "_token_address",
          "type": "address"
        },
        {
          "internalType": "uint256",
          "name": "_price_prediction",
          "type": "uint256"
        },
        {
          "internalType": "enum PriceChallenge.PredictionType",
          "name": "_prediction_type",
          "type": "uint8"
        }
      ],
      "name": "create",
      "outputs": [],
      "stateMutability": "payable",
      "type": "function"
    },
    {
      "inputs": [],
      "name": "cronCall",
      "outputs": [],
      "stateMutability": "nonpayable",
      "type": "function"
    },
    {
      "inputs": [
        {
          "internalType": "address",
          "name": "tokenAddress",
          "type": "address"
        }
      ],
      "name": "cronPriceFeed",
      "outputs": [
        {
          "internalType": "int256",
          "name": "",
          "type": "int256"
        }
      ],
      "stateMutability": "view",
      "type": "function"
    },
    {
      "inputs": [
        {
          "internalType": "uint256",
          "name": "_id",
          "type": "uint256"
        }
      ],
      "name": "getById",
      "outputs": [
        {
          "components": [
            {
              "internalType": "uint256",
              "name": "id",
              "type": "uint256"
            },
            {
              "internalType": "string",
              "name": "name",
              "type": "string"
            },
            {
              "internalType": "uint256",
              "name": "cof",
              "type": "uint256"
            },
            {
              "internalType": "address",
              "name": "maker",
              "type": "address"
            },
            {
              "internalType": "address",
              "name": "taker",
              "type": "address"
            },
            {
              "internalType": "uint256",
              "name": "paid_maker",
              "type": "uint256"
            },
            {
              "internalType": "uint256",
              "name": "paid_taker",
              "type": "uint256"
            },
            {
              "internalType": "address",
              "name": "token_address",
              "type": "address"
            },
            {
              "internalType": "uint256",
              "name": "created_date",
              "type": "uint256"
            },
            {
              "internalType": "uint256",
              "name": "deadline_date",
              "type": "uint256"
            },
            {
              "internalType": "bool",
              "name": "finished",
              "type": "bool"
            },
            {
              "internalType": "uint256",
              "name": "prediction_price",
              "type": "uint256"
            },
            {
              "internalType": "enum PriceChallenge.PredictionType",
              "name": "prediction_type",
              "type": "uint8"
            }
          ],
          "internalType": "struct PriceChallenge.ChallengeStruct",
          "name": "",
          "type": "tuple"
        }
      ],
      "stateMutability": "view",
      "type": "function"
    },
    {
      "inputs": [
        {
          "internalType": "address",
          "name": "u_address",
          "type": "address"
        }
      ],
      "name": "getUserChallenges",
      "outputs": [
        {
          "components": [
            {
              "internalType": "uint256",
              "name": "id",
              "type": "uint256"
            },
            {
              "internalType": "string",
              "name": "name",
              "type": "string"
            },
            {
              "internalType": "uint256",
              "name": "cof",
              "type": "uint256"
            },
            {
              "internalType": "address",
              "name": "maker",
              "type": "address"
            },
            {
              "internalType": "address",
              "name": "taker",
              "type": "address"
            },
            {
              "internalType": "uint256",
              "name": "paid_maker",
              "type": "uint256"
            },
            {
              "internalType": "uint256",
              "name": "paid_taker",
              "type": "uint256"
            },
            {
              "internalType": "address",
              "name": "token_address",
              "type": "address"
            },
            {
              "internalType": "uint256",
              "name": "created_date",
              "type": "uint256"
            },
            {
              "internalType": "uint256",
              "name": "deadline_date",
              "type": "uint256"
            },
            {
              "internalType": "bool",
              "name": "finished",
              "type": "bool"
            },
            {
              "internalType": "uint256",
              "name": "prediction_price",
              "type": "uint256"
            },
            {
              "internalType": "enum PriceChallenge.PredictionType",
              "name": "prediction_type",
              "type": "uint8"
            }
          ],
          "internalType": "struct PriceChallenge.ChallengeStruct[]",
          "name": "",
          "type": "tuple[]"
        }
      ],
      "stateMutability": "view",
      "type": "function"
    },
    {
      "inputs": [],
      "name": "id",
      "outputs": [
        {
          "internalType": "uint256",
          "name": "",
          "type": "uint256"
        }
      ],
      "stateMutability": "view",
      "type": "function"
    },
    {
      "inputs": [
        {
          "internalType": "uint256",
          "name": "_id",
          "type": "uint256"
        }
      ],
      "name": "remove",
      "outputs": [
        {
          "internalType": "bool",
          "name": "",
          "type": "bool"
        }
      ],
      "stateMutability": "nonpayable",
      "type": "function"
    },
    {
      "inputs": [
        {
          "internalType": "uint256",
          "name": "_i",
          "type": "uint256"
        }
      ],
      "name": "setWinner",
      "outputs": [],
      "stateMutability": "nonpayable",
      "type": "function"
    }
  ],
  "bytecode": "0x608060405234801561001057600080fd5b506131d1806100206000396000f3fe6080604052600436106100915760003560e01c80636b1fda5a116100595780636b1fda5a14610171578063af640d0f146101ae578063c758b77a146101d9578063d333e25a14610216578063f4f4d2371461022d57610091565b80630df716021461009657806311da8e54146100bf57806319b05f49146100fc5780634af00e3d146101185780634cc8221514610134575b600080fd5b3480156100a257600080fd5b506100bd60048036038101906100b891906123d8565b61026a565b005b3480156100cb57600080fd5b506100e660048036038101906100e19190612463565b6106e3565b6040516100f391906127b4565b60405180910390f35b610116600480360381019061011191906123d8565b610a79565b005b610132600480360381019061012d9190612930565b610c3e565b005b34801561014057600080fd5b5061015b600480360381019061015691906123d8565b610f57565b60405161016891906129e8565b60405180910390f35b34801561017d57600080fd5b5061019860048036038101906101939190612463565b61144b565b6040516101a59190612a1c565b60405180910390f35b3480156101ba57600080fd5b506101c36114d2565b6040516101d09190612a46565b60405180910390f35b3480156101e557600080fd5b5061020060048036038101906101fb9190612a8d565b6114d8565b60405161020d91906127b4565b60405180910390f35b34801561022257600080fd5b5061022b611a6a565b005b34801561023957600080fd5b50610254600480360381019061024f91906123d8565b611ad0565b6040516102619190612bd3565b60405180910390f35b600060016000838152602001908152602001600020604051806101a0016040529081600082015481526020016001820180546102a590612c24565b80601f01602080910402602001604051908101604052809291908181526020018280546102d190612c24565b801561031e5780601f106102f35761010080835404028352916020019161031e565b820191906000526020600020905b81548152906001019060200180831161030157829003601f168201915b50505050508152602001600282015481526020016003820160009054906101000a900473ffffffffffffffffffffffffffffffffffffffff1673ffffffffffffffffffffffffffffffffffffffff1673ffffffffffffffffffffffffffffffffffffffff1681526020016004820160009054906101000a900473ffffffffffffffffffffffffffffffffffffffff1673ffffffffffffffffffffffffffffffffffffffff1673ffffffffffffffffffffffffffffffffffffffff16815260200160058201548152602001600682015481526020016007820160009054906101000a900473ffffffffffffffffffffffffffffffffffffffff1673ffffffffffffffffffffffffffffffffffffffff1673ffffffffffffffffffffffffffffffffffffffff1681526020016008820154815260200160098201548152602001600a820160009054906101000a900460ff16151515158152602001600b8201548152602001600c820160009054906101000a900460ff1660018111156104a5576104a461258e565b5b60018111156104b7576104b661258e565b5b81525050905060006104cc8260e0015161144b565b905060006104e28360a001518460c00151611d2e565b905060008060018111156104f9576104f861258e565b5b84610180015160018111156105115761051061258e565b5b148015610522575083610160015183115b1561052c57600190505b60018081111561053f5761053e61258e565b5b84610180015160018111156105575761055661258e565b5b148015610568575083610160015183105b1561057257600190505b8015610615576001600086815260200190815260200160002060030160009054906101000a900473ffffffffffffffffffffffffffffffffffffffff1673ffffffffffffffffffffffffffffffffffffffff166108fc839081150290604051600060405180830381858888f193505050501580156105f4573d6000803e3d6000fd5b508160016000878152602001908152602001600020600501819055506106ae565b6001600086815260200190815260200160002060040160009054906101000a900473ffffffffffffffffffffffffffffffffffffffff1673ffffffffffffffffffffffffffffffffffffffff166108fc839081150290604051600060405180830381858888f19350505050158015610691573d6000803e3d6000fd5b508160016000878152602001908152602001600020600601819055505b6001806000878152602001908152602001600020600a0160006101000a81548160ff0219169083151502179055505050505050565b60606000600260008473ffffffffffffffffffffffffffffffffffffffff1673ffffffffffffffffffffffffffffffffffffffff16815260200190815260200160002080549050905060008167ffffffffffffffff811115610748576107476127e0565b5b60405190808252806020026020018201604052801561078157816020015b61076e6121ed565b8152602001906001900390816107665790505b50905060005b82811015610a6e576000600260008773ffffffffffffffffffffffffffffffffffffffff1673ffffffffffffffffffffffffffffffffffffffff16815260200190815260200160002082815481106107e2576107e1612c56565b5b9060005260206000200154905060016000828152602001908152602001600020604051806101a00160405290816000820154815260200160018201805461082890612c24565b80601f016020809104026020016040519081016040528092919081815260200182805461085490612c24565b80156108a15780601f10610876576101008083540402835291602001916108a1565b820191906000526020600020905b81548152906001019060200180831161088457829003601f168201915b50505050508152602001600282015481526020016003820160009054906101000a900473ffffffffffffffffffffffffffffffffffffffff1673ffffffffffffffffffffffffffffffffffffffff1673ffffffffffffffffffffffffffffffffffffffff1681526020016004820160009054906101000a900473ffffffffffffffffffffffffffffffffffffffff1673ffffffffffffffffffffffffffffffffffffffff1673ffffffffffffffffffffffffffffffffffffffff16815260200160058201548152602001600682015481526020016007820160009054906101000a900473ffffffffffffffffffffffffffffffffffffffff1673ffffffffffffffffffffffffffffffffffffffff1673ffffffffffffffffffffffffffffffffffffffff1681526020016008820154815260200160098201548152602001600a820160009054906101000a900460ff16151515158152602001600b8201548152602001600c820160009054906101000a900460ff166001811115610a2857610a2761258e565b5b6001811115610a3a57610a3961258e565b5b81525050838381518110610a5157610a50612c56565b5b60200260200101819052505080610a6790612cb4565b9050610787565b508092505050919050565b6000610a8482611d44565b9050600073ffffffffffffffffffffffffffffffffffffffff16816080015173ffffffffffffffffffffffffffffffffffffffff1614610af9576040517fef7d78ef000000000000000000000000000000000000000000000000000000008152600401610af090612d5a565b60405180910390fd5b6000610b1e610b108360a001518460400151611ff0565b670de0b6b3a7640000612006565b905080341015610b63576040517f4817ec2e000000000000000000000000000000000000000000000000000000008152600401610b5a90612dc6565b60405180910390fd5b336001600085815260200190815260200160002060040160006101000a81548173ffffffffffffffffffffffffffffffffffffffff021916908373ffffffffffffffffffffffffffffffffffffffff160217905550346001600085815260200190815260200160002060060181905550600260003373ffffffffffffffffffffffffffffffffffffffff1673ffffffffffffffffffffffffffffffffffffffff168152602001908152602001600020839080600181540180825580915050600190039060005260206000200160009091909190915055505050565b6000341015610c82576040517f4817ec2e000000000000000000000000000000000000000000000000000000008152600401610c7990612e32565b60405180910390fd5b6000610c8c61201c565b90506000604051806101a001604052808381526020018981526020018881526020013373ffffffffffffffffffffffffffffffffffffffff168152602001600073ffffffffffffffffffffffffffffffffffffffff168152602001348152602001600081526020018673ffffffffffffffffffffffffffffffffffffffff168152602001428152602001878152602001600015158152602001858152602001846001811115610d3e57610d3d61258e565b5b81525090508060016000848152602001908152602001600020600082015181600001556020820151816001019080519060200190610d7d9291906122ab565b506040820151816002015560608201518160030160006101000a81548173ffffffffffffffffffffffffffffffffffffffff021916908373ffffffffffffffffffffffffffffffffffffffff16021790555060808201518160040160006101000a81548173ffffffffffffffffffffffffffffffffffffffff021916908373ffffffffffffffffffffffffffffffffffffffff16021790555060a0820151816005015560c0820151816006015560e08201518160070160006101000a81548173ffffffffffffffffffffffffffffffffffffffff021916908373ffffffffffffffffffffffffffffffffffffffff1602179055506101008201518160080155610120820151816009015561014082015181600a0160006101000a81548160ff02191690831515021790555061016082015181600b015561018082015181600c0160006101000a81548160ff02191690836001811115610edf57610ede61258e565b5b0217905550905050600260003373ffffffffffffffffffffffffffffffffffffffff1673ffffffffffffffffffffffffffffffffffffffff1681526020019081526020016000208290806001815401808255809150506001900390600052602060002001600090919091909150555050505050505050565b60008060016000848152602001908152602001600020604051806101a001604052908160008201548152602001600182018054610f9390612c24565b80601f0160208091040260200160405190810160405280929190818152602001828054610fbf90612c24565b801561100c5780601f10610fe15761010080835404028352916020019161100c565b820191906000526020600020905b815481529060010190602001808311610fef57829003601f168201915b50505050508152602001600282015481526020016003820160009054906101000a900473ffffffffffffffffffffffffffffffffffffffff1673ffffffffffffffffffffffffffffffffffffffff1673ffffffffffffffffffffffffffffffffffffffff1681526020016004820160009054906101000a900473ffffffffffffffffffffffffffffffffffffffff1673ffffffffffffffffffffffffffffffffffffffff1673ffffffffffffffffffffffffffffffffffffffff16815260200160058201548152602001600682015481526020016007820160009054906101000a900473ffffffffffffffffffffffffffffffffffffffff1673ffffffffffffffffffffffffffffffffffffffff1673ffffffffffffffffffffffffffffffffffffffff1681526020016008820154815260200160098201548152602001600a820160009054906101000a900460ff16151515158152602001600b8201548152602001600c820160009054906101000a900460ff1660018111156111935761119261258e565b5b60018111156111a5576111a461258e565b5b8152505090503373ffffffffffffffffffffffffffffffffffffffff16816060015173ffffffffffffffffffffffffffffffffffffffff1614158061121b5750600073ffffffffffffffffffffffffffffffffffffffff16816080015173ffffffffffffffffffffffffffffffffffffffff1614155b1561125b576040517fef7d78ef00000000000000000000000000000000000000000000000000000000815260040161125290612e9e565b60405180910390fd5b600160008481526020019081526020016000206000808201600090556001820160006112879190612331565b60028201600090556003820160006101000a81549073ffffffffffffffffffffffffffffffffffffffff02191690556004820160006101000a81549073ffffffffffffffffffffffffffffffffffffffff0219169055600582016000905560068201600090556007820160006101000a81549073ffffffffffffffffffffffffffffffffffffffff021916905560088201600090556009820160009055600a820160006101000a81549060ff0219169055600b820160009055600c820160006101000a81549060ff021916905550506000806113a185600260003373ffffffffffffffffffffffffffffffffffffffff1673ffffffffffffffffffffffffffffffffffffffff168152602001908152602001600020612039565b91509150801561143f573373ffffffffffffffffffffffffffffffffffffffff166108fc8460a001519081150290604051600060405180830381858888f193505050501580156113f5573d6000803e3d6000fd5b5061143e82600260003373ffffffffffffffffffffffffffffffffffffffff1673ffffffffffffffffffffffffffffffffffffffff16815260200190815260200160002061209e565b5b60019350505050919050565b60008082905060008173ffffffffffffffffffffffffffffffffffffffff1663feaf968c6040518163ffffffff1660e01b815260040160a060405180830381865afa15801561149e573d6000803e3d6000fd5b505050506040513d601f19601f820116820180604052508101906114c29190612f41565b5050509150508092505050919050565b60005481565b60606000805467ffffffffffffffff8111156114f7576114f66127e0565b5b60405190808252806020026020018201604052801561153057816020015b61151d6121ed565b8152602001906001900390816115155790505b50905060005b600054811015611a605783156117e15760016000828152602001908152602001600020600a0160009054906101000a900460ff166117dc5760016000828152602001908152602001600020604051806101a0016040529081600082015481526020016001820180546115a790612c24565b80601f01602080910402602001604051908101604052809291908181526020018280546115d390612c24565b80156116205780601f106115f557610100808354040283529160200191611620565b820191906000526020600020905b81548152906001019060200180831161160357829003601f168201915b50505050508152602001600282015481526020016003820160009054906101000a900473ffffffffffffffffffffffffffffffffffffffff1673ffffffffffffffffffffffffffffffffffffffff1673ffffffffffffffffffffffffffffffffffffffff1681526020016004820160009054906101000a900473ffffffffffffffffffffffffffffffffffffffff1673ffffffffffffffffffffffffffffffffffffffff1673ffffffffffffffffffffffffffffffffffffffff16815260200160058201548152602001600682015481526020016007820160009054906101000a900473ffffffffffffffffffffffffffffffffffffffff1673ffffffffffffffffffffffffffffffffffffffff1673ffffffffffffffffffffffffffffffffffffffff1681526020016008820154815260200160098201548152602001600a820160009054906101000a900460ff16151515158152602001600b8201548152602001600c820160009054906101000a900460ff1660018111156117a7576117a661258e565b5b60018111156117b9576117b861258e565b5b815250508282815181106117d0576117cf612c56565b5b60200260200101819052505b611a4f565b60016000828152602001908152602001600020604051806101a00160405290816000820154815260200160018201805461181a90612c24565b80601f016020809104026020016040519081016040528092919081815260200182805461184690612c24565b80156118935780601f1061186857610100808354040283529160200191611893565b820191906000526020600020905b81548152906001019060200180831161187657829003601f168201915b50505050508152602001600282015481526020016003820160009054906101000a900473ffffffffffffffffffffffffffffffffffffffff1673ffffffffffffffffffffffffffffffffffffffff1673ffffffffffffffffffffffffffffffffffffffff1681526020016004820160009054906101000a900473ffffffffffffffffffffffffffffffffffffffff1673ffffffffffffffffffffffffffffffffffffffff1673ffffffffffffffffffffffffffffffffffffffff16815260200160058201548152602001600682015481526020016007820160009054906101000a900473ffffffffffffffffffffffffffffffffffffffff1673ffffffffffffffffffffffffffffffffffffffff1673ffffffffffffffffffffffffffffffffffffffff1681526020016008820154815260200160098201548152602001600a820160009054906101000a900460ff16151515158152602001600b8201548152602001600c820160009054906101000a900460ff166001811115611a1a57611a1961258e565b5b6001811115611a2c57611a2b61258e565b5b81525050828281518110611a4357611a42612c56565b5b60200260200101819052505b80611a5990612cb4565b9050611536565b5080915050919050565b60005b600054811015611acd5760016000828152602001908152602001600020600a0160009054906101000a900460ff16158015611aad5750611aac81612157565b5b15611abc57611abb8161026a565b5b80611ac690612cb4565b9050611a6d565b50565b611ad86121ed565b60016000838152602001908152602001600020604051806101a001604052908160008201548152602001600182018054611b1190612c24565b80601f0160208091040260200160405190810160405280929190818152602001828054611b3d90612c24565b8015611b8a5780601f10611b5f57610100808354040283529160200191611b8a565b820191906000526020600020905b815481529060010190602001808311611b6d57829003601f168201915b50505050508152602001600282015481526020016003820160009054906101000a900473ffffffffffffffffffffffffffffffffffffffff1673ffffffffffffffffffffffffffffffffffffffff1673ffffffffffffffffffffffffffffffffffffffff1681526020016004820160009054906101000a900473ffffffffffffffffffffffffffffffffffffffff1673ffffffffffffffffffffffffffffffffffffffff1673ffffffffffffffffffffffffffffffffffffffff16815260200160058201548152602001600682015481526020016007820160009054906101000a900473ffffffffffffffffffffffffffffffffffffffff1673ffffffffffffffffffffffffffffffffffffffff1673ffffffffffffffffffffffffffffffffffffffff1681526020016008820154815260200160098201548152602001600a820160009054906101000a900460ff16151515158152602001600b8201548152602001600c820160009054906101000a900460ff166001811115611d1157611d1061258e565b5b6001811115611d2357611d2261258e565b5b815250509050919050565b60008183611d3c9190612fbc565b905092915050565b611d4c6121ed565b600060016000848152602001908152602001600020604051806101a001604052908160008201548152602001600182018054611d8790612c24565b80601f0160208091040260200160405190810160405280929190818152602001828054611db390612c24565b8015611e005780601f10611dd557610100808354040283529160200191611e00565b820191906000526020600020905b815481529060010190602001808311611de357829003601f168201915b50505050508152602001600282015481526020016003820160009054906101000a900473ffffffffffffffffffffffffffffffffffffffff1673ffffffffffffffffffffffffffffffffffffffff1673ffffffffffffffffffffffffffffffffffffffff1681526020016004820160009054906101000a900473ffffffffffffffffffffffffffffffffffffffff1673ffffffffffffffffffffffffffffffffffffffff1673ffffffffffffffffffffffffffffffffffffffff16815260200160058201548152602001600682015481526020016007820160009054906101000a900473ffffffffffffffffffffffffffffffffffffffff1673ffffffffffffffffffffffffffffffffffffffff1673ffffffffffffffffffffffffffffffffffffffff1681526020016008820154815260200160098201548152602001600a820160009054906101000a900460ff16151515158152602001600b8201548152602001600c820160009054906101000a900460ff166001811115611f8757611f8661258e565b5b6001811115611f9957611f9861258e565b5b81525050905060008160a001511415611fe7576040517f607be5dc000000000000000000000000000000000000000000000000000000008152600401611fde9061305e565b60405180910390fd5b80915050919050565b60008183611ffe919061307e565b905092915050565b600081836120149190613107565b905092915050565b600080600081548092919061203090612cb4565b91905055905090565b60008060005b838054905081101561208e578484828154811061205f5761205e612c56565b5b9060005260206000200154141561207d578060019250925050612097565b8061208790612cb4565b905061203f565b50600080915091505b9250929050565b808054905082106120ae57612153565b60008290505b600182805490506120c59190613138565b81101561212a57816001826120da9190612fbc565b815481106120eb576120ea612c56565b5b906000526020600020015482828154811061210957612108612c56565b5b9060005260206000200181905550808061212290612cb4565b9150506120b4565b508080548061213c5761213b61316c565b5b600190038181906000526020600020016000905590555b5050565b600060016000838152602001908152602001600020600a0160009054906101000a900460ff161580156121a157506000600160008481526020019081526020016000206005015414155b80156121c457506000600160008481526020019081526020016000206006015414155b80156121e6575042600160008481526020019081526020016000206009015411155b9050919050565b604051806101a00160405280600081526020016060815260200160008152602001600073ffffffffffffffffffffffffffffffffffffffff168152602001600073ffffffffffffffffffffffffffffffffffffffff1681526020016000815260200160008152602001600073ffffffffffffffffffffffffffffffffffffffff168152602001600081526020016000815260200160001515815260200160008152602001600060018111156122a5576122a461258e565b5b81525090565b8280546122b790612c24565b90600052602060002090601f0160209004810192826122d95760008555612320565b82601f106122f257805160ff1916838001178555612320565b82800160010185558215612320579182015b8281111561231f578251825591602001919060010190612304565b5b50905061232d9190612371565b5090565b50805461233d90612c24565b6000825580601f1061234f575061236e565b601f01602090049060005260206000209081019061236d9190612371565b5b50565b5b8082111561238a576000816000905550600101612372565b5090565b6000604051905090565b600080fd5b600080fd5b6000819050919050565b6123b5816123a2565b81146123c057600080fd5b50565b6000813590506123d2816123ac565b92915050565b6000602082840312156123ee576123ed612398565b5b60006123fc848285016123c3565b91505092915050565b600073ffffffffffffffffffffffffffffffffffffffff82169050919050565b600061243082612405565b9050919050565b61244081612425565b811461244b57600080fd5b50565b60008135905061245d81612437565b92915050565b60006020828403121561247957612478612398565b5b60006124878482850161244e565b91505092915050565b600081519050919050565b600082825260208201905092915050565b6000819050602082019050919050565b6124c5816123a2565b82525050565b600081519050919050565b600082825260208201905092915050565b60005b838110156125055780820151818401526020810190506124ea565b83811115612514576000848401525b50505050565b6000601f19601f8301169050919050565b6000612536826124cb565b61254081856124d6565b93506125508185602086016124e7565b6125598161251a565b840191505092915050565b61256d81612425565b82525050565b60008115159050919050565b61258881612573565b82525050565b7f4e487b7100000000000000000000000000000000000000000000000000000000600052602160045260246000fd5b600281106125ce576125cd61258e565b5b50565b60008190506125df826125bd565b919050565b60006125ef826125d1565b9050919050565b6125ff816125e4565b82525050565b60006101a08301600083015161261e60008601826124bc565b5060208301518482036020860152612636828261252b565b915050604083015161264b60408601826124bc565b50606083015161265e6060860182612564565b5060808301516126716080860182612564565b5060a083015161268460a08601826124bc565b5060c083015161269760c08601826124bc565b5060e08301516126aa60e0860182612564565b506101008301516126bf6101008601826124bc565b506101208301516126d46101208601826124bc565b506101408301516126e961014086018261257f565b506101608301516126fe6101608601826124bc565b506101808301516127136101808601826125f6565b508091505092915050565b600061272a8383612605565b905092915050565b6000602082019050919050565b600061274a82612490565b612754818561249b565b935083602082028501612766856124ac565b8060005b858110156127a25784840389528151612783858261271e565b945061278e83612732565b925060208a0199505060018101905061276a565b50829750879550505050505092915050565b600060208201905081810360008301526127ce818461273f565b905092915050565b600080fd5b600080fd5b7f4e487b7100000000000000000000000000000000000000000000000000000000600052604160045260246000fd5b6128188261251a565b810181811067ffffffffffffffff82111715612837576128366127e0565b5b80604052505050565b600061284a61238e565b9050612856828261280f565b919050565b600067ffffffffffffffff821115612876576128756127e0565b5b61287f8261251a565b9050602081019050919050565b82818337600083830152505050565b60006128ae6128a98461285b565b612840565b9050828152602081018484840111156128ca576128c96127db565b5b6128d584828561288c565b509392505050565b600082601f8301126128f2576128f16127d6565b5b813561290284826020860161289b565b91505092915050565b6002811061291857600080fd5b50565b60008135905061292a8161290b565b92915050565b60008060008060008060c0878903121561294d5761294c612398565b5b600087013567ffffffffffffffff81111561296b5761296a61239d565b5b61297789828a016128dd565b965050602061298889828a016123c3565b955050604061299989828a016123c3565b94505060606129aa89828a0161244e565b93505060806129bb89828a016123c3565b92505060a06129cc89828a0161291b565b9150509295509295509295565b6129e281612573565b82525050565b60006020820190506129fd60008301846129d9565b92915050565b6000819050919050565b612a1681612a03565b82525050565b6000602082019050612a316000830184612a0d565b92915050565b612a40816123a2565b82525050565b6000602082019050612a5b6000830184612a37565b92915050565b612a6a81612573565b8114612a7557600080fd5b50565b600081359050612a8781612a61565b92915050565b600060208284031215612aa357612aa2612398565b5b6000612ab184828501612a78565b91505092915050565b60006101a083016000830151612ad360008601826124bc565b5060208301518482036020860152612aeb828261252b565b9150506040830151612b0060408601826124bc565b506060830151612b136060860182612564565b506080830151612b266080860182612564565b5060a0830151612b3960a08601826124bc565b5060c0830151612b4c60c08601826124bc565b5060e0830151612b5f60e0860182612564565b50610100830151612b746101008601826124bc565b50610120830151612b896101208601826124bc565b50610140830151612b9e61014086018261257f565b50610160830151612bb36101608601826124bc565b50610180830151612bc86101808601826125f6565b508091505092915050565b60006020820190508181036000830152612bed8184612aba565b905092915050565b7f4e487b7100000000000000000000000000000000000000000000000000000000600052602260045260246000fd5b60006002820490506001821680612c3c57607f821691505b60208210811415612c5057612c4f612bf5565b5b50919050565b7f4e487b7100000000000000000000000000000000000000000000000000000000600052603260045260246000fd5b7f4e487b7100000000000000000000000000000000000000000000000000000000600052601160045260246000fd5b6000612cbf826123a2565b91507fffffffffffffffffffffffffffffffffffffffffffffffffffffffffffffffff821415612cf257612cf1612c85565b5b600182019050919050565b600082825260208201905092915050565b7f4163657074206572726f72000000000000000000000000000000000000000000600082015250565b6000612d44600b83612cfd565b9150612d4f82612d0e565b602082019050919050565b60006020820190508181036000830152612d7381612d37565b9050919050565b7f496e73756666696369656e742066756e64730000000000000000000000000000600082015250565b6000612db0601283612cfd565b9150612dbb82612d7a565b602082019050919050565b60006020820190508181036000830152612ddf81612da3565b9050919050565b7f596f752073686f756c642061747461636820736f6d65204465706f7369740000600082015250565b6000612e1c601e83612cfd565b9150612e2782612de6565b602082019050919050565b60006020820190508181036000830152612e4b81612e0f565b9050919050565b7f596f752063616e27742072656d6f7665204368616c6c656e6765000000000000600082015250565b6000612e88601a83612cfd565b9150612e9382612e52565b602082019050919050565b60006020820190508181036000830152612eb781612e7b565b9050919050565b600069ffffffffffffffffffff82169050919050565b612edd81612ebe565b8114612ee857600080fd5b50565b600081519050612efa81612ed4565b92915050565b612f0981612a03565b8114612f1457600080fd5b50565b600081519050612f2681612f00565b92915050565b600081519050612f3b816123ac565b92915050565b600080600080600060a08688031215612f5d57612f5c612398565b5b6000612f6b88828901612eeb565b9550506020612f7c88828901612f17565b9450506040612f8d88828901612f2c565b9350506060612f9e88828901612f2c565b9250506080612faf88828901612eeb565b9150509295509295909350565b6000612fc7826123a2565b9150612fd2836123a2565b9250827fffffffffffffffffffffffffffffffffffffffffffffffffffffffffffffffff0382111561300757613006612c85565b5b828201905092915050565b7f4974656d206e6f7420666f756e64000000000000000000000000000000000000600082015250565b6000613048600e83612cfd565b915061305382613012565b602082019050919050565b600060208201905081810360008301526130778161303b565b9050919050565b6000613089826123a2565b9150613094836123a2565b9250817fffffffffffffffffffffffffffffffffffffffffffffffffffffffffffffffff04831182151516156130cd576130cc612c85565b5b828202905092915050565b7f4e487b7100000000000000000000000000000000000000000000000000000000600052601260045260246000fd5b6000613112826123a2565b915061311d836123a2565b92508261312d5761312c6130d8565b5b828204905092915050565b6000613143826123a2565b915061314e836123a2565b92508282101561316157613160612c85565b5b828203905092915050565b7f4e487b7100000000000000000000000000000000000000000000000000000000600052603160045260246000fdfea26469706673582212206f005aae19301f5ac161302307b3a9e6404888012439383f003ba5aa80022ed364736f6c634300080c0033",
  "linkReferences": {},
  "deployedLinkReferences": {}
}