{
  "_format": "hh-sol-artifact-1",
  "contractName": "Test",
  "sourceName": "smart_contract/contracts/Test.sol",
  "abi": [
    {
      "inputs": [],
      "name": "CalldataMustHaveValidPayload",
      "type": "error"
    },
    {
      "inputs": [],
      "name": "CalldataOverOrUnderFlow",
      "type": "error"
    },
    {
      "inputs": [],
      "name": "CanNotPickMedianOfEmptyArray",
      "type": "error"
    },
    {
      "inputs": [],
      "name": "EachSignerMustProvideTheSameValue",
      "type": "error"
    },
    {
      "inputs": [],
      "name": "EmptyCalldataPointersArr",
      "type": "error"
    },
    {
      "inputs": [],
      "name": "IncorrectUnsignedMetadataSize",
      "type": "error"
    },
    {
      "inputs": [
        {
          "internalType": "uint256",
          "name": "receivedSignersCount",
          "type": "uint256"
        },
        {
          "internalType": "uint256",
          "name": "requiredSignersCount",
          "type": "uint256"
        }
      ],
      "name": "InsufficientNumberOfUniqueSigners",
      "type": "error"
    },
    {
      "inputs": [],
      "name": "InvalidCalldataPointer",
      "type": "error"
    },
    {
      "inputs": [
        {
          "internalType": "address",
          "name": "receivedSigner",
          "type": "address"
        }
      ],
      "name": "SignerNotAuthorised",
      "type": "error"
    },
    {
      "inputs": [
        {
          "internalType": "uint256",
          "name": "receivedTimestampSeconds",
          "type": "uint256"
        },
        {
          "internalType": "uint256",
          "name": "blockTimestamp",
          "type": "uint256"
        }
      ],
      "name": "TimestampFromTooLongFuture",
      "type": "error"
    },
    {
      "inputs": [
        {
          "internalType": "uint256",
          "name": "receivedTimestampSeconds",
          "type": "uint256"
        },
        {
          "internalType": "uint256",
          "name": "blockTimestamp",
          "type": "uint256"
        }
      ],
      "name": "TimestampIsTooOld",
      "type": "error"
    },
    {
      "inputs": [
        {
          "internalType": "uint256[]",
          "name": "values",
          "type": "uint256[]"
        }
      ],
      "name": "aggregateValues",
      "outputs": [
        {
          "internalType": "uint256",
          "name": "",
          "type": "uint256"
        }
      ],
      "stateMutability": "view",
      "type": "function"
    },
    {
      "inputs": [
        {
          "internalType": "address",
          "name": "signerAddress",
          "type": "address"
        }
      ],
      "name": "getAuthorisedSignerIndex",
      "outputs": [
        {
          "internalType": "uint8",
          "name": "",
          "type": "uint8"
        }
      ],
      "stateMutability": "view",
      "type": "function"
    },
    {
      "inputs": [
        {
          "internalType": "bytes",
          "name": "redstonePayload",
          "type": "bytes"
        },
        {
          "internalType": "bytes32",
          "name": "assetDataFeedId",
          "type": "bytes32"
        }
      ],
      "name": "getLatestPrice",
      "outputs": [
        {
          "internalType": "uint256",
          "name": "",
          "type": "uint256"
        }
      ],
      "stateMutability": "view",
      "type": "function"
    },
    {
      "inputs": [],
      "name": "getUniqueSignersThreshold",
      "outputs": [
        {
          "internalType": "uint8",
          "name": "",
          "type": "uint8"
        }
      ],
      "stateMutability": "view",
      "type": "function"
    },
    {
      "inputs": [
        {
          "internalType": "bytes32",
          "name": "assetId",
          "type": "bytes32"
        }
      ],
      "name": "proxyRequestToBaseContract",
      "outputs": [
        {
          "internalType": "uint256",
          "name": "",
          "type": "uint256"
        }
      ],
      "stateMutability": "view",
      "type": "function"
    },
    {
      "inputs": [
        {
          "internalType": "uint256",
          "name": "receivedTimestampMilliseconds",
          "type": "uint256"
        }
      ],
      "name": "validateTimestamp",
      "outputs": [],
      "stateMutability": "view",
      "type": "function"
    }
  ],
  "bytecode": "0x608060405234801561001057600080fd5b50611b39806100206000396000f3fe608060405234801561001057600080fd5b50600436106100625760003560e01c806302c323d6146100675780633ce142f5146100975780637ce0533e146100c7578063b24ebfcc146100f7578063f50b2efe14610127578063f90c492414610143575b600080fd5b610081600480360381019061007c9190611511565b610161565b60405161008e9190611705565b60405180910390f35b6100b160048036038101906100ac91906114a7565b610173565b6040516100be9190611749565b60405180910390f35b6100e160048036038101906100dc919061153a565b610208565b6040516100ee9190611705565b60405180910390f35b610111600480360381019061010c91906114d0565b610355565b60405161011e9190611705565b60405180910390f35b610141600480360381019061013c9190611592565b610367565b005b61014b610373565b6040516101589190611749565b60405180910390f35b600061016c8261037c565b9050919050565b6000730c39486f770b26f5527bbbf942726537986cd7eb73ffffffffffffffffffffffffffffffffffffffff168273ffffffffffffffffffffffffffffffffffffffff1614156101c65760009050610203565b816040517fec459bc00000000000000000000000000000000000000000000000000000000081526004016101fa919061168a565b60405180910390fd5b919050565b6000808260405160240161021c91906116a5565b6040516020818303038152906040527f02c323d6000000000000000000000000000000000000000000000000000000007bffffffffffffffffffffffffffffffffffffffffffffffffffffffff19166020820180517bffffffffffffffffffffffffffffffffffffffffffffffffffffffff8381831617835250505050905060008186866040516020016102b293929190611664565b60405160208183030381529060405290506000803073ffffffffffffffffffffffffffffffffffffffff16836040516102eb919061164d565b600060405180830381855afa9150503d8060008114610326576040519150601f19603f3d011682016040523d82523d6000602084013e61032b565b606091505b509150915060008261033f57815182602001fd5b6020820151905080955050505050509392505050565b60006103608261048a565b9050919050565b6103708161049c565b50565b60006001905090565b600080600167ffffffffffffffff8111156103c0577f4e487b7100000000000000000000000000000000000000000000000000000000600052604160045260246000fd5b6040519080825280602002602001820160405280156103ee5781602001602082028036833780820191505090505b509050828160008151811061042c577f4e487b7100000000000000000000000000000000000000000000000000000000600052603260045260246000fd5b60200260200101818152505061044181610566565b60008151811061047a577f4e487b7100000000000000000000000000000000000000000000000000000000600052603260045260246000fd5b6020026020010151915050919050565b600061049582610578565b9050919050565b60006103e8826104ac9190611821565b90508042101561050e57603c42826104c491906118ac565b11156105095780426040517fb6b0916d000000000000000000000000000000000000000000000000000000008152600401610500929190611720565b60405180910390fd5b610562565b60b4814261051c91906118ac565b11156105615780426040517f0321d0b5000000000000000000000000000000000000000000000000000000008152600401610558929190611720565b60405180910390fd5b5b5050565b6060610571826106e0565b9050919050565b600080825114156105b5576040517f9e198af900000000000000000000000000000000000000000000000000000000815260040160405180910390fd5b6105be826109ad565b6000600283516105ce9190611821565b90506000600284516105e091906119ef565b141561069657600061067e846001846105f991906118ac565b81518110610630577f4e487b7100000000000000000000000000000000000000000000000000000000600052603260045260246000fd5b6020026020010151858481518110610671577f4e487b7100000000000000000000000000000000000000000000000000000000600052603260045260246000fd5b6020026020010151610a00565b905060028161068d9190611821565b925050506106db565b8281815181106106cf577f4e487b7100000000000000000000000000000000000000000000000000000000600052603260045260246000fd5b60200260200101519150505b919050565b60606000825167ffffffffffffffff811115610725577f4e487b7100000000000000000000000000000000000000000000000000000000600052604160045260246000fd5b6040519080825280602002602001820160405280156107535781602001602082028036833780820191505090505b5090506000835167ffffffffffffffff811115610799577f4e487b7100000000000000000000000000000000000000000000000000000000600052604160045260246000fd5b6040519080825280602002602001820160405280156107c75781602001602082028036833780820191505090505b5090506000845167ffffffffffffffff81111561080d577f4e487b7100000000000000000000000000000000000000000000000000000000600052604160045260246000fd5b60405190808252806020026020018201604052801561084057816020015b606081526020019060019003908161082b5790505b50905060005b855181101561091f57610857610373565b60ff1667ffffffffffffffff811115610899577f4e487b7100000000000000000000000000000000000000000000000000000000600052604160045260246000fd5b6040519080825280602002602001820160405280156108c75781602001602082028036833780820191505090505b50828281518110610901577f4e487b7100000000000000000000000000000000000000000000000000000000600052603260045260246000fd5b60200260200101819052508080610917906119a6565b915050610846565b50600061092a610a16565b9050600061093782610b27565b61ffff16905060028261094a91906117cb565b91506000604051905060005b8281101561099557600061096d8a89898989610b83565b9050808561097b91906117cb565b94508260405250808061098d906119a6565b915050610956565b506109a08487610fac565b9650505050505050919050565b805160208201602082028101815b818110156109f957825b818110156109ed5781518151808210156109e0578084528183525b50506020810190506109c5565b506020810190506109bb565b5050505050565b60008183610a0e91906117cb565b905092915050565b60008060203603356602ed57011e000081166602ed57011e00001491505080610a6b576040517fe7764c9e00000000000000000000000000000000000000000000000000000000815260040160405180910390fd5b60008036905060291115610aab576040517f5796f78a00000000000000000000000000000000000000000000000000000000815260040160405180910390fd5b602936033590506000600960038362ffffff16610ac891906117cb565b610ad291906117cb565b90506000369050600282610ae691906117cb565b1115610b1e576040517fc30a7bd700000000000000000000000000000000000000000000000000000000815260040160405180910390fd5b80935050505090565b600080602083610b3791906117cb565b90506000369050811115610b77576040517f5796f78a00000000000000000000000000000000000000000000000000000000815260040160405180910390fd5b80360335915050919050565b600080600080610b92856111b7565b91509150600080600060606000600d610bc0602088610bb191906117cb565b8961122d90919063ffffffff16565b610bca91906117cb565b90506000610bf160688c610bde91906117cb565b600036905061124390919063ffffffff16565b90506000610c238360418e610c0691906117cb565b610c1091906117cb565b600036905061124390919063ffffffff16565b9050610c2f8382610c5d565b9350826020850120945081359650610c79565b60006040519050818152602081019050818101604052919050565b6000610c6883610c42565b838382376020810391505092915050565b610c8a8765ffffffffffff16610367565b610ca08560418e610c9b91906117cb565b611259565b9550610cab86610173565b60ff1699505050505050505060008060005b84811015610f7757610cd08885836112d8565b809350819450505060005b8c51811015610f63578c8181518110610d1d577f4e487b7100000000000000000000000000000000000000000000000000000000600052603260045260246000fd5b6020026020010151841415610f505760008b8281518110610d67577f4e487b7100000000000000000000000000000000000000000000000000000000600052603260045260246000fd5b60200260200101519050610d7b818961135e565b158015610dd15750610d8b610373565b60ff168d8381518110610dc7577f4e487b7100000000000000000000000000000000000000000000000000000000600052603260045260246000fd5b6020026020010151105b15610f4a578c8281518110610e0f577f4e487b7100000000000000000000000000000000000000000000000000000000600052603260045260246000fd5b602002602001018051809190610e24906119a6565b81525050838b8381518110610e62577f4e487b7100000000000000000000000000000000000000000000000000000000600052603260045260246000fd5b602002602001015160018f8581518110610ea5577f4e487b7100000000000000000000000000000000000000000000000000000000600052603260045260246000fd5b6020026020010151610eb791906118ac565b81518110610eee577f4e487b7100000000000000000000000000000000000000000000000000000000600052603260045260246000fd5b602002602001018181525050610f048189611377565b8c8381518110610f3d577f4e487b7100000000000000000000000000000000000000000000000000000000600052603260045260246000fd5b6020026020010181815250505b50610f63565b8080610f5b906119a6565b915050610cdb565b508080610f6f906119a6565b915050610cbd565b50505081602082610f8891906117cb565b610f929190611852565b604e610f9e91906117cb565b935050505095945050505050565b60606000835167ffffffffffffffff811115610ff1577f4e487b7100000000000000000000000000000000000000000000000000000000600052604160045260246000fd5b60405190808252806020026020018201604052801561101f5781602001602082028036833780820191505090505b509050600061102c610373565b60ff16905060005b85518110156111ab5781858281518110611077577f4e487b7100000000000000000000000000000000000000000000000000000000600052603260045260246000fd5b60200260200101511015611104578481815181106110be577f4e487b7100000000000000000000000000000000000000000000000000000000600052603260045260246000fd5b6020026020010151826040517f2b13aef50000000000000000000000000000000000000000000000000000000081526004016110fb929190611720565b60405180910390fd5b600061114f878381518110611142577f4e487b7100000000000000000000000000000000000000000000000000000000600052603260045260246000fd5b6020026020010151610355565b90508084838151811061118b577f4e487b7100000000000000000000000000000000000000000000000000000000600052603260045260246000fd5b6020026020010181815250505080806111a3906119a6565b915050611034565b50819250505092915050565b60008060008060006041866111cc91906117cb565b905060006111f36020836111e091906117cb565b600036905061124390919063ffffffff16565b90508035935061120d60038261124390919063ffffffff16565b9050803592508362ffffff1695508263ffffffff16945050505050915091565b6000818361123b9190611852565b905092915050565b6000818361125191906118ac565b905092915050565b6000806000808436038035935060208101905080359250602081019050803560001a915050600186828585604051600081526020016040526040516112a194939291906116c0565b6020604051602081039080840390855afa1580156112c3573d6000803e3d6000fd5b50505060206040510351935050505092915050565b6000806000604e866112ea91906117cb565b9050600061132b61131c60208861130191906117cb565b87600161130e91906117cb565b61122d90919063ffffffff16565b83610a0090919063ffffffff16565b9050600061134682600036905061124390919063ffffffff16565b90508035945060208101359350505050935093915050565b600080826001901b841690506000811191505092915050565b6000816001901b8317905092915050565b600061139b61139684611789565b611764565b905080838252602082019050828560208602820111156113ba57600080fd5b60005b858110156113ea57816113d08882611492565b8452602084019350602083019250506001810190506113bd565b5050509392505050565b60008135905061140381611abe565b92915050565b600082601f83011261141a57600080fd5b813561142a848260208601611388565b91505092915050565b60008135905061144281611ad5565b92915050565b60008083601f84011261145a57600080fd5b8235905067ffffffffffffffff81111561147357600080fd5b60208301915083600182028301111561148b57600080fd5b9250929050565b6000813590506114a181611aec565b92915050565b6000602082840312156114b957600080fd5b60006114c7848285016113f4565b91505092915050565b6000602082840312156114e257600080fd5b600082013567ffffffffffffffff8111156114fc57600080fd5b61150884828501611409565b91505092915050565b60006020828403121561152357600080fd5b600061153184828501611433565b91505092915050565b60008060006040848603121561154f57600080fd5b600084013567ffffffffffffffff81111561156957600080fd5b61157586828701611448565b9350935050602061158886828701611433565b9150509250925092565b6000602082840312156115a457600080fd5b60006115b284828501611492565b91505092915050565b6115c4816118e0565b82525050565b6115d3816118f2565b82525050565b60006115e583856117c0565b93506115f2838584611933565b82840190509392505050565b6000611609826117b5565b61161381856117c0565b9350611623818560208601611942565b80840191505092915050565b6116388161191c565b82525050565b61164781611926565b82525050565b600061165982846115fe565b915081905092915050565b600061167082866115fe565b915061167d8284866115d9565b9150819050949350505050565b600060208201905061169f60008301846115bb565b92915050565b60006020820190506116ba60008301846115ca565b92915050565b60006080820190506116d560008301876115ca565b6116e2602083018661163e565b6116ef60408301856115ca565b6116fc60608301846115ca565b95945050505050565b600060208201905061171a600083018461162f565b92915050565b6000604082019050611735600083018561162f565b611742602083018461162f565b9392505050565b600060208201905061175e600083018461163e565b92915050565b600061176e61177f565b905061177a8282611975565b919050565b6000604051905090565b600067ffffffffffffffff8211156117a4576117a3611a7e565b5b602082029050602081019050919050565b600081519050919050565b600081905092915050565b60006117d68261191c565b91506117e18361191c565b9250827fffffffffffffffffffffffffffffffffffffffffffffffffffffffffffffffff0382111561181657611815611a20565b5b828201905092915050565b600061182c8261191c565b91506118378361191c565b92508261184757611846611a4f565b5b828204905092915050565b600061185d8261191c565b91506118688361191c565b9250817fffffffffffffffffffffffffffffffffffffffffffffffffffffffffffffffff04831182151516156118a1576118a0611a20565b5b828202905092915050565b60006118b78261191c565b91506118c28361191c565b9250828210156118d5576118d4611a20565b5b828203905092915050565b60006118eb826118fc565b9050919050565b6000819050919050565b600073ffffffffffffffffffffffffffffffffffffffff82169050919050565b6000819050919050565b600060ff82169050919050565b82818337600083830152505050565b60005b83811015611960578082015181840152602081019050611945565b8381111561196f576000848401525b50505050565b61197e82611aad565b810181811067ffffffffffffffff8211171561199d5761199c611a7e565b5b80604052505050565b60006119b18261191c565b91507fffffffffffffffffffffffffffffffffffffffffffffffffffffffffffffffff8214156119e4576119e3611a20565b5b600182019050919050565b60006119fa8261191c565b9150611a058361191c565b925082611a1557611a14611a4f565b5b828206905092915050565b7f4e487b7100000000000000000000000000000000000000000000000000000000600052601160045260246000fd5b7f4e487b7100000000000000000000000000000000000000000000000000000000600052601260045260246000fd5b7f4e487b7100000000000000000000000000000000000000000000000000000000600052604160045260246000fd5b6000601f19601f8301169050919050565b611ac7816118e0565b8114611ad257600080fd5b50565b611ade816118f2565b8114611ae957600080fd5b50565b611af58161191c565b8114611b0057600080fd5b5056fea2646970667358221220abfb1552f2f9bf9b066b3d838d14837da5a0123090a3737b6f2ba87d8cd6122a64736f6c63430008040033",
  "linkReferences": {},
  "deployedLinkReferences": {}
}