{
  "_format": "hh-sol-artifact-1",
  "contractName": "Verification",
  "sourceName": "smart_contract/contracts/Verification.sol",
  "abi": [
    {
      "inputs": [
        {
          "internalType": "uint256",
          "name": "",
          "type": "uint256"
        }
      ],
      "name": "bla",
      "outputs": [
        {
          "internalType": "uint256",
          "name": "",
          "type": "uint256"
        }
      ],
      "stateMutability": "view",
      "type": "function"
    },
    {
      "inputs": [
        {
          "internalType": "bytes32",
          "name": "hash",
          "type": "bytes32"
        },
        {
          "internalType": "bytes",
          "name": "signature",
          "type": "bytes"
        }
      ],
      "name": "recover",
      "outputs": [
        {
          "internalType": "address",
          "name": "",
          "type": "address"
        }
      ],
      "stateMutability": "pure",
      "type": "function"
    },
    {
      "inputs": [
        {
          "internalType": "bytes32",
          "name": "hash",
          "type": "bytes32"
        },
        {
          "internalType": "bytes",
          "name": "_signature",
          "type": "bytes"
        }
      ],
      "name": "recover2",
      "outputs": [
        {
          "internalType": "address",
          "name": "",
          "type": "address"
        }
      ],
      "stateMutability": "view",
      "type": "function"
    }
  ],
  "bytecode": "0x608060405234801561001057600080fd5b50610b5e806100206000396000f3fe608060405234801561001057600080fd5b50600436106100415760003560e01c806319045a25146100465780634176756e14610076578063f9a92602146100a6575b600080fd5b610060600480360381019061005b91906106d1565b6100d6565b60405161006d919061076e565b60405180910390f35b610090600480360381019061008b91906107bf565b6101a9565b60405161009d91906107fb565b60405180910390f35b6100c060048036038101906100bb91906106d1565b6101cd565b6040516100cd919061076e565b60405180910390f35b60008060008060418551146100f157600093505050506101a3565b6020850151925060408501519150606085015160001a9050601b8160ff16101561012557601b816101229190610852565b90505b601b8160ff161415801561013d5750601c8160ff1614155b1561014e57600093505050506101a3565b6001868285856040516000815260200160405260405161017194939291906108a7565b6020604051602081039080840390855afa158015610193573d6000803e3d6000fd5b5050506020604051035193505050505b92915050565b600081815481106101b957600080fd5b906000526020600020016000915090505481565b6000806101da84846101e6565b90508091505092915050565b60008060006101f5858561020d565b915091506102028161025f565b819250505092915050565b60008060418351141561024f5760008060006020860151925060408601519150606086015160001a905061024387828585610434565b94509450505050610258565b60006002915091505b9250929050565b60006004811115610273576102726108ec565b5b816004811115610286576102856108ec565b5b141561029157610431565b600160048111156102a5576102a46108ec565b5b8160048111156102b8576102b76108ec565b5b14156102f9576040517f08c379a00000000000000000000000000000000000000000000000000000000081526004016102f090610978565b60405180910390fd5b6002600481111561030d5761030c6108ec565b5b8160048111156103205761031f6108ec565b5b1415610361576040517f08c379a0000000000000000000000000000000000000000000000000000000008152600401610358906109e4565b60405180910390fd5b60036004811115610375576103746108ec565b5b816004811115610388576103876108ec565b5b14156103c9576040517f08c379a00000000000000000000000000000000000000000000000000000000081526004016103c090610a76565b60405180910390fd5b6004808111156103dc576103db6108ec565b5b8160048111156103ef576103ee6108ec565b5b1415610430576040517f08c379a000000000000000000000000000000000000000000000000000000000815260040161042790610b08565b60405180910390fd5b5b50565b6000807f7fffffffffffffffffffffffffffffff5d576e7357a4501ddfe92f46681b20a08360001c111561046f576000600391509150610538565b601b8560ff16141580156104875750601c8560ff1614155b15610499576000600491509150610538565b6000600187878787604051600081526020016040526040516104be94939291906108a7565b6020604051602081039080840390855afa1580156104e0573d6000803e3d6000fd5b505050602060405103519050600073ffffffffffffffffffffffffffffffffffffffff168173ffffffffffffffffffffffffffffffffffffffff16141561052f57600060019250925050610538565b80600092509250505b94509492505050565b6000604051905090565b600080fd5b600080fd5b6000819050919050565b61056881610555565b811461057357600080fd5b50565b6000813590506105858161055f565b92915050565b600080fd5b600080fd5b6000601f19601f8301169050919050565b7f4e487b7100000000000000000000000000000000000000000000000000000000600052604160045260246000fd5b6105de82610595565b810181811067ffffffffffffffff821117156105fd576105fc6105a6565b5b80604052505050565b6000610610610541565b905061061c82826105d5565b919050565b600067ffffffffffffffff82111561063c5761063b6105a6565b5b61064582610595565b9050602081019050919050565b82818337600083830152505050565b600061067461066f84610621565b610606565b9050828152602081018484840111156106905761068f610590565b5b61069b848285610652565b509392505050565b600082601f8301126106b8576106b761058b565b5b81356106c8848260208601610661565b91505092915050565b600080604083850312156106e8576106e761054b565b5b60006106f685828601610576565b925050602083013567ffffffffffffffff81111561071757610716610550565b5b610723858286016106a3565b9150509250929050565b600073ffffffffffffffffffffffffffffffffffffffff82169050919050565b60006107588261072d565b9050919050565b6107688161074d565b82525050565b6000602082019050610783600083018461075f565b92915050565b6000819050919050565b61079c81610789565b81146107a757600080fd5b50565b6000813590506107b981610793565b92915050565b6000602082840312156107d5576107d461054b565b5b60006107e3848285016107aa565b91505092915050565b6107f581610789565b82525050565b600060208201905061081060008301846107ec565b92915050565b600060ff82169050919050565b7f4e487b7100000000000000000000000000000000000000000000000000000000600052601160045260246000fd5b600061085d82610816565b915061086883610816565b92508260ff0382111561087e5761087d610823565b5b828201905092915050565b61089281610555565b82525050565b6108a181610816565b82525050565b60006080820190506108bc6000830187610889565b6108c96020830186610898565b6108d66040830185610889565b6108e36060830184610889565b95945050505050565b7f4e487b7100000000000000000000000000000000000000000000000000000000600052602160045260246000fd5b600082825260208201905092915050565b7f45434453413a20696e76616c6964207369676e61747572650000000000000000600082015250565b600061096260188361091b565b915061096d8261092c565b602082019050919050565b6000602082019050818103600083015261099181610955565b9050919050565b7f45434453413a20696e76616c6964207369676e6174757265206c656e67746800600082015250565b60006109ce601f8361091b565b91506109d982610998565b602082019050919050565b600060208201905081810360008301526109fd816109c1565b9050919050565b7f45434453413a20696e76616c6964207369676e6174757265202773272076616c60008201527f7565000000000000000000000000000000000000000000000000000000000000602082015250565b6000610a6060228361091b565b9150610a6b82610a04565b604082019050919050565b60006020820190508181036000830152610a8f81610a53565b9050919050565b7f45434453413a20696e76616c6964207369676e6174757265202776272076616c60008201527f7565000000000000000000000000000000000000000000000000000000000000602082015250565b6000610af260228361091b565b9150610afd82610a96565b604082019050919050565b60006020820190508181036000830152610b2181610ae5565b905091905056fea2646970667358221220096c95fb598aab84c34c9c2aa97f3b6fd363c9bd0f2d6f6c9babea83c0efa60564736f6c634300080c0033",
  "linkReferences": {},
  "deployedLinkReferences": {}
}